:020000040800F2
:1000000050CE0120F5010008FD010008FF010008A5
:1000100001020008030200080502000800000000B9
:1000200000000000000000000000000019020008AD
:100030000902000800000000B1020008C102000827
:100040000F0200080F0200080F0200080F0200084C
:100050000F0200080F0200080F0200080F0200083C
:100060000F0200080F0200080F0200080F0200082C
:100070000F0200080F0200080F0200080F0200081C
:100080000F0200080F0200080F0200080F0200080C
:100090000F0200080F0200080F0200080F020008FC
:1000A0000F0200080F0200080F0200080F020008EC
:1000B0000F0200080F0200080F0200080F020008DC
:1000C0000F0200080F0200080F0200080F020008CC
:1000D0000F0200080F0200080F0200080F020008BC
:1000E0000F0200080F0200080F0200080F020008AC
:1000F0000F0200080F0200080F0200080F0200089C
:100100000F0200080F0200080F0200080F0200088B
:100110000F020008616C00080F0200080F020008BF
:100120000F0200080F0200080F0200080F0200086B
:100130000F020008000000000000000000000000A6
:100140000000000000000000000000000F02000896
:100150000F0200080F0200080F0200084172000899
:100160000F0200080F0200080F0200080F0200082B
:100170000F020008214B00080000000000000000F2
:100180000F0200080F0200080F0200080F0200080B
:100190000F0200080F020008000000000F02000814
:1001A0000000000000000000000000000F02000836
:1001B0000F0200080F02000800000000000000000D
:1001C000000000000000000000000000000000002F
:1001D0000000000000000000000000000F02000806
:1001E000DFF80CD000F0EEF800480047B1B5000889
:1001F00050CE01200648804706480047FEE7FEE74C
:10020000FEE7FEE7FEE7FEE7FEE7FEE7FEE7FEE7C6
:10021000296B0008E10100081EF0040F0CBFEFF38A
:100220000880EFF30980816911F8021C91BB01B5C8
:1002300090E80F10E047BDE800508CE80300244B25
:1002400093E80600914208BF704741B91EF0100FB5
:1002500010D12049086820F0010008600AE02CE96C
:10026000F00F1EF0100F08BF2CED108AC1F838C037
:1002700081F822E01A6092F82210906B61F0FF0E74
:100280001EF0100F08BFB0EC108AB0E8F00F80F33A
:1002900009887047104A13689942FAD801B552F894
:1002A00021C00FC8E047BDE80050CCF800007047FF
:1002B00001B50BF0CBFCBDE80140EFF3098CBEE7C4
:1002C00001B50BF001FFBDE80140EFF3098CB6E783
:1002D0004800012034EF00E04C0701082DE9F05FF1
:1002E0000546002092469B468846064681464024A5
:1002F0001BE0284641464746224600F053F8534645
:100300005A46C01A914110D311461846224600F0B1
:100310003AF82D1A67EB01084F46224601200021CA
:1003200000F031F817EB00094E41201EA4F1010442
:10033000DFDC484631462A464346BDE8F09F40EAA6
:1003400001039B0703D009E008C9121F08C0042A53
:10035000FAD203E011F8013B00F8013B521EF9D23A
:100360007047D2B201E000F8012B491EFBD2704762
:100370000022F6E710B513460A4604461946FFF771
:10038000F0FF204610BD202A04DB203A00FA02F1DB
:10039000002070479140C2F1200320FA03F3194373
:1003A00090407047202A04DB203A21FA02F0002115
:1003B000704721FA02F3D040C2F120029140084375
:1003C00019467047064C074D06E0E06840F001030F
:1003D00094E8070098471034AC42F6D3FFF704FFC7
:1003E000E00B0108000C01082DE9F04F87B0002058
:1003F000CDE9050043F63000C4F202000168002494
:1004000041F001010160C4F20204016802AD01F093
:1004100001010191002201994FF0030A016841F0A6
:1004200002010160016801F0020101910199016876
:1004300041F004010160016801F00401019101999A
:10044000016841F008010160016801F008010191B3
:100450000199016841F010010160016801F010018B
:1004600001910199016841F020010160016801F0EA
:10047000200101910199016841F04001016001688A
:1004800001F0400101910199016841F08001016092
:10049000016801F0800101910199016841F48071C6
:1004A00001602946006800F480700190019849F6C7
:1004B000BD3002902046CDE903A202F081FA43F656
:1004C0003B70029004F580602946009002F078FAB3
:1004D0004EF6FF70029004F50060294602F070FAB3
:1004E0004FF69B7004F5406902904846294602F099
:1004F00067FA4FF6FF70029004F58050294602F02B
:100500005FFA4FF6FF4004F5A0570290384629469F
:1005100002F056FA4BF63F50029004F5C0502946BF
:1005200002F04EFA4FF63C7004F5E0560290304669
:10053000294602F045FA40F6FF70029004F500509B
:10054000294602F03DFA4FF4806002904FF0010B13
:100550004FF00008CDF80CB020462946CDE9048ABA
:1005600002F02EFA4FF0400A1120CDF808A0CDE994
:10057000030B2046294602F023FA4FF40070C4F81A
:1005800018A0CDE9020B3846CDF8108029464FF06F
:10059000000802F015FA4FF48070029038462946A0
:1005A00002F00EFA3046CDF808A0294602F008FA0B
:1005B0000427CDE902780098294602F001FA48465E
:1005C0000297294602F0FCF9802002903046294625
:1005D00002F0F6F9022002902046294602F0F0F9D6
:1005E00007B0BDE8F08F000040F23050C0F60100C7
:1005F00040F24C16446A47F62968C56AC2F2010601
:10060000C2F20108A847800706D400BF0A200BF0F9
:10061000AFF8A8478007F9D53768A0473844716814
:10062000421AB2F5006F03DB7068104415E000BF9A
:10063000012AEBDB70686FF3DF2071686FF3DF2155
:10064000C0F500608242C8BF0246414400200CF061
:10065000BBFD0128DADB716808447060D6E7000052
:1006600002787F2A1AD1F0B581B07F220A704278D1
:10067000002A4A7014D08D1C861C57424FF0021479
:100680003046294600F014F8044406EB10460137C2
:1006900015FA80F5F4D1204601B0F0BD00F008B89D
:1006A0004FF00214204601B0F0BD00000000000031
:1006B0002DE9F04F8DB090F9002007460D46D0B2DD
:1006C000B2F1FF3F08DC9F2806D8384629460DB016
:1006D000BDE8F04F01F0FCBEA84608F8010BBA4691
:1006E0001AF8010B1E2800F24283DFE810F01F0009
:1006F0003D004A00C300D100E600DB02400347038F
:1007000064036F0340034003400340034003790345
:10071000B003C503DF03EE032404400465046F0443
:10072000790483048D049604A0040A059AF8002035
:10073000A91C0020A2F1F0030F2B01F2BA81DFE81F
:1007400013F01000330A520A520A520A520A520A8D
:10075000520A520A520A520A520A520A380A440AE1
:100760004E0A372001F032BA9AF80000012800F052
:10077000F585002840F00A86B87800F0010000F006
:10078000F3BD9AF800000027022880F04A8540F265
:1007900070100C97C2F201000126067140200890EB
:1007A000112040F2100BCDE909060320C4F2020B20
:1007B0000B9008ADABF1100029460790402402F0E1
:1007C000FFF841F2F030CBF808400BEB00094FF492
:1007D000007A48462946CDE908A60A9702F0F0F8C3
:1007E0004FF6080041F61044CFF6FF70C4F2020441
:1007F00044F800A04020A4F1100608903046294695
:1008000002F0DEF84020A06004240BF57C7029463D
:100810004FF0400ACDE9084702F0D2F80BF53F60EF
:100820000894294602F0CCF88020089030462946EA
:1008300002F0C6F802200890032009902946079884
:1008400002F0BEF84FF4807008904846294602F046
:10085000B7F849F200714FF48000C0F24911CBF8AB
:100860000800491EFDD100BF00BFCBF808A001273A
:1008700000F051BD40F27010C2F2010000210125CC
:10088000017188F8001005F101100DB0BDE8F08F7E
:10089000787840F27011C2F201010874012578885D
:1008A000C0F205058882B888C882002088F8000058
:1008B00005F101100DB0BDE8F08F40F27016C2F2E4
:1008C00001063079022800F06385012840F029876D
:1008D00000223270EB1C97F80290FE1CB9F1000F59
:1008E00001F088810020069304900024002000215C
:1008F000B34607911BF8017BB9071AD4002C7AD0B4
:1009000040F270100594C2F20100808AC4430E20A8
:1009100008A904F071FB02285BD1013401F0B48115
:1009200040F27010C2F2010000780028EFD001F010
:10093000ABB9E4B140F27010C2F2010007F011014E
:10094000808A012932D10594C443384608A904F0AD
:1009500053FB022877D1013401F0968140F27010E8
:10096000C2F2010000780028EFD001F08DB9002418
:10097000F90600F1A88040F27016C2F20106B18AB1
:10098000FA075BD1CE43384608A904F035FB0228AC
:1009900040F00C81013601F0798440F27010C2F20F
:1009A000010000780028EED001F070BCC4430E2096
:1009B00008A904F021FB02284AD1013401F0398250
:1009C00040F27010C2F2010000780028EFD001F070
:1009D00030BA0128059C41F02E820898069A1070C2
:1009E000111D0898000A06915070BDF82200907001
:1009F0009DF82300D070D6F80100B90606F1050B6A
:100A0000089013D440F27016C2F20106B08AC443B3
:100A1000384608A904F0F0FA022845D1013401F063
:100A2000088230780028F3D001F003BA40F2701643
:100A3000C2F201060024B0610120F5E0002C00F0B4
:100A40009F800021EFE0059C012805D001F0F3B95B
:100A50000024012841F0EF810898002C069A1070BC
:100A600002F1040108984FEA10205070BDF82200EE
:100A700090709DF82300D0701FD038061ED540F22C
:100A80007010069AC2F20100C068010A5171010C8F
:100A90001071000E917102F10801D07101200691D0
:100AA000F9067FF568AF0EE0012841F012843806A0
:100AB00000F1AB8000240120B4E000240120069165
:100AC000F9067FF558AF40F270110594C2F20101AA
:100AD000C88A06F1050B0290F807D6F801000390CA
:100AE0002DD10E46B08AC443384608A904F084FAD2
:100AF000022805D1013433D030780028F4D02FE01B
:100B000001282ED10898B1690140029800284FF0C1
:100B100001001CBF039A914200F0B38040F27016AE
:100B2000C2F20106307800280298A0F1010002907C
:100B3000D8D00120039A059C91421AD0AAE0888A55
:100B40000E46C4430021384604F056FA022857D115
:100B5000013401F0998030780028F3D001F094B886
:100B600002200899B2691140039A059C914240F015
:100B70009180012841F05F8100200490012053E022
:100B8000CE430021384604F037FA02285BD1013603
:100B900001F04F8140F27010C2F201000078002491
:100BA00000284FF00200ECD001F045B9012841F0D7
:100BB000428138060ED540F27010069AC2F201004A
:100BC000C068010A5170010C1070000E9170111D67
:100BD000D070069108980023069A1070111D08988D
:100BE000000A04935070BDF82200069190709DF8A1
:100BF0002300D070012040F27016C2F2010613E00B
:100C000001283FF46FAF01F040B8F068010A069C7C
:100C1000020C2070030E6170271DA2700120E3708A
:100C2000002406970121049131780029079901F1E8
:100C30000101079141F0FF80B9F101095E467FF49F
:100C400059AE01F063BA012841F04383380604D459
:100C50000020049001200124CDE740F27016069C8C
:100C6000C2F20106F068271D010A2070020C6170B3
:100C7000030EA2700020E370049001200697012467
:100C8000D2E740F27016C2F20106039A059C914227
:100C90003FF46FAF40F01000B9F1000F41F0CF808A
:100CA00001F034BA40F27010C2F20100007902285B
:100CB00000F05485012840F0BD8540F270104FF0DF
:100CC000000BC2F2010080F800B005F10409B87809
:100CD000F97840EA0123002B00F08E873C79A007C9
:100CE00000F18D87CDF818904FF0000B0DF1200921
:100CF00040F270105AF8041FC2F20100808A013BD2
:100D0000CDE90731C6432046494604F075F902286B
:100D10000BD1013600F0BF8740F27010C2F2010023
:100D200000780028EFD000F0B6BF01281CD1079B47
:100D30000BF1010B002BDBD140F27010C2F201006D
:100D4000808AC4430E20002104F056F902280BD1FA
:100D5000013400F0A08740F27010C2F20100007868
:100D600000284FF00200EDD0069901F0BDB8FF2039
:100D700028704FF001100DB0BDE8F08F40F27010F8
:100D8000C2F2010001790125C0F20505022900F037
:100D90006185012940F07485D7F8020008A9089000
:100DA0000020002404F028F988F8004005F1011023
:100DB0000DB0BDE8F08F7878B97840EA0120D821ED
:100DC0004843401EFDD100BF00BFD2E24FF4807007
:100DD000A5F80100022505F101100DB0BDE8F08F66
:100DE000BC787D7814F0010BD7F8036000F0938194
:100DF000E80741F610414FF04000C4F2020108BF7D
:100E00004FF48000886014F0020940F0888114F0EB
:100E1000040A00F0978168074FF6080141F6104276
:100E20004FF48070CFF6FF7158BF4FF08070C4F25E
:100E30000202505014F08000079040F0888110208A
:100E4000002EC4F2020040F08B8100F0B0BFD7F852
:100E50000100002800F068824FF68011C0F237319F
:100E60008842C0F0158540F27010C2F201000121E5
:100E70004171816001F067B87D78B91C002D08BF11
:100E80004FF48075284605F0C3FB4FF4604000EB3B
:100E900045303FFA80F0002100F5803088F80010DE
:100EA000451C05F101100DB0BDE8F08F9AF8000067
:100EB00040F27012C2F2010200F003010131117719
:100EC000C0F3800050770020A2E1002088F80000E5
:100ED0009AF80000002800F02A82BC1C0235C0F1FC
:100EE000000A4FF001084FF0010900BF14F8016B30
:100EF00021462A4616F03F0000F107004FEAD007CE
:100F0000304608BF082702F01FFD09EB070016F066
:100F100080011CBF3D44B8443C441AF1010A00F171
:100F20000109E3D14FEA094048EA000505F1011043
:100F30000DB0BDE8F08F9AF8009040F2701BC2F23D
:100F4000010BB9F1000F8BF81E9000F0A585A9F1F7
:100F5000010CBCF1030F09F0030E80F0AB840025F7
:100F60000023BEF1000F40F0CB8400F0EBBC40F258
:100F70007010C2F201000179022940F048819AF80C
:100F80000010827FC177914280F041810E2002F0F3
:100F900003FA02F035FC00216970010AA870E970BB
:100FA000010C000E297168710525C0F2010505F1DB
:100FB00001100DB0BDE8F08F5046414605F058FDD8
:100FC000054605F101100DB0BDE8F08F50464146D1
:100FD00005F0F2FC054605F101100DB0BDE8F08FFB
:100FE0005046414605F04CFB054605F101100DB099
:100FF000BDE8F08F5046414605F05EFB054605F121
:1010000001100DB0BDE8F08F404605F0FDFC05462F
:1010100005F101100DB0BDE8F08F5046414605F0D6
:101020007FFB054605F101100DB0BDE8F08F4FF0D4
:10103000000B88F800B09AF80000002800F08281C8
:10104000C0F101061020C4F2020041F2F031084460
:10105000BC1C0790023501204FF00108069000BF2C
:1010600014F8017B17F03F0000F107004FEAD00AA7
:1010700008BF4FF0080A17F0800906D04FF400703F
:10108000CDF830B0CDE9080B06E04FF40070CDF894
:1010900030B00890012009900320CDF828B00B90C3
:1010A00008A9079801F08CFC384621462A4603F02F
:1010B00033FF66B1B9F1000F1AD0069808F10108A4
:1010C0005044554406900136012EC9D13EE14FF4FB
:1010D0000070CDF830B008900120CDE9090B032055
:1010E0000B9008A9079801F06BFCB9F1000FE4D14F
:1010F00008EB0A00544400F101080136012EAFD17B
:1011000024E15046414605F0CFFB054605F10110AC
:101110000DB0BDE8F08F14F002093FF478AEA807D7
:101120004FF6080141F610424FF40070CFF6FF7100
:1011300058BF4FF00070C4F20202505014F0040A7D
:101140007FF469AE14F0800007903FF478AEE809B0
:101150000BF0E6FE1020002EC4F2020000F02786FD
:1011600004F02001B1FA81F14A094CF2C061C0F2E9
:101170002D018E4238BF3146D823594305F0E00394
:10118000B3FA83F35B0941F2040E5C4643EA0206BC
:10119000CEF2000E4FEAD51CDEF800306F084FEAA1
:1011A000950B002C86F0010200F0D583B9F1000FF9
:1011B00000F0A084D0F80044C4F38004AC421FD1F6
:1011C00041F61044C4F202042468C4F3C014A742D8
:1011D00016D1BAF1000F09D00468C4F34004BBEB88
:1011E000040418BF0124144301D009E046B1079C50
:1011F000002C1EBF0468C4F38014A44500F0D785FA
:10120000DEF80040E41A8C42D4D300F0D0BDFF20B9
:1012100088F800004FF0011505F101100DB0BDE890
:10122000F08F40F0788040F27010C2F20100022787
:10123000077100200C9040200890112040F2100A05
:101240000990012503200A95C4F2020A0B9008AE0A
:10125000AAF11000314607904FF00009402401F038
:10126000AFFB4FF4007BCAF8084041F2F030CDE903
:1012700008B50AEB0005CDF828902846314601F064
:101280009FFB4FF6080941F61044CFF6FF79C4F2F0
:10129000020444F809B04FF4807B2846CDF820B012
:1012A000314601F08DFBA4F1100544F809B04FF070
:1012B00040092846CDF82090314601F081FBC4F862
:1012C000089004240020089409900AF57C703146A7
:1012D0004FF0400901F074FB0AF53F600894314675
:1012E00001F06EFB802008902846314601F068FB33
:1012F00007983146089701F063FB4FF48000CAF865
:10130000080049F20070C0F24910401EFDD100BF34
:1013100000BFCAF8089088F800704FF0011505F179
:1013200001100DB0BDE8F08FFF2000F016BE4FF0A9
:1013300001084FF4803048EA000505F101100DB0B6
:10134000BDE8F08F01204FF001080690069840EAB2
:10135000084505F101100DB0BDE8F08FB878C00761
:101360004FF0020008BF012040F24011C2F201011B
:1013700008700020012188F80000C0F20501A1F5E5
:10138000403505F101100DB0BDE8F08FFF20F1E709
:101390004FF0000B86F800B005F103097878B17FB3
:1013A000F077884280F09783BC780337002C00F0F8
:1013B00038850020CDF8109005900020052106907A
:1013C00000204FF0000BB946079719F8017B3A4609
:1013D00061F35F02B907CDE9022B19D4069898B3DF
:1013E00005980A2802D00A2001F0D6FFB08AB34639
:1013F000C6430E2008A902F03BFB022865D1013646
:1014000000F009869BF800000028F2D000F003BE2F
:101410000699E1B1B346B68A17F0100001903ED1AB
:10142000059890423BD1F643384608A902F020FBCC
:10143000022840F0BD80013600F01B879BF80000B9
:101440000028F1D000F015BFDDF8109052E0002127
:1014500007F010030691002B00F0D480F08A019071
:10146000059890420798D0F8011000F10500059109
:10147000079002D0029801F08FFFB08A6FEA00094E
:101480000021384602F0F4FA02285CD119F1010972
:1014900000F0E28630780028F2D000F0DDBE05983A
:1014A0000A2802D00A2001F077FFF6430E2008A98F
:1014B00002F0DEFA022877D1013600F0DF869BF8D1
:1014C00000000028F2D000F0D9BE012840F0FF86CD
:1014D00008985E46049A1070000A5070111DBDF8FD
:1014E0002200894690709DF82300D0700A20059054
:1014F000DDF80CB0079AB906D2F8010002F1050236
:10150000089007921AD402980599814202D0029855
:1015100001F042FFB08AB346CDF81090C64338467A
:1015200008A902F0A5FA022872D1013600F0CB8694
:101530009BF800000028F2D000F0C5BE0021B06189
:1015400006910120C7E0012840F01387B08AB34616
:10155000C643384608A902F08BFA022807D10136A3
:1015600000F083809BF800000028F2D07DE0012885
:101570007CD10898DBF818100140019800284FF042
:1015800001001CBF059A914274D09BF800005E4692
:1015900000280198A0F101000190D7D00120059A00
:1015A00091426BD000F08FBF0A2105910021069176
:1015B0000128019B40F0E58608985E46049A107069
:1015C000000A5070BDF822000699907000299DF81D
:1015D000230002F10401D0703CD03806DDF80CB0D5
:1015E0000AD5F068010A049A5171010C1071000EBD
:1015F000917102F10801D07101200491029A002B2F
:101600007FF42CAF069959B14F46DDF8109063E096
:10161000012840F0B086380649D40020069030E01A
:101620000598904202D0029801F0B6FEB08AB34607
:10163000C6430021384602F01BFA022828D10136A1
:1016400000F035879BF8000000284FF00200F0D032
:1016500000F02ABF0020069001200491DDF80CB0B4
:10166000029A002B7FF4FAAECCE702200899DBF84F
:1016700018201140059A914240F02587012840F03A
:101680007C860299012005915E46DDE903B922E0DE
:10169000012840F0098738062DD401210691012048
:1016A00002994F4605915E46DDE903B914E0DBF887
:1016B0000C005E46010A049B020C18705970191D3B
:1016C0009A700022069289460299000E0591D87000
:1016D0000120DDF80CB0079FCDF810900BF1010B45
:1016E0003178002940F0E786013C4FF005017FF496
:1016F0006AAE00F09ABCDBF80C005E46010A049F5B
:10170000020C38707970030EBA700122391D0692EE
:10171000FB704F468946029905910120DDF80CB017
:10172000DAE7B878F91C002800F0698410F00303A8
:10173000A0F1010200F027840E78B7074FF00507EB
:1017400002D5F60658BF0127012B394440F05883D3
:101750001046032AC0F0538400F017BC40F270100A
:101760004FF0000BC2F20100024680F800B09AF878
:1017700000002B1D917FD077884280F0B081B8782F
:10178000F97840EA0126002E00F04F833C79079358
:1017900004F0010006900A3001F0FEFDA00700F100
:1017A00065834FF0000B0DF1200940F270105AF8DC
:1017B000041FC2F201000891808A013E0596C643CB
:1017C0002046494602F054F902280BD1013600F0B8
:1017D000C18540F27010C2F2010000780028EFD0FD
:1017E00000F0B8BD012840F0B685059E0BF1010B55
:1017F000002EDAD1069810B10A2001F0CDFD40F29A
:101800007010C2F20100808AC4430E20002102F051
:101810002FF9022840F09F85013400F09B8540F2AB
:101820007010C2F20100007800284FF00200ECD0E6
:1018300000F091BD0020A5F80100E870032039797F
:10184000890740F15D8340F4802505F101100DB05A
:10185000BDE8F08F9AF80010827FC177914280F046
:101860004181082001F098FDD7F8020002F058FFEE
:10187000002088F8000005F101100DB0BDE8F08FE0
:10188000FF2088F8000005F101100DB0BDE8F08FD1
:101890004FF2FF21C0F26F610144B1FBF0F140F261
:1018A00070120020C2F201020C29507180F05B819D
:1018B000012048E3A9EB0E0A002500237E19B17828
:1018C0000BEB05000BEB450280F820101944138543
:1018D0000435F478AA4580F82140518521443379B4
:1018E00080F8223091851944737980F823300B44B5
:1018F000D185E3D1781900F1010ABEF1000F21D0A2
:101900000BF11E079AF80100791907EB4502887060
:10191000BEF1010F5381034414D0681C9AF80210E1
:101920003A1807EB40009170BEF1020F43810B445F
:1019300008D0A81C9AF803103A1807EB40009170E1
:1019400043810B44BCF1030F6BD20027BEF1000FA3
:1019500040F08480A0E0B9F1000F00F00981BAF1F5
:10196000000F00F09B81E6B141F61042C4F2020282
:101970001268C2F3C01297420DD10268C2F340024E
:10198000934508D1079A002A1EBF0268C2F380124D
:10199000944500F00C82DEF80020D21A8A42E3D38C
:1019A00005E241F61042C4F202021268C2F3C0120C
:1019B000974208BF0268DEF80020D21A8A4280F0FF
:1019C000F68141F61042C4F202021268C2F3C0125C
:1019D000974208BF0268DEF80020D21A8A4280F0DF
:1019E000E68141F61042C4F202021268C2F3C0124C
:1019F000974208BF0268DEF80020D21A8A4280F0BF
:101A0000D68141F61042C4F202021268C2F3C0123B
:101A1000974208BF0268DEF80020D21A8A42C0D37B
:101A2000C5E1A9EB0E0600270BEB070090F820108C
:101A30000BEB470590F821200437591A90F8223013
:101A40008A1A90F82300D41A2987231A6A87BE427B
:101A5000AC87EB87E8D1BEF1000F1DD00BF11E0261
:101A6000D0198078BEF1010FA3EB000302EB470011
:101A7000438311D0781C1118897802EB4000BEF125
:101A8000020FA3EB0103438306D0B81C1118897819
:101A900002EB4000591A41834FF48031002001EBE2
:101AA000094188F800004D1C05F101100DB0BDE89A
:101AB000F08F042A40F097803020888042F6326010
:101AC000C2F630600860062088F8000000F10210BD
:101AD0000DB0BDE8F08F0237002000F0D7BC002029
:101AE00000F03ABCFF2088F8000005F101100DB0AD
:101AF000BDE8F08FBAF1000F1DD0D0F80044C4F358
:101B00008004AC4211D10468C4F34004BBEB04046C
:101B100018BF0124144308D1079C002C1EBF046881
:101B2000C4F38014A44500F04281DEF80040E41ABA
:101B30008C42E2D33BE1D0F80044C4F38004641B40
:101B400018BF0124144308D1079C002C1EBF046851
:101B5000C4F38014A44500F02A81DEF80040E41AA2
:101B60008C42E8D323E1172980F0B1800220EAE11A
:101B7000BAF1000F00F0B0800468C4F34004BBEB7E
:101B8000040418BF0124144308D1079C002C1EBF75
:101B90000468C4F38014A44500F00981DEF8004015
:101BA000E41A8C42E8D302E14EF20060C0F6DF4056
:101BB00001E04FF40060C5F80200042088F800003E
:101BC00000F102100DB0BDE8F08F08200870012070
:101BD00088F8000000F102100DB0BDE8F08F4FF45E
:101BE00080606880022088F8000000F102100DB0CB
:101BF000BDE8F08F002036E34946002074E1E0079D
:101C000040F05281CA464FF0000B0DF12009E00769
:101C100040F270112046C2F2010118BF0E20898ADD
:101C2000013B0793002B6FEA010608BF04462046DC
:101C3000494603F0E1F902280AD1013600F0528149
:101C400040F27010C2F2010000780028EFD049E1A4
:101C5000012840F0488108980BF1010B010A079B0D
:101C60008AF80110002BBDF822108AF802100AF140
:101C700004019DF823208AF800004FF001008AF843
:101C800003208A46C3D12FE10220059CB9F1000F41
:101C900040F0D5803AE20220069925E1002E5DD081
:101CA00041F61042C4F202021268C2F3C012974217
:101CB00007D1079A002A1EBF0268C2F3801294451A
:101CC00075D0DEF80020D21A8A42E9D36FE03729B6
:101CD00080F03581092036E15EB3079A002A66D08C
:101CE0000268C2F38012944561D0DEF80020D21A57
:101CF0008A425CD20268C2F38012944557D0DEF863
:101D00000020D21A8A4252D20268C2F3801294454D
:101D10004DD0DEF80020D21A8A4248D20268C2F3BF
:101D20008012944543D0DEF80020D21A8A42D7D3DD
:101D30003DE0DEF80020D21A8A423EBFDEF80020E5
:101D4000D21A8A4233D2DEF80020D21A8A422ED228
:101D5000DEF80020D21A8A42EBD328E041F6104286
:101D6000C4F202021268DEF80020D21A8A421ED2A1
:101D700041F61042C4F202021268DEF80020D21AC4
:101D80008A423FBF41F61042C4F202021268DEF8F6
:101D900000203CBFD21A8A4209D241F61042C4F256
:101DA00002021268DEF80020D21A8A42D6D341F627
:101DB0001042D0F80014C4F20202C1F3800112688C
:101DC000022303EA92121144026802F0020241EA7D
:101DD0004201D0F8002C02F00402006841EA4201FE
:101DE00000F0400041EA4000012188F80000C0F204
:101DF000050101F5803505F101100DB0BDE8F08F4A
:101E00000E78B7074FF0050702D5F60658BF012731
:101E1000022B394440F0AD800238032AC0F0EF8035
:101E2000B3E04FF0000B002030E34FF0000B002038
:101E300092E200240220B9F1000F00F0678119F04E
:101E40000302A9F1010100F01E819BF80070BB079D
:101E50004FF0050302D5FF0658BF0123012A9B441A
:101E60005AD18946032980F010814FE140F2701069
:101E7000C2F20100808AB1464FF0000BC643002138
:101E8000204601F0F5FD022840F09781013606D08A
:101E900040F27010C2F2010000780028EFD002205A
:101EA000079B4FF0000B57E240F27010C2F20100A6
:101EB000808A9A464FF0000BC6430021204603F06B
:101EC0009BF8022840F0C281013606D040F2701023
:101ED000C2F2010000780028EFD002204FF0000B82
:101EE000494601E0022051464FEA1B2285F801B025
:101EF000AA70E870A1EB0800397989073FF5A3AC17
:101F0000B978FA7841EA0221013140EA814505F1C8
:101F100001100DB0BDE8F08F9BF80070BB074FF0CB
:101F2000050302D5FF0658BF0123022A9B4440F057
:101F30009E80A9F10209032980F0A780E6E0480805
:101F40006D2938BF282040F27011C2F201010A79D0
:101F5000022A08BF013088600020012188F80000B3
:101F6000C0F20501A1F5803505F101100DB0BDE805
:101F7000F08F0F78BB074FF0050302D5FF0658BF5F
:101F8000012319440338032A39D30A7893071FD44D
:101F900005228B5C11449F0723D5DA064FF005021A
:101FA00058BF01228B5C11449F071FD5DA064FF002
:101FB000050258BF01228B5C11449F071BD5DA062E
:101FC0004FF0050258BF012204381144DDD116E05C
:101FD000D2064FF0050258BF01228B5C11449F07C7
:101FE000DBD405228B5C11449F07DFD405228B5C78
:101FF00011449F07E3D4052204381144C5D1A1EB55
:102000000A0100200904A5F801008D1C05F101104A
:102010000DB0BDE8F08F0A2005900220002C40F0A2
:10202000B3814F465E46DDF80CB0012840F02C82AB
:10203000079705980A28DDF8109002D00A2001F0D1
:10204000ABF9B08A0699C443002900F0A58008AF17
:102050000E20394601F00CFD022840F01D810134AC
:1020600002D030780028F3D00220079F0EE29BF8C0
:1020700000309A074FF0050202D5DB0658BF012257
:102080009344A9F10309032940D39BF800108A0760
:1020900016D405211BF80120594493071AD40522B0
:1020A0008B5C11449F071ED405228B5C11449F0753
:1020B00022D40522B9F1040901EB020BE5D125E098
:1020C000C9064FF0050158BF01211BF801205944F2
:1020D0009307E4D5D2064FF0050258BF01228B5C6E
:1020E00011449F07E0D5DA064FF0050258BF0122E0
:1020F0008B5C11449F07DCD5DA064FF0050258BF10
:102100000122B9F1040901EB020BBED1012840F014
:10211000A78094B140F27016C2F20106B08A08AFEF
:10212000C4430E20394602F067FF022820D1013453
:102130001CD030780028F4D018E0049840F27016D3
:102140000028C2F2010600F08A80B08AC4430E2043
:10215000002102F051FF022840F08280013405D0B6
:10216000307800284FF00200F1D079E0022077E0CB
:10217000012875D108985E46069A1070111D0898BE
:102180000B46000A5070BDF8220090709DF82300A5
:10219000D0700120079A66E0079F0E20002101F011
:1021A00067FC022840F07281013400F0988030789A
:1021B00000284FF00200F0D068E10128079B40F0B2
:1021C000CB800698A9F1010600284FF0000B00F023
:1021D00088800DF1200907931EB90A2001F0DCF870
:1021E0000E2440F27010C2F20100808A6FEA000AE9
:1021F0002046494601F03CFC02280DD11AF1010AA3
:1022000000F0A88040F27010C2F2010000780028AF
:102210004FF00200ECD09EE0012840F09C80089A2C
:102220000BF1010B110A07984170031DBDF8221034
:10223000002E079381709DF823100270A6F1010211
:10224000C1704FF001001646C6D185E00128534603
:102250003FF4D8AC494647E6B34602208DE0012062
:102260005E46DDE90632A6EB0A016A70A3EB0802BE
:1022700012E10220002C40F08780D2E60A2005906F
:10228000002006900220002C7ED1CAE60220B9F17F
:10229000000F7FF4D4AD39E70128079F40F0F680A6
:1022A000089809F1040189F80000000A89F8010082
:1022B000BDF8220089F802009DF8230089F8030088
:1022C00001208946E2E000200690022055E00A2124
:1022D00056E00024B9F1000F7FF4B1AD16E70220FB
:1022E000D4E0079340F27010C2F20100808AA24647
:1022F000002E08BF4FF00E0A6FEA0009504608A9E9
:1023000001F0B6FB02280CD119F1010922D040F2EC
:102310007010C2F20100007800284FF00200EDD0EA
:1023200019E0012817D1089A0BF1010B110A07983F
:102330004170031DBDF82210002E079381709DF897
:1023400023100270A6F10102C1704FF00100164681
:10235000C8D101E00220079B4FEA1B2185F801B09C
:10236000A970E870A3EB0800397989073FF56BAADB
:10237000C6E5B34601E000210691DDF81C90029904
:102380000591002C3FF44DAE14F00302A4F10101BD
:1023900012D099F80070BB074FF0050302D5FF0675
:1023A00058BF0123012A99445E464AD10C46DDF804
:1023B0000CB0032905D263E05E46DDF80CB00329BA
:1023C0005ED399F800108A0715D4052119F8012069
:1023D0004944930719D405228B5C11449F071DD4EF
:1023E00005228B5C11449F0721D40522043C01EB9C
:1023F0000209E6D144E0C9064FF0050158BF0121AA
:1024000019F8012049449307E5D5D2064FF005029B
:1024100058BF01228B5C11449F07E1D5DA064FF0CB
:10242000050258BF01228B5C11449F07DDD5DA06F7
:102430004FF0050258BF0122043C01EB0209C0D154
:102440001EE099F80070DDF80CB0BB074FF00503F3
:1024500002D5FF0658BF0123022A994403D1023C4A
:102460000329AED20CE099F800309A074FF005022C
:1024700002D5DB0658BF01229144033C0329A0D2B8
:102480004F4601283FF4D4ADDDF81090A7EB0A01C8
:1024900085F801B0A9EB0802A87042EA014505F1F0
:1024A00001100DB0BDE8F08F0021069167E7002014
:1024B0000690022063E7CDF80CB0B346B946002C75
:1024C0007FF462AFADE540F0100056E70000000079
:1024D000FF224FF001100A7070470000000000005A
:1024E00040F27010C2F20100002108228180826057
:1024F00064220174C0E9052101228283817770473B
:1025000040F25C1540F6842642F684284FF000091C
:10251000C2F20105C2F201067F27C2F2010800BF24
:10252000812000214FF0FF3209F002FF58E000BF88
:10253000AC88A002305C7E2819D106EB842000BF55
:102540000770601C6988B0F1080418BF04468C420B
:1025500007D1812000214FF0FF3209F0E9FE00068B
:1025600005D4A002305C7E2806EB8420E8D0A88841
:10257000698906EB802008EB8121FEF771F8A888B5
:102580000130A880A888082808BFA5F804902889E9
:10259000013028816889013068816889082808BF6E
:1025A000A5F80A90E8890130E8812878C0B1E88967
:1025B000298A884214D0A8894FF48063411CA981DC
:1025C00008EB8022A9890020082908BFA5F80C90F3
:1025D000298A01312982002185F800900CF0F2FF50
:1025E000E88829898842A3D19AE70000000000000A
:1025F00044F6C031C0F203014843401EFDD100BF84
:1026000000BF70470000000081B000F13E4000F1C3
:10261000FF704FEAB020082800F28C80DFE800F05D
:102620000514233241505F6E7D0043F63000C4F242
:102630000200016841F001010160006800F0010042
:102640000090009801B0704743F63000C4F20200D9
:10265000016841F002010160006800F00200009092
:10266000009801B0704743F63000C4F202000168E0
:1026700041F004010160006800F00400009000983F
:1026800001B0704743F63000C4F20200016841F027
:1026900008010160006800F008000090009801B097
:1026A000704743F63000C4F20200016841F01001A7
:1026B0000160006800F010000090009801B07047C1
:1026C00043F63000C4F20200016841F020010160CD
:1026D000006800F020000090009801B0704743F6B9
:1026E0003000C4F20200016841F04001016000685E
:1026F00000F040000090009801B0704743F63000B1
:10270000C4F20200016841F080010160006800F03D
:1027100080000090009801B0704743F63000C4F28A
:102720000200016841F480710160006800F480706B
:102730000090009801B0704770B50446866D00F0B7
:102740000FFA94F8351002292CD105462068216C27
:102750000268002922F016020260426922F080021B
:10276000426101D1A16C19B1016821F00801016039
:10277000016821F0010101600068C00704D118E080
:1027800020680068C00714D000F0EAF9401B052853
:10279000F6D920206065002084F83400032084F8F6
:1027A000350070BD80206065002084F83400012071
:1027B00070BDE06D3F2101FA00F0B0600020012102
:1027C00084F8340084F8351070BD0000000000006B
:1027D000B0B5044600F0C4F940F22801C2F201018C
:1027E00005460978621C18BF0C4400BF00F0B8F918
:1027F000401BA042FAD3B0BD2DE9F04F41F600478F
:1028000000F13E42C4F2020702F1FF734FF0080BE1
:10281000B84208BF4FF0070B0027B7EBB32F43F6C2
:102820000046C4F201066AD04FEAB3235F1E062FAA
:1028300038BF9B4600234FF00109A6F57E7E002796
:10284000002400BF09FA04F60E4251D04FEA940C5E
:1028500007F00C095EF82CA00F2202FA09F80AEA28
:1028600008020BFA09F5AA421ED15EF82C2022EAD2
:1028700008024EF82C2043F60042C4F2010215462D
:102880001268B2432A606FEA060C6A68B2436A6053
:10289000AA68B243AA6043F60C42C4F2010215468C
:1028A0001268B2432A6001E06FEA060C0322056851
:1028B0009A4025EA02086FF00305C0F8008005EA97
:1028C000540507F01C0A05440F2606FA0AF82E6A7A
:1028D00026EA08062E624FF0010985689543856057
:1028E000456805EA0C064660C66826EA0202C26030
:1028F00001340437102C03F10203A3D15BE0002262
:102900004FF0010AA6F57E7B4FF00F0C4FF0030E3F
:10291000002600270AFA07F30B4246D0BD0802F052
:102920000C045BF825800CFA04F918EA090F02D0B0
:102930006FEA03081BE05BF825406FEA030824EA0E
:1029400009044BF8254043F60045C4F201052C6804
:102950009C432C606C689C436C60AC689C43AC608E
:1029600043F60C45C4F201052C689C432C600EFA1A
:1029700006F4056825EA04096FF00305C0F8009025
:1029800005EA570502F01C0305440CFA03F92B6A0B
:1029900023EA09032B628368A3438360436803EA45
:1029A00008034360C368A343C36001370236102F96
:1029B00002F10402AED1BDE8F08F0000000000007B
:1029C0002DE9F04F82B000F13E4241F6004702F19E
:1029D000FF72C4F2020708264FEAB223B84208BFCA
:1029E0000726072B38BF4FEAB22643F6440A009663
:1029F00043F6004C00234FF0010B0026C4F2020AFC
:102A0000C4F2010C002400BF0BFA04FE0F6817EAA1
:102A10000E0F00F09880D1F8048048F01007122FB4
:102A200014D16FF0030202EA5407074406F01C02B7
:102A3000D7F820800F25954028EA05080D6905FA8A
:102A400002F242EA08023A62D1F8048003250268E1
:102A50009D4008F00307AA439F403A43B8F1120F84
:102A600002606FEA050913D80BFA08F212F0061F8C
:102A70000ED08268CD6802EA09029D402A43826036
:102A80004268C8F3001522EA0E02A5402A434260BC
:102A9000C2688D6802EA09029D402A435FEAC805C0
:102AA000C26050D5DAF8002024F0030542F48042D9
:102AB000CAF800204FF60847DAF80020CFF6FF7773
:102AC00002F4804201920CEB0502019DB94606F02A
:102AD0000C0552F807800F27AF4028EA0708009F2F
:102AE00007FA05F545EA080542F80950DCF80080C8
:102AF0004D6848EA0E07EA0358BF28EA0E07CCF8EB
:102B00000070AA03DCF8048048EA0E0758BF28EAE0
:102B10000E07CCF80470DCF80880EA0248EA0E07D9
:102B200043F60C4258BF28EA0E07CCF80870C4F2EE
:102B300001029046126842EA0E07AD0258BF22EA2F
:102B40000E07C8F8007001340436102C03F102039C
:102B50007FF45AAF02B0BDE8F08F00000000000023
:102B600080B508F017FE022803D1BDE8804008F0C8
:102B700027BE0120FFF73CFD40F26C21C2F20101AB
:102B800008680130086080BD80B543F60040C4F29B
:102B90000200016841F400710160016841F4807134
:102BA0000160032000F0C4F80F2000F005F800F0E9
:102BB0007BF8002080BD000070B540F22806C2F20C
:102BC000010631784FF47A720446B2FBF1F140F21B
:102BD0003002C2F201021268B2FBF1F1084600F0C5
:102BE000A3FB0F2C4FF0010508D838B94FF0FF3088
:102BF00000222146002500F06FF87460284670BD61
:102C000002784EF69C5C4378CEF2000C002A4CF819
:102C1000043C22D080B54368CCF80030037BC17AF5
:102C200090F80AE042EA0372437B42EA0161827B48
:102C300041EACE4190F80FE041EA8341437A41EA0C
:102C40004241007A41EA0E4141EA032141EA400053
:102C5000BDE88040CCF8040070470020CCF80000AC
:102C6000CCF80400704700004EF62450BFF35F8F8D
:102C7000CEF20000016821F480310160002101677B
:102C800070470000000000004EF6245140F00100A3
:102C9000CEF200010867086840F480300860BFF396
:102CA0004F8FBFF36F8F7047704700000000000028
:102CB0000028B8BF704700F01F01012202FA01F19D
:102CC0004EF280124009CEF2000242F82010BFF30B
:102CD0004F8FBFF36F8F704710B54EF60C5CCEF27E
:102CE000000CDCF80030C3F3022E8EF00704042C35
:102CF00028BF0424BEF103034FF0FF3E38BF00237A
:102D00000EFA04F4A14399400EFA03F39A4300F03B
:102D10000F03043B1143634409010C3300F160428B
:102D2000B0F1FF3FC8BF02F56443197010BD000049
:102D30004EF60C51CEF200010A684FF6FF031A401E
:102D400060F30A2242F0806040F0FD700860704736
:102D5000B0B582B043F64000C4F20200016847F209
:102D6000000541F080510160C4F20005006800F0E8
:102D7000805001900198286840F480302860FFF767
:102D8000EFFE04466868C00306D4FFF7E9FE001BA7
:102D9000B0F57A7FF6D910E0286840F4003028605A
:102DA000FFF7DEFE044600BF6868800308D4FFF723
:102DB000D7FE001BB0F57A7FF6D9032002B0B0BD74
:102DC000002002B0B0BD00002DE9F041002800F065
:102DD0008C8043F60808C4F202080446D8F8F803C9
:102DE00000F00F000D4688420CD2D8F8F80320F00E
:102DF0000F002843C8F8F803D8F8F80300F00F00D4
:102E0000A84272D12068810717D5410705D5D8F8A7
:102E1000001041F4E051C8F80010010705D5D8F8BA
:102E2000001041F46041C8F80010D8F8001021F0FB
:102E3000F001A2681143C8F80010C00730D06068E4
:102E4000012806D158F8081C89030DD40120BDE8DB
:102E5000F081022858F8081C04D1890104D401200B
:102E6000BDE8F081890740D5D8F8001021F00301B2
:102E70000843C8F80000FFF773FE064641F28837A2
:102E8000D8F8000000F00C006168B0EB810F07D0AB
:102E9000FFF766FE801BB842F2D90320BDE8F0813F
:102EA000D8F8F80300F00F00A8420CD9D8F8F803BE
:102EB00020F00F002843C8F8F803D8F8F80300F012
:102EC0000F00A84211D12068410711D4000719D47E
:102ED000D8F8000000F00C00082822D0042843D1C4
:102EE00047F64000C0F27D1042E00120BDE8F081CD
:102EF000D8F8001021F4E051E2681143C8F800103E
:102F00000007E5D5D8F8000020F46040216940EAC8
:102F1000C100C8F80000D8F8000000F00C00082834
:102F2000DCD158F8042C002358F8040C02F03F02BE
:102F3000400258F8041C47F64000C1F38811C0F263
:102F40007D105CBF42F20040C0F2F400A0FB010122
:102F5000FDF7C4F958F8041C0222C1F3014102EB49
:102F60004101B0FBF1F003E042F20040C0F2F40096
:102F7000D8F8001040F2BC42C1F30311C0F60102C0
:102F8000515CC84040F23001C2F2010108600F20DC
:102F9000FFF712FE0020BDE8F081000000000000F5
:102FA00040F2300043F60801C2F20100C4F202010F
:102FB0000068096840F2CC42C1F38221C0F60102E8
:102FC000515CC8407047000040F2300043F60801F1
:102FD000C2F20100C4F202010068096840F2CC426A
:102FE000C1F34231C0F60102515CC8407047000095
:102FF0002DE9F04182B0002800F0B9800446007845
:1030000043F60006C007C4F202064CD0B06800F0D8
:103010000C00042817D0B06800F00C00082802D17A
:10302000706840020FD4606898B1B0F5803F06D058
:10303000B0F5A02F306822D140F480203060306895
:1030400040F4803021E0306880032CD5606850BBAC
:103050008DE0306820F480303060306820F48020CB
:103060003060FFF77DFD0546306880031BD5FFF714
:1030700077FD401B64284FF00300F5D94AE120F4A6
:1030800080303060306820F480203060FFF768FDC9
:10309000054600BF3068800305D4FFF761FD401B83
:1030A0006428F7D900E1207880072DD5B06810F0AA
:1030B0000C0F07D0B06800F00C00082809D1706828
:1030C000400206D43068800717D5E06801284ED149
:1030D00013E0E0680028306800F0A68040F00100AE
:1030E0003060FFF73DFD05463068800705D4FFF7E7
:1030F00037FD401B0228F7D9D6E0306820F0F800F1
:10310000216940EAC10030602078000723D560695A
:103110000028706F0FD040F001007067FFF720FDAE
:10312000054600BF706F800715D4FFF719FD401BDF
:103130000228F7D9B8E020F001007067FFF710FD12
:10314000054600BF706F800705D5FFF709FD401BDE
:103150000228F7D9A8E0207840070CD4A569002DF3
:1031600000F0DB80B06800F00C0008283AD10120A4
:1031700002B0BDE8F081306CC0000BD4306C4FF071
:10318000010840F080503064306C00F080500190B5
:10319000019801E04FF0000847F20007C4F2000771
:1031A0003868C0050FD4386840F480703860FFF785
:1031B000D7FC05463868C00505D4FFF7D1FC401B95
:1031C0006428F7D970E0A06800283FD0012805D016
:1031D0000528306F53D140F004003067306F40F065
:1031E000010052E0306820F080703060FFF7B8FCDA
:1031F000022D05460CD100BF3068800165D5FFF770
:10320000AFFC401B02284FF00300F5D982E000BF5D
:103210003068800140F18180FFF7A2FC401B032849
:103220004FF00300F4D375E020F001003060FFF7A9
:1032300097FC0546306880077FF566AFFFF790FC86
:10324000401B02284FF00300F4D963E0306F20F0F8
:1032500001003067306F20F004003067FFF780FC1A
:10326000054641F2883700BF306F800720D5FFF751
:1032700077FC401BB8424FF00300F5D94AE020F03C
:1032800001003067306F20F004003067FFF768FC02
:10329000054641F2883700BF306F800708D4FFF73A
:1032A0005FFC401BB842F7D9032002B0BDE8F081B3
:1032B000B8F1000F3FF452AF306C20F08050306412
:1032C000A569002D7FF44EAF27E0A06A4FF6FF718D
:1032D000C003E2698843216A636A1143E26A41EAF2
:1032E0008311A0F5803041EA0261084340F00050AC
:1032F0007060306840F080703060FFF731FC044649
:103300003068800109D4FFF72BFC001B02284FF026
:103310000300F5D902B0BDE8F081002002B0BDE89D
:10332000F081000000000000411E0020B0EB116F92
:1033300001D0012070474EF21002CEF2000251601F
:103340004EF62351CEF20001F0230B70072190605E
:10335000116070470000000010B540F24014C2F246
:103360000104022044F8040F44F659100121C0F66C
:1033700000000023224609F011F80028606006D002
:103380003F2109F023F810B14FF0FF3010BD0020AD
:1033900010BD0000000000002DE9F04340F274135E
:1033A000C2F201035A7841F618414FF600064FF475
:1033B0000077C4F20201CFF6FF764FF480058F51FB
:1033C000002A0D6034D040224FF000770A600D6073
:1033D0000A608F510D600A600D600A604FF48072C0
:1033E0008A5193F81BE003EB4E0CBCF82450002DDF
:1033F00000F0DC8015F00307A5F1010200F0C680A3
:103400004FF480094FF04008C1F80090012FC1F837
:103410000080144600F0BB80022FC1F80090C1F874
:10342000008040F04181AC1E032A80F0B280BDE0F4
:103430005C684022641EFDD100BF00BF0A605C686A
:103440004FF00077641EFDD100BF00BF0D605C68C7
:10345000641EFDD100BF00BF0A605C68641EFDD120
:1034600000BF00BF8F510D604FF480775C68641E11
:10347000FDD100BF00BF0A605C68641EFDD100BFC3
:1034800000BF0D605C68641EFDD100BF00BF0A6014
:103490005C68641EFDD100BF00BF8F51DD7E03EB71
:1034A0004507BF8C8FB17D424FF480040C605F688C
:1034B0007F1EFDD100BF00BF0A605F687F1EFDD187
:1034C00000BF00BF0135F1D1DD7E5A19127F012AFC
:1034D0001BD0C2F101024FF480054024C7074FF40E
:1034E000807708BF4FF080778F510D6040085F688C
:1034F0007F1EFDD100BF00BF0C605F687F1EFDD145
:1035000000BF00BF0132E9D1DD7E03EB4502958E9D
:10351000002D00F07C80C0074FF4807008BF4FF092
:10352000807088514FF48000086040225C684FF43E
:103530008077641EFDD100BF00BF0A605C68641E16
:10354000FDD100BF00BF8F51012D0FD0C5F1010586
:1035500008605C68641EFDD100BF00BF0A605C6843
:10356000641EFDD100BF00BF0135F1D14FF40077DB
:103570008F5108605868401EFDD100BF00BF0A602F
:103580005868401EFDD100BF00BF59E02C46032AF9
:103590000CD34FF480024025043C0A600D600A60A1
:1035A0000D600A600D600A600D60F5D103EB0E023C
:1035B000157F6B1E1FD013F00302A5F1020E21D060
:1035C000C3074FF4807308BF4FF080734FF480043B
:1035D0004FF040088B51012A0C604FF48077C1F8FE
:1035E000008040F05080420873461046BEF1030F41
:1035F00080F07680A1E00246BCF83430002B40F029
:103600009F80C5E0BEF1030F80F06A8095E0C0079F
:103610004FF400724FF480708A5108BF4FF08070F1
:1036200088514FF48000086040225868401EFDD148
:1036300000BF00BF0A605868401EFDD100BF00BF38
:103640004FF48000086040275A684FF00075521E02
:10365000FDD100BF00BF0F605A68521EFDD100BFF0
:1036600000BF8D5108605868401EFDD100BF00BFEB
:103670000F605868401EFDD100BF00BF4FF480703E
:103680008851BDE8F083830758BF4FF08077022A46
:103690008F510C60C1F8008010D18208EB1E1046DB
:1036A000BEF1030F1CD248E04FF480040C604024AC
:1036B0000C60EC1E032ABFF46CAF77E742074FF4AF
:1036C000807258BF4FF080724FF4800340248A51BB
:1036D0000B60C2080C602B1F1046BEF1030F2CD3E9
:1036E0004FF48005402400BFC2074FF4807208BF2A
:1036F0004FF080728A5182070D604FF480720C6027
:1037000058BF4FF080728A5142070D604FF48072AB
:103710000C6058BF4FF080728A5102070D604FF461
:1037200080770C604FEA101258BF4FF08077043B4F
:103730008F5110460D600C60D6D1BCF834303BB3CD
:10374000D0074FF4807008BF4FF0807088514FF45D
:103750008000086040204FF480720860581E8A5133
:1037600020D010F00307A3F102020CD04FF4800424
:1037700040250C60012F0D60104604D0022F0C6014
:103780000D6012D1D81E032A17D24FF4007023E027
:10379000D0074FF400734FF480708B5108BF4FF087
:1037A000807019E04FF4007016E04FF4800008605C
:1037B00040200860181F032AE7D34FF480024023FB
:1037C00004380A600B600A600B600A600B600A60D4
:1037D0000B60F5D14FF4007088514FF48000402207
:1037E00008604FF000730A6008600A608B5108603F
:1037F0000A604FF480708851BDE8F083000000003B
:10380000F0B541F618404FF6000CC4F20200CFF6B6
:10381000FF7C4FF4007140F80C104FF4800E40F222
:103820007411C0F800E0C2F201014B6840225B1E37
:10383000FDD100BF00BF02604B684FF000745B1EFB
:10384000FDD100BF00BF40F80C40C0F800E04B685D
:103850005B1EFDD100BF00BF02604B685B1EFDD147
:1038600000BF00BFC0F800E04B685B1EFDD100BF89
:1038700000BF02604B685B1EFDD100BF00BFCB7E66
:103880007BB15B42C0F800E04C68641EFDD100BF14
:1038900000BF02604C68641EFDD100BF00BF013351
:1038A000F0D140F6104400236FF01E05C4F202046C
:1038B000C0F800E04E68761EFDD100BF00BF26684C
:1038C000026006F004064F6843EA46737F1EFDD18E
:1038D00000BF00BF5B080135EAD14FF4007240F829
:1038E0000C204FF48002026040264D686D1EFDD111
:1038F00000BF00BF276806604FF000754C68641E6B
:10390000FDD100BF00BF02604C68641EFDD100BF46
:1039100000BF06604C68641EFDD100BF00BF40F8C8
:103920000C50026007F004024C68641EFDD100BF19
:1039300000BF066043EA42704968491EFDD100BFDE
:1039400000BFF0BD000000002DE9F04F81B010F085
:103950003F0C08BF4FF0400C43064FF4007441F693
:10396000184358BF4FF000744FF6000E40F6104A4F
:10397000C4F20203CFF6FF7E000643F80E40C4F205
:10398000020A4FF480082FD440F27414C2F20104EA
:10399000402500BF11F8010BACF10106002200BF69
:1039A000C7074FF4807708BF4FF0807743F80E7059
:1039B000C3F8008067687F1EFDD100BF00BFDAF842
:1039C00000701D6067687F1EFDD100BF00BF96427A
:1039D00002F1010704D0072A4FEA50003A46DFD12E
:1039E000BCEB070CD6D140E040F2741BC2F2010BD5
:1039F0004FF0400911F8014B0020CDF800C0ACF1A8
:103A0000010C0026E5074FF4807508BF4FF0807564
:103A100043F80E50C3F80080DBF804506D1EFDD152
:103A200000BF00BFDAF80050C3F8009005F00405AD
:103A3000DBF804706D017F1EFDD100BF00BF45EAB9
:103A40005606844500F1010504D007284FEA5404C6
:103A50002846D7D1C5F10800DDF800C026FA00F0ED
:103A6000BCEB050C02F8010BC4D101B0BDE8F08F2E
:103A70002DE9F04F9EB040F2741EC2F2010E9EF886
:103A8000017041F618434FF6000240F6104A4FF419
:103A90000076C4F20203CFF6FF724FF480049E500A
:103AA000002F1C60C4F2020A31D04FF0400B4FF0DF
:103AB0000077C3F800B09F501C60C3F800B01C60D2
:103AC000C3F800B09EF81B80B8F1000F00F05281DF
:103AD00018F00305A8F1010400F03B814FF48009C0
:103AE0004FF0400CC3F80090012DC3F800C02746EA
:103AF00000F03081022DC3F80090C3F800C040F000
:103B0000FD83A8F10207032C80F0268132E1DEF864
:103B1000045040276D1EFDD100BF00BF1F60DEF8BE
:103B200004504FF000766D1EFDD100BF00BF9E50C7
:103B30001C60DEF804506D1EFDD100BF00BF1F6089
:103B4000DEF804506D1EFDD100BF00BF1C60DEF822
:103B50000440641EFDD100BF00BF1F60DEF80440BA
:103B6000641EFDD100BF00BF9EF81B6096B1764277
:103B70004FF480051D60DEF80440641EFDD100BFD7
:103B800000BF1F60DEF80440641EFDD100BF00BF0F
:103B90000136EFD14FF480764FF4800810F0020C1C
:103BA00008BF4FF080769E50C3F80080DEF80450C6
:103BB0006D1EFDD100BF00BFDAF800901F604FF40A
:103BC0008075DEF80440641EFDD100BF00BF4407CD
:103BD0004FF4807458BF4FF080749C50C3F800803D
:103BE000DEF80440641EFDD100BF00BFDAF80040DB
:103BF000C4F380041F60DEF80460761EFDD100BFB0
:103C000000BF060758BF4FF080759D500225C3F8CE
:103C1000008005EA5905DEF804602C44761EFDD1CB
:103C200000BF00BFDAF800601F6006F00405DEF890
:103C300004602C44761EFDD100BF00BF1D94012CF2
:103C400040F07280BCF1000F40F0EE824FF6000CA5
:103C50000F686FF01E044FF480054026CFF6FF7CFE
:103C6000FA074FF4807208BF4FF0807243F80C20BF
:103C70001D603946DEF804207F08521EFDD100BFCA
:103C800000BF1E60DEF80420521EFDD100BF00BF41
:103C90000134E5D19EF81B609EF81A50F243571983
:103CA00000F04D8389074FF4807158BF4FF0807149
:103CB00043F80C104FF4800119604024DEF8042012
:103CC000521EFDD100BF00BF1C60DEF80420521E52
:103CD000FDD100BF00BF012F12D0B21C551B00BF89
:103CE0001960DEF80420521EFDD100BF00BF1C6029
:103CF000DEF80420521EFDD100BF00BF0135EFD118
:103D00004FF4007243F80C201960DEF80410491ECD
:103D1000FDD100BF00BF1C60DEF80410491EFDD1BC
:103D200000BF00BF00F04ABB4FF40071995040271C
:103D3000C3F800809446DEF80410491EFDD100BF90
:103D400000BF1F60DEF80410491EFDD100BF00BF98
:103D500034E34746032C0DD34FF48005402400BFC5
:103D6000043F1D601C601D601C601D601C601D60A8
:103D70001C60F5D14FF6000210F002094FF4807775
:103D8000CFF6FF7208BF4FF080774FF4800C9F5042
:103D9000C3F800C045074FF48074DAF80050C3F848
:103DA00000B058BF4FF080749C504FF48074C3F83B
:103DB00000C00707DAF80060C6F38006C3F800B059
:103DC00058BF4FF080749C500224C3F800C004EA2E
:103DD0005504DAF800503444C3F800B005F0040587
:103DE0002C44012C40F05381A446B9F1000F40F05F
:103DF00056810E684FF480774FF60002F10708BF36
:103E00004FF08077CFF6FF729F50B7074FF48005D1
:103E10004FF040011D604FF48077196058BF4FF09C
:103E200080779F5077071D604FF48077196058BFE7
:103E30004FF080779F5037071D604FF480771960EF
:103E400058BF4FF080779F50F7061D604FF4807782
:103E5000196058BF4FF080779F50B7061D604FF430
:103E60008077196058BF4FF080779F5077061D60AC
:103E70004FF48077196058BF4FF080779F50370616
:103E80001D604FF48077196058BF4FF080779F50C6
:103E9000F7051D604FF48077196058BF4FF08077A9
:103EA0009F50B7051D604FF48077196058BF4FF0E1
:103EB00080779F5077051D604FF48077196058BF59
:103EC0004FF080779F5037051D604FF48077196061
:103ED00058BF4FF080779F50F7041D604FF48077F4
:103EE000196058BF4FF080779F50B7041D604FF4A2
:103EF0008077196058BF4FF080779F5077041D601E
:103F00004FF48077196058BF4FF080779F50370487
:103F10001D604FF48077196058BF4FF080779F5035
:103F2000F7031D604FF48077196058BF4FF080771A
:103F30009F50B7031D604FF48077196058BF4FF052
:103F400080779F5077031D604FF48077196058BFCA
:103F50004FF080779F5037031D604FF480771960D2
:103F600058BF4FF080779F50F7021D604FF4807765
:103F7000196058BF4FF080779F50B7021D604FF413
:103F80008077196058BF4FF080779F5077021D608F
:103F90004FF48077196058BF4FF080779F503702F9
:103FA0001D604FF48077196058BF4FF080779F50A5
:103FB000F7011D604FF48077196058BF4FF080778C
:103FC0009F50B7011D604FF48077196058BF4FF0C4
:103FD00080779F5077011D604FF48077196058BF3C
:103FE0004FF080779F5037011D604FF48077196044
:103FF00058BF4FF080779F50F7001D604FF48077D7
:10400000196058BF4FF080779F50B7001D604FF484
:104010008077196058BF4FF080779F5077001D6000
:104020004FF48077196058BF4FF080779F501D6024
:104030006FEA080719609EF81A4014EB07094FF45D
:10404000807700F06681B6F1FF3FC8BF4FF0807700
:104050009F501D60B9F10105196000F02382A11C79
:10406000A1EB0801E71E11F00304A7EB080100F023
:1040700009824FF4800640251E60012C1D6040F02F
:10408000E881A9F10205032980F0FE810AE24FF4DC
:10409000007199504021C3F800C01960F3E24FF459
:1040A00080061E604027DAF800206FEA08051D929E
:1040B0001F601E60DAF800201C921F601E60DAF894
:1040C00000201B921F601E60DAF800201A921F6009
:1040D0001E60DAF8002019921F601E60DAF800B046
:1040E0001F601E60DAF8002018921F601E60DAF868
:1040F000002017921F601E60DAF8002016921F60E1
:104100001E60DAF8002015921F601E60DAF80020A9
:1041100014921F601E60DAF8002013921F601E6068
:10412000DAF8002012921F601E60DAF80020119267
:104130001F601E60DAF8002010921F601E60DAF81F
:1041400000200F921F601E60DAF800200E921F60A0
:104150001E60DAF800200D921F601E60DAF8002061
:104160000C921F601E60DAF800200B921F601E6028
:10417000DAF800200A921F601E60DAF80020099227
:104180001F601E60DAF8002008921F601E60DAF8D7
:10419000002007921F601E60DAF8002006921F6060
:1041A0001E60DAF8002005921F601E60DAF8002019
:1041B00004921F601E60DAF8002003921F601E60E8
:1041C000DAF8002002921F601E60DAF800200192E7
:1041D0001F601E60DAF8002000921F609EF81A40EF
:1041E00014EB050900F0A0801E60B9F10106DAF8B1
:1041F00000A01F6000F07A81A71CA7EB0807E51E4E
:1042000017F00307A5EB080400F061814FF4800567
:1042100040261D60012F1E6040F02481A9F1020696
:10422000032C80F0568161E100246FF01E064FF4EC
:10423000800C4025C3F800C0DEF80420521EFDD1DA
:1042400000BF00BFDAF800201D6002F00402DEF8B3
:10425000047044EA42727F1EFDD100BF00BF5408C3
:104260000136E7D19EF81B509EF81A90EA4312EBF4
:10427000090B00F082804FF480061E604027DEF8B4
:104280000420521EFDD100BF00BFDAF800801F607D
:10429000DEF80420521EFDD100BF00BFBBF1010FAC
:1042A00012D0AA1CA2EB09051E60DEF80420521EE3
:1042B000FDD100BF00BF1F60DEF80420521EFDD1FB
:1042C00000BF00BF0135EFD14FF6000C4FF4007274
:1042D000CFF6FF7C43F80C201E60DEF80420521E4F
:1042E000FDD100BF00BF1F60DEF80420521EFDD1CB
:1042F00000BF00BF002940F05C805FE04FF4800207
:104300001A6040221A60A8F10307032CBFF424AD01
:1043100030E54FF40074B6F1FF3FC8BF4FF080772F
:104320009C509F501D60C8E04FF600024FF400778C
:10433000CFF6FF729F501E60DAF800A0E0E0890718
:104340004FF400724FF4807143F80C2058BF4FF0C7
:10435000807143F80C104FF4800119604022DEF8A0
:104360000410491EFDD100BF00BF1A60DEF8041022
:10437000491EFDD100BF00BF20E04FF6000C4FF4F6
:104380000072CFF6FF7C43F80C204FF480021A60D5
:10439000DEF80420521EFDD100BF00BFDAF8008015
:1043A00040221A60DEF80420521EFDD100BF00BF7B
:1043B00021B108F0040244EA42720A604FF480011D
:1043C00019604027DEF804204FF00076521EFDD120
:1043D00000BF00BF1F60DEF80420521EFDD100BFE9
:1043E00000BF43F80C601960DEF80410491EFDD1CF
:1043F00000BF00BF1F60DEF80410491EFDD100BFE2
:1044000000BF4FF48071000643F80C1006D541F24E
:104410000400CEF200000068CEF808009EF80C0000
:104420001D9C002800F06E8140424FF4800140271F
:104430001960DEF80420521EFDD100BF00BF1F60CE
:10444000DEF80420521EFDD100BF00BF0130EFD1C5
:1044500058E1022C1E601D600DD1A9F1030503294E
:1044600012D21FE0022F1D601E6029D1A9F10306A0
:10447000032C2ED23AE04FF480021A6040221A60D8
:10448000A9F1040503290DD34FF48001402400BF96
:10449000043D19601C6019601C6019601C60196083
:1044A0001C60F5D14FF600024FF40071CFF6FF7299
:1044B00099504FF480011960402164461960E2E090
:1044C0004FF480021A6040221A60A9F10406032CFE
:1044D0000CD34FF480044027043E1C601F601C6016
:1044E0001F601C601F601C601F60F5D14FF600024A
:1044F0004FF40077CFF6FF729F504FF480071F6094
:104500006446402700291F6000F0BD804FF08047BF
:104510001D9E07EA06771C9E06F0040647EA4677CA
:104520001B9E06F00406760746EA57071A9E06F019
:104530000406760746EA5707199E06F00406760732
:1045400046EA57070BF00406760746EA5707189E17
:1045500006F00406760746EA5707179E06F004069B
:10456000760746EA5707169E06F00406760746EADF
:104570005707159E06F00406760746EA5707149E6D
:1045800006F00406760746EA5707139E06F004066F
:10459000760746EA5707129E06F00406760746EAB3
:1045A0005707119E06F00406760746EA5707109E45
:1045B00006F00406760746EA57070F9E06F0040643
:1045C000760746EA57070E9E06F00406760746EA87
:1045D00057070D9E06F00406760746EA57070C9E1D
:1045E00006F00406760746EA57070B9E06F0040617
:1045F000760746EA57070A9E06F00406760746EA5B
:104600005707099E06F00406760746EA5707089EF4
:1046100006F00406760746EA5707079E06F00406EA
:10462000760746EA5707069E06F00406760746EA2E
:104630005707059E06F00406760746EA5707049ECC
:1046400006F00406760746EA5707039E06F00406BE
:10465000760746EA5707029E06F00406760746EA02
:104660005707019E06F00406760746EA5707009EA4
:1046700006F00406760746EA57077F080AF00406A4
:1046800047EA46770F604FF48001402719604FF0EA
:1046900000761F609E50000619604FF480711F6005
:1046A000995006D541F20400CEF200000068CEF821
:1046B00008009EF80C202AB312F00307A2F10100B3
:1046C0000FD04FF4800540261D60012F1E6001466B
:1046D00008D0022F1D601E6018D1911E032811D32F
:1046E00002E0114603280DD34FF48000402200BFA2
:1046F000043918601A6018601A6018601A6018602F
:104700001A60F5D120461EB0BDE8F08F4FF480014D
:1047100040271960D11E1F600328F3D3E4E700008F
:1047200070B541F618414FF6000CC4F20201CFF605
:10473000FF7C4FF400724FF4800E41F80C2040F2E1
:104740007413C1F800E0C2F201035C684022641EE9
:10475000FDD100BF00BF0A605C684FF00075641EA9
:10476000FDD100BF00BF41F80C50C1F800E05C680B
:10477000641EFDD100BF00BF0A605C68641EFDD1ED
:1047800000BF00BFC1F800E05C68641EFDD100BF3F
:1047900000BF0A605C68641EFDD100BF00BFDC7E04
:1047A000002C10D0644200BFC1F800E05D686D1EAF
:1047B000FDD100BF00BF0A605D686D1EFDD100BF66
:1047C00000BF0134F0D14FF0807441F80C406FF01D
:1047D0001E05C1F800E05C68641EFDD100BF00BF8B
:1047E0000A605C68641EFDD100BF00BFC1F800E034
:1047F0005C68641EFDD100BF00BF0A605C68641E77
:10480000FDD100BF00BFC1F800E05C68641EFDD1AF
:1048100000BF00BF0A605C68641EFDD100BF00BF1E
:104820000446C0074FF4807008BF4FF0807041F815
:104830000C00C1F800E05868401EFDD100BF00BF69
:104840000A605868401EFDD100BF00BF01354FEA25
:104850005400E5D1DD7E93F81AE0E84310EB0E0634
:1048600000F03B80A0074FF4807058BF4FF080707D
:1048700041F80C004FF48000086040225C68641E20
:10488000FDD100BF00BF0A605C68641EFDD100BF9F
:1048900000BF012E10D0AC1CA4EB0E0608605C68B3
:1048A000641EFDD100BF00BF0A605C68641EFDD1BC
:1048B00000BF00BF0136F1D14FF4007641F80C6023
:1048C00008605868401EFDD100BF00BF0A605868EC
:1048D000401EFDD100BF00BF1AE04FF40070A207D8
:1048E00041F80C004FF480724FF4800058BF4FF035
:1048F000807241F80C20402208605868401EFDD1AB
:1049000000BF00BF0A605868401EFDD100BF00BF55
:104910004FF48000086040265A684FF00075521E20
:10492000FDD100BF00BF0E605A68521EFDD100BF0E
:1049300000BF41F80C5008604FF480725868401E68
:10494000FDD100BF00BF0E605868401EFDD100BF02
:1049500000BF41F80C2070BD40F24010C2F20100CF
:10496000417803784A1C02F00F01032B41700AD0F2
:10497000022B1ED0012B26D11820C4F202004FF4C6
:10498000806101607047D10740F218024FF08061EA
:10499000C4F2020208BF4FF48061116081780131D6
:1049A000CAB28170032A38BF70470021817001703C
:1049B0007047900740F21800C4F2020011D44FF47F
:1049C000806101607047002940F218014FF0806259
:1049D000C4F2020108BF4FF480620A600021017036
:1049E00070474FF080610160704710B500F12801F9
:1049F00051E8002F12B9BFF32F8F04E0531E41E896
:104A0000003404B1F4E782B12C3001210AE0821CA9
:104A1000D2E84F3FC2E8441F04B1F9E71A0608BFC5
:104A200010BD083000680028F1D1002010BD10B57D
:104A300084465CF8303F8BB1CA784FF0000E05E039
:104A40001C46DB7893420ED26368A646002BF7D152
:104A50000022C1E9012E00F12C0208E00022C1E988
:104A60000122C16209E0C1E9014E04F108021160AE
:104A7000BEF1000F18BF0EF1040CCCF80010283066
:104A800050E8001F4A1C40E8002303B1F8E710BDBE
:104A9000D1E90123002A0EBFC36293608B68191D00
:104AA000002B08BF00F130010A6070471A48006807
:104AB000704700BF19480178012905D10021017014
:104AC00004484FF0806101601348016841F0010122
:104AD0000160704704ED00E04FF0FF3070470000C8
:104AE00040B10B490968B1FBF0F0411E0020B0EB6A
:104AF000116F02D04FF0FF307047064AFF2313704A
:104B0000054A06231360516004499060087070479D
:104B10003000012023ED00E010E000E070020120F1
:104B20001420C4F2040001684068084004F0A4BFE7
:104B3000F0B587B043F6300640F2004405468707DB
:104B4000C4F20206C4F2020431D0E80716D030687D
:104B500001A940F002003060306800F002000190CE
:104B600001984FF400400190022002900020CDE90E
:104B700003000C2005902046FDF722FF002F16D5DC
:104B8000306801A940F002003060306800F0020097
:104B9000069006984FF48040019002200290002079
:104BA000CDE903000C2005902046FDF709FFE8063B
:104BB00016D5306801A940F002003060306800F07E
:104BC0000200069006984FF4805001900220029057
:104BD0000020CDE903000C2005902046FDF7F0FEF3
:104BE00007B0F0BD0000000070B540F2004405467B
:104BF0008607C4F202040DD0E80704D04FF4004148
:104C00002046FDF7F9FD002E04D54FF480412046E3
:104C1000FDF7F2FDE80600D470BD4FF48051204648
:104C2000BDE87040FDF7E8BD2DE9F04385B041F6E1
:104C3000184741F21849C4F20207C4F202094FF4BE
:104C400000724FF48008C9F8002040F27415C7F8CC
:104C50000080C2F201056B6840265B1EFDD100BFDB
:104C600000BF3E606B685B1EFDD100BF00BFC30785
:104C70004FF4007308BF4FF00073C9F80030C7F855
:104C800000806B685B1EFDD100BF00BF3E606B689B
:104C90005B1EFDD100BF00BF83074FF4007358BFF8
:104CA0004FF00073C9F80030C7F800806B685B1ED6
:104CB000FDD100BF00BF3E606B685B1EFDD100BF31
:104CC00000BF43074FF4007358BF4FF00073C9F89B
:104CD0000030C7F800806B685B1EFDD100BF00BFCD
:104CE0003E606B685B1EFDD100BF00BF03074FF441
:104CF000007358BF4FF00073C9F80030C7F8008048
:104D000000EB50036C6803EB9003641EFDD100BF01
:104D100000BF3E606C6803EBD000641EFDD100BF95
:104D200000BF4FF00073C0074FF4007008BF4FF092
:104D30000070C9F80000C7F8008000246868401EB1
:104D4000FDD100BF00BF3E606868401EFDD100BFBE
:104D500000BFC9F80030C7F800806868401EFDD168
:104D600000BF00BF3E606B6848465B1EFDD100BFC0
:104D700000BF40F81829C7F800806B685B1EFDD1A2
:104D800000BF00BF3E606B685B1EFDD100BF00BF6F
:104D90000494CDE90024029403220C460392694650
:104DA000FDF70EFE287EC7F800806968491EFDD118
:104DB00000BF00BF78B140423E606968491EFDD126
:104DC00000BF00BFC7F800806968491EFDD100BF61
:104DD00000BF0130F0D1D9F8F8070223C0F3C010AA
:104DE0003E606968491EFDD100BF00BFC7F8008062
:104DF0006968491EFDD100BF00BFD9F8F8173E60B1
:104E000003EA91116A680144521EFDD100BF00BF40
:104E1000C7F800806A68521EFDD100BF00BFD9F8F4
:104E2000F8273E606B685B1EFDD100BF00BF287E87
:104E3000042303EA5212002801EB020812D0404278
:104E40004FF48001402200BF39606B685B1EFDD1CA
:104E500000BF00BF3A606B685B1EFDD100BF00BFA2
:104E60000130F1D100264FF400700496009001202B
:104E7000CDE9010603200390A9F118006946FDF76A
:104E80009FFD6FF01F004FF480014022E3074FF4B5
:104E9000007308BF4FF00073C9F800303960264432
:104EA0006B6864085B1EFDD100BF00BF3A606B6891
:104EB0005B1EFDD100BF00BF0130E7D1F0074FF40A
:104EC000007108BF4FF00071484640F818194FF4C0
:104ED000800139604FF4007469680022491EFDD1D9
:104EE00000BF00BF402139606968491EFDD100BF85
:104EF00000BF049201210094CDE901120321039126
:104F00006946FDF75DFDC9F80040404605B0BDE8C3
:104F1000F0830000000000002DE9F04110F03F0C8C
:104F200008BF4FF0400C000641F61840C4F20200E2
:104F30004FF4800E30D44FF6000840F27412CFF6D2
:104F4000FF78C2F20102402411F8015BACF10106C6
:104F5000002300BFEF074FF4007708BF4FF0007742
:104F600040F80870C0F800E057687F1EFDD100BF10
:104F700000BF046057687F1EFDD100BF00BF9E4286
:104F800003F1010704D0072B4FEA55053B46E1D159
:104F9000BCEB070CD8D12CE040F27413C2F2010331
:104FA0004FF04008ACF1010400260025C0F800E0F5
:104FB0005F687F1EFDD100BF00BF50F8087CC0F8BD
:104FC000008007F08007596847EA5505491EFDD162
:104FD00000BF00BF771CB44202D0072E3E46E5D189
:104FE000C7F1080125FA01F1BCEB070C02F8011B1F
:104FF000D8D1BDE8F08100002DE9F04F8BB040F230
:10500000741AC2F2010A9AF8013041F6184641F2C8
:1050100018484FF40072C4F20206C4F202084FF4BA
:105020008005C8F80020002B05918346356000F00C
:1050300009815FEACB704FF400704FF0400708BF62
:105040004FF000701BF0020437604FF4007108BF8E
:105050004FF000715FEA4B73C8F800000BEB5B0088
:105060004FF400733560376000EB9B00C8F8001008
:1050700058BF4FF000735FEA0B7135604FF4007159
:10508000376000EBDB00C8F80030356058BF4FF0E8
:105090000071C00737604FF40070C8F80010356029
:1050A0004FF00001376008BF4FF00070C8F80000F3
:1050B0004FF0007035603760C8F80000404635603A
:1050C000376040F81829356037600A91CDE906212C
:1050D00008910321099106A9FDF772FC9AF818C0FE
:1050E0003560BCF1000F23D01CF00300ACF10102CD
:1050F00061460ED040234FF48005336001283560AF
:10510000114606D002283360356040F05686ACF177
:105110000201032A0CD340204FF48002043930608E
:105120003260306032603060326030603260F5D1C1
:10513000D8F8F8074FF48001C0F3C0103760316031
:105140000223D8F8F827376003EA9212316010443E
:10515000D8F8F817042202EA5111376000EB010970
:10516000B9F1040F18BFB9F1020F40F05785002CB8
:1051700048D09AF81900002844D04FF4800140220A
:105180003160326031603260316032603160326093
:105190003160326031603260316032603160326083
:1051A0003160326031603260316032603160326073
:1051B0003160326031603260316032603160326063
:1051C0003160326031603260316032603160326053
:1051D0003160326031603260316032603160326043
:1051E0003160326031603260316032603160326033
:1051F0003160326031603260316032603160326023
:1052000031603260BCF1000F00F08C861CF00300AE
:10521000ACF10102614600F075864FF4800740232F
:10522000376001283360114600F06C860228376031
:10523000336040F06086ACF10201032A80F064869E
:1052400000F070BEDAF804004027401EFDD100BF18
:1052500000BF3760DAF804000023401EFDD100BF14
:1052600000BF5FEACB704FF4007008BF4FF00070D2
:10527000C8F800003560DAF80400401EFDD100BF18
:1052800000BF3760DAF80400401EFDD100BF00BF48
:105290004FF400701BF0020408BF4FF00070C8F814
:1052A00000003560DAF80400401EFDD100BF00BFE9
:1052B0003760DAF80400401EFDD100BF00BF5FEA8E
:1052C0004B704FF4007058BF4FF00070C8F80000EA
:1052D0003560DAF80400401EFDD100BF00BF376022
:1052E000DAF80400401EFDD100BF00BF5FEA0B707A
:1052F0004FF4007058BF4FF00070C8F800003560E0
:105300000BEB5B00DAF8041000EB9B00491EFDD1AB
:1053100000BF00BF3760DAF8041000EBDB00491E65
:10532000FDD100BF00BFC0074FF4007008BF4FF0B1
:105330000070C8F8000035604FF00071DAF8040022
:10534000401EFDD100BF00BF3760DAF80400401EE8
:10535000FDD100BF00BFC8F800103560DAF80400C6
:10536000401EFDD100BF00BF3760DAF80410404690
:10537000491EFDD100BF00BF40F818293560DAF89A
:105380000410491EFDD100BF00BF3760DAF80410D9
:10539000491EFDD100BF00BF0A930321CDE90623BA
:1053A0000893099106A9FDF70BFB9AF818003560E0
:1053B000DAF80410491EFDD100BF00BF90B1404291
:1053C0004FF480013760DAF80420521EFDD100BF8F
:1053D00000BF3160DAF80420521EFDD100BF00BFCB
:1053E0000130EFD1D8F8F8074FF48002C0F3C010B5
:1053F0003760DAF80410491EFDD100BF00BF3260EB
:10540000DAF80410491EFDD100BF00BFD8F8F81724
:105410003760DAF804305B1EFDD100BF00BF326098
:10542000022303EA91110844DAF80410491EFDD161
:1054300000BF00BF0422D8F8F817376002EA511104
:10544000DAF8043000EB01095B1EFDD100BF00BF9C
:10545000B9F1040F18BFB9F1020F40F00584002C18
:1054600000F0D6819AF81900002800F0D1814FF49D
:10547000800030604021DAF80420521EFDD100BFC8
:1054800000BF3160DAF80420521EFDD100BF00BF1A
:105490003060DAF80420521EFDD100BF00BF316039
:1054A000DAF80420521EFDD100BF00BF3060DAF8E8
:1054B0000420521EFDD100BF00BF3160DAF8042085
:1054C000521EFDD100BF00BF3060DAF80420521E2A
:1054D000FDD100BF00BF3160DAF80420521EFDD1BB
:1054E00000BF00BF3060DAF80420521EFDD100BFBB
:1054F00000BF3160DAF80420521EFDD100BF00BFAA
:105500003060DAF80420521EFDD100BF00BF3160C8
:10551000DAF80420521EFDD100BF00BF3060DAF877
:105520000420521EFDD100BF00BF3160DAF8042014
:10553000521EFDD100BF00BF3060DAF80420521EB9
:10554000FDD100BF00BF3160DAF80420521EFDD14A
:1055500000BF00BF3060DAF80420521EFDD100BF4A
:1055600000BF3160DAF80420521EFDD100BF00BF39
:105570003060DAF80420521EFDD100BF00BF316058
:10558000DAF80420521EFDD100BF00BF3060DAF807
:105590000420521EFDD100BF00BF3160DAF80420A4
:1055A000521EFDD100BF00BF3060DAF80420521E49
:1055B000FDD100BF00BF3160DAF80420521EFDD1DA
:1055C00000BF00BF3060DAF80420521EFDD100BFDA
:1055D00000BF3160DAF80420521EFDD100BF00BFC9
:1055E0003060DAF80420521EFDD100BF00BF3160E8
:1055F000DAF80420521EFDD100BF00BF3060DAF897
:105600000420521EFDD100BF00BF3160DAF8042033
:10561000521EFDD100BF00BF3060DAF80420521ED8
:10562000FDD100BF00BF3160DAF80420521EFDD169
:1056300000BF00BF3060DAF80420521EFDD100BF69
:1056400000BF3160DAF80420521EFDD100BF00BF58
:105650003060DAF80420521EFDD100BF00BF316077
:10566000DAF80420521EFDD100BF00BF3060DAF826
:105670000420521EFDD100BF00BF3160DAF80420C3
:10568000521EFDD100BF00BF3060DAF80420521E68
:10569000FDD100BF00BF3160DAF80420521EFDD1F9
:1056A00000BF00BF3060DAF80420521EFDD100BFF9
:1056B00000BF3160DAF80420521EFDD100BF00BFE8
:1056C0003060DAF80420521EFDD100BF00BF316007
:1056D000DAF80420521EFDD100BF00BF3060DAF8B6
:1056E0000420521EFDD100BF00BF3160DAF8042053
:1056F000521EFDD100BF00BF3060DAF80420521EF8
:10570000FDD100BF00BF3160DAF80420521EFDD188
:1057100000BF00BF3060DAF80420521EFDD100BF88
:1057200000BF3160DAF80420521EFDD100BF00BF77
:105730003060DAF80420521EFDD100BF00BF316096
:10574000DAF80420521EFDD100BF00BF3060DAF845
:105750000420521EFDD100BF00BF3160DAF80420E2
:10576000521EFDD100BF00BF3060DAF80420521E87
:10577000FDD100BF00BF3160DAF80420521EFDD118
:1057800000BF00BF3060DAF80420521EFDD100BF18
:1057900000BF3160DAF80420521EFDD100BF00BF07
:1057A0003060DAF80420521EFDD100BF00BF316026
:1057B000DAF80420521EFDD100BF00BF3060DAF8D5
:1057C0000420521EFDD100BF00BF3160DAF8042072
:1057D000521EFDD100BF00BF3060DAF80420521E17
:1057E000FDD100BF00BF3160DAF80420521EFDD1A8
:1057F00000BF00BF3060DAF80400401EFDD100BFDA
:1058000000BF3160DAF80400401EFDD100BF00BFC8
:105810009AF81800A0B140424FF48001402200BF26
:105820003160DAF804305B1EFDD100BF00BF32608A
:10583000DAF804305B1EFDD100BF00BF0130EFD1AC
:1058400000204FF400710A9006910121CDE9071064
:1058500003200990A8F1180006A9FDF7B1F8002C63
:1058600040F0CC869AF81900002800F0C7864FF067
:105870000070C8F800004FF4800030604021DAF872
:105880000420521EFDD100BF00BF3160DAF80420B1
:10589000521EFDD100BF00BF3060DAF80420521E56
:1058A000FDD100BF00BF3160DAF80420521EFDD1E7
:1058B00000BF00BF3060DAF80420521EFDD100BFE7
:1058C00000BF3160DAF80420521EFDD100BF00BFD6
:1058D0003060DAF80420521EFDD100BF00BF3160F5
:1058E000DAF80420521EFDD100BF00BF3060DAF8A4
:1058F0000420521EFDD100BF00BF3160DAF8042041
:10590000521EFDD100BF00BF3060DAF80420521EE5
:10591000FDD100BF00BF3160DAF80420521EFDD176
:1059200000BF00BF3060DAF80420521EFDD100BF76
:1059300000BF3160DAF80420521EFDD100BF00BF65
:105940003060DAF80420521EFDD100BF00BF316084
:10595000DAF80420521EFDD100BF00BF3060DAF833
:105960000420521EFDD100BF00BF3160DAF80420D0
:10597000521EFDD100BF00BF3060DAF80420521E75
:10598000FDD100BF00BF3160DAF80420521EFDD106
:1059900000BF00BF3060DAF80420521EFDD100BF06
:1059A00000BF3160DAF80420521EFDD100BF00BFF5
:1059B0003060DAF80420521EFDD100BF00BF316014
:1059C000DAF80420521EFDD100BF00BF3060DAF8C3
:1059D0000420521EFDD100BF00BF3160DAF8042060
:1059E000521EFDD100BF00BF3060DAF80420521E05
:1059F000FDD100BF00BF3160DAF80420521EFDD196
:105A000000BF00BF3060DAF80420521EFDD100BF95
:105A100000BF3160DAF80420521EFDD100BF00BF84
:105A20003060DAF80420521EFDD100BF00BF3160A3
:105A3000DAF80420521EFDD100BF00BF3060DAF852
:105A40000420521EFDD100BF00BF3160DAF80420EF
:105A5000521EFDD100BF00BF3060DAF80420521E94
:105A6000FDD100BF00BF3160DAF80420521EFDD125
:105A700000BF00BF3060DAF80420521EFDD100BF25
:105A800000BF3160DAF80420521EFDD100BF00BF14
:105A90003060DAF80420521EFDD100BF00BF316033
:105AA000DAF80420521EFDD100BF00BF3060DAF8E2
:105AB0000420521EFDD100BF00BF3160DAF804207F
:105AC000521EFDD100BF00BF3060DAF80420521E24
:105AD000FDD100BF00BF3160DAF80420521EFDD1B5
