:020000040800F2
:1000000070E60120F5010008FD010008FF0100086D
:1000100001020008030200080502000800000000B9
:1000200000000000000000000000000019020008AD
:100030000902000800000000B1020008C102000827
:100040000F0200080F0200080F0200080F0200084C
:100050000F0200080F0200080F0200080F0200083C
:100060000F0200080F0200080F0200080F0200082C
:100070000F0200080F0200080F0200080F0200081C
:100080000F0200080F0200080F0200080F0200080C
:100090000F0200080F0200080F0200080F020008FC
:1000A0000F0200080F0200080F0200080F020008EC
:1000B0000F0200080F0200080F0200080F020008DC
:1000C0000F0200080F0200080F0200080F020008CC
:1000D0000F0200080F0200080F0200080F020008BC
:1000E0000F0200080F0200080F0200080F020008AC
:1000F0000F0200080F0200080F0200080F0200089C
:100100000F0200080F0200080F0200080F0200088B
:100110000F02000889A200080F0200080F02000861
:100120000F0200080F0200080F0200080F0200086B
:100130000F020008000000000000000000000000A6
:100140000000000000000000000000000F02000896
:100150000F0200080F0200080F02000841A9000862
:100160000F0200080F0200080F0200080F0200082B
:100170000F020008097200080000000000000000E3
:100180000F0200080F0200080F0200080F0200080B
:100190000F0200080F020008000000000F02000814
:1001A0000000000000000000000000000F02000836
:1001B0000F0200080F02000800000000000000000D
:1001C000000000000000000000000000000000002F
:1001D0000000000000000000000000000F02000806
:1001E000DFF80CD000F0EEF8004800476105010888
:1001F00070E601200648804706480047FEE7FEE714
:10020000FEE7FEE7FEE7FEE7FEE7FEE7FEE7FEE7C6
:10021000F9A00008E10100081EF0040F0CBFEFF385
:100220000880EFF30980816911F8021C91BB01B5C8
:1002300090E80F10E047BDE800508CE80300244B25
:1002400093E80600914208BF704741B91EF0100FB5
:1002500010D12049086820F0010008600AE02CE96C
:10026000F00F1EF0100F08BF2CED108AC1F838C037
:1002700081F822E01A6092F82210906B61F0FF0E74
:100280001EF0100F08BFB0EC108AB0E8F00F80F33A
:1002900009887047104A13689942FAD801B552F894
:1002A00021C00FC8E047BDE80050CCF800007047FF
:1002B00001B510F00BFCBDE80140EFF3098CBEE77F
:1002C00001B510F041FEBDE80140EFF3098CB6E73F
:1002D0004000012034EF00E0485601082DE9F05FAE
:1002E0000546002092469B468846064681464024A5
:1002F0001BE0284641464746224600F053F8534645
:100300005A46C01A914110D311461846224600F0B1
:100310003AF82D1A67EB01084F46224601200021CA
:1003200000F031F817EB00094E41201EA4F1010442
:10033000DFDC484631462A464346BDE8F09F40EAA6
:1003400001039B0703D009E008C9121F08C0042A53
:10035000FAD203E011F8013B00F8013B521EF9D23A
:100360007047D2B201E000F8012B491EFBD2704762
:100370000022F6E710B513460A4604461946FFF771
:10038000F0FF204610BD202A04DB203A00FA02F1DB
:10039000002070479140C2F1200320FA03F3194373
:1003A00090407047202A04DB203A21FA02F0002115
:1003B000704721FA02F3D040C2F120029140084375
:1003C00019467047064C074D06E0E06840F001030F
:1003D00094E8070098471034AC42F6D3FFF704FFC7
:1003E000B85A0108D85A010880B5A2B0002021905F
:1003F00020901F901E901D90FFE743F63000C4F23E
:100400000200016841F001010160006800F0010094
:100410001C901C981390FFE7FFE743F63000C4F2EE
:100420000200016841F002010160006800F0020072
:100430001B901B981290FFE7FFE743F63000C4F2D1
:100440000200016841F004010160006800F004004E
:100450001A901A981190FFE7FFE743F63000C4F2B4
:100460000200016841F008010160006800F0080026
:10047000199019981090FFE7FFE743F63000C4F297
:100480000200016841F010010160006800F01000F6
:10049000189018980F90FFE7FFE743F63000C4F27A
:1004A0000200016841F020010160006800F02000B6
:1004B000179017980E90FFE7FFE743F63000C4F25D
:1004C0000200016841F040010160006800F0400056
:1004D000169016980D90FFE7FFE743F63000C4F240
:1004E0000200016841F080010160006800F08000B6
:1004F000159015980C90FFE7FFE743F63000C4F223
:100500000200016841F480710160006800F48070AD
:10051000149014980B90FFE749F6BD301D9003200E
:100520001E9000211F910022C4F202021DAB0A900E
:100530001046099119460892079303F089F843F68B
:100540003B701D9040F20040C4F2020006900799F3
:1005500003F07EF84EF6FF701D9040F60000C4F2E6
:100560000200079903F074F84FF69B701D9040F657
:100570000040C4F202000590079903F069F84FF6B5
:10058000FF701D9041F20000C4F20200079903F0D1
:100590005FF84FF6FF401D9041F20040C4F20200A8
:1005A0000490079903F054F84BF63F501D9041F624
:1005B0000000C4F20200079903F04AF84FF63C70BD
:1005C0001D9041F60040C4F202000390079903F029
:1005D0003FF840F6FF701D9042F20000C4F20200A6
:1005E000079903F035F84FF480601D9001201E90AC
:1005F00009991F910A9A2092089B02901846079920
:1006000003F026F840201D9011211E9102991F91A0
:10061000089A01901046079903F01AF84FF40070F9
:100620001D9002981E9009991F910498079903F054
:100630000FF84FF480701D900498079903F008F8A4
:1006400001981D900398079903F002F804201D906B
:1006500009991E91069A00901046079902F0F8FF3A
:1006600000981D900598079902F0F2FF80201D90D8
:100670000398079902F0ECFF02201D900898079953
:1006800002F0E6FF22B080BD86B0014605900191E0
:10069000FFE745F22C40C0F60100C06A8047029097
:1006A00002984008C007002860D0FFE749F628609C
:1006B000C2F201000068049045F22C40C0F601002F
:1006C000406A8047DDF810E0704404904AF22C60E4
:1006D000C2F201000068DDF810E0AEEB000004900B
:1006E0000498B0F5006F0BDBFFE704984AF22C6129
:1006F000C2F201010A681044086000200490FFE77C
:100700000498012831DBFFE74AF22C60C2F20100B5
:1007100000686FF3DF20C0F5006003900498039930
:10072000884203DDFFE703980490FFE74AF22C605C
:10073000C2F2010000686FF3DF2049F22761C2F2C4
:1007400001010144049A002011F0B8FC04900498BF
:10075000012809DBFFE704984AF22C61C2F201018B
:100760000A6810440860FFE7FFE7FFE70A200FF080
:1007700021FF00908DE7000083B04EF61450CEF2BA
:10078000000000688003002801D5FFE71AE0BFF3EE
:100790004F8FBFF36F8F4EF65070CEF200000021E6
:1007A0000160BFF34F8FBFF36F8F4EF61450CEF240
:1007B0000000016841F400310160BFF34F8FBFF3C7
:1007C0006F8FFFE74EF61450CEF200000068C003B2
:1007D000002801D5FFE73CE04EF68450CEF2000041
:1007E00000210160BFF34F8F4EF68050CEF2000023
:1007F000006802900298C0F34E300190FFE7029823
:10080000C0F3C9000090FFE701980099890760F3E1
:100810004D114EF66070CEF2000001600098411E4E
:1008200000910028F0D1FFE70198411E01910028B6
:10083000E5D1FFE7BFF34F8F4EF61450CEF2000024
:10084000016841F480310160BFF34F8FBFF36F8FB8
:10085000FFE703B07047000042F2A810C2F20100A7
:1008600000210170417042F2AA10C2F20100017031
:1008700042F2AC10C2F20100016042F2B010C2F2CA
:100880000100016042F2B810C2F201000160416053
:10089000704700000000000080B586B00A4603469D
:1008A000059004910598007800280292019303D1E5
:1008B000FFE70120039003E0059800780390FFE72D
:1008C00003980128009004D0FFE70098022809D07F
:1008D00011E040F24010C2F201000121017006F067
:1008E00027FE0BE040F24010C2F20100022101702D
:1008F00006F07EFD02E000200390FFE703980499D4
:1009000008704FF0011006B080BD0000000000002C
:1009100087B00A4603460490039104980178407812
:1009200041EA00200290029800EBC000C000029053
:10093000029806900698059001920093FFE70598AB
:1009400001380590002801D0FFE7F8E7039800215F
:1009500001700120C0F2020007B0704700000000E3
:1009600080B584B00146039040F24010C2F201000D
:10097000002202700291019206F0D6FD03980199BF
:100980000170012004B080BD87B00A46034606907E
:100990000591069804900698013006900698411C2F
:1009A00006910078039001920093FFE703980028D6
:1009B0001FD0FFE70698411C0691007802909DF831
:1009C0000800800700280BD5FFE79DF80800C00647
:1009D000002804D5FFE7069804300690FFE703E0FF
:1009E000069804300690FFE7FFE70398013803906C
:1009F000DCE705980021017005984170069804997C
:100A0000401A0004023007B07047000000000000E8
:100A100080B588B00A46034606900591069800788E
:100A20007F280192009333D1FFE70698411C06917D
:100A3000007805994A1C059208700698411C069199
:100A400000780490049805994A1C059208704FF0AC
:100A500002100390FFE70498411E0491002814D06F
:100A6000FFE70698059900F043FF0290029803996A
:100A700008440390BDF80A00069908440690BDF8A2
:100A80000800059908440590E5E70398079005E0FC
:100A90000698059900F02CFF0790FFE7079808B02B
:100AA00080BD00000000000082B0014601900020DF
:100AB000009102B07047000082B001460190002012
:100AC000009102B07047000082B001460190002002
:100AD000009102B07047000080B586B00A46034618
:100AE0000490039104980078014600280292019333
:100AF000009104D0FFE70098012807D00DE004988A
:100B0000407800F0010006F0AFF90EE0049840785C
:100B100000F0010006F0C4F907E00398FF2101701E
:100B20000120C0F20200059007E003980021017047
:100B30000120C0F202000590FFE7059806B080BDD5
:100B400080B588B00A4603468DF81F000691002044
:100B50008DF817009DF81F000146012804920393A9
:100B6000029128D0FFE7029802282AD0FFE70298D6
:100B700003282CD0FFE7029804282ED0FFE7029824
:100B8000052838D0FFE70298062835D0FFE70298FD
:100B9000F02832D0FFE70298F12835D0FFE702981D
:100BA000FD2841D0FFE70298FE2855D0FFE70298C4
:100BB000FF2847D057E00698FFF786FF8DF817000B
:100BC00052E00698FFF770FF8DF817004CE006988A
:100BD000FFF772FF8DF8170046E006208DF817002A
:100BE00006989DF8172045F2C831C0F60101FFF7BD
:100BF000A6FB019038E037E036E006983721017017
:100C000001208DF817002FE006980021017006984A
:100C1000E62141700698DF21817006980C21C17091
:100C200004208DF817001FE0069800210170069837
:100C300020224270069881700698C17004208DF8B9
:100C4000170011E0069800210170069804214170F8
:100C500002208DF8170007E0069808210170012096
:100C60008DF8170000E0FFE79DF8170008B080BD81
:100C700088B00A460346079006910798411C0791E1
:100C800000780590059840F24011C2F20101887683
:100C900000200390029001920093FFE702980599CB
:100CA00088421CD2FFE70798411C07910078049006
:100CB0000498029940F24012C2F201021A32114421
:100CC00088700398029902EB4101488104980399C6
:100CD00008440390FFE7029801300290DEE700200D
:100CE0000290FFE702980599884215D2FFE7029823
:100CF00040F24011C2F201011A3108448078039A8F
:100D0000101A03900398029A01EB42014883FFE70F
:100D1000029801300290E5E70698002101700598DD
:100D20004FF4803101EB0040013008B07047000003
:100D300080B586B00A4603460490039140F2401005
:100D4000C2F20100007802280192009301D0FFE76F
:100D500033E00498007840F24011C2F20101C876F5
:100D6000887EC97E814201DBFFE726E00E2003F08A
:100D7000EBFD04F071FA029003984FF0000E80F83A
:100D800000E00298DDF80CE08EF801000298000AFD
:100D9000DDF80CE08EF80200BDF80A00DDF80CE08A
:100DA0008EF803009DF80B00DDF80CE08EF80400CF
:100DB0000520C0F20100059006E00398FF210170B4
:100DC0004FF001100590FFE7059806B080BD0000C8
:100DD00080B58AB00A460346099008910898411CDC
:100DE0000891002101700120059004900998411C90
:100DF00009910078069002920193FFE70698411E40
:100E00000691002832D0FFE70998411C099100782B
:100E10000790079800F03F0003900398002803D143
:100E2000FFE740200390FFE703980730C0080390D6
:100E300007980999089A04F0D3FB03980999084484
:100E40000990039805990844013005909DF81C000D
:100E50000006002809D5FFE7039808990844089080
:100E60000398049908440490FFE7C7E7059804999C
:100E700041EA00400AB080BD80B59CB00A460346F6
:100E80001B901A911B9819900020149013901A9996
:100E900015911A9902311A9140F28811C2F201019A
:100EA00008700D9012901B98411C1B91007840F225
:100EB0004011C2F20101C876887EC97E81420B9240
:100EC0000A9301DBFFE777E31B98411C1B91007835
:100ED0001890FFE71898002800F0C382FFE71B98DE
:100EE000411C1B91007817901798C0070A21002811
:100EF00018BF0B2116919DF85C004FEA8070002806
:100F000040F1D281FFE71298002800F0AE80FFE7A1
:100F100040F24010C2F20100008A0F900D9816991D
:100F200088422BD1FFE79DF85C00C006002825D43D
:100F3000FFE7FFE717980EA904F016FC1390FFE7F0
:100F4000139800210228099112D1FFE70F98411E42
:100F50000F910021002809910AD0FFE740F2881084
:100F6000C2F201000078B0FA80F040090990FFE772
:100F70000998C0070028DDD1FFE730E00D980A2866
:100F800006D0FFE70A200D900D9803F0DDFCFFE787
:100F9000FFE70E200EA904F0E7FB1390FFE713987C
:100FA00000210228089112D1FFE70F98411E0F91EE
:100FB0000021002808910AD0FFE740F28810C2F211
:100FC00001000078B0FA80F040090890FFE7089827
:100FD000C0070028DDD1FFE700201290FFE713983B
:100FE000012801D0FFE73CE20E981A994A1C1A9298
:100FF00008700E98000A1A994A1C1A920870BDF8D7
:101000003A001A994A1C1A9208709DF83B001A99E6
:101010004A1C1A9208701298002825D0FFE79DF804
:101020005C00000600281ED5FFE740F24010C2F227
:10103000010080680C900C981A994A1C1A9208704A
:101040000C98000A1A994A1C1A920870BDF83200CE
:101050001A994A1C1A9208709DF833001A994A1C72
:101060001A920870FFE7FFE7FFE79DF85C00C006F3
:10107000002840F1B280FFE71B98006811901B9890
:1010800004301B9040F24010C2F20100408A1090E0
:101090000D981699884206D0FFE716980D900D9886
:1010A00003F052FCFFE740F24010C2F20100008A58
:1010B0000F90FFE71798002104F056FB1390FFE70D
:1010C000139800210228079112D1FFE70F98411EC3
:1010D0000F910021002807910AD0FFE740F2881005
:1010E000C2F201000078B0FA80F040090790FFE7F3
:1010F0000798C0070028DDD1FFE71398012801D029
:10110000FFE7AEE1FFE740F24010C2F20100008AC3
:101110000F90FFE717980EA904F026FB1390FFE746
:10112000139800210228069112D1FFE70F98411E63
:101130000F910021002806910AD0FFE740F28810A5
:10114000C2F201000078B0FA80F040090690FFE793
:101150000698C0070028DDD1FFE71398012801D0C9
:10116000FFE724E0FFE70E9840F24011C2F20101D0
:1011700049690840119900228842059212D0FFE780
:101180001098411E10910021002805910AD0FFE718
:1011900040F28810C2F201000078B0FA80F04009F5
:1011A0000590FFE70598C0070028ACD1FFE70E982F
:1011B00040F24011C2F20101496908401199884288
:1011C00005D0FFE7139840F010001390FFE7139845
:1011D000012801D0FFE744E165E01298002861D1C1
:1011E000FFE70D981699884206D0FFE716980D90F4
:1011F0000D9803F0A9FBFFE740F24010C2F2010096
:10120000008A0F90FFE71798002104F0ADFA1390C1
:10121000FFE7139800210228049112D1FFE70F98ED
:10122000411E0F910021002804910AD0FFE740F2EF
:101230008810C2F201000078B0FA80F040090490F2
:10124000FFE70498C0070028DDD1FFE713980128C5
:1012500001D0FFE705E19DF85C00000600281ED5DF
:10126000FFE740F24010C2F2010080680C900C9839
:101270001A994A1C1A9208700C98000A1A994A1C6A
:101280001A920870BDF832001A994A1C1A92087016
:101290009DF833001A994A1C1A920870FFE7012042
:1012A0001290FFE7FFE7CBE01298002853D0FFE74A
:1012B0000D980A2806D0FFE70A200D900D9803F03C
:1012C00043FBFFE740F24010C2F20100008A0F909A
:1012D000FFE70E200EA904F047FA1390FFE71398DA
:1012E00000210228039112D1FFE70F98411E0F91B0
:1012F0000021002803910AD0FFE740F28810C2F2D3
:1013000001000078B0FA80F040090390FFE70398ED
:10131000C0070028DDD1FFE71398012801D0FFE7BF
:101320009FE00E981A994A1C1A9208700E98000AAB
:101330001A994A1C1A920870BDF83A001A994A1C68
:101340001A9208709DF83B001A994A1C1A9208706C
:1013500000201290FFE71B9800680E901B98043045
:101360001B909DF85C008006002809D5FFE70E98C9
:1013700040F24011C2F201014861012013905EE089
:101380000D981699884206D0FFE716980D900D9893
:1013900003F0DAFAFFE740F24010C2F20100008ADF
:1013A0000F90FFE717980EA904F0DEF91390FFE7FE
:1013B000139800210228029112D1FFE70F98411ED5
:1013C0000F910021002802910AD0FFE740F2881017
:1013D000C2F201000078B0FA80F040090290FFE705
:1013E0000298C0070028DDD1FFE71398012801D03B
:1013F000FFE736E09DF85C00000600281ED5FFE7F9
:1014000040F24010C2F2010080680C900C981A99CA
:101410004A1C1A9208700C98000A1A994A1C1A92CF
:101420000870BDF832001A994A1C1A9208709DF88B
:1014300033001A994A1C1A920870FFE7FFE7FFE78A
:1014400014980130149040F28810C2F20100007824
:10145000002801D0FFE704E0FFE718980138189052
:1014600038E5FFE7189800281FD0FFE71B98411CBC
:101470001B91007817909DF85C00800700280BD521
:10148000FFE79DF85C00C006002804D5FFE71B9825
:1014900004301B90FFE703E01B9804301B90FFE72C
:1014A000FFE7189801381890DCE71398012840F0FE
:1014B0008280FFE70D980A2806D0FFE70A200D90EA
:1014C0000D9803F041FAFFE71298002847D0FFE794
:1014D00040F24010C2F20100008A0F90FFE70E2098
:1014E0000EA904F041F91390FFE713980021022898
:1014F000019112D1FFE70F98411E0F9100210028A2
:1015000001910AD0FFE740F28810C2F20100007892
:10151000B0FA80F040090190FFE70198C007002869
:10152000DDD1FFE71398012801D0FFE744E00E98D2
:101530001A994A1C1A9208700E98000A1A994A1CA5
:101540001A920870BDF83A001A994A1C1A9208704B
:101550009DF83B001A994A1C1A9208702AE040F242
:101560004010C2F20100008A0F90FFE70E20002118
:1015700004F0FAF81390FFE7139800210228009175
:1015800012D1FFE70F98411E0F9100210028009112
:101590000AD0FFE740F28810C2F201000078B0FAEA
:1015A00080F040090090FFE70098C0070028DDD1D7
:1015B000FFE7FFE7FFE7FFE7149815990870139816
:1015C000159948701B981999401A1A99159A891AF1
:1015D00041EA00401CB080BD80B590B00A46034689
:1015E0000F900E9100200B900A900E9909910E9980
:1015F00003310E9140F28811C2F2010108700F9878
:10160000411C0F91007840F24011C2F20101C876EE
:10161000887EC97E81420592049301DBFFE728E1C1
:101620000F980178407841EA00200D900F98023021
:101630000F900D98002801D1FFE71AE10F98411C87
:101640000F9100780C900C98C0070A21002818BF51
:101650000B210691069803F077F99DF830004FEAC8
:101660008070002840F19180FFE740F24010C2F204
:101670000100008A0890FFE70C98002104F074F83C
:101680000A90FFE70A9800210228039112D1FFE790
:101690000898411E08910021002803910AD0FFE715
:1016A00040F28810C2F201000078B0FA80F04009E0
:1016B0000390FFE70398C0070028DDD1FFE70A98F1
:1016C000012801D0FFE7D4E0FFE70D98411E0D91FE
:1016D000002859D0FFE70D9800280BD1FFE70698A6
:1016E0000A2804D0FFE70A2003F02EF9FFE70E20B6
:1016F0000C90FFE740F24010C2F20100008A08900F
:10170000FFE70C9807A904F02FF80A90FFE70A9862
:1017100000210228029112D1FFE70898411E08918A
:101720000021002802910AD0FFE740F28810C2F29F
:1017300001000078B0FA80F040090290FFE70298BB
:10174000C0070028DDD1FFE70A98012801D0FFE794
:101750008FE007980E994A1C0E9208700798000AAD
:101760000E994A1C0E920870BDF81E000E994A1C74
:101770000E9208709DF81F000E994A1C0E92087078
:101780000B9801300B90A0E772E0FFE70D98411E27
:101790000D91002839D0FFE70F98006807900F9847
:1017A00004300F9040F24010C2F20100008A08900D
:1017B000FFE70C9807A903F0D7FF0A90FFE70A9804
:1017C00000210228019112D1FFE70898411E0891DB
:1017D0000021002801910AD0FFE740F28810C2F2F0
:1017E00001000078B0FA80F040090190FFE701980D
:1017F000C0070028DDD1FFE70A98012801D0FFE7E4
:1018000037E00B9801300B90C0E706980A2804D007
:10181000FFE70A2003F098F8FFE740F24010C2F219
:101820000100008A0890FFE70E20002103F09CFFD2
:101830000A90FFE70A9800210228009112D1FFE7E1
:101840000898411E08910021002800910AD0FFE766
:1018500040F28810C2F201000078B0FA80F040092E
:101860000090FFE70098C0070028DDD1FFE7FFE701
:10187000FFE70B98099908700B98000A09994870BE
:101880000A98099988700E980999401A10B080BD7D
:1018900080B586B00A460346049003910498007808
:1018A00040F24011C2F20101C876887EC97E8142B1
:1018B0000192009306DBFFE70398FF2101700120EE
:1018C000059011E0082003F03FF80498D0F80100DB
:1018D0000290029804F074FF03984FF0000E80F815
:1018E00000E001200590FFE7059806B080BD0000EC
:1018F00080B588B00A46034606900591069890F98F
:101900000000B0F1FF3F039202930BDCFFE7069863
:1019100000789F2806D8FFE70698059900F0D0F8D0
:101920000790CAE00698007805994A1C059208704D
:101930000698411C0691007801461E28019100F28C
:10194000AF800199DFE801F0101F252B6B7177AC98
:101950007D3036ACACACACAC3B41474D595F658398
:10196000898F959BA653A0000698007805990131B0
:10197000FFF7E6F80490049805990870049800F1C0
:101980000210079099E006980599FFF7A5F80490D2
:101990008EE006980599FEF77FFF049088E0059891
:1019A000FEF7DEFF049083E006980599FEF7B0FF8E
:1019B00004907DE0059800F093F8049078E0069894
:1019C000059900F0FDFE049072E00698059900F07C
:1019D00097FE04906CE00698059901F039F80490A0
:1019E00066E00698059900F08FF8049060E006988C
:1019F000059900F0ADF804905AE006980599FFF7B4
:101A0000E7F9049054E006980599FFF731F904903E
:101A10004EE006980599FFF78BF9049048E0069888
:101A2000059901F0B1F9049042E00698059901F09A
:101A300037F904903CE00698059901F05DF90490AF
:101A400036E00698059901F0C3F9049030E0069855
:101A5000059908F0F1F904902AE00698059908F034
:101A60005BF9049024E00698059907F099FF04902B
:101A70001EE00698059907F0D3FF049018E005983A
:101A800008F0A6F9049013E00698059908F09CF870
:101A900004900DE00698059908F016F8049007E008
:101AA0000598FF2100F8011C4FF00110079004E099
:101AB000049800F101100790FFE7079808B080BD77
:101AC00084B00A460346039002910298FF210170F8
:101AD0004FF001100192009304B070470000000025
:101AE00080B582B001460190009105F0B9FD0199E1
:101AF0004870019800210170022002B080BD0000F2
:101B0000704700000000000085B00A4603460490BC
:101B10000391049800788DF80B009DF80B0000F0FD
:101B20000300013040F24011C2F2010108769DF835
:101B30000B00C0F3800048760398002101704FF03D
:101B400001100192009305B07047000000000000F2
:101B500080B598B00A460346089007910798411C43
:101B60000791002101700120049003900898411C06
:101B700008910078059001920093FFE70598411EB7
:101B80000591002800F08280FFE70898411C089129
:101B900000780690069800F03F0002900298002816
:101BA00003D1FFE740200290FFE702980730C0080A
:101BB00002909DF818000006002815D5FFE70020C8
:101BC0000D900C900B900A9009904FF400710991C0
:101BD0000A900B9003200C9041F20040C4F20200E6
:101BE00009A901F035FD15E0002012901190109028
:101BF0000F900E904FF400710E9101210F911090F3
:101C00000320119041F20040C4F202000EA901F03D
:101C10001FFDFFE706980899079A06F0D9F905987D
:101C2000002816D1FFE70020179016901590149009
:101C300013904FF40071139101211491159003201A
:101C4000169041F20040C4F2020013A901F000FD19
:101C5000FFE79DF81800000600280CD5FFE7049860
:101C6000013004900298079908440790029803995C
:101C70000844039009E002980899084408900298E3
:101C80000499084401300490FFE777E7049803992A
:101C900041EA004018B080BD80B59CB00A460346BA
:101CA0001B901A911B9819900020159014901A9966
:101CB00016911A9902311A9140F28811C2F201016B
:101CC0000870139012901B9801301B901B98411CB8
:101CD0001B91007818900C920B93FFE7189800283E
:101CE00000F0F882FFE71B98411C1B9100781790C9
:101CF0009DF85C008007002840F12282FFE71398DE
:101D0000002800F09F80FFE740F24010C2F201007F
:101D1000008A0F90179800F01100012825D1FFE7E5
:101D2000FFE717980EA906F04FFA1490FFE71498F2
:101D3000002102280A9112D1FFE70F98411E0F914E
:101D4000002100280A910AD0FFE740F28810C2F271
:101D500001000078B0FA80F040090A90FFE70A9885
:101D6000C0070028DDD1FFE726E0FFE70E200EA91F
:101D700006F02AFA1490FFE714980021022809912E
:101D800012D1FFE70F98411E0F9100210028099101
:101D90000AD0FFE740F28810C2F201000078B0FAE2
:101DA00080F040090990FFE70998C0070028DDD1BD
:101DB000FFE700201390FFE71498012801D0FFE708
:101DC00088E20E981A994A1C1A9208700E98000A16
:101DD0001A994A1C1A920870BDF83A001A994A1CBE
:101DE0001A9208709DF83B001A994A1C1A920870C2
:101DF0001398002825D0FFE79DF85C000006002816
:101E00001ED5FFE740F24010C2F2010080680D903D
:101E10000D981A994A1C1A9208700D98000A1A997E
:101E20004A1C1A920870BDF836001A994A1C1A9278
:101E300008709DF837001A994A1C1A920870FFE73B
:101E4000FFE7FFE79DF85C00C006002840F1AE8088
:101E5000FFE71B98006811901B9804301B9040F21C
:101E60004010C2F20100408A10909DF85C00C0074B
:101E7000002830D0FFE740F24010C2F20100008A93
:101E80000F90FFE71798002106F09EF91490FFE7E6
:101E9000149800210228089112D1FFE70F98411EE3
:101EA0000F910021002808910AD0FFE740F2881026
:101EB000C2F201000078B0FA80F040090890FFE714
:101EC0000898C0070028DDD1FFE71498012801D049
:101ED000FFE7FFE1FFE7FFE740F24010C2F2010039
:101EE000008A0F90FFE717980EA906F06DF914907D
:101EF000FFE7149800210228079112D1FFE70F98FD
:101F0000411E0F910021002807910AD0FFE740F2FF
:101F10008810C2F201000078B0FA80F04009079002
:101F2000FFE70798C0070028DDD1FFE714980128D4
:101F300001D0FFE724E0FFE70E9840F24011C2F223
:101F4000010149690840119900228842069212D085
:101F5000FFE71098411E10910021002806910AD039
:101F6000FFE740F28810C2F201000078B0FA80F07A
:101F700040090690FFE70698C0070028ACD1FFE7AC
:101F80000E9840F24011C2F20101496908401199CE
:101F9000884205D0FFE7149840F010001490FFE746
:101FA0001498012801D0FFE794E1C6E040F2401008
:101FB000C2F20100008A0F909DF85C00C007002863
:101FC00055D0FFE71398002850D1FFE7FFE7179897
:101FD000002106F0F9F81490FFE714980021022878
:101FE000059112D1FFE70F98411E0F9100210028A3
:101FF00005910AD0FFE740F28810C2F20100007894
:10200000B0FA80F040090590FFE70598C007002866
:10201000DDD1FFE71498012801D0FFE75AE19DF8D0
:102020005C00000600281ED5FFE740F24010C2F217
:10203000010080680D900D981A994A1C1A92087038
:102040000D98000A1A994A1C1A920870BDF83600B9
:102050001A994A1C1A9208709DF837001A994A1C5E
:102060001A920870FFE701201390FFE764E0FFE792
:1020700017980EA906F0A8F81490FFE7149800210D
:102080000228049112D1FFE70F98411E0F91002101
:10209000002804910AD0FFE740F28810C2F2010044
:1020A0000078B0FA80F040090490FFE70498C00778
:1020B0000028DDD1FFE71498012801D0FFE709E1EE
:1020C0009DF85C00000600281ED5FFE740F2401096
:1020D000C2F2010080680D900D981A994A1C1A925C
:1020E00008700D98000A1A994A1C1A920870BDF8D7
:1020F00036001A994A1C1A9208709DF837001A99EE
:102100004A1C1A920870FFE70E981A994A1C1A92F4
:1021100008700E98000A1A994A1C1A920870BDF8A5
:102120003A001A994A1C1A9208709DF83B001A99B5
:102130004A1C1A920870FFE7FFE700201290B8E0EF
:102140001398002849D0FFE740F24010C2F2010086
:10215000008A0F90FFE70E200EA906F035F81490C4
:10216000FFE7149800210228039112D1FFE70F988E
:10217000411E0F910021002803910AD0FFE740F291
:102180008810C2F201000078B0FA80F04009039094
:10219000FFE70398C0070028DDD1FFE71498012866
:1021A00001D0FFE796E00E981A994A1C1A9208701F
:1021B0000E98000A1A994A1C1A920870BDF83A0043
:1021C0001A994A1C1A9208709DF83B001A994A1CE9
:1021D0001A92087000201390FFE71B9800680E9079
:1021E0001B9804301B909DF85C008006002809D5E0
:1021F000FFE70E9840F24011C2F201014861012050
:10220000149055E040F24010C2F20100008A0F9095
:10221000FFE717980EA905F0D7FF1490FFE7149871
:1022200000210228029112D1FFE70F98411E0F9161
:102230000021002802910AD0FFE740F28810C2F284
:1022400001000078B0FA80F040090290FFE70298A0
:10225000C0070028DDD1FFE71498012801D0FFE76F
:1022600038E09DF85C00000600281ED5FFE740F22C
:102270004010C2F2010080680D900D981A994A1C16
:102280001A9208700D98000A1A994A1C1A9208703E
:10229000BDF836001A994A1C1A9208709DF837004A
:1022A0001A994A1C1A920870FFE701201290FFE762
:1022B000FFE715980130159040F28810C2F2010036
:1022C0000078002801D0FFE704E0FFE71898013804
:1022D000189003E5FFE7189800281FD0FFE71B9828
:1022E000411C1B91007817909DF85C008007002826
:1022F0000BD5FFE79DF85C00C006002804D5FFE77A
:102300001B9804301B90FFE703E01B9804301B90E0
:10231000FFE7FFE7189801381890DCE714980128C8
:102320007CD1FFE71398002847D0FFE740F2401028
:10233000C2F20100008A0F90FFE70E200EA905F0FF
:1023400043FF1490FFE7149800210228019112D155
:10235000FFE70F98411E0F910021002801910AD03C
:10236000FFE740F28810C2F201000078B0FA80F076
:1023700040090190FFE70198C0070028DDD1FFE781
:102380001498012801D0FFE749E00E981A994A1CD9
:102390001A9208700E98000A1A994A1C1A9208702C
:1023A000BDF83A001A994A1C1A9208709DF83B0031
:1023B0001A994A1C1A9208702FE0129800282BD004
:1023C000FFE740F24010C2F20100008A0F90FFE7E1
:1023D0000E20002105F0F8FE1490FFE7149800216C
:1023E0000228009112D1FFE70F98411E0F910021A2
:1023F000002800910AD0FFE740F28810C2F20100E5
:102400000078B0FA80F040090090FFE70098C0071C
:102410000028DDD1FFE7FFE7FFE7FFE7FFE71598BB
:10242000169908701498169948701B981999401AB3
:102430001A99169A891A41EA00401CB080BD000022
:1024400080B590B00A4603460F900E9100200B9085
:102450000A900E9909910E9903310E9140F288115C
:10246000C2F2010108700F9801300F900F980178A7
:10247000407841EA00200D900F9802300F900D989F
:1024800000280692059301D1FFE70CE10F98411C4B
:102490000F9100780C909DF830008007002840F1E3
:1024A0009680FFE79DF83000C007002830D0FFE796
:1024B00040F24010C2F20100008A0890FFE70C9839
:1024C000002105F081FE0A90FFE70A98002102280A
:1024D000049112D1FFE70898411E089100210028BD
:1024E00004910AD0FFE740F28810C2F201000078A0
:1024F000B0FA80F040090490FFE70498C007002874
:10250000DDD1FFE70A98012801D0FFE7CBE0FFE724
:10251000FFE70D98411E0D91002857D0FFE70D9859
:10252000002809D1FFE79DF83000C007002803D03C
:10253000FFE70E200C90FFE740F24010C2F20100CE
:10254000008A0890FFE70C9807A905F03DFE0A9065
:10255000FFE70A9800210228039112D1FFE70898AB
:10256000411E08910021002803910AD0FFE740F2A4
:102570008810C2F201000078B0FA80F040090390A0
:10258000FFE70398C0070028DDD1FFE70A9801287C
:1025900001D0FFE787E007980E994A1C0E92087059
:1025A0000798000A0E994A1C0E920870BDF81E008A
:1025B0000E994A1C0E9208709DF81F000E994A1C35
:1025C0000E9208700B9801300B90A2E76AE0FFE7CB
:1025D0000D98411E0D91002839D0FFE70F98006833
:1025E00007900F9804300F9040F24010C2F20100A3
:1025F000008A0890FFE70C9807A905F0E5FD0A900E
:10260000FFE70A9800210228029112D1FFE70898FB
:10261000411E08910021002802910AD0FFE740F2F4
:102620008810C2F201000078B0FA80F040090290F0
:10263000FFE70298C0070028DDD1FFE70A980128CC
:1026400001D0FFE72FE00B9801300B90C0E740F27C
:102650004010C2F20100008A0890FFE70E2000211E
:1026600005F0B2FD0A90FFE70A98002102280191C7
:1026700012D1FFE70898411E08910021002801911E
:102680000AD0FFE740F28810C2F201000078B0FAE9
:1026900080F040090190FFE70198C0070028DDD1D4
:1026A000FFE7FFE7FFE70B98099908700B98000A0E
:1026B000099948700A98099988700E980999401AE2
:1026C00010B080BD0000000080B588B00A46034607
:1026D000079006910798D0F801000590002005A901
:1026E00004900392029305F06FFD0699049A0A7014
:1026F00001210190084608B080BD000000000000E4
:1027000088B00A4603460690059106980068049032
:10271000049800280292019308D1FFE70598FF2151
:1027200001700120C0F20400079043E004984FF6C6
:102730008011C0F23731884208D3FFE740F24010E1
:10274000C2F201000121417041602BE040F24010D3
:10275000C2F201000021417004984FF2FF21C0F243
:102760006F610144B1FBF0F00390039803280FD38D
:10277000FFE7039802380390039802304AF6AB2132
:10278000CAF6AA21A0FB010149080391009002E0CA
:1027900001200390FFE7039840F24011C2F20101CB
:1027A0004860FFE70598002101700120C0F2040095
:1027B0000790FFE7079808B070470000000000008E
:1027C00080B58CB00A4603460890079108980078B7
:1027D00006900898407805900898D0F80200049078
:1027E0009DF81400C00700280292019316D0FFE75D
:1027F0009DF81800C007002807D0FFE741F61840F1
:10280000C4F202004021016007E041F61840C4F222
:1028100002004FF480010160FFE7FFE79DF814001C
:102820008007002817D5FFE79DF8180080070028CB
:1028300008D5FFE741F21840C4F202004FF40071DE
:10284000016007E041F21840C4F202004FF000714D
:102850000160FFE7FFE79DF81400400700281AD544
:10286000FFE7069880080B909DF82C00C007002811
:1028700008D0FFE741F21840C4F202004FF4807123
:10288000016007E041F21840C4F202004FF080718D
:102890000160FFE7FFE79DF814008006002804D5DB
:1028A000FFE7069840090A90FFE79DF8140000062C
:1028B000002807D5FFE70698C009099009980FF08E
:1028C0006FFAFFE70498002800F09380FFE7049870
:1028D0004CF2C161C0F22D01884206D3FFE74CF2F1
:1028E000C060C0F22D000490FFE70498D82148434F
:1028F000049007F039FC0390FFE79DF81400C0072F
:10290000002811D0FFE7069840F21041C4F20201FE
:10291000096880F001024907002948BF10460028D5
:1029200001D0FFE758E0FFE79DF81400800700287A
:1029300013D5FFE70698410841F61042C4F202029F
:102940001268012383EA50001206002A48BF01469C
:10295000002901D0FFE73FE0FFE79DF814004007A2
:10296000002812D5FFE7069881081022C4F202025F
:102970001268012383EA90009207002A48BF0146AB
:10298000002901D0FFE727E0FFE79DF8140080064B
:10299000002808D5FFE706980021B1EB501F01D0B1
:1029A000FFE719E0FFE79DF814000006002812D5A4
:1029B000FFE70698C1091022C4F20202126801233F
:1029C00083EAD0105206002A48BF0146002901D0F0
:1029D000FFE701E0FFE70BE007F0C6FBDDF80CE0E6
:1029E000A0EB0E00DDF810E07045FFF486AFFFE7C6
:1029F000FFE740F21040C4F202000068800841F690
:102A00001041C4F20201096801F08001890960F3F4
:102A100000011020C4F202000268520862F3820131
:102A200040F61042C4F202021268920862F3C30137
:102A30000068800960F3C71106910698079908702D
:102A40000120C0F206000CB080BD000000000000B4
:102A500080B586B00A460346059004910598411C4E
:102A6000059100780390039800280292019304D105
:102A7000FFE74FF480700390FFE70398059906F095
:102A800023FF04980021017003980730C0080390C9
:102A900003984FF4803101EB0040013006B080BD57
:102AA00080B540F24010C2F2010000210170417077
:102AB000022242600173642202824182416101224A
:102AC000027641768176FFF71BF880BD000000009A
:102AD00088B0014607900491FFE7812000214FF064
:102AE000FF320EF065FB0390FFE744F24C20C2F288
:102AF0000100008844F24E21C2F201010988884297
:102B000000F0CD80FFE744F25220C2F201000088BD
:102B10000590FFE70598800242F24C21C2F20101C4
:102B2000085C7E282BD1FFE70598800242F24C21F9
:102B3000C2F201017F220A540598013005900598E0
:102B4000082803D1FFE700200590FFE7059844F22D
:102B50005021C2F20101098888420FD1FFE781208C
:102B600000214FF0FF320EF023FB06909DF8180075
:102B70000006002801D5FFE701E0FFE7CAE744F2BD
:102B80005220C2F20100018842F24C22C2F201023C
:102B900002EB812146F25A22C2F20102128844F26B
:102BA0005423C2F2010303EB82220290084611462D
:102BB000FDF72EFF02990A8801320A800A88082A46
:102BC000019007D1FFE744F25220C2F20100002138
:102BD0000180FFE744F24E20C2F20100018801317A
:102BE000018046F25A20C2F20100018801310180C1
:102BF0000088082807D1FFE746F25A20C2F20100F8
:102C000000210180FFE746F25420C2F20100018852
:102C10000131018046F25820C2F2010000780028FC
:102C20003CD0FFE746F25420C2F20100008846F291
:102C30005621C2F20101098888422ED0FFE746F2F0
:102C40005C20C2F2010001884A1C028005910088C4
:102C5000082807D1FFE746F25C20C2F201000021FC
:102C60000180FFE746F25620C2F2010001880131DF
:102C7000018046F25820C2F201000021017005983F
:102C800044F25422C2F2010202EB80224FF480632C
:102C9000084611F011FC0090FFE7FFE725E71CE76D
:102CA00080B586B00A4603460590049140F2401074
:102CB000C2F20100007801460128029201930091BE
:102CC00004D0FFE70098022806D00BE0059804998D
:102CD000FEF7E2FF03900BE005980499FEF7CCF8AD
:102CE000039005E005980499FDF74EFE0390FFE779
:102CF000039806B080BD000080B586B00A46034642
:102D00000590049140F24010C2F2010000780146A3
:102D1000012802920193009104D0FFE70098022855
:102D200006D00BE005980499FFF78AFB03900FE0AB
:102D300005980499FEF750FC039009E004980021DF
:102D40000170049841700498817003200390FFE79C
:102D50000598C0788007002805D5FFE7039840F460
:102D6000802003900AE005984178807841EA0020AD
:102D70000130039941EA80400390FFE7039806B0D1
:102D800080BD00000000000084B00A4603460390A6
:102D900002910398007840F24011C2F201010873D9
:102DA000039890F801C080784CEA002008820398CC
:102DB00090F803C000794CEA002048820298002174
:102DC00001700120C0F205000192009304B0704729
:102DD00080B586B00A4603460590049140F2401043
:102DE000C2F201000078014601280292019300918D
:102DF00004D0FFE70098022806D00BE0059804995C
:102E0000FFF762FC03900BE005980499FEF740FD84
:102E1000039005E00498FF21017001200390FFE773
:102E2000039840F4A02006B080BD00000000000020
:102E300094B00146139013980022C4F2020290420B
:102E4000099111D1FFE7FFE743F63000C4F2020019
:102E5000016841F001010160006800F0010012907A
:102E600012980890FFE7CFE0139840F20041C4F2B7
:102E70000201884211D1FFE7FFE743F63000C4F2B8
:102E80000200016841F002010160006800F00200E8
:102E9000119011980790FFE7B5E0139840F60001F4
:102EA000C4F20201884211D1FFE7FFE743F6300088
:102EB000C4F20200016841F004010160006800F002
:102EC0000400109010980690FFE79BE0139840F6DE
:102ED0000041C4F20201884211D1FFE7FFE743F647
:102EE0003000C4F20200016841F00801016000688E
:102EF00000F008000F900F980590FFE781E013980D
:102F000041F20001C4F20201884211D1FFE7FFE75C
:102F100043F63000C4F20200016841F01001016084
:102F2000006800F010000E900E980490FFE767E034
:102F3000139841F20041C4F20201884211D1FFE727
:102F4000FFE743F63000C4F20200016841F02001BF
:102F50000160006800F020000D900D980390FFE7DD
:102F60004DE0139841F60001C4F20201884211D1EC
:102F7000FFE7FFE743F63000C4F20200016841F0CA
:102F800040010160006800F040000C900C98029035
:102F9000FFE733E0139841F60041C4F20201884292
:102FA00011D1FFE7FFE743F63000C4F202000168E9
:102FB00041F080010160006800F080000B900B98E8
:102FC0000190FFE719E0139842F20001C4F20201F8
:102FD000884211D1FFE7FFE743F63000C4F2020058
:102FE000016841F480710160006800F480700A900B
:102FF0000A980090FFE7FFE7FFE7FFE7FFE7FFE73B
:10300000FFE7FFE7FFE7FFE714B0704700000000AD
:1030100094B00146139013980022C4F20202904229
:10302000099111D1FFE7FFE743F63000C4F2020037
:10303000016841F001010160006800F00100129098
:1030400012980890FFE7FFE7139840F20041C4F29E
:103050000201884211D1FFE7FFE743F63000C4F2D6
:103060000200016841F002010160006800F0020006
:10307000119011980790FFE7FFE7139840F60001C1
:10308000C4F20201884211D1FFE7FFE743F63000A6
:10309000C4F20200016841F004010160006800F020
:1030A0000400109010980690FFE7FFE7139840F691
:1030B0000041C4F20201884211D1FFE7FFE743F665
:1030C0003000C4F20200016841F0080101600068AC
:1030D00000F008000F900F980590FFE7FFE71398A6
:1030E00041F20001C4F20201884211D1FFE7FFE77B
:1030F00043F63000C4F20200016841F010010160A3
:10310000006800F010000E900E980490FFE7FFE7B3
:10311000139841F20041C4F20201884211D1FFE745
:10312000FFE743F63000C4F20200016841F02001DD
:103130000160006800F020000D900D980390FFE7FB
:10314000FFE7139841F60001C4F20201884211D151
:10315000FFE7FFE743F63000C4F20200016841F0E8
:1031600040010160006800F040000C900C98029053
:10317000FFE7FFE7139841F60041C4F202018842DD
:1031800011D1FFE7FFE743F63000C4F20200016807
:1031900041F080010160006800F080000B900B9806
:1031A0000190FFE7FFE7139842F20001C4F2020129
:1031B000884211D1FFE7FFE743F63000C4F2020076
:1031C000016841F480710160006800F480700A9029
:1031D0000A980090FFE7FFE714B070470000000076
:1031E000FFE7FEE70000000080B582B042F2B510B4
:1031F000C2F20100007801282DD1FFE7FFE742F27B
:10320000C110C2F201000021017042F2AC10C2F202
:103210000100006842F2B011C2F201010968401ACF
:10322000019042F2B410C2F201000078012807D1E7
:10323000FFE707F0E9F9DDF804E07044019000E0F1
:10324000FFE7FFE742F2C110C2F201000078002858
:10325000D5D1FFE70CE042F2AC10C2F201000068E9
:1032600042F2B011C2F201010968401A0190FFE771
:10327000019802B080BD000082B042F2AA10C2F2F2
:10328000010001780091017881F00101017042F2A2
:10329000B510C2F201000078009942F2A812C2F201
:1032A0000102515C08438DF8070000980021115479
:1032B0009DF8070002B0704780B586B001460490C3
:1032C0000498806D0390019100F0EAFB029004984D
:1032D00090F8350002280DD0FFE704988021416561
:1032E000FFE70498002180F83410FFE701208DF8F3
:1032F00017005AE004980068016821F01601016087
:1033000004980068416921F0800141610498006CD3
:10331000002805D1FFE70498806C002807D0FFE75C
:1033200004980068016821F008010160FFE7049833
:103330000068016821F001010160FFE7049800685E
:103340000068C00700281AD0FFE700F0A9FBDDF8ED
:1033500008E0A0EB0E00062810D3FFE70498202118
:103360004165FFE70498002180F83410FFE70498D6
:10337000032180F835108DF8171016E0DEE7049869
:10338000C06D3F2101FA00F003998860FFE70498BF
:10339000002180F83410FFE70498012180F83510EF
:1033A000FFE700208DF81700FFE79DF8170006B033
:1033B00080BD00000000000080B584B0014603908D
:1033C000009100F06DFB029003980190019801308C
:1033D000002809D0FFE740F22010C2F20100007877
:1033E000019908440190FFE7FFE700F059FBDDF881
:1033F00008E0A0EB0E00DDF804E0704501D2FFE725
:10340000F3E704B080BD000090B00A4603460F9079
:103410000E9100200C900B900A900D900992089349
:10342000FFE70D980F2800F20E81FFE70D980121AC
:1034300001FA00F00C900E980C9908400B900B9834
:103440000C99884240F0FA80FFE70D9820F00300C5
:1034500043F60801C4F2010140580A900D9800F0AB
:10346000030080000F2101FA00F00A9908400A9039
:103470000A980F990022C4F202029142079003D1E8
:10348000FFE7002006905EE00F9840F20041C4F292
:103490000201884203D1FFE70120059050E00F9818
:1034A00040F60001C4F20201884203D1FFE7022086
:1034B000049042E00F9840F60041C4F202018842B5
:1034C00003D1FFE70320039034E00F9841F200019D
:1034D000C4F20201884203D1FFE70420029026E0F3
:1034E0000F9841F20041C4F20201884203D1FFE784
:1034F0000520019018E00F9841F60001C4F2020186
:10350000884203D1FFE7062000900AE00F9841F6B9
:103510000041C4F202010822884208BF072200923B
:10352000FFE700980190FFE701980290FFE70298FB
:103530000390FFE703980490FFE704980590FFE7E6
:1035400005980690FFE70698C0B20D9901F00301B7
:10355000890088400799814239D1FFE70D9800F032
:10356000030080000F2101FA00F00A900A980D99DB
:1035700021F0030143F60802C4F201028B5823EA4A
:10358000000088500B9843F60041C4F201010A681C
:1035900022EA000008600B9843F60441C4F20101DE
:1035A0000A6822EA000008600B9843F60841C4F25A
:1035B00001010A6822EA000008600B9843F60C41FA
:1035C000C4F201010A6822EA00000860FFE70D98D2
:1035D0004000032101FA00F00F9A136823EA00006B
:1035E00010600D9800F0070292000F2303FA02F218
:1035F0000F9B6FF0030C0CEA50001844036A23EA97
:10360000020202620D98400001FA00F00F9A9368DE
:1036100023EA000090600D98012202FA00F00F9A50
:10362000536823EA000050600D98400001FA00F052
:103630000F99CA6822EA0000C860FFE7FFE70D980B
:1036400001300D90EDE610B0704700000000000062
:1036500091B00A46034610900F9100200E900D90F5
:103660000C900B900E9009920893FFE70E980F288C
:1036700000F2D281FFE70E98012101FA00F00D90CF
:103680000F9800680D9908400C900C980D9988428D
:1036900040F0BD81FFE70F984068022805D0FFE7A2
:1036A0000F984068122826D1FFE710980E996FF006
:1036B000030202EA51010844006A0B900E9800F0E0
:1036C000070080000F2101FA00F00B9921EA0000A9
:1036D0000B900F9800690E9901F00701890088404E
:1036E0000B9908430B900B9810990E9B02EA53021A
:1036F00011440862FFE7109800680B900E98400094
:10370000032101FA00F00B9921EA00000B900F98B9
:10371000406800F003000E99490088400B99084367
:103720000B900B98109908600F98406801280FD0F3
:10373000FFE70F98406802280AD0FFE70F9840681B
:10374000112805D0FFE70F98406812282FD1FFE716
:10375000109880680B900E984000032101FA00F049
:103760000B9921EA00000B900F98C0680E99490050
:1037700088400B9908430B900B981099886010981B
:1037800040680B900E98012101FA00F00B9921EA94
:1037900000000B900F984068C0F300100E9988400D
:1037A0000B9908430B900B9810994860FFE710980D
:1037B000C0680B900E984000032101FA00F00B99AD
:1037C00021EA00000B900F9880680E99490088400C
:1037D0000B9908430B900B981099C8600F9840689C
:1037E000C000002840F11281FFE7FFE743F64400E4
:1037F000C4F20200016841F480410160006800F4F5
:1038000080400A900A980790FFE70E9820F0030086
:1038100043F60801C4F2010140580B900E9800F0E5
:10382000030080000F2101FA00F00B9921EA00004B
:103830000B9010980021C4F20201884203D1FFE7E7
:10384000002006905EE0109840F20041C4F20201B0
:10385000884203D1FFE70120059050E0109840F620
:103860000001C4F20201884203D1FFE70220049064
:1038700042E0109840F60041C4F20201884203D1B0
:10388000FFE70320039034E0109841F20001C4F2F6
:103890000201884203D1FFE70420029026E010983D
:1038A00041F20041C4F20201884203D1FFE7052042
:1038B000019018E0109841F60001C4F2020188421C
:1038C00003D1FFE7062000900AE0109841F600417E
:1038D000C4F202010822884208BF07220092FFE7D3
:1038E00000980190FFE701980290FFE7029803908B
:1038F000FFE703980490FFE704980590FFE7059819
:103900000690FFE70698C0B20E9901F00301890006
:1039100088400B9908430B900B980E9921F00301F6
:1039200043F60802C4F20102885043F60040C4F294
:10393000010000680B900C980B9921EA00000B9095
:103940000F984068C003002805D5FFE70C980B9935
:1039500008430B90FFE70B9843F60041C4F20101C6
:10396000086043F60440C4F2010000680B900C9814
:103970000B9921EA00000B900F9840688003002803
:1039800005D5FFE70C980B9908430B90FFE70B98C0
:1039900043F60441C4F20101086043F60840C4F252
:1039A000010000680B900C980B9921EA00000B9025
:1039B0000F984068C002002805D5FFE70C980B99C6
:1039C00008430B90FFE70B9843F60841C4F201014E
:1039D000086043F60C40C4F2010000680B900C989C
:1039E0000B9921EA00000B900F9840688002002894
:1039F00005D5FFE70C980B9908430B90FFE70B9850
:103A000043F60C41C4F201010860FFE7FFE7FFE75E
:103A10000E9801300E9029E611B0704700000000AA
:103A200084B00A4603460390ADF80A100398006973
:103A3000BDF80A1008420192009304D0FFE701206C
:103A40008DF8090003E000208DF80900FFE79DF8DC
:103A5000090004B07047000080B585B013468C465D
:103A600086460490ADF80E108DF80D209DF80D00DF
:103A700000280293CDF804C0CDF800E005D0FFE7A0
:103A8000BDF80E000499886105E0BDF80E00000441
:103A900004998861FFE705B080BD000000000000C8
:103AA00080B582B00CF098FD022804D1FFE70CF03D
:103AB000A9FD019025E040F22800C2F20100006853
:103AC000800B0090FFE70098002811D0FFE700BFAF
:103AD00000BF00BF00BF00BF00BF00BF00BF00BFEE
:103AE00000BF00BF00BFFFE7009801380090EAE781
:103AF00040F28C10C2F201000168013101600191B5
:103B0000FFE7019802B080BD80B582B043F6004067
:103B1000C4F20200016841F400710160016841F4DF
:103B200080710160032000F0FBF80F2000F008F81E
:103B3000019000F0BDF8002002B080BD0000000040
:103B400080B584B00146029040F22800C2F2010024
:103B5000006840F22012C2F2010212784FF47A7328
:103B6000B3FBF2F2B0FBF2F0019100F0A9FE0028E5
:103B700004D0FFE701208DF80F0018E002980F280D
:103B80000DD8FFE702994FF0FF30002200F0A0F8B7
:103B9000029840F22411C2F20101086003E0012002
:103BA0008DF80F0003E000208DF80F00FFE79DF86F
:103BB0000F0004B080BD000080B582B001460190C6
:103BC000019840784EF69852CEF2000210600198AB
:103BD0000078002800912BD0FFE7019840684EF64E
:103BE0009C51CEF2000108600198017B0907C27A5E
:103BF00041EA02610278037A90F809C090F80AE07D
:103C000041EACE4190F80DE041EA8E4190F80EE095
:103C100041EA4E41C07B41EA004040EA0C2040EAC4
:103C2000430010434EF6A051CEF2000108600BE0B5
:103C30004EF69C50CEF20000002101604EF6A050DE
:103C4000CEF200000160FFE702B080BD000000007E
:103C5000BFF35F8F4EF62450CEF20000016821F4CE
:103C6000803101604EF69450CEF2000000210160D8
:103C7000704700000000000082B0014601900198EA
:103C800040F001004EF69452CEF2000210604EF663
:103C90002450CEF20000026842F480320260BFF38A
:103CA0004F8FBFF36F8F009102B07047000000008C
:103CB000704700000000000080B582B001468DF81A
:103CC00007009DF9070000910CF06EFB02B080BD6B
:103CD00080B58AB013468C4686468DF82700089139
:103CE0000792002006900593CDF810C0CDF80CE0A7
:103CF0000CF0B2FB06909DF927000699089A079BE5
:103D00000290084611461A4603F002FA0299019001
:103D1000084601990CF0A8FB0AB080BD0000000025
:103D200080B582B001460190019800910CF0C4FB6F
:103D300002B080BD0000000080B584B00020029079
:103D4000FFE743F64000C4F20200016841F08051F1
:103D50000160006800F08050019001980090FFE73A
:103D600047F20000C4F20000016841F480310160B4
:103D7000FFF796FE0290FFE747F20400C4F200004E
:103D8000006800F48030B0F5803F0FD0FFE7FFF708
:103D900087FEDDF808E0A0EB0E00B0F57A7F04D9CD
:103DA000FFE703208DF80F002AE0E5E747F2000067
:103DB000C4F20000016841F400310160FFF770FEB9
:103DC0000290FFE747F20400C4F20000006800F42C
:103DD0000030B0F5003F0FD0FFE7FFF761FEDDF8E0
:103DE00008E0A0EB0E00B0F57A7F04D9FFE70320CE
:103DF0008DF80F0004E0E5E700208DF80F00FFE7E5
:103E00009DF80F0004B080BD80B588B00A46034617
:103E100006900591002004900698002803920293D2
:103E200004D1FFE701208DF81F0027E1059843F634
:103E30000041C4F20201096801F00F01884216D95D
:103E4000FFE743F60040C4F20200016821F00F01D1
:103E5000059A11430160006800F00F00059988423F
:103E600004D0FFE701208DF81F0007E1FFE7069867
:103E70000068800700282AD5FFE7069800684007F9
:103E8000002809D5FFE743F60800C4F202000168E4
:103E900041F4E0510160FFE7069800680007002840
:103EA00009D5FFE743F60800C4F20200016841F4B7
:103EB00060410160FFE743F60800C4F202000168B8
:103EC00021F0F001069A926811430160FFE706981D
:103ED0000068C00700286BD0FFE7069840680128FB
:103EE00011D1FFE743F60000C4F20200006800F4BD
:103EF00000300021B1EB504F04D1FFE701208DF8D5
:103F00001F00BBE027E006984068022811D1FFE7B8
:103F100043F60000C4F20200006800F000700021C7
:103F2000B1EB506F04D1FFE701208DF81F00A5E031
:103F300010E043F60000C4F20200006800F0020046
:103F40000021B1EB500F04D1FFE701208DF81F00D5
:103F500094E0FFE7FFE743F60800C4F202000168BF
:103F600021F00301069A526811430160FFF798FDA2
:103F70000490FFE743F60800C4F20200006800F076
:103F80000C0006994968B0EB810F10D0FFE7FFF7EE
:103F900087FDDDF810E0A0EB0E0041F2893E704590
:103FA00004D3FFE703208DF81F0067E0E2E7FFE797
:103FB000059843F60041C4F20201096801F00F01BF
:103FC000884216D2FFE743F60040C4F202000168BF
:103FD00021F00F01059A11430160006800F00F0005
:103FE0000599884204D0FFE701208DF81F0045E0C5
:103FF000FFE706980068400700280CD5FFE743F666
:104000000800C4F20200016821F4E051069AD26867
:1040100011430160FFE706980068000700280DD5EE
:10402000FFE743F60800C4F20200016821F4604192
:10403000069A126941EAC2010160FFE700F058F8F0
:1040400043F6080EC4F2020EDEF800E05FFA8EFEC0
:104050004FEA1E1E45F2B031C0F6010111F80E10F4
:10406000C84040F22801C2F2010108600F20FFF7AA
:1040700067FD00218DF81F100190FFE79DF81F00DC
:1040800008B080BD0000000040F22800C2F201002C
:10409000006870470000000080B5FFF7F5FF43F6A9
:1040A000080EC4F2020EDEF800E0CEF3822E45F2D6
:1040B000C031C0F6010111F80E10C84080BD0000EB
:1040C00080B5FFF7E1FF43F6080EC4F2020EDEF8FA
:1040D00000E01FFA8EFE4FEA5E3E45F2C031C0F6A8
:1040E000010111F80E10C84080BD00000000000062
:1040F00080B586B00020059004900390029043F6AE
:104100000800C4F20200006800F00C00014600281C
:10411000019108D0FFE7019804280AD0FFE7019831
:1041200008280CD04FE042F20040C0F2F4000290A8
:104130004FE047F64000C0F27D10029049E043F6A0
:104140000400C4F20200016801F03F01059100681B
:104150004002002813D5FFE743F60400C4F2020032
:104160000068C0F3881047F64001C0F27D11A0FB43
:104170000101059A0023FCF7B1F8049012E043F620
:104180000400C4F202000068C0F3881042F200414B
:10419000C0F2F401A0FB0101059A0023FCF79EF890
:1041A0000490FFE743F60400C4F20200006800F444
:1041B0004030022101EBD030039004980399B0FB0A
:1041C000F1F0029005E042F20040C0F2F4000290EB
:1041D000FFE7029806B080BD80B588B00146069022
:1041E00000208DF8130006980028029104D1FFE703
:1041F00001208DF81F005DE306980068C0070028C5
:1042000000F0BE80FFE743F60800C4F20200006839
:1042100000F00C00042813D0FFE743F60800C4F2B6
:104220000200006800F00C0008281FD1FFE743F6E9
:104230000400C4F2020000684002002816D5FFE71F
:1042400043F60000C4F20200006800F400300021D0
:10425000B1EB504F09D0FFE706984068002804D121
:10426000FFE701208DF81F0024E388E0FFE70698B0
:104270004068B0F5803F09D1FFE743F60000C4F283
:104280000200016841F48031016033E00698406823
:1042900000280DD1FFE743F60000C4F202000168D8
:1042A00021F480310160016821F48021016020E067
:1042B00006984068B0F5A02F0DD1FFE743F6000047
:1042C000C4F20200016841F480210160016841F4F8
:1042D000803101600CE043F60000C4F20200016886
:1042E00021F480310160016821F480210160FFE741
:1042F000FFE7FFE7FFE70698406800281FD0FFE7C9
:10430000FFF7CEFB0590FFE743F60000C4F2020082
:10431000006800F400300021B1EB504F0ED1FFE7F0
:10432000FFF7BEFBDDF814E0A0EB0E00652804D318
:10433000FFE703208DF81F00BCE2E5E71EE0FFF772
:10434000AFFB0590FFE743F60000C4F202000068EF
:1043500000F400300021B1EB504F0ED0FFE7FFF723
:104360009FFBDDF814E0A0EB0E00652804D3FFE707
:1043700003208DF81F009DE2E5E7FFE7FFE7FFE779
:10438000069800688007002840F1A180FFE743F607
:104390000800C4F20200006810F00C0F13D0FFE711
:1043A00043F60800C4F20200006800F00C00082880
:1043B0002CD1FFE743F60400C4F20200006840027B
:1043C000002823D4FFE743F60000C4F2020000688F
:1043D00000F002000021B1EB500F09D0FFE7069872
:1043E000C068012804D0FFE701208DF81F0061E2BA
:1043F00043F60000C4F20200016821F0F801069AB9
:10440000126941EAC2010160FFE75FE00698C068F7
:10441000002833D0FFE743F60000C4F20200016831
:1044200041F001010160FFF73BFB0590FFE743F618
:104430000000C4F20200006800F002000021B1EBAD
:10444000500F0ED1FFE7FFF72BFBDDF814E0A0EBD8
:104450000E00032804D3FFE703208DF81F0029E294
:10446000E5E743F60000C4F20200016821F0F8011C
:10447000069A126941EAC201016026E043F6000093
:10448000C4F20200016821F001010160FFF708FB9E
:104490000590FFE743F60000C4F20200006800F058
:1044A00002000021B1EB500F0ED0FFE7FFF7F8FA42
:1044B000DDF814E0A0EB0E00032804D3FFE703208F
:1044C0008DF81F00F6E1E5E7FFE7FFE7FFE7069855
:1044D00000680007002854D5FFE7069840690028C7
:1044E00027D0FFE743F67400C4F20200016841F0F0
:1044F00001010160FFF7D4FA0590FFE743F674006D
:10450000C4F20200006800F002000021B1EB500F7D
:104510000ED1FFE7FFF7C4FADDF814E0A0EB0E00C0
:10452000032804D3FFE703208DF81F00C2E1E5E76D
:1045300026E043F67400C4F20200016821F0010194
:104540000160FFF7ADFA0590FFE743F67400C4F28F
:104550000200006800F002000021B1EB500F0ED005
:10456000FFE7FFF79DFADDF814E0A0EB0E0003284B
:1045700004D3FFE703208DF81F009BE1E5E7FFE789
:10458000FFE7069800684007002840F1E480FFE755
:1045900043F64000C4F202000068C000002814D4B2
:1045A000FFE7FFE743F64000C4F20200016841F074
:1045B00080510160006800F08050039003980190E2
:1045C000FFE701208DF81300FFE747F20000C4F277
:1045D00000000068C005002824D4FFE747F200006F
:1045E000C4F20000016841F480710160FFF758FADD
:1045F0000590FFE747F20000C4F200000068C00524
:1046000000280ED4FFE7FFF74BFADDF814E0A0EB2B
:104610000E00652804D3FFE703208DF81F0049E151
:10462000E8E7FFE7FFE706988068012809D1FFE780
:1046300043F67000C4F20200016841F0010101601C
:1046400032E00698806800280DD1FFE743F670003D
:10465000C4F20200016821F001010160016821F04B
:10466000040101601FE00698806805280DD1FFE76E
:1046700043F67000C4F20200016841F004010160D9
:10468000016841F0010101600CE043F67000C4F2E2
:104690000200016821F001010160016821F00401BC
:1046A0000160FFE7FFE7FFE7FFE706988068002863
:1046B00021D0FFE7FFF7F4F90590FFE743F670001C
:1046C000C4F20200006800F002000021B1EB500FBC
:1046D00010D1FFE7FFF7E4F9DDF814E0A0EB0E00DE
:1046E00041F2893E704504D3FFE703208DF81F0097
:1046F000E0E0E3E720E0FFF7D3F90590FFE743F6BA
:104700007000C4F20200006800F002000021B1EB6A
:10471000500F10D0FFE7FFF7C3F9DDF814E0A0EB6E
:104720000E0041F2893E704504D3FFE703208DF867
:104730001F00BFE0E3E7FFE79DF81300012809D160
:10474000FFE743F64000C4F20200016821F0805107
:104750000160FFE7FFE706988069002800F0A68067
:10476000FFE743F60800C4F20200006800F00C0006
:10477000082800F09680FFE706988069022868D133
:10478000FFE743F60000C4F20200016821F08071E7
:104790000160FFF785F90590FFE743F60000C4F2DA
:1047A0000200006800F000700021B1EB506F0ED0E5
:1047B000FFE7FFF775F9DDF814E0A0EB0E00032822
:1047C00004D3FFE703208DF81F0073E0E5E70698A8
:1047D000C169026A436AD0F828C0114341EA8311D3
:1047E0004FEACC324FF6FF739A43A2F58032114361
:1047F000C06A41EA006040F0005043F60401C4F290
:104800000201086043F60000C4F20200016841F0B2
:1048100080710160FFF744F90590FFE743F600005F
:10482000C4F20200006800F000700021B1EB506F8C
:104830000ED1FFE7FFF734F9DDF814E0A0EB0E002E
:10484000032804D3FFE703208DF81F0032E0E5E7DB
:1048500026E043F60000C4F20200016821F08071F6
:104860000160FFF71DF90590FFE743F60000C4F271
:104870000200006800F000700021B1EB506F0ED014
:10488000FFE7FFF70DF9DDF814E0A0EB0E000328B9
:1048900004D3FFE703208DF81F000BE0E5E7FFE7F7
:1048A00003E001208DF81F0004E0FFE700208DF8F1
:1048B0001F00FFE79DF81F0008B080BD000000004A
:1048C00080B582B0014601900198009105F008FB87
:1048D00002B080BD0000000080B584B046F2EC302C
:1048E000C2F201000221016046F6D961C0F6000162
:1048F00001220023019008461146019A0CF08EFC1B
:1049000040F29411C2F2010108600868002812D038
:10491000FFE740F29410C2F2010000687D210CF024
:1049200095FC02900298002804D0FFE74FF0FF307A
:10493000039003E0FFE700200390FFE7039804B033
:1049400080BD00000000000080B582B001460190EB
:1049500040F24010C2F2010040780028009104D0DB
:10496000FFE7019800F008F803E0019800F058F91B
:10497000FFE702B080BD000080B589B0014602901B
:1049800041F21840C4F202004FF40072026041F696
:104990001842C4F202024FF4800313604FF0400C3F
:1049A000C2F800C01360C2F800C04FF0007EC0F82B
:1049B00000E01360C2F800C01360C2F800C001201C
:1049C00008909DF82000C0070028009108D0FFE75C
:1049D00041F21840C4F202004FF48071016007E018
:1049E00041F21840C4F202004FF080710160FFE70D
:1049F00040F24010C2F20100C17E00EB4100808C09
:104A00000190FFE7019800280ED0FFE741F618401B
:104A1000C4F202004FF48001016040210160FFE711
:104A2000019801380190EDE740F24010C2F2010018
:104A3000C17E0844007F01380190FFE701980028FB
:104A400029D0FFE7029807909DF81C00C0070028B6
:104A500008D0FFE741F21840C4F202004FF4807121
:104A6000016007E041F21840C4F202004FF080718B
:104A70000160FFE741F61840C4F202004FF48001E4
:104A8000016040210160029840080290FFE7019810
:104A900001380190D2E740F24010C2F20100C17E1D
:104AA00000EB4100808E01900198002860D0FFE764
:104AB000029806909DF81800C007002808D0FFE76C
:104AC00041F21840C4F202004FF48071016007E027
:104AD00041F21840C4F202004FF080710160FFE71C
:104AE00041F61840C4F202004FF4800101604021F9
:104AF0000160012005909DF81400C007002808D02F
:104B0000FFE741F21840C4F202004FF480710160E7
:104B100007E041F21840C4F202004FF080710160DA
:104B2000FFE7019801380190FFE7019800280ED0B7
:104B3000FFE741F61840C4F202004FF48001016023
:104B400040210160FFE7019801380190EDE741F253
:104B50001840C4F202004FF40071016041F61840A1
:104B6000C4F202004FF4800101604021016028E09E
:104B700041F21840C4F202004FF400710160029843
:104B800004909DF81000C007002808D0FFE741F20C
:104B90001840C4F202004FF48071016007E041F256
:104BA0001840C4F202004FF080710160FFE741F647
:104BB0001840C4F202004FF48001016040210160FE
:104BC000FFE741F61840C4F202004FF48001016093
:104BD0004022026041F21843C4F202034FF0007C0D
:104BE000C3F800C001600260012003909DF80C0032
:104BF000C007002808D0FFE741F21840C4F20200C5
:104C00004FF48071016007E041F21840C4F20200E5
:104C10004FF080710160FFE709B080BD0000000027
:104C2000B9B00146029041F21840C4F202004FF4BC
:104C30000072026041F61840C4F202004FF4800294
:104C4000026040F24010C2F201004068389038988B
:104C500037900091FFE7379801383790002801D04E
:104C6000FFE7F8E741F61840C4F202004021016076
:104C700040F24010C2F201004068369036983590FC
:104C8000FFE7359801383590002801D0FFE7F8E7B5
:104C900041F61840C4F202004FF48001016040F276
:104CA0004010C2F201004068349034983390FFE71E
:104CB000339801383390002801D0FFE7F8E741F638
:104CC0001840C4F202004021016040F24010C2F2DC
:104CD00001004068329032983190FFE731980138F6
:104CE0003190002801D0FFE7F8E741F21840C4F204
:104CF00002004FF00071016041F61840C4F202005A
:104D00004FF48001016040F24010C2F2010040689F
:104D1000309030982F90FFE72F9801382F9000287F
:104D200001D0FFE7F8E741F61840C4F20200402145
:104D3000016040F24010C2F2010040682E902E98AF
:104D40002D90FFE72D9801382D90002801D0FFE726
:104D5000F8E741F61840C4F202004FF48001016008
:104D600040F24010C2F2010040682C902C982B9029
:104D7000FFE72B9801382B90002801D0FFE7F8E7D8
:104D800041F61840C4F202004021016040F2401098
:104D9000C2F2010040682A902A982990FFE72998DA
:104DA00001382990002801D0FFE7F8E7012028907A
:104DB0009DF8A000C007002808D0FFE741F2184086
:104DC000C4F202004FF48071016007E041F2184024
:104DD000C4F202004FF080710160FFE740F2401022
:104DE000C2F20100C17E00EB4100808C0190FFE720
:104DF0000198002832D0FFE741F61840C4F20200C3
:104E00004FF48001016040F24010C2F2010040689E
:104E1000279027982690FFE72698013826900028AB
:104E200001D0FFE7F8E741F61840C4F20200402144
:104E3000016040F24010C2F20100406825902598C0
:104E40002490FFE7249801382490002801D0FFE740
:104E5000F8E7FFE7019801380190C9E740F24010F8
:104E6000C2F20100C17E0844007F01380190FFE7D3
:104E7000019800284DD0FFE7029823909DF88C0000
:104E8000C007002808D0FFE741F21840C4F2020032
:104E90004FF48071016007E041F21840C4F2020053
:104EA0004FF080710160FFE741F61840C4F2020044
:104EB0004FF48001016040F24010C2F201004068EE
:104EC000229022982190FFE7219801382190002814
:104ED00001D0FFE7F8E741F61840C4F20200402194
:104EE000016040F24010C2F201004068209020981A
:104EF0001F90FFE71F9801381F90002801D0FFE79F
:104F0000F8E7029840080290FFE701980138019005
:104F1000AEE740F24010C2F20100C17E00EB41005A
:104F2000808E01900198002800F0CD80FFE7029864
:104F30001E909DF87800C007002808D0FFE741F2D6
:104F40001840C4F202004FF48071016007E041F2A2
:104F50001840C4F202004FF080710160FFE741F693
:104F60001840C4F202004FF48001016040F240108A
:104F7000C2F2010040681D901D981C90FFE71C982C
:104F800001381C90002801D0FFE7F8E741F61840EF
:104F9000C4F202004021016040F24010C2F2010060
:104FA00040681B901B981A90FFE71A9801381A90D6
:104FB000002801D0FFE7F8E7012019909DF8640070
:104FC000C007002808D0FFE741F21840C4F20200F1
:104FD0004FF48071016007E041F21840C4F2020012
:104FE0004FF080710160FFE7019801380190FFE701
:104FF0000198002832D0FFE741F61840C4F20200C1
:105000004FF48001016040F24010C2F2010040689C
:10501000189018981790FFE71798013817900028F4
:1050200001D0FFE7F8E741F61840C4F20200402142
:10503000016040F24010C2F20100406816901698DC
:105040001590FFE7159801381590002801D0FFE76B
:10505000F8E7FFE7019801380190C9E741F21840ED
:10506000C4F202004FF40071016041F61840C4F22E
:1050700002004FF48001016040F24010C2F20100D2
:105080004068149014981390FFE713980138139018
:10509000002801D0FFE7F8E741F61840C4F202000B
:1050A0004021016040F24010C2F2010040681290BD
:1050B00012981190FFE7119801381190002801D043
:1050C000FFE7F8E74CE041F21840C4F202004FF469
:1050D00000710160029810909DF84000C007002800
:1050E00008D0FFE741F21840C4F202004FF480718B
:1050F000016007E041F21840C4F202004FF08071F5
:105100000160FFE741F61840C4F202004FF480014D
:10511000016040F24010C2F2010040680F900F9809
:105120000E90FFE70E9801380E90002801D0FFE79F
:10513000F8E741F61840C4F202004021016040F255
:105140004010C2F2010040680D900D980C90FFE7EE
:105150000C9801380C90002801D0FFE7F8E7FFE732
:1051600041F61840C4F202004FF48001016040F2A1
:105170004010C2F2010040680B900B980A90FFE7C4
:105180000A9801380A90002801D0FFE7F8E741F6B5
:105190001840C4F202004021016040F24010C2F207
:1051A00001004068099009980890FFE708980138C5
:1051B0000890002801D0FFE7F8E741F21840C4F258
:1051C00002004FF00071016041F61840C4F2020085
:1051D0004FF48001016040F24010C2F201004068CB
:1051E000079007980690FFE7069801380690002878
:1051F00001D0FFE7F8E741F61840C4F20200402171
:10520000016040F24010C2F201004068059005982C
:105210000490FFE7049801380490002801D0FFE7CC
:10522000F8E7012003909DF80C00C007002808D083
:10523000FFE741F21840C4F202004FF480710160B0
:1052400007E041F21840C4F202004FF080710160A3
:10525000FFE739B070470000A3B041F21840C4F234
:1052600002004FF40071016041F61840C4F20200E0
:105270004FF48001016040F24010C2F2010040682A
:10528000229022982190FFE7219801382190002850
:1052900001D0FFE7F8E741F61840C4F202004021D0
:1052A000016040F24010C2F2010040682090209856
:1052B0001F90FFE71F9801381F90002801D0FFE7DB
:1052C000F8E741F21840C4F202004FF000710160AB
:1052D00041F61840C4F202004FF48001016040F230
:1052E0004010C2F2010040681E901E981D90FFE71A
:1052F0001D9801381D90002801D0FFE7F8E741F61E
:105300001840C4F202004021016040F24010C2F295
:10531000010040681C901C981B90FFE71B98013807
:105320001B90002801D0FFE7F8E741F61840C4F2CF
:1053300002004FF48001016040F24010C2F201000F
:1053400040681A901A981990FFE719980138199037
:10535000002801D0FFE7F8E741F61840C4F2020048
:105360004021016040F24010C2F2010040681890F4
:1053700018981790FFE7179801381790002801D068
:10538000FFE7F8E740F24010C2F20100C07E009053
:10539000FFE70098002832D0FFE741F61840C4F23A
:1053A00002004FF48001016040F24010C2F201009F
:1053B0004068169016981590FFE7159801381590DB
:1053C000002801D0FFE7F8E741F61840C4F20200D8
:1053D0004021016040F24010C2F201004068149088
:1053E00014981390FFE7139801381390002801D008
:1053F000FFE7F8E7FFE7009801380090C9E70020D1
:1054000001901F200090FFE70098002842D0FFE79E
:1054100041F61840C4F202004FF48001016040F2EE
:105420004010C2F201004068129012981190FFE7FC
:10543000119801381190002801D0FFE7F8E740F6F5
:105440001040C4F202000068C0F38000029041F6F0
:105450001840C4F202004021016040F24010C2F244
:1054600001004068109010980F90FFE70F980138E6
:105470000F90002801D0FFE7F8E70298019941EA70
:10548000C0700190019840080190FFE70098013832
:105490000090B9E741F21840C4F202004FF40071E5
:1054A000016041F61840C4F202004FF4800101602F
:1054B00040F24010C2F2010040680E900E980D902C
:1054C000FFE70D9801380D90002801D0FFE7F8E7BD
:1054D00040F61040C4F202000068C0F38000029061
:1054E00041F61840C4F202004021016040F2401031
:1054F000C2F2010040680C900C980B90FFE70B98EB
:1055000001380B90002801D0FFE7F8E702980199D5
:1055100041EAC070019041F61840C4F202004FF415
:105520008001016040F24010C2F2010040680A9020
:105530000A980990FFE7099801380990002801D0DE
:10554000FFE7F8E741F61840C4F20200402101608D
:1055500040F24010C2F2010040680890089807909D
:10556000FFE7079801380790002801D0FFE7F8E728
:1055700041F21840C4F202004FF00071016041F6A0
:105580001840C4F202004FF48001016040F2401064
:10559000C2F201004068069006980590FFE7059862
:1055A00001380590002801D0FFE7F8E741F61840E0
:1055B000C4F202004021016040F24010C2F201003A
:1055C0004068049004980390FFE703980138039023
:1055D000002801D0FFE7F8E7019823B070470000EA
:1055E00080B591B013468C4686460B900A9109927D
:1055F0000B9800F03F000590059800280393CDF824
:1056000008C0CDF804E003D1FFE740200590FFE794
:105610009DF82C004006002808D5FFE741F218400D
:10562000C4F202004FF40071016007E041F218403B
:10563000C4F202004FF000710160FFE7FFE7059838
:10564000002800F08E80FFE70A98411C0A9100783C
:1056500008900020079008200490FFE7049800219C
:105660000028009106D0FFE70598002818BF012008
:105670000090FFE70098C007002860D0FFE7089877
:1056800010909DF84000C007002808D0FFE741F2C5
:105690001840C4F202004FF48071016007E041F24B
:1056A0001840C4F202004FF080710160FFE741F63C
:1056B0001840C4F202004FF48001016040F2401033
:1056C000C2F2010040680F900F980E90FFE70E980D
:1056D00001380E90002801D0FFE7F8E740F61040AF
:1056E000C4F202000068C0F38000069041F6184042
:1056F000C4F202004021016040F24010C2F20100F9
:1057000040680D900D980C90FFE70C9801380C90B4
:10571000002801D0FFE7F8E70898400808900798AC
:10572000400807900698079941EAC0100790FFE7E4
:105730000498013804900598013805908EE7049884
:10574000079921FA00F007909DF82C000006002828
:1057500006D5FFE7079809994A1C09920870FFE7E8
:105760006DE711B080BD000080B586B00A460346E3
:105770000490039140F24010C2F2010040780028EA
:105780000292019307D0FFE70498039900F010F804
:105790008DF8170006E00498039900F089FA8DF857
:1057A0001700FFE79DF8170006B080BD000000005D
:1057B00010B590B00A4603460890079141F2184090
:1057C000C4F202004FF40071016041F61841C4F2C6
:1057D00002014FF4800CC1F800C04FF0400EC1F838
:1057E00000E04FF000740460C1F800C0C1F800E0B0
:1057F000C1F800C0C1F800E040F24010C2F2010060
:10580000C07E039002920193FFE7039800280ED018
:10581000FFE741F61840C4F202004FF48001016036
:1058200040210160FFE7039801380390EDE70898F5
:1058300040080F909DF83C00C007002808D0FFE703
:1058400041F21840C4F202004FF48071016007E099
:1058500041F21840C4F202004FF080710160FFE78E
:1058600041F61840C4F202004FF48001016040F696
:105870001041C4F202010968C1F380010591402181
:105880000160059840000690089880080E909DF8E9
:105890003800C007002808D0FFE741F21840C4F2E2
:1058A00002004FF48071016007E041F21840C4F239
:1058B00002004FF080710160FFE741F61840C4F22A
:1058C00002004FF48001016040F61041C4F2020171
:1058D0000968C1F38001059140210160059806998E
:1058E000084306900898C0080D909DF83400C00742
:1058F000002808D0FFE741F21840C4F202004FF43C
:105900008071016007E041F21840C4F202004FF0DC
:1059100080710160FFE741F61840C4F202004FF4C5
:105920008001016040F61041C4F202010968C1F330
:1059300080010591402101600598069941EA8000A7
:1059400006900698012811D0FFE741F21840C4F2F2
:1059500002004FF40071016041F61840C4F20200E9
:105960004FF480010160402101604CE19DF820006E
:105970008007002840F19480FFE7002004901F205A
:105980000390FFE7039800281ED0FFE741F6184078
:10599000C4F202004FF48001016040F61041C4F2ED
:1059A00002010968C1F38001059140210160059859
:1059B000049941EAC0700490049840080490FFE7FD
:1059C000039801380390DDE740F24010C2F2010075
:1059D000817EC07E081A013803900398002838D0D1
:1059E000FFE741F61840C4F202004FF48001016065
:1059F00040F61041C4F202010968C1F3800105912B
:105A000040210160039801380390FFE703980028C4
:105A10000ED0FFE741F61840C4F202004FF48001B7
:105A2000016040210160FFE7039801380390EDE732
:105A300041F21840C4F202004FF40071016041F6D7
:105A40001840C4F202004FF480010160402101605F
:105A500018E041F21840C4F202004FF400710160F6
:105A600041F61840C4F202004FF48001016040F694
:105A70001041C4F202010968C1F38001059140217F
:105A80000160FFE70598049941EAC0700490079807
:105A9000002804D0FFE7049807990860FFE7B1E009
:105AA0000798006804901F200390FFE703980028E0
:105AB00029D0FFE704980C909DF83000C00700281B
:105AC00008D0FFE741F21840C4F202004FF48071A1
:105AD000016007E041F21840C4F202004FF080710B
