:020000040800F2
:10000000508A0120F5010008FD010008FF010008E9
:1000100001020008030200080502000800000000B9
:1000200000000000000000000000000019020008AD
:100030000902000800000000B1020008C102000827
:100040000F0200080F0200080F0200080F0200084C
:100050000F0200080F0200080F0200080F0200083C
:100060000F0200080F0200080F0200080F0200082C
:100070000F0200080F0200080F0200080F0200081C
:100080000F0200080F0200080F0200080F0200080C
:100090000F0200080F0200080F0200080F020008FC
:1000A0000F0200080F0200080F0200080F020008EC
:1000B0000F0200080F0200080F0200080F020008DC
:1000C0000F0200080F0200080F0200080F020008CC
:1000D0000F0200080F0200080F0200080F020008BC
:1000E0000F0200080F0200080F0200080F020008AC
:1000F0000F0200080F0200080F0200080F0200089C
:100100000F0200080F0200080F0200080F0200088B
:100110000F020008416800080F0200080F020008E3
:100120000F0200080F0200080F0200080F0200086B
:100130000F020008000000000000000000000000A6
:100140000000000000000000000000000F02000896
:100150000F0200080F0200080F020008216D0008BE
:100160000F0200080F0200080F0200080F0200082B
:100170000F020008E948000800000000000000002D
:100180000F0200080F0200080F0200080F0200080B
:100190000F0200080F020008000000000F02000814
:1001A0000000000000000000000000000F02000836
:1001B0000F0200080F02000800000000000000000D
:1001C000000000000000000000000000000000002F
:1001D0000000000000000000000000000F02000806
:1001E000DFF80CD000F0EEF800480047F9A900084D
:1001F000508A01200648804706480047FEE7FEE790
:10020000FEE7FEE7FEE7FEE7FEE7FEE7FEE7FEE7C6
:1002100009670008E10100081EF0040F0CBFEFF3AE
:100220000880EFF30980816911F8021C91BB01B5C8
:1002300090E80F10E047BDE800508CE80300244B25
:1002400093E80600914208BF704741B91EF0100FB5
:1002500010D12049086820F0010008600AE02CE96C
:10026000F00F1EF0100F08BF2CED108AC1F838C037
:1002700081F822E01A6092F82210906B61F0FF0E74
:100280001EF0100F08BFB0EC108AB0E8F00F80F33A
:1002900009887047104A13689942FAD801B552F894
:1002A00021C00FC8E047BDE80050CCF800007047FF
:1002B00001B50AF0EFFEBDE80140EFF3098CBEE79F
:1002C00001B50BF025F9BDE80140EFF3098CB6E765
:1002D0003000012034EF00E040E800082DE9F05F35
:1002E0000546002092469B468846064681464024A5
:1002F0001BE0284641464746224600F053F8534645
:100300005A46C01A914110D311461846224600F0B1
:100310003AF82D1A67EB01084F46224601200021CA
:1003200000F031F817EB00094E41201EA4F1010442
:10033000DFDC484631462A464346BDE8F09F40EAA6
:1003400001039B0703D009E008C9121F08C0042A53
:10035000FAD203E011F8013B00F8013B521EF9D23A
:100360007047D2B201E000F8012B491EFBD2704762
:100370000022F6E710B513460A4604461946FFF771
:10038000F0FF204610BD202A04DB203A00FA02F1DB
:10039000002070479140C2F1200320FA03F3194373
:1003A00090407047202A04DB203A21FA02F0002115
:1003B000704721FA02F3D040C2F120029140084375
:1003C00019467047064C074D06E0E06840F001030F
:1003D00094E8070098471034AC42F6D3FFF704FFC7
:1003E000C0EB0008E0EB00082DE9F04F87B00020DB
:1003F000CDE9050043F63000C4F202000168002494
:1004000041F001010160C4F20204016802AD01F093
:1004100001010191002201994FF0030A016841F0A6
:1004200002010160016801F0020101910199016876
:1004300041F004010160016801F00401019101999A
:10044000016841F008010160016801F008010191B3
:100450000199016841F010010160016801F010018B
:1004600001910199016841F020010160016801F0EA
:10047000200101910199016841F04001016001688A
:1004800001F0400101910199016841F08001016092
:10049000016801F0800101910199016841F48071C6
:1004A00001602946006800F480700190019849F6C7
:1004B000BD3002902046CDE903A202F049FA43F68E
:1004C0003B70029004F580602946009002F040FAEB
:1004D0004EF6FF70029004F50060294602F038FAEB
:1004E0004FF69B7004F5406902904846294602F099
:1004F0002FFA4FF6FF70029004F58050294602F063
:1005000027FA4FF6FF4004F5A057029038462946D7
:1005100002F01EFA4BF63F50029004F5C0502946F7
:1005200002F016FA4FF63C7004F5E05602903046A1
:10053000294602F00DFA40F6FF70029004F50050D3
:10054000294602F005FA4FF4806002904FF0010B4B
:100550004FF00008CDF80CB020462946CDE9048ABA
:1005600002F0F6F94FF0400A1120CDF808A0CDE9CD
:10057000030B2046294602F0EBF94FF40070C4F853
:1005800018A0CDE9020B3846CDF8108029464FF06F
:10059000000802F0DDF94FF48070029038462946D9
:1005A00002F0D6F93046CDF808A0294602F0D0F97D
:1005B0000427CDE902780098294602F0C9F9484697
:1005C0000297294602F0C4F980200290304629465D
:1005D00002F0BEF9022002902046294602F0B8F946
:1005E00007B0BDE8F08F000002787F2A1AD1F0B57D
:1005F00081B07F220A704278002A4A7014D08D1C84
:10060000861C57424FF002143046294600F014F879
:10061000044406EB1046013715FA80F5F4D1204664
:1006200001B0F0BD00F008B84FF00214204601B050
:10063000F0BD0000000000002DE9F04F8DB090F9F2
:10064000002007460D46D0B2B2F1FF3F08DC9F28DC
:1006500006D8384629460DB0BDE8F04F01F0ECBE93
:10066000A84608F8010BBA461AF8010B1E2800F23A
:100670004083DFE810F01F003D004A00C100CF00BA
:10068000E400D9023E03450362036C033E033E03CC
:100690003E033E033E037603AD03C103DB03EA03DF
:1006A00020043C0461046B0475047F0489049204F3
:1006B0009C0406059AF80020A91C0020A2F1F00372
:1006C0000F2B01F2BA81DFE813F01000410A600A33
:1006D000600A600A600A600A600A600A600A600ACA
:1006E000600A600A460A520A5C0A772001F040BAA2
:1006F0009AF80000012800F0EF85002840F00486F9
:10070000B87800F0010000F0EDBD9AF80000002775
:10071000022880F0468540F258100C97C2F2010082
:100720000126067140200890112040F2100BCDE9FF
:1007300009060320C4F2020B0B9008ADABF11000C8
:1007400029460790402402F003F941F2F030CBF83B
:1007500008400BEB00094FF4007A48462946CDE9E2
:1007600008A60A9702F0F4F84FF6080041F6104484
:10077000CFF6FF70C4F2020444F800A04020A4F1B8
:10078000100608903046294602F0E2F84020A060AA
:1007900004240BF57C7029464FF0400ACDE9084748
:1007A00002F0D6F80BF53F600894294602F0D0F825
:1007B000802008903046294602F0CAF802200890AE
:1007C000032009902946079802F0C2F84FF4807080
:1007D00008904846294602F0BBF84DF600514FF408
:1007E0008000C0F26D01CBF80800491EFDD1CBF8A6
:1007F00008A0012700F04DBD40F25810C2F20100E0
:1008000000210125017188F8001005F101100DB0DB
:10081000BDE8F08F787840F25811C2F201010874F7
:1008200001257888C0F205058882B888C882002032
:1008300088F8000005F101100DB0BDE8F08F40F21E
:100840005816C2F201063079022800F05F850128AF
:1008500040F0258700223270EB1C97F80290FE1CB6
:10086000B9F1000F01F09881002006930490002454
:1008700000200021B34607911BF8017BB9071AD469
:10088000002C7AD040F258100594C2F20100808A00
:10089000C4430E2008A904F04FFA02285BD10134AA
:1008A00001F0C48140F25810C2F201000078002823
:1008B000EFD001F0BBB9E4B140F25810C2F2010030
:1008C00007F01101808A012932D10594C4433846CA
:1008D00008A904F031FA022877D1013401F0A68189
:1008E00040F25810C2F2010000780028EFD001F069
:1008F0009DB90024F90600F1A88040F25816C2F212
:100900000106B18AFA075BD1CE43384608A904F044
:1009100013FA022840F00C81013601F06A8440F29B
:100920005810C2F2010000780028EED001F061BC3E
:10093000C4430E2008A904F0FFF902284AD101346B
:1009400001F0448240F25810C2F201000078002801
:10095000EFD001F03BBA0128059C41F0398208989C
:10096000069A1070111D0898000A06915070BDF883
:10097000220090709DF82300D070D6F80100B906CF
:1009800006F1050B089013D440F25816C2F2010686
:10099000B08AC443384608A904F0CEF9022845D1EC
:1009A000013401F0138230780028F3D001F00EBA40
:1009B00040F25816C2F201060024B0610120F5E0B1
:1009C000002C00F09F800021EFE0059C012805D05D
:1009D00001F0FEB90024012841F0FA810898002CAA
:1009E000069A107002F1040108984FEA1020507026
:1009F000BDF8220090709DF82300D0701FD03806FB
:100A00001ED540F25810069AC2F20100C068010AD1
:100A10005171010C1071000E917102F10801D07139
:100A200001200691F9067FF568AF0EE0012841F03C
:100A30000384380600F1AB8000240120B4E00024D8
:100A400001200691F9067FF558AF40F25811059440
:100A5000C2F20101C88A06F1050B0290F807D6F828
:100A6000010003902DD10E46B08AC443384608A930
:100A700004F062F9022805D1013433D0307800281F
:100A8000F4D02FE001282ED10898B16901400298D6
:100A900000284FF001001CBF039A914200F0B38080
:100AA00040F25816C2F20106307800280298A0F1F0
:100AB00001000290D8D00120039A059C91421AD0DF
:100AC000AAE0888A0E46C4430021384604F034F96F
:100AD000022857D1013401F0A98030780028F3D0E2
:100AE00001F0A4B802200899B2691140039A059C4C
:100AF000914240F09180012841F06A8100200490E9
:100B0000012053E0CE430021384604F015F90228B5
:100B10005BD1013601F05A8140F25810C2F2010057
:100B20000078002400284FF00200ECD001F050B90A
:100B3000012841F04D8138060ED540F25810069A32
:100B4000C2F20100C068010A5170010C1070000E61
:100B50009170111DD070069108980023069A1070AC
:100B6000111D0898000A04935070BDF822000691E8
:100B700090709DF82300D070012040F25816C2F208
:100B8000010613E001283FF46FAF01F050B8F068A0
:100B9000010A069C020C2070030E6170271DA270D2
:100BA0000120E37000240697012104913178002987
:100BB000079901F10101079141F00A81B9F1010999
:100BC0005E467FF459AE01F054BA012841F03483F7
:100BD000380604D40020049001200124CDE740F21F
:100BE0005816069CC2F20106F068271D010A207003
:100BF000020C6170030EA2700020E37004900120CB
:100C000006970124D2E740F25816C2F20106039A71
:100C1000059C91423FF46FAF40F01000B9F1000F16
:100C200041F0DA8001F025BA40F25810C2F201001A
:100C30000079022800F05085012840F0B98540F283
:100C400058104FF0000BC2F2010080F800B005F11F
:100C50000409B878F97840EA0123002B00F09E8758
:100C60003C79A00700F19D87CDF818904FF0000B5C
:100C70000DF1200940F258105AF8041FC2F2010089
:100C8000808A013BCDE90731C6432046494604F03E
:100C900053F802280BD1013600F0CF8740F25810EC
:100CA000C2F2010000780028EFD000F0C6BF012892
:100CB0001CD1079B0BF1010B002BDBD140F258102C
:100CC000C2F20100808AC4430E20002104F034F8EF
:100CD00002280BD1013400F0B08740F25810C2F264
:100CE0000100007800284FF00200EDD0069901F0D5
:100CF000C8B8FF2028704FF001100DB0BDE8F08F8C
:100D000040F25810C2F2010001790125C0F2050538
:100D1000022900F05D85012940F07085D7F80200B6
:100D200008A908900020002404F006F888F8004084
:100D300005F101100DB0BDE8F08F7878B97840EA80
:100D4000012000EBC000C000401EFDD1CFE24FF4F7
:100D50008070A5F80100022505F101100DB0BDE875
:100D6000F08FBC787D7814F0010BD7F8036000F0A9
:100D70009281E80741F610414FF04000C4F20201B1
:100D800008BF4FF48000886014F0020940F08781AA
:100D900014F0040A00F0968168074FF6080141F646
:100DA00010424FF48070CFF6FF7158BF4FF0807043
:100DB000C4F20202505014F08000079040F0878186
:100DC0001020002EC4F2020040F08A8100F0BCBF67
:100DD000D7F80100002800F065824FF68011C0F2BC
:100DE00037318842C0F0128540F25811C2F2010139
:100DF0000120487100F07CBE7D78B91C002D08BF31
:100E00004FF48075284605F047F94FF4604000EB39
:100E100045303FFA80F0002100F5803088F800105E
:100E2000451C05F101100DB0BDE8F08F9AF80000E7
:100E300040F25812C2F2010200F0030101311177B1
:100E4000C0F3800050770020A2E1002088F8000065
:100E50009AF80000002800F02882BC1C0235C0F17E
:100E6000000A4FF001084FF0010900BF14F8016BB0
:100E700021462A4616F03F0000F107004FEAD0074E
:100E8000304608BF082702F0D7FC09EB070016F030
:100E900080011CBF3D44B8443C441AF1010A00F1F2
:100EA0000109E3D14FEA094048EA000505F10110C4
:100EB0000DB0BDE8F08F9AF8009040F2581BC2F2D6
:100EC000010BB9F1000F8BF81E9000F0A985A9F174
:100ED000010CBCF1030F09F0030E80F0AF84002574
:100EE0000023BEF1000F40F0CF8400F0EFBC40F2D1
:100EF0005810C2F201000179022940F048819AF8A5
:100F00000010827FC177914280F041810E2002F073
:100F10000BFA02F00DFC00216970010AA870E9705B
:100F2000010C000E297168710525C0F2010505F15B
:100F300001100DB0BDE8F08F5046414605F088FB2A
:100F4000054605F101100DB0BDE8F08F5046414651
:100F500005F08EFA054605F101100DB0BDE8F08FE1
:100F60005046414605F0D0F8054605F101100DB098
:100F7000BDE8F08F5046414605F0E2F8054605F120
:100F800001100DB0BDE8F08F404605F0A1FA05460E
:100F900005F101100DB0BDE8F08F5046414605F057
:100FA0001BF9054605F101100DB0BDE8F08F4FF0BB
:100FB000000B88F800B09AF80000002800F080814B
:100FC000C0F101061020C4F2020041F2F0310844E1
:100FD000BC1C0790023501204FF00108069000BFAD
:100FE00014F8017B17F03F0000F107004FEAD00A28
:100FF00008BF4FF0080A17F0800906D04FF40070C0
:10100000CDF830B0CDE9080B06E04FF40070CDF814
:1010100030B00890012009900320CDF828B00B9043
:1010200008A9079801F094FC384621462A4603F0A7
:101030001BFE66B1B9F1000F1AD0069808F101083D
:101040005044554406900136012EC9D13CE14FF47D
:101050000070CDF830B008900120CDE9090B0320D5
:101060000B9008A9079801F073FCB9F1000FE4D1C7
:1010700008EB0A00544400F101080136012EAFD1FB
:1010800022E15046414605F06BF9054605F1011095
:101090000DB0BDE8F08F14F002093FF479AEA80757
:1010A0004FF6080141F610424FF40070CFF6FF7181
:1010B00058BF4FF00070C4F20202505014F0040AFE
:1010C0007FF46AAE14F0800007903FF479AEE8092F
:1010D0000BF026F91020002EC4F2020000F0348636
:1010E00004F02001B1FA81F14A094CF2C061C0F26A
:1010F0002D018E4238BF3146D823594305F0E00315
:10110000B3FA83F35B0941F2040E5C4643EA02063C
:10111000CEF2000E4FEAD51CDEF800306F084FEA21
:10112000950B002C86F0010200F0D983B9F1000F75
:1011300000F0A484D0F80044C4F38004AC421FD172
:1011400041F61044C4F202042468C4F3C014A74258
:1011500016D1BAF1000F09D00468C4F34004BBEB08
:10116000040418BF0124144301D009E046B1079CD0
:10117000002C1EBF0468C4F38014A44500F0E4856D
:10118000DEF80040E41A8C42D4D300F0DDBDFF202D
:1011900088F800004FF0011505F101100DB0BDE811
:1011A000F08F40F0768040F25810C2F20100022722
:1011B000077100200C9040200890112040F2100A86
:1011C0000990012503200A95C4F2020A0B9008AE8B
:1011D000AAF11000314607904FF00009402401F0B9
:1011E000B7FB4FF4007BCAF8084041F2F030CDE97C
:1011F00008B50AEB0005CDF828902846314601F0E5
:10120000A7FB4FF6080941F61044CFF6FF79C4F268
:10121000020444F809B04FF4807B2846CDF820B092
:10122000314601F095FBA4F1100544F809B04FF0E8
:1012300040092846CDF82090314601F089FBC4F8DA
:10124000089004240020089409900AF57C70314627
:101250004FF0400901F07CFB0AF53F6008943146ED
:1012600001F076FB802008902846314601F070FBA3
:1012700007983146089701F06BFB4FF48000CAF8DD
:1012800008004DF60050C0F26D00401EFDD1CAF8B6
:10129000089088F800704FF0011505F101100DB0AD
:1012A000BDE8F08FFF2000F029BC4FF001084FF49B
:1012B000803048EA000505F101100DB0BDE8F08F5F
:1012C00001204FF001080690069840EA084505F114
:1012D00001100DB0BDE8F08FB878C0074FF00200E4
:1012E00008BF012040F22811C2F20101087000205D
:1012F000012188F80000C0F20501A1F5403505F193
:1013000001100DB0BDE8F08FFF20F1E74FF0000BAA
:1013100086F800B005F103097878B17FF07788424C
:1013200080F09D83BC780337002C00F047850020B7
:10133000CDF81090059000200521069000204FF078
:10134000000BB946079719F8017B3A4661F35F0233
:10135000B907CDE9022B19D4069898B305980A2845
:1013600002D00A2001F0E0FFB08AB346C6430E2047
:1013700008A902F0EDFA022865D1013600F0FE85D9
:101380009BF800000028F2D000F0F8BD0699E1B10A
:10139000B346B68A17F0100001903ED105989042EE
:1013A0003BD1F643384608A902F0D2FA022840F0B1
:1013B000BD80013600F010879BF800000028F1D0B6
:1013C00000F00ABFDDF8109052E0002107F0100392
:1013D0000691002B00F0D480F08A0190059890428D
:1013E0000798D0F8011000F105000591079002D090
:1013F000029801F099FFB08A6FEA0009002138468F
:1014000002F0A6FA02285CD119F1010900F0D78692
:1014100030780028F2D000F0D2BE05980A2802D019
:101420000A2001F081FFF6430E2008A902F090FA8D
:10143000022877D1013600F0D4869BF800000028FE
:10144000F2D000F0CEBE012840F0F48608985E4647
:10145000049A1070000A5070111DBDF822008946D0
:1014600090709DF82300D0700A200590DDF80CB034
:10147000079AB906D2F8010002F105020890079216
:101480001AD402980599814202D0029801F04CFFCB
:10149000B08AB346CDF81090C643384608A902F08A
:1014A00057FA022872D1013600F0C0869BF800007E
:1014B0000028F2D000F0BABE0021B06106910120F0
:1014C000C7E0012840F00887B08AB346C6433846D3
:1014D00008A902F03DFA022807D1013600F0838006
:1014E0009BF800000028F2D07DE001287CD108980C
:1014F000DBF818100140019800284FF001001CBFD4
:10150000059A914274D09BF800005E46002801982D
:10151000A0F101000190D7D00120059A91426BD033
:1015200000F084BF0A210591002106910128019B4A
:1015300040F0DA8608985E46049A1070000A5070EF
:10154000BDF822000699907000299DF8230002F151
:101550000401D0703CD03806DDF80CB00AD5F06834
:10156000010A049A5171010C1071000E917102F17F
:101570000801D07101200491029A002B7FF42CAF56
:10158000069959B14F46DDF8109063E0012840F00C
:10159000A586380649D40020069030E00598904290
:1015A00002D0029801F0C0FEB08AB346C6430021C3
:1015B000384602F0CDF9022828D1013600F02A87FA
:1015C0009BF8000000284FF00200F0D000F01FBF91
:1015D0000020069001200491DDF80CB0029A002B47
:1015E0007FF4FAAECCE702200899DBF8182011400E
:1015F000059A914240F01A87012840F071860299BD
:10160000012005915E46DDE903B922E0012840F0A2
:10161000FE8638062DD401210691012002994F46FD
:1016200005915E46DDE903B914E0DBF80C005E4687
:10163000010A049B020C18705970191D9A7000223F
:10164000069289460299000E0591D8700120DDF8B6
:101650000CB0079FCDF810900BF1010B31780029E9
:1016600040F0DC86013C4FF005017FF46AAE00F0EB
:101670008FBCDBF80C005E46010A049F020C387038
:101680007970030EBA700122391D0692FB704F4625
:101690008946029905910120DDF80CB0DAE7B878A7
:1016A000F91C002800F05E8410F00303A0F1010291
:1016B00000F01C840E78B7074FF0050702D5F60638
:1016C00058BF0127012B394440F067831046032A95
:1016D000C0F0488400F00CBC40F258104FF0000BF2
:1016E000C2F20100024680F800B09AF800002B1DFB
:1016F000917FD077884280F0B681B878F97840EA57
:101700000126002E00F05E833C79079304F001006F
:1017100006900A3001F008FEA00700F174834FF034
:10172000000B0DF1200940F258105AF8041FC2F2C4
:1017300001000891808A013E0596C643204649462D
:1017400002F006F902280BD1013600F0B68540F20E
:101750005810C2F2010000780028EFD000F0ADBDB3
:10176000012840F0AB85059E0BF1010B002EDAD16C
:10177000069810B10A2001F0D7FD40F25810C2F2CD
:101780000100808AC4430E20002102F0E1F8022803
:1017900040F09485013400F0908540F25810C2F278
:1017A0000100007800284FF00200ECD000F086BD68
:1017B0000020A5F80100E87003203979890740F17D
:1017C0006C8340F4802505F101100DB0BDE8F08F69
:1017D0009AF80010827FC177914280F047810820FB
:1017E00001F0A2FDD7F8020002F0B6FE002088F852
:1017F000000005F101100DB0BDE8F08FFF2088F862
:10180000000005F101100DB0BDE8F08F4FF2FF218F
:10181000C0F26F610144B1FBF0F040F258120021B8
:10182000C2F2010203285171C0F061814AF6AB2176
:10183000CAF6AA21A0FB0101480859E1A9EB0E0A4A
:10184000002500237E19B1780BEB05000BEB450258
:1018500080F82010194413850435F478AA4580F8DF
:10186000214051852144337980F8223091851944F3
:10187000737980F823300B44D185E3D1781900F1D6
:10188000010ABEF1000F21D00BF11E079AF80100EA
:10189000791907EB45028870BEF1010F53810344AB
:1018A00014D0681C9AF802103A1807EB40009170A7
:1018B000BEF1020F43810B4408D0A81C9AF8031014
:1018C0003A1807EB4000917043810B44BCF1030FC1
:1018D0006BD20027BEF1000F40F08480A0E0B9F188
:1018E000000F00F01781BAF1000F00F0A981E6B1F6
:1018F00041F61042C4F202021268C2F3C0129742CB
:101900000DD10268C2F34002934508D1079A002A1C
:101910001EBF0268C2F38012944500F01582DEF803
:101920000020D21A8A42E3D30EE241F61042C4F2FA
:1019300002021268C2F3C012974208BF0268DEF8C2
:101940000020D21A8A4280F0FF8141F61042C4F290
:1019500002021268C2F3C012974208BF0268DEF8A2
:101960000020D21A8A4280F0EF8141F61042C4F280
:1019700002021268C2F3C012974208BF0268DEF882
:101980000020D21A8A4280F0DF8141F61042C4F270
:1019900002021268C2F3C012974208BF0268DEF862
:1019A0000020D21A8A42C0D3CEE1A9EB0E0600274E
:1019B0000BEB070090F820100BEB470590F8212067
:1019C0000437591A90F822308A1A90F82300D41A52
:1019D0002987231A6A87BE42AC87EB87E8D1BEF11C
:1019E000000F1DD00BF11E02D0198078BEF1010F3F
:1019F000A3EB000302EB4700438311D0781C1118BE
:101A0000897802EB4000BEF1020FA3EB0103438390
:101A100006D0B81C1118897802EB4000591A41838E
:101A20004FF48031002001EB094188F800004D1C83
:101A300005F101100DB0BDE8F08F042A40F0A5803B
:101A40003020888042F63260C2F63060086006209E
:101A500088F8000000F102100DB0BDE8F08F0237E9
:101A6000002000F0C6BC002000F029BCFF2088F850
:101A7000000005F101100DB0BDE8F08FBAF1000FC4
:101A80001DD0D0F80044C4F38004AC4211D10468E6
:101A9000C4F34004BBEB040418BF0124144308D171
:101AA000079C002C1EBF0468C4F38014A44500F0FA
:101AB0004B81DEF80040E41A8C42E2D344E1D0F8D6
:101AC0000044C4F38004641B18BF0124144308D1EC
:101AD000079C002C1EBF0468C4F38014A44500F0CA
:101AE0003381DEF80040E41A8C42E8D32CE1012077
:101AF00040F25811C2F2010188600020012188F8EB
:101B00000000C0F20501A1F5803505F101100DB00E
:101B1000BDE8F08FBAF1000F00F0AB800468C4F3A9
:101B20004004BBEB040418BF0124144308D1079CF4
:101B3000002C1EBF0468C4F38014A44500F0048187
:101B4000DEF80040E41A8C42E8D3FDE04EF200607B
:101B5000C0F6DF4001E04FF40060C5F80200042049
:101B600088F8000000F102100DB0BDE8F08F0820E9
:101B70000870012088F8000000F102100DB0BDE8E7
:101B8000F08F4FF480606880022088F8000000F138
:101B900002100DB0BDE8F08F002017E34946002089
:101BA0006FE1E00740F04D81CA464FF0000B0DF1A8
:101BB0002009E00740F258112046C2F2010118BF87
:101BC0000E20898A013B0793002B6FEA010608BFAC
:101BD00004462046494603F0AFF802280AD10136F0
:101BE00000F04D8140F25810C2F201000078002848
:101BF000EFD044E1012840F0438108980BF1010B3C
:101C0000010A079B8AF80110002BBDF822108AF800
:101C100002100AF104019DF823208AF800004FF019
:101C200001008AF803208A46C3D12AE10220059CDC
:101C3000B9F1000F40F0D0801BE20220069920E1AC
:101C4000002E58D041F61042C4F202021268C2F3CC
:101C5000C012974207D1079A002A1EBF0268C2F33A
:101C60008012944570D0DEF80020D21A8A42E9D35F
:101C70006AE05EB3079A002A66D00268C2F3801257
:101C8000944561D0DEF80020D21A8A425CD2026804
:101C9000C2F38012944557D0DEF80020D21A8A424F
:101CA00052D20268C2F3801294454DD0DEF8002073
:101CB000D21A8A4248D20268C2F38012944543D0B5
:101CC000DEF80020D21A8A42D7D33DE0DEF80020A9
:101CD000D21A8A423EBFDEF80020D21A8A4233D29C
:101CE000DEF80020D21A8A422ED2DEF80020D21A64
:101CF0008A42EBD328E041F61042C4F20202126895
:101D0000DEF80020D21A8A421ED241F61042C4F2F6
:101D100002021268DEF80020D21A8A423FBF41F662
:101D20001042C4F202021268DEF800203CBFD21A50
:101D30008A4209D241F61042C4F202021268DEF869
:101D40000020D21A8A42D6D341F61042D0F80014AD
:101D5000C4F20202C1F380011268022303EA921264
:101D60001144026802F0020241EA4201D0F8002C5C
:101D700002F00402006841EA420100F0400041EA3A
:101D80004000012188F80000C0F2050101F580350E
:101D900005F101100DB0BDE8F08F0E78B7074FF0D8
:101DA000050702D5F60658BF0127022B394440F03B
:101DB00093800238032AC0F0D58099E04FF0000BE1
:101DC000002016E34FF0000B002078E200240220F0
:101DD000B9F1000F00F04D8119F00302A9F10101E2
:101DE00000F004819BF80070BB074FF0050302D59B
:101DF000FF0658BF0123012A9B445AD18946032973
:101E000080F0F68035E140F25810C2F20100808A7D
:101E1000B1464FF0000BC6430021204601F098FD6B
:101E2000022840F07D81013606D040F25810C2F2FF
:101E3000010000780028EFD00220079B4FF0000B34
:101E40003DE240F25810C2F20100808A9A464FF0FB
:101E5000000BC6430021204602F06EFF022840F02E
:101E6000A881013606D040F25810C2F20100007875
:101E70000028EFD002204FF0000B494601E002207D
:101E800051464FEA1B2285F801B0AA70E870A1EB19
:101E90000800397989073FF594ACB978FA7841EAB6
:101EA0000221013140EA814505F101100DB0BDE884
:101EB000F08F9BF80070BB074FF0050302D5FF06BB
:101EC00058BF0123022A9B4440F08480A9F10209F3
:101ED000032980F08D80CCE00F78BB074FF005031D
:101EE00002D5FF0658BF012319440338032A39D30A
:101EF0000A7893071FD405228B5C11449F0723D5D2
:101F0000DA064FF0050258BF01228B5C11449F078F
:101F10001FD5DA064FF0050258BF01228B5C114431
:101F20009F071BD5DA064FF0050258BF012204387F
:101F30001144DDD116E0D2064FF0050258BF012250
:101F40008B5C11449F07DBD405228B5C11449F07F7
:101F5000DFD405228B5C11449F07E3D405220438AB
:101F60001144C5D1A1EB0A0100200904A5F8010024
:101F70008D1C05F101100DB0BDE8F08F0A20059011
:101F80000220002C40F0B3814F465E46DDF80CB0D5
:101F9000012840F02C82079705980A28DDF8109058
:101FA00002D00A2001F0C0F9B08A0699C443002982
:101FB00000F0A58008AF0E20394601F0C9FC0228C8
:101FC00040F01D81013402D030780028F3D0022087
:101FD000079F0EE29BF800309A074FF0050202D5EA
:101FE000DB0658BF01229344A9F10309032940D31A
:101FF0009BF800108A0716D405211BF801205944CC
:1020000093071AD405228B5C11449F071ED4052226
:102010008B5C11449F0722D40522B9F1040901EB1E
:10202000020BE5D125E0C9064FF0050158BF01219B
:102030001BF8012059449307E4D5D2064FF005025E
:1020400058BF01228B5C11449F07E0D5DA064FF0A0
:10205000050258BF01228B5C11449F07DCD5DA06CC
:102060004FF0050258BF0122B9F1040901EB020B40
:10207000BED1012840F0A78094B140F25816C2F2B8
:102080000106B08A08AFC4430E20394602F054FE60
:10209000022820D101341CD030780028F4D018E078
:1020A000049840F258160028C2F2010600F08A8017
:1020B000B08AC4430E20002102F03EFE022840F008
:1020C0008280013405D0307800284FF00200F1D032
:1020D00079E0022077E0012875D108985E46069ADB
:1020E0001070111D08980B46000A5070BDF82200B0
:1020F00090709DF82300D0700120079A66E0079F3A
:102100000E20002101F024FC022840F072810134ED
:1021100000F09880307800284FF00200F0D068E19D
:102120000128079B40F0CB800698A9F10106002802
:102130004FF0000B00F088800DF1200907931EB9C5
:102140000A2001F0F1F80E2440F25810C2F201000A
:10215000808A6FEA000A2046494601F0F9FB02280E
:102160000DD11AF1010A00F0A88040F25810C2F215
:102170000100007800284FF00200ECD09EE001281A
:1021800040F09C80089A0BF1010B110A07984170EE
:10219000031DBDF82210002E079381709DF82310B7
:1021A0000270A6F10102C1704FF001001646C6D1BF
:1021B00085E0012853463FF4F7AC494661E6B34653
:1021C00002208DE001205E46DDE90632A6EB0A0121
:1021D0006A70A3EB080212E10220002C40F0878015
:1021E000D2E60A200590002006900220002C7ED125
:1021F000CAE60220B9F1000F7FF4EEAD39E70128FD
:10220000079F40F0F680089809F1040189F8000062
:10221000000A89F80100BDF8220089F802009DF843
:10222000230089F8030001208946E2E0002006909F
:10223000022055E00A2156E00024B9F1000F7FF496
:10224000CBAD16E70220D4E0079340F25810C2F25B
:102250000100808AA246002E08BF4FF00E0A6FEAE6
:102260000009504608A901F073FB02280CD119F1AE
:10227000010922D040F25810C2F201000078002873
:102280004FF00200EDD019E0012817D1089A0BF1A8
:10229000010B110A07984170031DBDF82210002E92
:1022A000079381709DF823100270A6F10102C1709E
:1022B0004FF001001646C8D101E00220079B4FEA0B
:1022C0001B2185F801B0A970E870A3EB08003979EB
:1022D00089073FF576AAE0E5B34601E000210691C3
:1022E000DDF81C9002990591002C3FF44DAE14F0DE
:1022F0000302A4F1010112D099F80070BB074FF05E
:10230000050302D5FF0658BF0123012A99445E4602
:102310004AD10C46DDF80CB0032905D263E05E46D5
:10232000DDF80CB003295ED399F800108A0715D4A4
:10233000052119F801204944930719D405228B5C23
:1023400011449F071DD405228B5C11449F0721D4A3
:102350000522043C01EB0209E6D144E0C9064FF036
:10236000050158BF012119F8012049449307E5D51B
:10237000D2064FF0050258BF01228B5C11449F0723
:10238000E1D5DA064FF0050258BF01228B5C1144FB
:102390009F07DDD5DA064FF0050258BF0122043C45
:1023A00001EB0209C0D11EE099F80070DDF80CB015
:1023B000BB074FF0050302D5FF0658BF0123022AD1
:1023C000994403D1023C0329AED20CE099F80030C5
:1023D0009A074FF0050202D5DB0658BF012291444F
:1023E000033C0329A0D24F4601283FF4D4ADDDF8C9
:1023F0001090A7EB0A0185F801B0A9EB0802A870BC
:1024000042EA014505F101100DB0BDE8F08F002151
:10241000069167E700200690022063E7CDF80CB034
:10242000B346B946002C7FF462AFADE540F0100032
:1024300056E7000000000000FF224FF001100A7074
:10244000704700000000000040F25810C2F2010086
:10245000002102228180826064220174C0E905218A
:10246000012282838177704740F2341540F66C2652
:1024700042F66C284FF00009C2F20105C2F20106D3
:102480007F27C2F2010800BF812000214FF0FF32F8
:1024900009F072F970E000BFAC88A002305C7E28C1
:1024A00019D106EB842000BF0770601C6988B0F169
:1024B000080418BF04468C4207D1812000214FF048
:1024C000FF3209F059F9000605D4A002305C7E28DD
:1024D00006EB8420E8D0A888698906EB802008EB09
:1024E0008121FEF781F8698905EB41014882A888BE
:1024F0000130A880A888082808BFA5F8049028897A
:1025000001302881287880B1E8882989401A80B272
:1025100008280AD085F80090012168884FF480636C
:1025200006EB802200200BF0BDFA6889013068813B
:102530006889082808BFA5F80A90E8890130E88171
:102540006878C8B1E889298A884215D0A889411CD1
:10255000A98108EB8022A989082908BFA5F80C9059
:10256000298A0131298205EB400185F8019000207C
:102570004B8A81210BF0B8FAE888298988428BD1EF
:1025800082E700000000000041F64011C0F20101A6
:102590004843401EFDD1704781B000F13E4000F13C
:1025A000FF704FEAB020082800F28C80DFE800F0CE
:1025B0000514233241505F6E7D0043F63000C4F2B3
:1025C0000200016841F001010160006800F00100B3
:1025D0000090009801B0704743F63000C4F202004A
:1025E000016841F002010160006800F00200009003
:1025F000009801B0704743F63000C4F20200016851
:1026000041F004010160006800F0040000900098AF
:1026100001B0704743F63000C4F20200016841F097
:1026200008010160006800F008000090009801B007
:10263000704743F63000C4F20200016841F0100117
:102640000160006800F010000090009801B0704731
:1026500043F63000C4F20200016841F0200101603D
:10266000006800F020000090009801B0704743F629
:102670003000C4F20200016841F0400101600068CE
:1026800000F040000090009801B0704743F6300021
:10269000C4F20200016841F080010160006800F0AE
:1026A00080000090009801B0704743F63000C4F2FB
:1026B0000200016841F480710160006800F48070DC
:1026C0000090009801B0704770B50446866D00F028
:1026D0000FFA94F8351002292CD105462068216C98
:1026E0000268002922F016020260426922F080028C
:1026F000426101D1A16C19B1016821F008010160AA
:10270000016821F0010101600068C00704D118E0F0
:1027100020680068C00714D000F0EAF9401B0528C3
:10272000F6D920206065002084F83400032084F866
:10273000350070BD80206065002084F834000120E1
:1027400070BDE06D3F2101FA00F0B0600020012172
:1027500084F8340084F8351070BD000000000000DB
:10276000B0B5044600F0C4F940F21001C2F2010114
:1027700005460978621C18BF0C4400BF00F0B8F988
:10278000401BA042FAD3B0BD2DE9F04F41F60047FF
:1027900000F13E42C4F2020702F1FF734FF0080B52
:1027A000B84208BF4FF0070B0027B7EBB32F43F633
:1027B0000046C4F201066AD04FEAB3235F1E062F1B
:1027C00038BF9B4600234FF00109A6F57E7E002707
:1027D000002400BF09FA04F60E4251D04FEA940CCF
:1027E00007F00C095EF82CA00F2202FA09F80AEA99
:1027F00008020BFA09F5AA421ED15EF82C2022EA43
:1028000008024EF82C2043F60042C4F2010215469D
:102810001268B2432A606FEA060C6A68B2436A60C3
:10282000AA68B243AA6043F60C42C4F201021546FC
:102830001268B2432A6001E06FEA060C03220568C1
:102840009A4025EA02086FF00305C0F8008005EA07
:10285000540507F01C0A05440F2606FA0AF82E6AEA
:1028600026EA08062E624FF00109856895438560C7
:10287000456805EA0C064660C66826EA0202C260A0
:1028800001340437102C03F10203A3D15BE00022D2
:102890004FF0010AA6F57E7B4FF00F0C4FF0030EB0
:1028A000002600270AFA07F30B4246D0BD0802F0C3
:1028B0000C045BF825800CFA04F918EA090F02D021
:1028C0006FEA03081BE05BF825406FEA030824EA7F
:1028D00009044BF8254043F60045C4F201052C6875
:1028E0009C432C606C689C436C60AC689C43AC60FF
:1028F00043F60C45C4F201052C689C432C600EFA8B
:1029000006F4056825EA04096FF00305C0F8009095
:1029100005EA570502F01C0305440CFA03F92B6A7B
:1029200023EA09032B628368A3438360436803EAB5
:1029300008034360C368A343C36001370236102F06
:1029400002F10402AED1BDE8F08F000000000000EB
:102950002DE9F04F82B000F13E4241F6004702F10E
:10296000FF72C4F2020708264FEAB223B84208BF3A
:102970000726072B38BF4FEAB22643F6440A0096D3
:1029800043F6004C00234FF0010B0026C4F2020A6C
:10299000C4F2010C002400BF0BFA04FE0F6817EA12
:1029A0000E0F00F09880D1F8048048F01007122F25
:1029B00014D16FF0030202EA5407074406F01C0228
:1029C000D7F820800F25954028EA05080D6905FAFB
:1029D00002F242EA08023A62D1F804800325026852
:1029E0009D4008F00307AA439F403A43B8F1120FF5
:1029F00002606FEA050913D80BFA08F212F0061FFD
:102A00000ED08268CD6802EA09029D402A438260A6
:102A10004268C8F3001522EA0E02A5402A4342602C
:102A2000C2688D6802EA09029D402A435FEAC80530
:102A3000C26050D5DAF8002024F0030542F4804249
:102A4000CAF800204FF60847DAF80020CFF6FF77E3
:102A500002F4804201920CEB0502019DB94606F09A
:102A60000C0552F807800F27AF4028EA0708009F9F
:102A700007FA05F545EA080542F80950DCF8008038
:102A80004D6848EA0E07EA0358BF28EA0E07CCF85B
:102A90000070AA03DCF8048048EA0E0758BF28EA51
:102AA0000E07CCF80470DCF80880EA0248EA0E074A
:102AB00043F60C4258BF28EA0E07CCF80870C4F25F
:102AC00001029046126842EA0E07AD0258BF22EAA0
:102AD0000E07C8F8007001340436102C03F102030D
:102AE0007FF45AAF02B0BDE8F08F00000000000094
:102AF00080B508F073F8022803D1BDE8804008F0E3
:102B000083B80120FFF740FD40F25821C2F20101D5
:102B100008680130086080BD80B543F60040C4F20B
:102B20000200016841F400710160016841F48071A4
:102B30000160032000F0C4F80F2000F005F800F059
:102B40007BF8002080BD000070B540F21006C2F294
:102B5000010631784FF47A720446B2FBF1F140F28B
:102B60001802C2F201021268B2FBF1F1084600F04D
:102B7000A3FB0F2C4FF0010508D838B94FF0FF30F8
:102B800000222146002500F06FF87460284670BDD1
:102B900002784EF69C5C4378CEF2000C002A4CF88A
:102BA000043C22D080B54368CCF80030037BC17A66
:102BB00090F80AE042EA0372437B42EA0161827BB9
:102BC00041EACE4190F80FE041EA8341437A41EA7D
:102BD0004241007A41EA0E4141EA032141EA4000C4
:102BE000BDE88040CCF8040070470020CCF800001D
:102BF000CCF80400704700004EF62450BFF35F8FFE
:102C0000CEF20000016821F48031016000210167EB
:102C100070470000000000004EF6245140F0010013
:102C2000CEF200010867086840F480300860BFF306
:102C30004F8FBFF36F8F7047704700000000000098
:102C40000028B8BF704700F01F01012202FA01F10D
:102C50004EF280124009CEF2000242F82010BFF37B
:102C60004F8FBFF36F8F704710B54EF60C5CCEF2EE
:102C7000000CDCF80030C3F3022E8EF00704042CA5
:102C800028BF0424BEF103034FF0FF3E38BF0023EA
:102C90000EFA04F4A14399400EFA03F39A4300F0AC
:102CA0000F03043B1143634409010C3300F16042FC
:102CB000B0F1FF3FC8BF02F56443197010BD0000BA
:102CC0004EF60C51CEF200010A684FF6FF031A408F
:102CD00060F30A2242F0806040F0FD7008607047A7
:102CE000B0B582B043F64000C4F20200016847F27A
:102CF000000541F080510160C4F20005006800F059
:102D0000805001900198286840F480302860FFF7D7
:102D1000EFFE04466868C00306D4FFF7E9FE001B17
:102D2000B0F57A7FF6D910E0286840F400302860CA
:102D3000FFF7DEFE044600BF6868800308D4FFF793
:102D4000D7FE001BB0F57A7FF6D9032002B0B0BDE4
:102D5000002002B0B0BD00002DE9F041002800F0D5
:102D60008C8043F60808C4F202080446D8F8F80339
:102D700000F00F000D4688420CD2D8F8F80320F07E
:102D80000F002843C8F8F803D8F8F80300F00F0044
:102D9000A84272D12068810717D5410705D5D8F818
:102DA000001041F4E051C8F80010010705D5D8F82B
:102DB000001041F46041C8F80010D8F8001021F06C
:102DC000F001A2681143C8F80010C00730D0606855
:102DD000012806D158F8081C89030DD40120BDE84C
:102DE000F081022858F8081C04D1890104D401207C
:102DF000BDE8F081890740D5D8F8001021F0030123
:102E00000843C8F80000FFF773FE064641F2883712
:102E1000D8F8000000F00C006168B0EB810F07D01B
:102E2000FFF766FE801BB842F2D90320BDE8F081AF
:102E3000D8F8F80300F00F00A8420CD9D8F8F8032E
:102E400020F00F002843C8F8F803D8F8F80300F082
:102E50000F00A84211D12068410711D4000719D4EE
:102E6000D8F8000000F00C00082822D0042843D134
:102E700047F64000C0F27D1042E00120BDE8F0813D
:102E8000D8F8001021F4E051E2681143C8F80010AE
:102E90000007E5D5D8F8000020F46040216940EA39
:102EA000C100C8F80000D8F8000000F00C000828A5
:102EB000DCD158F8042C002358F8040C02F03F022F
:102EC000400258F8041C47F64000C1F38811C0F2D4
:102ED0007D105CBF42F20040C0F2F400A0FB010193
:102EE000FDF7FCF958F8041C0222C1F3014102EB82
:102EF0004101B0FBF1F003E042F20040C0F2F40007
:102F0000D8F800104EF26462C1F30311C0F600025B
:102F1000515CC84040F21801C2F2010108600F2064
:102F2000FFF712FE0020BDE8F08100000000000065
:102F300040F2180043F60801C2F20100C4F2020197
:102F4000006809684EF27462C1F38221C0F6000283
:102F5000515CC8407047000040F2180043F6080179
:102F6000C2F20100C4F20201006809684EF2746204
:102F7000C1F34231C0F60002515CC8407047000006
:102F80002DE9F04182B0002800F0B98004460078B5
:102F900043F60006C007C4F202064CD0B06800F049
:102FA0000C00042817D0B06800F00C00082802D1EB
:102FB000706840020FD4606898B1B0F5803F06D0C9
:102FC000B0F5A02F306822D140F480203060306806
:102FD00040F4803021E0306880032CD5606850BB1D
:102FE0008DE0306820F480303060306820F480203C
:102FF0003060FFF77DFD0546306880031BD5FFF785
:1030000077FD401B64284FF00300F5D94AE120F416
:1030100080303060306820F480203060FFF768FD39
:10302000054600BF3068800305D4FFF761FD401BF3
:103030006428F7D900E1207880072DD5B06810F01A
:103040000C0F07D0B06800F00C00082809D1706898
:10305000400206D43068800717D5E06801284ED1B9
:1030600013E0E0680028306800F0A68040F001001E
:103070003060FFF73DFD05463068800705D4FFF757
:1030800037FD401B0228F7D9D6E0306820F0F80061
:10309000216940EAC10030602078000723D56069CB
:1030A0000028706F0FD040F001007067FFF720FD1F
:1030B000054600BF706F800715D4FFF719FD401B50
:1030C0000228F7D9B8E020F001007067FFF710FD83
:1030D000054600BF706F800705D5FFF709FD401B4F
:1030E0000228F7D9A8E0207840070CD4A569002D64
:1030F00000F0DB80B06800F00C0008283AD1012015
:1031000002B0BDE8F081306CC0000BD4306C4FF0E1
:10311000010840F080503064306C00F08050019025
:10312000019801E04FF0000847F20007C4F20007E1
:103130003868C0050FD4386840F480703860FFF7F5
:10314000D7FC05463868C00505D4FFF7D1FC401B05
:103150006428F7D970E0A06800283FD0012805D086
:103160000528306F53D140F004003067306F40F0D5
:10317000010052E0306820F080703060FFF7B8FC4A
:10318000022D05460CD100BF3068800165D5FFF7E0
:10319000AFFC401B02284FF00300F5D982E000BFCE
:1031A0003068800140F18180FFF7A2FC401B0328BA
:1031B0004FF00300F4D375E020F001003060FFF71A
:1031C00097FC0546306880077FF566AFFFF790FCF7
:1031D000401B02284FF00300F4D963E0306F20F069
:1031E00001003067306F20F004003067FFF780FC8B
:1031F000054641F2883700BF306F800720D5FFF7C2
:1032000077FC401BB8424FF00300F5D94AE020F0AC
:1032100001003067306F20F004003067FFF768FC72
:10322000054641F2883700BF306F800708D4FFF7AA
:103230005FFC401BB842F7D9032002B0BDE8F08123
:10324000B8F1000F3FF452AF306C20F08050306482
:10325000A569002D7FF44EAF27E0A06A4FF6FF71FD
:10326000C003E2698843216A636A1143E26A41EA62
:103270008311A0F5803041EA0261084340F000501C
:103280007060306840F080703060FFF731FC0446B9
:103290003068800109D4FFF72BFC001B02284FF097
:1032A0000300F5D902B0BDE8F081002002B0BDE80E
:1032B000F081000000000000411E0020B0EB116F03
:1032C00001D0012070474EF21002CEF20002516090
:1032D0004EF62351CEF20001F0230B7007219060CF
:1032E000116070470000000010B540F22814C2F2CF
:1032F0000104022044F8040F44F221700121C0F6B9
:1033000000000023224608F06DFA0028606006D015
:103310003F2108F07FFA10B14FF0FF3010BD0020C0
:1033200010BD0000000000002DE9F04340F25C13E6
:10333000C2F201035A7841F618414FF600064FF4E5
:103340000077C4F20201CFF6FF764FF480058F516B
:10335000002A0D6034D040224FF000770A600D60E3
:103360000A608F510D600A600D600A604FF4807230
:103370008A5193F81BE003EB4E0CBCF82450002D4F
:1033800000F0B88015F00307A5F1010200F0A2805B
:103390004FF480094FF04008C1F80090012FC1F8A8
:1033A0000080144600F09780022FC1F80090C1F809
:1033B000008040F01181AC1E032A80F08E8099E0DD
:1033C0005C684022641EFDD10A605C684FF00077A3
:1033D000641EFDD10D605C68641EFDD10A605C68EE
:1033E000641EFDD18F510D604FF480775C68641EC0
:1033F000FDD10A605C68641EFDD10D605C68641ECE
:10340000FDD10A605C68641EFDD18F51DD7E03EB47
:103410004507BF8C6FB17D424FF480040C605F683C
:103420007F1EFDD10A605F687F1EFDD10135F5D199
:10343000DD7E5A19127F012A17D0C2F101024FF422
:1034400080054024C7074FF4807708BF4FF080778E
:103450008F510D6040085F687F1EFDD10C605F6872
:103460007F1EFDD10132EDD1DD7E03EB4502958E4D
:10347000002D00F07080C0074FF4807008BF4FF03F
:10348000807088514FF48000086040225C684FF4DF
:103490008077641EFDD10A605C68641EFDD18F5187
:1034A000012D0BD0C5F1010508605C68641EFDD1DB
:1034B0000A605C68641EFDD10135F5D14FF40077D8
:1034C0008F5108605868401EFDD10A605868401E40
:1034D000FDD155E02C46032A0CD34FF48002402541
:1034E000043C0A600D600A600D600A600D600A60AD
:1034F0000D60F5D103EB0E02157F6B1E1FD013F08C
:103500000302A5F1020E21D0C3074FF4807308BF58
:103510004FF080734FF480044FF040088B51012A24
:103520000C604FF48077C1F8008040F0448042087E
:1035300073461046BEF1030F80F06A8095E00246A4
:10354000BCF83430002B40F09380B9E0BEF1030F9B
:1035500080F05E8089E0C0074FF400724FF4807005
:103560008A5108BF4FF0807088514FF48000086086
:1035700040225868401EFDD10A605868401EFDD1A7
:103580004FF48000086040275A684FF00075521EC3
:10359000FDD10F605A68521EFDD18D5108605868E8
:1035A000401EFDD10F605868401EFDD14FF4807061
:1035B0008851BDE8F083830758BF4FF08077022A17
:1035C0008F510C60C1F8008010D18208EB1E1046AC
:1035D000BEF1030F1CD248E04FF480040C6040247D
:1035E0000C60EC1E032ABFF478AF83E742074FF468
:1035F000807258BF4FF080724FF4800340248A518C
:103600000B60C2080C602B1F1046BEF1030F2CD3B9
:103610004FF48005402400BFC2074FF4807208BFFA
:103620004FF080728A5182070D604FF480720C60F7
:1036300058BF4FF080728A5142070D604FF480727C
:103640000C6058BF4FF080728A5102070D604FF432
:1036500080770C604FEA101258BF4FF08077043B20
:103660008F5110460D600C60D6D1BCF834303BB39E
:10367000D0074FF4807008BF4FF0807088514FF42E
:103680008000086040204FF480720860581E8A5104
:1036900020D010F00307A3F102020CD04FF48004F5
:1036A00040250C60012F0D60104604D0022F0C60E5
:1036B0000D6012D1D81E032A17D24FF4007023E0F8
:1036C000D0074FF400734FF480708B5108BF4FF058
:1036D000807019E04FF4007016E04FF4800008602D
:1036E00040200860181F032AE7D34FF480024023CC
:1036F00004380A600B600A600B600A600B600A60A5
:103700000B60F5D14FF4007088514FF480004022D7
:1037100008604FF000730A6008600A608B5108600F
:103720000A604FF480708851BDE8F083000000000B
:10373000F0B541F618404FF6000CC4F20200CFF687
:10374000FF7C4FF4007140F80C104FF4800E40F2F3
:103750005C11C0F800E0C2F201014B6840225B1E20
:10376000FDD102604B684FF000745B1EFDD140F844
:103770000C40C0F800E04B685B1EFDD102604B6856
:103780005B1EFDD1C0F800E04B685B1EFDD10260FE
:103790004B685B1EFDD1CB7E5BB15B42C0F800E0A5
:1037A0004C68641EFDD102604C68641EFDD101337B
:1037B000F4D140F6104400236FF01E05C4F2020459
:1037C000C0F800E04E68761EFDD12668026006F063
:1037D00004064F6843EA46737F1EFDD15B0801353E
:1037E000EED14FF4007240F80C204FF480020260DA
:1037F00040264D686D1EFDD1276806604FF00075AC
:103800004C68641EFDD102604C68641EFDD10660E8
:103810004C68641EFDD140F80C50026007F00402B1
:103820004C68641EFDD1066043EA42704968491E37
:10383000FDD1F0BD000000002DE9F04F81B010F087
:103840003F0C08BF4FF0400C43064FF4007441F6A4
:10385000184358BF4FF000744FF6000E40F6104A60
:10386000C4F20203CFF6FF7E000643F80E40C4F216
:10387000020A4FF480082BD440F25C14C2F2010417
:10388000402500BF11F8010BACF10106002200BF7A
:10389000C7074FF4807708BF4FF0807743F80E706A
:1038A000C3F8008067687F1EFDD1DAF800701D60E4
:1038B00067687F1EFDD1964202F1010704D0072AF6
:1038C0004FEA50003A46E3D1BCEB070CDAD13CE0BA
:1038D00040F25C1BC2F2010B4FF0400911F8014BA2
:1038E0000020CDF800C0ACF1010C0026E5074FF434
:1038F000807508BF4FF0807543F80E50C3F8008004
:10390000DBF804506D1EFDD1DAF80050C3F80090CA
:1039100005F00405DBF804706D017F1EFDD145EA5A
:103920005606844500F1010504D007284FEA5404E7
:103930002846DBD1C5F10800DDF800C026FA00F00A
:10394000BCEB050C02F8010BC8D101B0BDE8F08F4B
:103950002DE9F04F9EB040F25C1EC2F2010E9EF8BF
:10396000017041F618434FF6000240F6104A4FF43A
:103970000076C4F20203CFF6FF724FF480049E502B
:10398000002F1C60C4F2020A31D04FF0400B4FF000
:103990000077C3F800B09F501C60C3F800B01C60F3
:1039A000C3F800B09EF81B80B8F1000F00F0208132
:1039B00018F00305A8F1010400F00A814FF4800912
:1039C0004FF0400CC3F80090012DC3F800C027460B
:1039D00000F0FF80022DC3F80090C3F800C040F053
:1039E000BA83A8F10207032C80F0F58000E1DEF82D
:1039F000045040276D1EFDD11F60DEF804504FF0CB
:103A000000766D1EFDD19E501C60DEF804506D1EC8
:103A1000FDD11F60DEF804506D1EFDD11C60DEF884
:103A20000440641EFDD11F60DEF80440641EFDD119
:103A30009EF81B6076B176424FF480051D60DEF87B
:103A40000440641EFDD11F60DEF80440641EFDD1F9
:103A50000136F3D14FF480764FF4800810F0020C59
:103A600008BF4FF080769E50C3F80080DEF8045007
:103A70006D1EFDD1DAF800901F604FF48075DEF8FE
:103A80000440641EFDD144074FF4807458BF4FF0CA
:103A900080749C50C3F80080DEF80440641EFDD1A1
:103AA000DAF80040C4F380041F60DEF80460761E7C
:103AB000FDD1060758BF4FF080759D500225C3F811
:103AC000008005EA5905DEF804602C44761EFDD11D
:103AD000DAF800601F6006F00405DEF804602C448C
:103AE000761EFDD11D94012C40F06180BCF1000FC9
:103AF00040F0D8824FF6000C0F686FF01E044FF4B0
:103B000080054026CFF6FF7CFA074FF4807208BF8D
:103B10004FF0807243F80C201D603946DEF8042017
:103B20007F08521EFDD11E60DEF80420521EFDD11A
:103B30000134E9D19EF81B609EF81A50F2435719E0
:103B400000F02A8389074FF4807158BF4FF08071CD
:103B500043F80C104FF4800119604024DEF8042073
:103B6000521EFDD11C60DEF80420521EFDD1012F33
:103B70000ED0B21C551B00BF1960DEF80420521E87
:103B8000FDD11C60DEF80420521EFDD10135F3D1B9
:103B90004FF4007243F80C201960DEF80410491E3F
:103BA000FDD11C60DEF80410491EFDD12BE34FF45B
:103BB000007199504027C3F800809446DEF8041045
:103BC000491EFDD11F60DEF80410491EFDD11AE325
:103BD0004746032C0CD34FF480054024043F1D605E
:103BE0001C601D601C601D601C601D601C60F5D1A8
:103BF0004FF6000210F002094FF48077CFF6FF7203
:103C000008BF4FF080774FF4800C9F50C3F800C07E
:103C100045074FF48074DAF80050C3F800B058BF7D
:103C20004FF080749C504FF48074C3F800C00707B5
:103C3000DAF80060C6F38006C3F800B058BF4FF052
:103C400080749C500224C3F800C004EA5504DAF8DA
:103C500000503444C3F800B005F004052C44012C96
:103C600040F05381A446B9F1000F40F056810E6830
:103C70004FF480774FF60002F10708BF4FF08077CE
:103C8000CFF6FF729F50B7074FF480054FF0400109
:103C90001D604FF48077196058BF4FF080779F50B8
:103CA00077071D604FF48077196058BF4FF0807719
:103CB0009F5037071D604FF48077196058BF4FF051
:103CC00080779F50F7061D604FF48077196058BFCA
:103CD0004FF080779F50B7061D604FF480771960D2
:103CE00058BF4FF080779F5077061D604FF4807764
:103CF000196058BF4FF080779F5037061D604FF412
:103D00008077196058BF4FF080779F50F7051D608E
:103D10004FF48077196058BF4FF080779F50B705F8
:103D20001D604FF48077196058BF4FF080779F5027
:103D300077051D604FF48077196058BF4FF080778A
:103D40009F5037051D604FF48077196058BF4FF0C2
:103D500080779F50F7041D604FF48077196058BF3B
:103D60004FF080779F50B7041D604FF48077196043
:103D700058BF4FF080779F5077041D604FF48077D5
:103D8000196058BF4FF080779F5037041D604FF483
:103D90008077196058BF4FF080779F50F7031D6000
:103DA0004FF48077196058BF4FF080779F50B7036A
:103DB0001D604FF48077196058BF4FF080779F5097
:103DC00077031D604FF48077196058BF4FF08077FC
:103DD0009F5037031D604FF48077196058BF4FF034
:103DE00080779F50F7021D604FF48077196058BFAD
:103DF0004FF080779F50B7021D604FF480771960B5
:103E000058BF4FF080779F5077021D604FF4807746
:103E1000196058BF4FF080779F5037021D604FF4F4
:103E20008077196058BF4FF080779F50F7011D6071
:103E30004FF48077196058BF4FF080779F50B701DB
:103E40001D604FF48077196058BF4FF080779F5006
:103E500077011D604FF48077196058BF4FF080776D
:103E60009F5037011D604FF48077196058BF4FF0A5
:103E700080779F50F7001D604FF48077196058BF1E
:103E80004FF080779F50B7001D604FF48077196026
:103E900058BF4FF080779F5077001D604FF48077B8
:103EA000196058BF4FF080779F501D606FEA080778
:103EB00019609EF81A4014EB07094FF4807700F060
:103EC0005581B6F1FF3FC8BF4FF080779F501D600E
:103ED000B9F10105196000F0FF81A11CA1EB0801F7
:103EE000E71E11F00304A7EB080100F0E5814FF491
:103EF000800640251E60012C1D6040F0C481A9F1A0
:103F00000205032980F0DA81E6E14FF4007199504F
:103F10004021C3F800C01960CFE24FF480061E6054
:103F20004027DAF800206FEA08051D921F601E6026
:103F3000DAF800201C921F601E60DAF800201B9245
:103F40001F601E60DAF800201A921F601E60DAF807
:103F5000002019921F601E60DAF800B01F601E601A
:103F6000DAF8002018921F601E60DAF8002017921D
:103F70001F601E60DAF8002016921F601E60DAF8DB
:103F8000002015921F601E60DAF8002014921F6056
:103F90001E60DAF8002013921F601E60DAF800201D
:103FA00012921F601E60DAF8002011921F601E60DE
:103FB000DAF8002010921F601E60DAF800200F92DD
:103FC0001F601E60DAF800200E921F601E60DAF893
:103FD00000200D921F601E60DAF800200C921F6016
:103FE0001E60DAF800200B921F601E60DAF80020D5
:103FF0000A921F601E60DAF8002009921F601E609E
:10400000DAF8002008921F601E60DAF8002007929C
:104010001F601E60DAF8002006921F601E60DAF84A
:10402000002005921F601E60DAF8002004921F60D5
:104030001E60DAF8002003921F601E60DAF800208C
:1040400002921F601E60DAF8002001921F601E605D
:10405000DAF8002000921F609EF81A4014EB050960
:1040600000F08F801E60B9F10106DAF800A01F6031
:1040700000F05681A71CA7EB0807E51E17F0030701
:10408000A5EB080400F03D814FF4800540261D603B
:10409000012F1E6040F00081A9F10206032C80F080
:1040A00032813DE100246FF01E064FF4800C402564
:1040B000C3F800C0DEF80420521EFDD1DAF800205B
:1040C0001D6002F00402DEF8047044EA42727F1EB2
:1040D000FDD154080136EBD19EF81B509EF81A9082
:1040E000EA4312EB090B00F071804FF480061E606A
:1040F0004027DEF80420521EFDD1DAF800801F6050
:10410000DEF80420521EFDD1BBF1010F0ED0AA1C17
:10411000A2EB09051E60DEF80420521EFDD11F60CF
:10412000DEF80420521EFDD10135F3D14FF6000C0C
:104130004FF40072CFF6FF7C43F80C201E60DEF8CF
:104140000420521EFDD11F60DEF80420521EFDD156
:10415000002953D157E04FF480021A6040221A60C0
:10416000A8F10307032CBFF436AD41E54FF400740A
:10417000B6F1FF3FC8BF4FF080779C509F501D6045
:10418000B5E04FF600024FF40077CFF6FF729F5074
:104190001E60DAF800A0CDE089074FF400724FF4FA
:1041A000807143F80C2058BF4FF0807143F80C1019
:1041B0004FF4800119604022DEF80410491EFDD141
:1041C0001A60DEF80410491EFDD11CE04FF6000C09
:1041D0004FF40072CFF6FF7C43F80C204FF48002BE
:1041E0001A60DEF80420521EFDD1DAF80080402269
:1041F0001A60DEF80420521EFDD121B108F004023D
:1042000044EA42720A604FF4800119604027DEF8E8
:1042100004204FF00076521EFDD11F60DEF804200E
:10422000521EFDD143F80C601960DEF80410491EDF
:10423000FDD11F60DEF80410491EFDD14FF48071DE
:10424000000643F80C1006D541F20400CEF200003F
:104250000068CEF808009EF80C001D9C002800F0B5
:104260006B8140424FF48001402700BF1960DEF8A7
:104270000420521EFDD11F60DEF80420521EFDD125
:104280000130F3D158E1022C1E601D600DD1A9F15F
:104290000305032912D21FE0022F1D601E6029D1E1
:1042A000A9F10306032C2ED23AE04FF480021A60E3
:1042B00040221A60A9F1040503290DD34FF48001AF
:1042C000402400BF043D19601C6019601C60196027
:1042D0001C6019601C60F5D14FF600024FF40071AC
:1042E000CFF6FF7299504FF4800119604021644667
:1042F0001960E2E04FF480021A6040221A60A9F1CE
:104300000406032C0CD34FF480044027043E1C60A9
:104310001F601C601F601C601F601C601F60F5D167
:104320004FF600024FF40077CFF6FF729F504FF424
:1043300080071F606446402700291F6000F0BD8091
:104340004FF080471D9E07EA06771C9E06F0040684
:1043500047EA46771B9E06F00406760746EA5707AB
:104360001A9E06F00406760746EA5707199E06F0DD
:104370000406760746EA57070BF00406760746EA76
:104380005707189E06F00406760746EA5707179E59
:1043900006F00406760746EA5707169E06F004065E
:1043A000760746EA5707159E06F00406760746EAA2
:1043B0005707149E06F00406760746EA5707139E31
:1043C00006F00406760746EA5707129E06F0040632
:1043D000760746EA5707119E06F00406760746EA76
:1043E0005707109E06F00406760746EA57070F9E09
:1043F00006F00406760746EA57070E9E06F0040606
:10440000760746EA57070D9E06F00406760746EA49
:1044100057070C9E06F00406760746EA57070B9EE0
:1044200006F00406760746EA57070A9E06F00406D9
:10443000760746EA5707099E06F00406760746EA1D
:104440005707089E06F00406760746EA5707079EB8
:1044500006F00406760746EA5707069E06F00406AD
:10446000760746EA5707059E06F00406760746EAF1
:104470005707049E06F00406760746EA5707039E90
:1044800006F00406760746EA5707029E06F0040681
:10449000760746EA5707019E06F00406760746EAC5
:1044A0005707009E06F00406760746EA57077F087E
:1044B0000AF0040647EA46770F604FF48001402770
:1044C00019604FF000761F609E50000619604FF48F
:1044D00080711F60995006D541F20400CEF20000B1
:1044E0000068CEF808009EF80C202AB312F00307EB
:1044F000A2F101000FD04FF4800540261D60012F6E
:104500001E60014608D0022F1D601E6018D1911E4A
:10451000032811D302E0114603280DD34FF4800085
:10452000402200BF043918601A6018601A601860D1
:104530001A6018601A60F5D120461EB0BDE8F08FF1
:104540004FF4800140271960D11E1F600328F3D368
:10455000E4E700000000000070B541F618414FF696
:10456000000CC4F20201CFF6FF7C4FF400724FF44E
:10457000800E41F80C2040F25C13C1F800E0C2F25A
:1045800001035C684022641EFDD10A605C684FF044
:104590000075641EFDD141F80C50C1F800E05C6864
:1045A000641EFDD10A605C68641EFDD1C1F800E0A4
:1045B0005C68641EFDD10A605C68641EFDD1DC7E0F
:1045C000002C0CD0644200BFC1F800E05D686D1E95
:1045D000FDD10A605D686D1EFDD10134F4D14FF04C
:1045E000807441F80C406FF01E05C1F800E05C6873
:1045F000641EFDD10A605C68641EFDD1C1F800E054
:104600005C68641EFDD10A605C68641EFDD1C1F85F
:1046100000E05C68641EFDD10A605C68641EFDD128
:104620000446C0074FF4807008BF4FF0807041F817
:104630000C00C1F800E05868401EFDD10A605868BF
:10464000401EFDD101354FEA5400E9D1DD7E93F8DB
:104650001AE0E84310EB0E062FD0A0074FF480704D
:1046600058BF4FF0807041F80C004FF48000086094
:1046700040225C68641EFDD10A605C68641EFDD146
:10468000012E0DD0AC1CA4EB0E0600BF08605C68C8
:10469000641EFDD10A605C68641EFDD10136F5D14F
:1046A0004FF4007641F80C6008605868401EFDD158
:1046B0000A605868401EFDD116E04FF40070A20752
:1046C00041F80C004FF480724FF4800058BF4FF057
:1046D000807241F80C20402208605868401EFDD1CD
:1046E0000A605868401EFDD14FF4800008604026E3
:1046F0005A684FF00075521EFDD10E605A68521E66
:10470000FDD141F80C5008604FF480725868401E8B
:10471000FDD10E605868401EFDD141F80C2070BDDF
:1047200040F22810C2F20100417803784A1C02F0DE
:104730000F01032B41700AD0022B1ED0012B26D172
:104740001820C4F202004FF4806101607047D10765
:1047500040F218024FF08061C4F2020208BF4FF429
:104760008061116081780131CAB28170032A38BF3B
:1047700070470021817001707047900740F2180067
:10478000C4F2020011D44FF4806101607047002927
:1047900040F218014FF08062C4F2020108BF4FF4EA
:1047A00080620A600021017070474FF080610160F3
:1047B000704710B500F1280151E8002F12B9BFF37E
:1047C0002F8F04E0531E41E8003404B1F4E782B1B6
:1047D0002C3001210AE0821CD2E84F3FC2E8441F7E
:1047E00004B1F9E71A0608BF10BD083000680028B8
:1047F000F1D1002010BD10B584465CF8303F8BB17C
:10480000CA784FF0000E05E01C46DB7893420ED2CA
:104810006368A646002BF7D10022C1E9012E00F102
:104820002C0208E00022C1E90122C16209E0C1E9CD
:10483000014E04F108021160BEF1000F18BF0EF125
:10484000040CCCF80010283050E8001F4A1C40E847
:10485000002303B1F8E710BDD1E90123002A0EBF00
:10486000C36293608B68191D002B08BF00F13001F3
:104870000A6070471A480068704700BF19480178FD
:10488000012905D10021017004484FF080610160C9
:104890001348016841F001010160704704ED00E038
:1048A0004FF0FF307047000040B10B490968B1FB81
:1048B000F0F0411E0020B0EB116F02D04FF0FF303E
:1048C0007047064AFF231370054A062313605160A0
:1048D00004499060087070471800012023ED00E043
:1048E00010E000E05C0201201420C4F20400016822
:1048F0004068084004F080BBF0B587B043F630064E
:1049000040F2004405468707C4F20206C4F20204DE
:1049100031D0E80716D0306801A940F002003060BD
:10492000306800F00200019001984FF400400190BF
:10493000022002900020CDE903000C2005902046C3
:10494000FEF706F8002F16D5306801A940F00200E6
:104950003060306800F00200069006984FF4804006
:104960000190022002900020CDE903000C20059068
:104970002046FDF7EDFFE80616D5306801A940F0A6
:1049800002003060306800F00200069006984FF494
:1049900080500190022002900020CDE903000C20FD
:1049A00005902046FDF7D4FF07B0F0BD00000000E1
:1049B00070B540F2004405468607C4F202040DD0EB
:1049C000E80704D04FF400412046FDF7DDFE002E3D
:1049D00004D54FF480412046FDF7D6FEE80600D40A
:1049E00070BD4FF480512046BDE87040FDF7CCBE4D
:1049F0002DE9F04385B041F6184741F21849C4F259
:104A00000207C4F202094FF400724FF48008C9F89B
:104A1000002040F25C15C7F80080C2F201056B6807
:104A200040265B1EFDD13E606B685B1EFDD1C30757
:104A30004FF4007308BF4FF00073C9F80030C7F897
:104A400000806B685B1EFDD13E606B685B1EFDD114
:104A500083074FF4007358BF4FF00073C9F800305C
:104A6000C7F800806B685B1EFDD13E606B685B1E03
:104A7000FDD143074FF4007358BF4FF00073C9F8DE
:104A80000030C7F800806B685B1EFDD13E606B682C
:104A90005B1EFDD103074FF4007358BF4FF0007346
:104AA000C9F80030C7F8008000EB50036C6803EBD6
:104AB0009003641EFDD13E606C6803EBD000641E61
:104AC000FDD14FF00073C0074FF4007008BF4FF0E6
:104AD0000070C9F80000C7F8008000246868401E14
:104AE000FDD13E606868401EFDD1C9F80030C7F8AE
:104AF00000806868401EFDD13E606B6848465B1EC2
:104B0000FDD140F81829C7F800806B685B1EFDD105
:104B10003E606B685B1EFDD10494CDE900240294D5
:104B200003220C4603926946FDF712FF287EC7F860
:104B300000806968491EFDD158B140423E606968F5
:104B4000491EFDD1C7F800806968491EFDD10130BA
:104B5000F4D1D9F8F8070223C0F3C0103E606968A9
:104B6000491EFDD1C7F800806968491EFDD1D9F8FA
:104B7000F8173E6003EA91116A680144521EFDD1A4
:104B8000C7F800806A68521EFDD1D9F8F8273E6048
:104B90006B685B1EFDD1287E042303EA52120028B5
:104BA00001EB02080ED040424FF48001402200BFCA
:104BB00039606B685B1EFDD13A606B685B1EFDD18E
:104BC0000130F5D100264FF40070049600900120CA
:104BD000CDE9010603200390A9F118006946FDF70D
:104BE000B7FE6FF01F004FF480014022E3074FF43F
:104BF000007308BF4FF00073C9F8003039602644D5
:104C00006B6864085B1EFDD13A606B685B1EFDD16A
:104C10000130EBD1F0074FF4007108BF4FF0007185
:104C2000484640F818194FF4800139604FF4007479
:104C300069680022491EFDD1402139606968491E1A
:104C4000FDD1049201210094CDE9011203210391C9
:104C50006946FDF77DFEC9F80040404605B0BDE855
:104C6000F0830000000000002DE9F04110F03F0C3F
:104C700008BF4FF0400C000641F61840C4F2020095
:104C80004FF4800E2CD44FF6000840F25C12CFF6A1
:104C9000FF78C2F20102402411F8015BACF1010679
:104CA000002300BFEF074FF4007708BF4FF00077F5
:104CB00040F80870C0F800E057687F1EFDD104601E
:104CC00057687F1EFDD19E4203F1010704D0072BD8
:104CD0004FEA55053B46E5D1BCEB070CDCD128E09B
:104CE00040F25C13C2F201034FF04008ACF1010442
:104CF00000260025C0F800E05F687F1EFDD150F857
:104D0000087CC0F8008007F08007596847EA55051D
:104D1000491EFDD1771CB44202D0072E3E46E9D190
:104D2000C7F1080125FA01F1BCEB070C02F8011BE1
:104D3000DCD1BDE8F08100002DE9F04F8BB040F2EE
:104D40005C1AC2F2010A9AF8013041F6184641F2A3
:104D500018484FF40072C4F20206C4F202084FF47D
:104D60008005C8F80020002B05918346356000F0CF
:104D700009815FEACB704FF400704FF0400708BF25
:104D80004FF000701BF0020437604FF4007108BF51
:104D90004FF000715FEA4B73C8F800000BEB5B004B
:104DA0004FF400733560376000EB9B00C8F80010CB
:104DB00058BF4FF000735FEA0B7135604FF400711C
:104DC000376000EBDB00C8F80030356058BF4FF0AB
:104DD0000071C00737604FF40070C8F800103560EC
:104DE0004FF00001376008BF4FF00070C8F80000B6
:104DF0004FF0007035603760C8F8000040463560FD
:104E0000376040F81829356037600A91CDE90621EE
:104E100008910321099106A9FDF79AFD9AF818C097
:104E20003560BCF1000F23D01CF00300ACF101028F
:104E300061460ED040234FF4800533600128356071
:104E4000114606D002283360356040F00A85ACF187
:104E50000201032A0CD340204FF480020439306051
:104E60003260306032603060326030603260F5D184
:104E7000D8F8F8074FF48001C0F3C01037603160F4
:104E80000223D8F8F827376003EA92123160104401
:104E9000D8F8F817042202EA5111376000EB010933
:104EA000B9F1040F18BFB9F1020F40F01B84002CB8
:104EB00048D09AF81900002844D04FF480014022CD
:104EC0003160326031603260316032603160326056
:104ED0003160326031603260316032603160326046
:104EE0003160326031603260316032603160326036
:104EF0003160326031603260316032603160326026
:104F00003160326031603260316032603160326015
:104F10003160326031603260316032603160326005
:104F200031603260316032603160326031603260F5
:104F300031603260316032603160326031603260E5
:104F400031603260BCF1000F00F040851CF00300BE
:104F5000ACF10102614600F029854FF4800740233F
:104F6000376001283360114600F020850228376041
:104F7000336040F01485ACF10201032A80F01885FB
:104F800000F024BDDAF804004027401EFDD1376050
:104F9000DAF804000023401EFDD15FEACB704FF425
:104FA000007008BF4FF00070C8F800003560DAF8F4
:104FB0000400401EFDD13760DAF80400401EFDD128
:104FC0004FF400701BF0020408BF4FF00070C8F8E7
:104FD00000003560DAF80400401EFDD13760DAF8D1
:104FE0000400401EFDD15FEA4B704FF4007058BFC3
:104FF0004FF00070C8F800003560DAF80400401E79
:10500000FDD13760DAF80400401EFDD15FEA0B7075
:105010004FF4007058BF4FF00070C8F800003560C2
:105020000BEB5B00DAF8041000EB9B00491EFDD18E
:105030003760DAF8041000EBDB00491EFDD1C00731
:105040004FF4007008BF4FF00070C8F800003560E2
:105050004FF00071DAF80400401EFDD13760DAF835
:105060000400401EFDD1C8F800103560DAF80400D5
:10507000401EFDD13760DAF804104046491EFDD1CC
:1050800040F818293560DAF80410491EFDD1376060
:10509000DAF80410491EFDD10A930321CDE9062355
:1050A0000893099106A9FDF753FC9AF8180035609A
:1050B000DAF80410491EFDD170B140424FF480016E
:1050C0003760DAF80420521EFDD13160DAF804208E
:1050D000521EFDD10130F3D1D8F8F8074FF4800209
:1050E000C0F3C0103760DAF80410491EFDD13260F9
:1050F000DAF80410491EFDD1D8F8F8173760DAF84D
:1051000004305B1EFDD13260022303EA9111084492
:10511000DAF80410491EFDD10422D8F8F8173760D8
:1051200002EA5111DAF8043000EB01095B1EFDD1EF
:10513000B9F1040F18BFB9F1020F40F0F982002C49
:1051400000F052819AF81900002800F04D814FF4C8
:10515000800030604021DAF80420521EFDD1316019
:10516000DAF80420521EFDD13060DAF80420521E15
:10517000FDD13160DAF80420521EFDD13060DAF83A
:105180000420521EFDD13160DAF80420521EFDD1F8
:105190003060DAF80420521EFDD13160DAF80420C4
:1051A000521EFDD13060DAF80420521EFDD131606C
:1051B000DAF80420521EFDD13060DAF80420521EC5
:1051C000FDD13160DAF80420521EFDD13060DAF8EA
:1051D0000420521EFDD13160DAF80420521EFDD1A8
:1051E0003060DAF80420521EFDD13160DAF8042074
:1051F000521EFDD13060DAF80420521EFDD131601C
:10520000DAF80420521EFDD13060DAF80420521E74
:10521000FDD13160DAF80420521EFDD13060DAF899
:105220000420521EFDD13160DAF80420521EFDD157
:105230003060DAF80420521EFDD13160DAF8042023
:10524000521EFDD13060DAF80420521EFDD13160CB
:10525000DAF80420521EFDD13060DAF80420521E24
:10526000FDD13160DAF80420521EFDD13060DAF849
:105270000420521EFDD13160DAF80420521EFDD107
:105280003060DAF80420521EFDD13160DAF80420D3
:10529000521EFDD13060DAF80420521EFDD131607B
:1052A000DAF80420521EFDD13060DAF80420521ED4
:1052B000FDD13160DAF80420521EFDD13060DAF8F9
:1052C0000420521EFDD13160DAF80420521EFDD1B7
:1052D0003060DAF80420521EFDD13160DAF8042083
:1052E000521EFDD13060DAF80420521EFDD131602B
:1052F000DAF80420521EFDD13060DAF80420521E84
:10530000FDD13160DAF80420521EFDD13060DAF8A8
:105310000420521EFDD13160DAF80420521EFDD166
:105320003060DAF80420521EFDD13160DAF8042032
:10533000521EFDD13060DAF80420521EFDD13160DA
:10534000DAF80420521EFDD13060DAF80420521E33
:10535000FDD13160DAF80420521EFDD13060DAF858
:105360000420521EFDD13160DAF80420521EFDD116
:105370003060DAF80420521EFDD13160DAF80420E2
:10538000521EFDD13060DAF80420521EFDD131608A
:10539000DAF80420521EFDD13060DAF80420521EE3
:1053A000FDD13160DAF80420521EFDD13060DAF808
:1053B0000420521EFDD13160DAF80420521EFDD1C6
:1053C0003060DAF80420521EFDD13160DAF8042092
:1053D000521EFDD13060DAF80400401EFDD131606C
:1053E000DAF80400401EFDD19AF8180080B140425E
:1053F0004FF48001402200BF3160DAF804305B1EB8
:10540000FDD13260DAF804305B1EFDD10130F3D1FA
:1054100000204FF400710A9006910121CDE9071098
:1054200003200990A8F1180006A9FDF791FA002CB5
:1054300040F028869AF81900002800F023864FF0E3
:105440000070C8F800004FF4800030604021DAF8A6
:105450000420521EFDD13160DAF80420521EFDD125
:105460003060DAF80420521EFDD13160DAF80420F1
:10547000521EFDD13060DAF80420521EFDD1316099
:10548000DAF80420521EFDD13060DAF80420521EF2
:10549000FDD13160DAF80420521EFDD13060DAF817
:1054A0000420521EFDD13160DAF80420521EFDD1D5
:1054B0003060DAF80420521EFDD13160DAF80420A1
:1054C000521EFDD13060DAF80420521EFDD1316049
:1054D000DAF80420521EFDD13060DAF80420521EA2
:1054E000FDD13160DAF80420521EFDD13060DAF8C7
:1054F0000420521EFDD13160DAF80420521EFDD185
:105500003060DAF80420521EFDD13160DAF8042050
:10551000521EFDD13060DAF80420521EFDD13160F8
:10552000DAF80420521EFDD13060DAF80420521E51
:10553000FDD13160DAF80420521EFDD13060DAF876
:105540000420521EFDD13160DAF80420521EFDD134
:105550003060DAF80420521EFDD13160DAF8042000
:10556000521EFDD13060DAF80420521EFDD13160A8
:10557000DAF80420521EFDD13060DAF80420521E01
:10558000FDD13160DAF80420521EFDD13060DAF826
:105590000420521EFDD13160DAF80420521EFDD1E4
:1055A0003060DAF80420521EFDD13160DAF80420B0
:1055B000521EFDD13060DAF80420521EFDD1316058
:1055C000DAF80420521EFDD13060DAF80420521EB1
:1055D000FDD13160DAF80420521EFDD13060DAF8D6
:1055E0000420521EFDD13160DAF80420521EFDD194
:1055F0003060DAF80420521EFDD13160DAF8042060
:10560000521EFDD13060DAF80420521EFDD1316007
:10561000DAF80420521EFDD13060DAF80420521E60
:10562000FDD13160DAF80420521EFDD13060DAF885
:105630000420521EFDD13160DAF80420521EFDD143
:105640003060DAF80420521EFDD13160DAF804200F
:10565000521EFDD13060DAF80420521EFDD13160B7
:10566000DAF80420521EFDD13060DAF80420521E10
:10567000FDD13160DAF80420521EFDD13060DAF835
:105680000420521EFDD13160DAF80420521EFDD1F3
:105690003060DAF80420521EFDD13160DAF80420BF
:1056A000521EFDD13060DAF80420521EFDD1316067
:1056B000DAF80420521EFDD13060DAF80420521EC0
:1056C000FDD13160DAF80420521EFDD13060DAF8E5
:1056D0000400401EFDD13160DAF80400401EFDD107
:1056E00000F0D0BCB9F1010F40F08480002C40F0F4
:1056F000C480BCF1000F00F08F821CF00300ACF1FD
:105700000102614600F079824FF480074023376040
:1057100001283360114600F0708202283760336040
:1057200040F06482ACF10201032A80F0688273E2E7
:10573000B9F1010F40F06F80002C40F0B3819AF86E
:10574000180078B140424FF4800140223160DAF80D
:1057500004305B1EFDD13260DAF804305B1EFDD1EF
:105760000130F3D100254FF400700A950690012016
:10577000CDE9070503200990A8F1180006A9FDF757
:10578000E7F8059A6FF01F004FF48001126840237C
:10579000D7074FF4007708BF4FF00077C8F80070C4
:1057A00031601544DAF804405208641EFDD13360BC
:1057B000DAF80440641EFDD10130E9D1E8074FF466
:1057C000007008BF4FF00070C8F800004FF4800070
:1057D00030604021DAF804004FF00109401EFDD18D
:1057E0003160DAF80400401EFDD15FEA0B6000F181
:1057F000B781BCE10CF1010010F0030000F047811B
:105800004FF48002402132600128316040F0428133
:105810000CF12000CCE19AF818006FF02001402232
:10582000081A4FF4800100BF3160DAF804305B1EC3
:10583000FDD13260DAF804305B1EFDD10130F3D1C6
:1058400000204FF400710A9006910121CDE9071064
:1058500003200990A8F1180006A9FDF779F800F0D7
:1058600011BC402030604FF48000ACF10301306087
:10587000032ABFF4F0AAFFF7FBBA4FF480013160AE
:105880004022D8F8F8070027C00932606FF01F03E4
:10589000002500BF6D08316000F0010445EAC070CA
:1058A000D8F8F85727443260C5F3C0143160ED09C9
:1058B000400840EAC570D8F8F85727443260C5F36D
:1058C000C0143160ED09400840EAC570D8F8F857B7
:1058D00027443260C5F3C0143160ED09400840EA46
:1058E000C570D8F8F85727443260C5F3C01431604A
:1058F000ED09400840EAC570D8F8F85727443260EF
:10590000C5F3C0143160ED09400840EAC570D8F80D
:10591000F85727443260C5F3C0143160ED094008E0
:1059200040EAC570D8F8F85727443260C5F3C01470
:105930003160ED09400840EAC575D8F8F8072744FA
:10594000326008334FEAD010A4D17840C0074FF03E
:10595000080908BF4FF001090598002818BF056025
:10596000BCF1000F00F040831CF00300ACF1010219
:10597000614600F02A834FF48007402337600128F6
:105980003360114600F0218302283760336040F015
:105990001583ACF10201032A80F0198324E34FF44C
:1059A0008000306040203060ACF10301032A0DD349
:1059B0004FF48000402200BF043930603260306014
:1059C00032603060326030603260F5D100204FF4D8
:1059D00000710A9006910121CDE90710032009907A
:1059E000A8F1180006A9FCF7B3FF002C40F04A8389
:1059F0009AF81900002800F045834FF00070C8F8AD
:105A000000004FF480004021306031603060316030
:105A10003060316030603160306031603060316002
:105A200030603160306031603060316030603160F2
:105A300030603160306031603060316030603160E2
:105A400030603160306031603060316030603160D2
:105A500030603160306031603060316030603160C2
:105A600030603160306031603060316030603160B2
:105A700030603160306031603060316030603160A2
:105A8000306031603060316030603160FAE20CF1DA
:105A900021008DE002283260316040F082800CF1FC
:105AA0001F0085E04FF4800CC6F800C04022DAF8F1
:105AB00004100027491EFDD16FF01F05D8F8F81714
:105AC0003260C909DAF804305B1EFDD1002300BF43
:105AD000C6F800C001F00104DAF804002744401EB3
