:020000040800F2
:1000000090950120F5010008FD010008FF0100089E
:1000100001020008030200080502000800000000B9
:1000200000000000000000000000000019020008AD
:100030000902000800000000B1020008C102000827
:100040000F0200080F0200080F0200080F0200084C
:100050000F0200080F0200080F0200080F0200083C
:100060000F0200080F0200080F0200080F0200082C
:100070000F0200080F0200080F0200080F0200081C
:100080000F0200080F0200080F0200080F0200080C
:100090000F0200080F0200080F0200080F020008FC
:1000A0000F0200080F0200080F0200080F020008EC
:1000B0000F0200080F0200080F0200080F020008DC
:1000C0000F0200080F0200080F0200080F020008CC
:1000D0000F0200080F0200080F0200080F020008BC
:1000E0000F0200080F0200080F0200080F020008AC
:1000F0000F0200080F0200080F0200080F0200089C
:100100000F0200080F0200080F0200080F0200088B
:100110000F020008D94E00080F0200080F02000865
:100120000F0200080F0200080F0200080F0200086B
:100130000F020008000000000000000000000000A6
:100140000000000000000000000000000F02000896
:100150000F0200080F0200080F02000849510008B2
:100160000F0200080F0200080F0200080F0200082B
:100170000F0200081D3C0008000000000000000005
:100180000F0200080F0200080F0200080F0200080B
:100190000F0200080F020008000000000F02000814
:1001A0000000000000000000000000000F02000836
:1001B0000F0200080F02000800000000000000000D
:1001C000000000000000000000000000000000002F
:1001D0000000000000000000000000000F02000806
:1001E000DFF80CD000F0EEF8004800479D7F0008D3
:1001F000909501200648804706480047FEE7FEE745
:10020000FEE7FEE7FEE7FEE7FEE7FEE7FEE7FEE7C6
:10021000A34D0008E10100081EF0040F0CBFEFF32E
:100220000880EFF30980816911F8021C91BB01B5C8
:1002300090E80F10E047BDE800508CE80300244B25
:1002400093E80600914208BF704741B91EF0100FB5
:1002500010D12049086820F0010008600AE02CE96C
:10026000F00F1EF0100F08BF2CED108AC1F838C037
:1002700081F822E01A6092F82210906B61F0FF0E74
:100280001EF0100F08BFB0EC108AB0E8F00F80F33A
:1002900009887047104A13689942FAD801B552F894
:1002A00021C00FC8E047BDE80050CCF800007047FF
:1002B00001B508F07FF9BDE80140EFF3098CBEE716
:1002C00001B508F0B5FBBDE80140EFF3098CB6E7D6
:1002D0002800012034EF00E0C0C800082DE9F05FDD
:1002E0000546002092469B468846064681464024A5
:1002F0001BE0284641464746224600F053F8534645
:100300005A46C01A914110D311461846224600F0B1
:100310003AF82D1A67EB01084F46224601200021CA
:1003200000F031F817EB00094E41201EA4F1010442
:10033000DFDC484631462A464346BDE8F09F40EAA6
:1003400001039B0703D009E008C9121F08C0042A53
:10035000FAD203E011F8013B00F8013B521EF9D23A
:100360007047D2B201E000F8012B491EFBD2704762
:100370000022F6E710B513460A4604461946FFF771
:10038000F0FF204610BD202A04DB203A00FA02F1DB
:10039000002070479140C2F1200320FA03F3194373
:1003A00090407047202A04DB203A21FA02F0002115
:1003B000704721FA02F3D040C2F120029140084375
:1003C00019467047064C074D06E0E06840F001030F
:1003D00094E8070098471034AC42F6D3FFF704FFC7
:1003E00034CD000854CD00082DE9F04F87B000202F
:1003F000CDE9050043F63000C4F202000168002494
:1004000041F001010160C4F20204016802AD01F093
:1004100001010191002201994FF0030A016841F0A6
:1004200002010160016801F0020101910199016876
:1004300041F004010160016801F00401019101999A
:10044000016841F008010160016801F008010191B3
:100450000199016841F010010160016801F010018B
:1004600001910199016841F020010160016801F0EA
:10047000200101910199016841F04001016001688A
:1004800001F0400101910199016841F08001016092
:10049000016801F0800101910199016841F48071C6
:1004A00001602946006800F480700190019849F6C7
:1004B000BD3002902046CDE903A201F0CFFE43F605
:1004C0003B70029004F580602946009001F0C6FE62
:1004D0004EF6FF70029004F50060294601F0BEFE62
:1004E0004FF69B7004F5406902904846294601F09A
:1004F000B5FE4FF6FF70029004F58050294601F0DA
:10050000ADFE4FF6FF4004F5A0570290384629464D
:1005100001F0A4FE4BF63F50029004F5C05029466E
:1005200001F09CFE4FF63C7004F5E0560290304618
:10053000294601F093FE40F6FF70029004F500504A
:10054000294601F08BFE4FF4806002904FF0010BC2
:100550004FF00008CDF80CB020462946CDE9048ABA
:1005600001F07CFE4FF0400A1120CDF808A0CDE943
:10057000030B2046294601F071FE4FF40070C4F8C9
:1005800018A0CDE9020B3846CDF8108029464FF06F
:10059000000801F063FE4FF480700290384629464F
:1005A00001F05CFE3046CDF808A0294601F056FE69
:1005B0000427CDE902780098294601F04FFE48460D
:1005C0000297294601F04AFE8020029030462946D3
:1005D00001F044FE022002902046294601F03EFE32
:1005E00007B0BDE8F08F000002787F2A18D1F0B57F
:1005F00081B07F220A704278002A4A7012D08D1C86
:10060000861C57424FF002143046294600F010F87D
:10061000044406EB1046013715FA80F5F4D103E0E7
:1006200000F006B84FF00214204601B0F0BD000003
:100630002DE9F04F8DB090F9002007460D46D0B25D
:10064000B2F1FF3F08DC9F2806D8384629460DB096
:10065000BDE8F04F01F0ADBA2C4604F8010BBA46E4
:100660001AF8010B1E2800F21983DFE810F01F00B2
:1006700035004200BC00C600D300B90217031D03B9
:1006800038034603170317031703170317034D0314
:1006900009041D0430043F046E049604B804BE042B
:1006A000C404CA04D004D504DB0440059AF8002031
:1006B000A91C0020FC2A00F32385042A01F06B808A
:1006C000F02A01F07180F12A41F079804EF2006049
:1006D000C0F6DF4001F06CB89AF80000012800F085
:1006E000AA85002840F0B985B87800F0010000F034
:1006F000A8BD9AF800004FF00009022880F00E858E
:1007000040F220100694C2F20100CDF8309001278B
:1007100007704FF040081120CDF8208040F2000A09
:10072000CDE909070320C4F2020A0B9008AE504637
:10073000314601F093FD0AF5A054CAF818804FF431
:10074000007B20463146CDE908B7CDF8289001F06E
:1007500085FD4FF6180041F60047CFF6FF70C4F252
:10076000020747F800B038463146CDF8208001F046
:1007700075FD0425C7F818800AF580603146CDE97B
:10078000085901F06BFD0AF540600895314601F00B
:1007900065FD802008903846314601F05FFD02205B
:1007A0000890032009905046314601F057FD4FF460
:1007B000807008902046314601F050FD4FF48000D3
:1007C000CAF818004DF60050C0F26D00079000BF47
:1007D000079801380790FBD140204FF00109CAF873
:1007E000180000F00EBD40F22010C2F201000021FE
:1007F00001700120217001F051B9787840F2201188
:10080000C2F20101087378880882B8884882002003
:1008100000F092BF40F22012C2F2010210780228CA
:1008200000F01D85012840F0F08640F26410069427
:10083000C2F2010000220270EB1C97F80290FE1C2D
:10084000B9F1000F00F0BF8700200493039000244B
:1008500000200021B34605911BF8017BB9071AD48B
:10086000002C5CD040F22010C2F20100008AA046A9
:10087000C4430E2008A903F055FC02283ED10134E0
:1008800000F0E48740F26410C2F201000078002812
:10089000EFD000F0DBBFE4B140F22010C2F2010063
:1008A00007F01101008A012915D1A046C44338463A
:1008B00008A903F037FC022857D1013400F0C6879D
:1008C00040F26410C2F2010000780028EFD000F07E
:1008D000BDBF00247EE0C4430E2008A903F022FC23
:1008E000022844D1013400F0C28740F26410C2F201
:1008F000010000780028EFD000F0B9BF012840F0D7
:10090000A6870898049A1070111D0898000A04918F
:100910005070BDF8220090709DF82300D070D6F87A
:100920000100B90606F1050B089017D440F220101B
:10093000C2F20100008AC443384608A903F0F2FB62
:1009400002283BD1013400F0928740F26410C2F2D9
:10095000010000780028EFD000F089BF40F220119C
:10096000C2F20101002448619DE0444600E00024F9
:10097000012840F07E870898002C049A107002F13C
:10098000040108984FEA10205070BDF822009070C2
:100990009DF82300D0701AD0380619D540F22010E7
:1009A000049AC2F201008068010A5171010C1071B1
:1009B000000E917102F10801D07109E0012841F0A7
:1009C0007E80380600F1C98000240120D6E0002492
:1009D00001200491F9061AD440F22011C2F201015B
:1009E000098AFA0761D1CE43384608A903F09AFB79
:1009F000022840F08880013600F03A8740F2641007
:100A0000C2F2010000780028EED000F031BF40F2C1
:100A10002011D6F80180C2F20101488A06F1050BC7
:100A20000290F80744D140F22010C2F20100008A7F
:100A3000C643384608A903F075FB022809D10136E0
:100A400022D040F26411C2F2010109780029F0D0ED
:100A50001AE0012818D140F220120899C2F20102CE
:100A6000029B5269002B01EA020118BF414512D0D6
:100A700040F26412C2F201021278002A029AA2F134
:100A800001020292CFD006E040F220120899C2F291
:100A9000010252691140414541F08580012840F032
:100AA000E8860020039001206AE0B4B1002166E0EE
:100AB000088A2646C4430021384603F033FB022847
:100AC00046D1013400F0EF8740F26410C2F2010019
:100AD00000780028EFD000F0E6BFCE430021384672
:100AE00003F020FB02285ED1013600F0C08640F200
:100AF0006410C2F201000078002400284FF00200C8
:100B0000ECD000F0B6BE012840F0B38638060ED512
:100B100040F22010049AC2F201008068010A51706C
:100B2000010C1070000E9170111DD0700491089886
:100B30000023049A1070111D0898000A0393507046
:100B4000BDF82200049190709DF82300D070AAE7B0
:100B50000128344640F08D8665E740F22010049E5F
:100B6000C2F201008068371D010A3070020C7170FA
:100B7000030EB2700024F370012004970121039149
:100B800040F26411C2F2010109780029059901F1CE
:100B90000101059140F06D86B9F101095E467FF4CF
:100BA0005BAE00F079BE012840F08987380603D497
:100BB00000200390012011E040F22010049EC2F2B8
:100BC00001008068371D010A3070020C7170030E3D
:100BD000B2700020F3700390012004970124CFE746
:100BE00040F22016C2F201063078022800F0268575
:100BF000012840F08B8540F264180694C2F2010887
:100C00004FF0000B88F800B0B878F97840EA01207E
:100C1000002805F1040100F0DA85CDE904103C79E3
:100C2000A00700F1D6854FF0000B0DF12009308AA6
:100C3000059A5AF8041F013AC643059208912046C6
:100C4000494603F06FFA022808D1013600F0FC850E
:100C500098F800000028F2D000F0F6BD012840F01E
:100C6000F586059840F2201600280BF1010BC2F220
:100C70000106DCD1308AC4430E20002103F052FA71
:100C8000022840F0E386013400F0DE8598F8000089
:100C900000284FF00200EFD000F0D8BEFF202870EF
:100CA0004FF0011000F0FCBE40F22010C2F2010033
:100CB0000178022900F03085012940F03C85D7F801
:100CC000020008A908900020002503F02BFA01205B
:100CD0002570C0F2020000F5403000F0DFBE7878E9
:100CE000B97840EA012000EBC000C000089000BFC6
:100CF000089801380890FBD1A8E24FF48070A5F85D
:100D00000100022000F0CABE97F802807E7818F039
:100D10000105D7F803B00AD0F00741F600414FF0C3
:100D20004000C4F2020108BF4FF48000886118F04F
:100D300002070ED0B0074FF6180141F600424FF4FB
:100D40000070CFF6FF7158BF4FF00070C4F202027E
:100D5000505018F0040A06940ED070074FF6180190
:100D600041F600424FF48070CFF6FF7158BF4FF04C
:100D70008070C4F20202505018F08000059002D03A
:100D8000F00908F07FFD0020BBF1000FC4F2020063
:100D900050D008F02001B1FA81F14FEA51184CF21D
:100DA000C061C0F22D018B4538BF5946D82251434E
:100DB00006F0E002B2FA82F2540941F20402CEF2E5
:100DC000000244EA080BD2F800904FEAD61C7308E0
:100DD0004FEA960E8BF001082DB1D0F81044C4F301
:100DE0008004B44221D147B141F60044C4F2020468
:100DF0002469C4F3C014A34217D1BAF1000F0AD07A
:100E00000469C4F34004BEEB040418BF012454EA8F
:100E1000080403D009E0BBF1000F06D0059C4CB1DB
:100E20000469C4F38014A44504D01468A4EB090435
:100E30008C42D1D341F60042D0F81014C4F2020221
:100E4000C1F380011269022303EA9212114402697C
:100E500002F0020241EA4201D0F8102C02F0040232
:100E6000006941EA4201069A00F0400041EA400070
:100E700001211070C0F2020101F5802000F00EBEC9
:100E8000D7F80100002800F0C3814FF68011C0F2AE
:100E900037318842C0F0578440F22011C2F201017C
:100EA0000120487000F06ABC7D78B91C002D08BF95
:100EB0004FF48075284603F067FD4FF4604000EB67
:100EC00045303FFA80F0002100F5803061E09AF86B
:100ED000000040F22012C2F2010200F003010131D1
:100EE0001176C0F380005076002007E100202070CA
:100EF0009AF80000002800F08D81BC1C0235C0F17A
:100F0000000A4FF001084FF0010900BF14F8016B0F
:100F100021462A4616F03F0000F107004FEAD007AD
:100F2000304608BF082702F09FF809EB070016F0CB
:100F300080011CBF3D44B8443C441AF1010A00F151
:100F40000109E3D14FEA094068E19AF8000040F254
:100F50002011C2F201010028887615D0BB1C0027A1
:100F60001C310022DE5D01EB4705CE550137B8424A
:100F70002A813244F6D10023CF5CD21B01EB430718
:100F800001333A839842F7D14FF48032002102EBCB
:100F900000402170013000F081BD40F22010C2F20B
:100FA00001000178022940F0A8809AF80010827EA2
:100FB000C176914280F0A1800E2001F00FFE01F079
:100FC00097FF00216970010AA870E970010C000EFA
:100FD000297168710520C0F2010000F05FBD504624
:100FE000214603F08AFE00F059BD5046214603F029
:100FF00036FE00F053BD5046214603F005FD00F0DB
:101000004DBD5046214603F01CFD00F047BD204673
:1010100003F04BFE00F042BD5046214603F04EFD6A
:1010200000F03CBD4FF0000B84F800B09AF80000CF
:10103000002800F0F780BC1C0235C0F10106012039
:101040004FF00109069000BF14F8017B17F03F0034
:1010500000F107004FEAD00808BF4FF0080817F06A
:10106000800A06D04FF40070CDF830B0CDE9080BFF
:1010700006E04FF40070CDF830B0089001200990E0
:101080000320CDF828B00B900020C4F2020000F538
:10109000A05008A901F0E2F8384621462A4602F09D
:1010A000D9FF8EB94FF40070CDF830B00890012010
:1010B000CDE9090B03200B900020C4F2020000F5DB
:1010C000A05008A901F0CAF8BAF1000F06D006989E
:1010D00009F1010940444544069004E009EB080089
:1010E000444400F101090136012EADD19EE0504685
:1010F000214603F05FFD00F0D1BCFF20207083E0AB
:10110000FD2A00F05383FE2A00F05683FF2A40F0A8
:1011100056834FF400706880022050E372D140F291
:1011200020100694C2F201000221017000200C90F0
:101130004FF0400A1120CDF820A040F2000809909D
:10114000012503200A95C4F202080B9008AE404620
:101150003146002401F082F84FF4007BC8F818A053
:10116000CDE908B508F5A0550A942846314601F0A6
:1011700075F84FF6180941F60047CFF6FF79C4F22B
:1011800002074FF4807447F809B0284608943146A6
:1011900001F064F8384647F809403146CDF820A000
:1011A00001F05CF80424C7F818A000200894099006
:1011B00008F58060314601F051F808F54060089468
:1011C000314601F04BF8802008903846314601F056
:1011D00045F8022008904046314601F03FF84FF4B0
:1011E0008000C8F818004DF60050C0F26D0007905E
:1011F000079801380790FBD14020C8F818004FF03D
:101200000209069C84F800904FF0011000F046BCE3
:10121000FF20B9E24FF001084FF4803040EA0800A7
:1012200000F03CBC01204FF001090690069840EA0E
:10123000094000F033BCB878C0074FF0020008BF87
:10124000012040F27411C2F2010108700021012056
:101250002170C0F2020000F021BCFF21F7E740F24C
:101260006410C2F201004FF0000880F8008005F120
:1012700003097878917ED076884280F07B8297F857
:10128000028007F1030BB8F1000F00F0E2820027A3
:101290000523002600200021CDE905940491D946BC
:1012A0003C4619F8017B3A4663F35F02B9070392A3
:1012B0001ED4002E40D00A2C029602D00A2001F043
:1012C0008DFC40F22010C2F20100008AC6430E20BD
:1012D00008A901F025FF022835D1013600F043832B
:1012E00040F26410C2F2010000780028EFD03AE327
:1012F0002EB340F220100296C2F20100068A17F0C7
:101300001000019008BF94425FD00A2C02D00A203E
:1013100001F064FCF6430E2008A901F001FF022849
:1013200065D1013600F0378340F26410C2F201004B
:1013300000780028EFD02EE3DDF8149018E007F0D5
:10134000100100268CE00128029E4FF0050340F0BA
:10135000B48308980A24059A1070000A5070111D71
:10136000BDF82200894690709DF82300D070039A42
:10137000DBF80100B9060BF1050B08901DD494426F
:1013800002D0039801F02AFC40F22010CDF814900E
:10139000C2F20100008AC643384608A901F0C0FE27
:1013A000022827D1013600F0818340F26410C2F296
:1013B000010000780028EFD078E340F22011C2F25B
:1013C000010100264861012076E0F643384608A96D
:1013D00001F0A6FE022816D1013600F06A8340F221
:1013E0006410C2F2010000780028EFD061E30A2403
:1013F000002609E0012840F06483380600F1CD8022
:1014000000260120C5E0029E01284FF0050340F0B0
:1014100052830898002E059A10704FEA10205070E1
:1014200002F10401BDF8220090709DF82300D070F5
:1014300011D0380610D540F22010059AC2F20100F2
:101440008068010A5171010C1071000E917102F156
:101450000801D07100E0002605910120039A01994E
:1014600031B340F220100296C2F20100B0F812909F
:101470009442DBF801400BF1050B02D0039801F018
:10148000ADFB40F22010C2F20100008AC6430021E9
:10149000384601F045FE022810D1013600F0ED82F9
:1014A00040F26410C2F2010000780028EFD0E4E2BC
:1014B000B6B3CB46DDF81490274693E0012840F000
:1014C000DD8240F22010C2F20100008AC643384695
:1014D00008A901F025FE022809D101363ED040F2CC
:1014E0006411C2F2010109780029F0D036E0012828
:1014F00034D140F220120899C2F201025269B9F1C6
:10150000000F01EA020118BFA1422ED040F264127E
:10151000C2F201021278A9F10109002AD1D024E017
:10152000944202D0039801F059FB40F22010C2F21D
:101530000100008AC6430021384601F0F1FD02286F
:101540001FD1013600F0258340F26410C2F2010081
:10155000007800284FF00200EDD01DE340F2201289
:101560000899C2F2010252691140A14240F01E8363
:10157000012840F083820120DDF81490DDE9026744
:101580002FE0012840F00D83380617D401200126F2
:10159000CB46039FDDF8149023E040F22010059B1A
:1015A000C2F2010080680026010A1870020C59700E
:1015B000000E9A70191DD870012010E040F2201022
:1015C000059FC2F2010080680126010A3870020CF2
:1015D0007970030EBA70391DFB700120CB46894625
:1015E000039F052340F26411CDF81490C2F201016B
:1015F00009780029049901F10101049140F0CF829A
:10160000B8F101087FF44BAE72E2B978F81C69B109
:1016100049420278930701D4052204E0D2064FF034
:10162000050258BF012201311044F2D1A0EB0A009B
:1016300000210004A5F8011002302FE240F26418E6
:101640000694C2F201084FF0000B88F800B02A1D82
:101650009AF80000B17EF076884280F00681B87872
:10166000F97840EA0129B9F1000F00F0FC803C79DB
:10167000059204F0010003900A3001F0AFFAA007D0
:1016800000F12881CDF810904FF0000B0DF12009EA
:10169000308A049A5AF8041F013AC643049208910A
:1016A0002046494601F03CFD022807D1013600F0F2
:1016B000BE8198F800000028F2D0B8E1012840F07F
:1016C000B781049840F2201600280BF1010BC2F2FA
:1016D0000106DDD1039810B10A2001F07FFA40F233
:1016E0002010C2F20100008AC4430E20002101F044
:1016F00017FD022840F09C81013400F0988198F891
:10170000000000284FF00200EFD091E10020A5F882
:101710000100E8700320A2E19AF80010827EC176F1
:10172000914208D2082001F059FAD7F8020002F0DD
:1017300051F8FFF76CB8FF2001212070C0F20201C0
:1017400001F54030AAE14FF2FF21C0F26F61014480
:10175000B1FBF0F040F220120021C2F20102032896
:1017600051700AD34AF6AB21CAF6AA21A0FB0101A7
:10177000480803E007F1020B6DE0012040F2201160
:10178000C2F201014860002001212070C0F2020174
:1017900001F5003082E13020888042F63260C2F6E6
:1017A0003060086006200AE0372006E04FF4006051
:1017B000C5F80200042002E0082008700120207013
:1017C00000F102106CE10020DDF818805EE10020DD
:1017D0003DE1E00740F092804FF0000B0DF1200951
:1017E0000599E007A1F10101204618BF0E200591DF
:1017F0000029318AB24608BF0446CE4320464946F6
:1018000002F090FC022806D101361DD098F80000A5
:101810000028F3D018E0012840F0188108980BF157
:10182000010B010A049B59705646BDF822109970AD
:10183000191D9DF82320187005980028DA704FF0C4
:1018400001000491CCD102E10220FFE002204446D5
:101850000FE04FF000080020ABEB0A0185F8018093
:10186000A9EB040217E14FF0000B0020E1E0002497
:101870000220B9F1000F0FD000219BF80020930740
:1018800001D4052204E0D2064FF0050258BF012220
:10189000013189459344F0D10128DDF8188040F0EA
:1018A000F280002C40D040F22010C2F20100008AE9
:1018B00008AFC4430E20394602F034FC022855D14B
:1018C00001344ED040F26410C2F2010000780028CA
:1018D000F0D046E0308A4FF0000BC643002120468E
:1018E00001F01EFC02285AD1013603D098F80000FE
:1018F0000028F3D002204FF0000B99E0308AB14667
:101900004FF0000BC6430021204602F00BFC0228DA
:1019100040F09880013603D098F800000028F2D0FB
:1019200002204FF0000B91E00398002800F0AA80FD
:1019300040F22010C2F20100008AC4430E200021B0
:1019400002F0F0FB022840F09E80013409D040F202
:101950006410C2F20100007800284FF00200EDD0C0
:1019600091E002208FE00A27022089E0012840F060
:101970008A8008985E46049A1070111D08980B46DC
:10198000000A5070BDF8220090709DF82300D070BE
:101990000120059A7AE00A270026022094E0012817
:1019A00046D10398CA4680F0010305994FF0000B19
:1019B00004930DF1200950460591BAF101008246C9
:1019C0000CBF0E240120184340F220160028C2F25A
:1019D000010603D10A2001F001F90E24308AC64322
:1019E0002046494601F09CFB022808D101361ED052
:1019F00098F8000000284FF00200F1D018E001280C
:101A000016D108980BF1010B010A059B59701A1D9C
:101A1000BDF82210BAF1000F99709DF823101870CC
:101A20004FF00100D9701146049BC4D101E002209F
:101A3000059A4FEA1B2185F801B0A970E870069855
:101A4000101A0CE001284E463FF4C6AE04994FEA46
:101A50001B2285F801B0AA70E8700698081A397937
:101A6000890707D4B978FA7841EA0221013140EABE
:101A7000814013E040F4802010E00220D946039F0B
:101A8000029E21E001205E46DDE90432A6EB0A0158
:101A90006A70A3EB0802A87042EA014000F101104D
:101AA0000DB0BDE8F08F02203446E2E600260220A9
:101AB00008E00220029E274606E00A2704E00024F0
:101AC000D7E60026D946039FB8F1000F0FD00021BA
:101AD00099F80020930701D4052204E0D2064FF0C4
:101AE000050258BF0122013188459144F0D1CB460F
:101AF0000128069C1ED10A2FDDE9048902D00A20A4
:101B000001F06CF840F22010C2F20100008AA6B188
:101B1000C64308AF0E20394601F002FB022822D14D
:101B200001361ED040F26410C2F201000078002895
:101B3000F0D016E0DDE904898EE6C6430E200021D0
:101B400001F0EEFA02287FF487AE013609D040F2A8
:101B50006410C2F20100007800284FF00200EDD0BE
:101B60007AE6022078E601287FF476AE089809F13B
:101B7000040189F80000000A89F80100BDF822007C
:101B800089F802009DF8230089F8030001208946A6
:101B900062E60026022096E7039F002694E7D946D6
:101BA00092E700268FE740F0100062E640F0100058
:101BB00064E7FF224FF001100A70704740F22010D6
:101BC000C2F20100002102220180426064220173FE
:101BD000C0E90421012202838176704743F6362A48
:101BE00043F6402742F6302543F63C2644F65E2B6A
:101BF00044F65428C2F2010AC2F20107C2F20105FA
:101C00007F24C2F20106C2F2010BC2F2010800BF3A
:101C1000812000214FF0FF3207F03EF888E000BF3E
:101C2000B7F800904FEA4920285C7E281BD105EBCD
:101C3000492000BF047009F101003188B0F10809A2
:101C400018BF8146894507D1812000214FF0FF321E
:101C500007F022F8000606D44FEA4920285C7E28C7
:101C600005EB4920E6D0388843F65222BBF8001035
:101C7000C2F2010205EB402002EB4121FEF7B4FC69
:101C80003888013038803888082804BF0020388020
:101C9000BAF800000130AAF80000BBF800000130DB
:101CA000ABF80000BBF80000082804BF0020ABF828
:101CB0000000B8F800000130A8F8000044F65B20EE
:101CC000C2F20100007898B344F65821B8F8000039
:101CD000C2F20101098888422AD044F66220C2F289
:101CE000010002460088411C11801188082905D195
:101CF00044F662220021C2F20102118044F658210A
:101D0000C2F201010A4609884FF4007301311180C3
:101D100044F65B220021C2F20102117043F6522107
:101D2000C2F2010101EB40220020002109F052FD26
:101D300043F63220C2F201000088BAF8001088424F
:101D40007FF46EAF64E7000043F6342A43F63E2B7F
:101D500040F6302543F63A2644F65C2744F65228EE
:101D6000C2F2010AC2F2010BC2F201057F24C2F2E3
:101D70000106C2F20107C2F2010800BF8120002162
:101D80004FF0FF3206F088FFB3E000BFBBF80090D1
:101D90004FEA4920285C7E281BD105EB492000BF73
:101DA000047009F101003188B0F1080918BF8146BB
:101DB000894507D1812000214FF0FF3206F06CFFEA
:101DC000000606D44FEA4920285C7E2805EB49200E
:101DD000E6D0BBF8000041F630223988C2F2010299
:101DE00005EB402002EB4121FEF7FEFB398843F66C
:101DF0004222C2F2010222F81100BBF800000130B9
:101E0000ABF80000BBF80000082804BF0020ABF8C6
:101E10000000BAF800000130AAF8000043F63820AC
:101E2000C2F201000078C8B143F63020C2F20100CE
:101E30000088BAF80010401A80B208280ED043F685
:101E400038210020C2F201010870012130884FF4CE
:101E5000007305EB4022002009F036FA3888013083
:101E600038803888082804BF00203880B8F800007F
:101E70000130A8F8000044F65A20C2F201000078B0
:101E8000B8B344F65621B8F80000C2F2010109883F
:101E900088422ED044F66020C2F20100024600883B
:101EA000411C11801188082905D144F660220021C7
:101EB000C2F20102118044F65621C2F201010A4623
:101EC00009880131118044F65A220021C2F2010230
:101ED000117043F64221C2F2010131F8103041F68F
:101EE0003021C2F2010101EB40220020812109F0E2
:101EF0000DFA43F63020C2F201000088BAF8001053
:101F000088427FF443AF39E781B041F64011C0F217
:101F100001014843009000BF009801380090FBD1B8
:101F200001B0704781B000F13E4000F1FF704FEA10
:101F3000B020082800F27480DFE800F005111D29A8
:101F400035414D59650043F63000C4F20200016886
:101F500041F001010160006800F001005EE043F61D
:101F60003000C4F20200016841F002010160006823
:101F700000F0020052E043F63000C4F202000168B3
:101F800041F004010160006800F0040046E043F6FF
:101F90003000C4F20200016841F0080101600068ED
:101FA00000F008003AE043F63000C4F20200016895
:101FB00041F010010160006800F010002EE043F6CF
:101FC0003000C4F20200016841F0200101600068A5
:101FD00000F0200022E043F63000C4F20200016865
:101FE00041F040010160006800F0400016E043F657
:101FF0003000C4F20200016841F080010160006815
:1020000000F080000AE043F63000C4F202000168EC
:1020100041F480710160006800F4807000900098C5
:1020200001B070472DE9F04381B040F69910C2F23B
:1020300001000078012821D140F6A51540F690193D
:1020400040F6941640F69817C2F201054FF00008CA
:10205000C2F20109C2F20106C2F2010785F800804E
:10206000D9F8000031683A78441A012A02D102F006
:10207000DDFF044428780028F0D10AE040F69010F3
:1020800040F69411C2F20100C2F201010068096831
:10209000441A204601B0BDE8F083000070B5044644
:1020A000866D00F0B2F994F8351002292DD105465D
:1020B0002068216C0268002922F016020260426941
:1020C00022F08002426101D1A16C19B1016821F0B6
:1020D00008010160016821F00101016006E000BF14
:1020E00000F093F9401B052816D820680068C00747
:1020F000F6D1E06D3F2101FA00F0B060002001212F
:1021000084F8340084F8351070BD802060650020AC
:1021100084F83400012070BD20206065002084F820
:102120003400032084F8350070BD0000B0B50446CB
:1021300000F06BF940F21811C2F20101054609786E
:10214000621C18BF0C4400BF00F05FF9401BA042A6
:10215000FAD3B0BD2DE9F04F81B000F13E4241F617
:10216000004702F1FF72C4F2020708264FEAB223C9
:10217000B84208BF072643F6004B072B38BF4FEA8B
:10218000B226C4F2010B009600234FF00109ABF513
:102190007E7C0026002700BF09FA07F50D4253D0C8
:1021A0004FEA970806F00C0A5CF828E00F22009C22
:1021B00002FA0AF90EEA090204FA0AF4A2421FD14D
:1021C0005CF828206FEA050E22EA09024CF8282064
:1021D000DBF80020AA43CBF80020DBF80420AA4358
:1021E000CBF80420DBF80820AA43CBF8082043F6FC
:1021F0000C42C4F2010214461268AA43226001E0B4
:102200006FEA050E032204689A4024EA02086FF080
:102210000304C0F8008004EA570406F01C0A0444D2
:102220000F2505FA0AF8256A25EA080525624FF008
:102230000109846894438460446804EA0E0545609B
:10224000C56825EA0202C26001370436102F03F187
:102250000203A1D101B0BDE8F08F00002DE9F04FDD
:1022600082B000F13E4241F6004702F1FF72C4F233
:10227000020708264FEAB223B84208BF0726072BF9
:1022800038BF4FEAB22643F6440A009643F6004CA4
:1022900000234FF0010B0026C4F2020AC4F2010C25
:1022A000002400BF0BFA04FE0F6817EA0E0F00F0BF
:1022B0009880D1F8048048F01007122F14D16FF0E5
:1022C000030202EA5407074406F01C02D7F82080F4
:1022D0000F25954028EA05080D6905FA02F242EA41
:1022E00008023A62D1F80480032502689D4008F094
:1022F0000307AA439F403A43B8F1120F02606FEA06
:10230000050913D80BFA08F212F0061F0ED08268E6
:10231000CD6802EA09029D402A4382604268C8F300
:10232000001522EA0E02A5402A434260C2688D6869
:1023300002EA09029D402A435FEAC805C26050D5FF
:10234000DAF8002024F0030542F48042CAF80020A5
:102350004FF60847DAF80020CFF6FF7702F4804204
:1023600001920CEB0502019DB94606F00C0552F8EE
:1023700007800F27AF4028EA0708009F07FA05F5F6
:1023800045EA080542F80950DCF800804D6848EA43
:102390000E07EA0358BF28EA0E07CCF80070AA031C
:1023A000DCF8048048EA0E0758BF28EA0E07CCF88C
:1023B0000470DCF80880EA0248EA0E0743F60C4293
:1023C00058BF28EA0E07CCF80870C4F20102904604
:1023D000126842EA0E07AD0258BF22EA0E07C8F89B
:1023E000007001340436102C03F102037FF45AAF5D
:1023F00002B0BDE8F08F0069084018BF01207047A7
:10240000002A08BF09048161704780B505F078FE95
:10241000022803D1BDE8804005F088BE0120FFF707
:1024200073FD40F27011C2F20101086801300860CA
:1024300080BD80B543F60040C4F20200016841F45B
:1024400000710160016841F480710160032000F0B7
:10245000BCF80F2000F004F800F078F8002080BDF0
:10246000B0B540F21811C2F2010109784FF47A7246
:102470000446B2FBF1F140F21002C2F2010212680E
:10248000B2FBF1F1084600F074FB0F2C4FF0010590
:102490000CD858B94FF0FF3000222146002500F03B
:1024A00069F840F21C10C2F2010004602846B0BD79
:1024B00002784EF6985C4378CEF2000C002ACCF8F5
:1024C000003020D080B54368CCF80430037BC17A5B
:1024D00090F80AE042EA0372437B42EA0161827BA0
:1024E00041EACE4190F80FE041EA8341437A41EA64
:1024F0004241007A41EA0E4141EA032141EA4000AB
:10250000BDE8804002E00020CCF80400CCF80800D0
:1025100070474EF62450BFF35F8FCEF20000016883
:1025200021F4803101600021016770474EF624518B
:1025300040F00100CEF200010867086840F48030E6
:102540000860BFF34F8FBFF36F8F7047704700284D
:102550000FDB00F01F01012202FA01F14EF280129E
:102560004009CEF2000242F82010BFF34F8FBFF3B4
:102570006F8F704710B54EF60C5CCEF2000CDCF895
:102580000030C3F3022E8EF00704042C28BF04246D
:10259000BEF103034FF0FF3E38BF00230EFA04F4F0
:1025A000A14399400EFA03F39A4300F00F03043B52
:1025B0001143634409010C3300F16042B0F1FF3F65
:1025C000C8BF02F56443197010BD4EF60C51CEF22F
:1025D00000010A684FF6FF031A4060F30A2242F036
:1025E000806040F0FD70086070470000B0B582B0B8
:1025F00043F64000C4F20200016847F2000541F0D2
:1026000080510160C4F20005006800F08050019024
:102610000198286840F480302860FFF7F6FE0446F1
:102620006868C00306D4FFF7F0FE001BB0F57A7FA0
:10263000F6D910E0286840F400302860FFF7E5FE86
:10264000044600BF6868800307D4FFF7DEFE001B66
:10265000B0F57A7FF6D9032000E0002002B0B0BDCB
:102660002DE9F041002800F0968043F60007C4F2FF
:1026700002070446D7F8000400F00F00884688429D
:102680000DD2D7F8000420F00F0040EA0800C7F888
:102690000004D7F8000400F00F0040457BD120680B
:1026A000810711D5410703D5B96841F4E051B960FC
:1026B000010703D5B96841F46041B960B96821F0F8
:1026C000F001A2681143B960C00728D060680128F2
:1026D00003D13968890308D45DE00228396802D142
:1026E000890102D457E0890755D5B96821F0030163
:1026F0000843B860FFF789FE064641F2883500BFFF
:10270000B86800F00C006168B0EB810F07D0FFF7EC
:102710007CFE801BA842F3D90320BDE8F081D7F8E6
:10272000000400F00F0040450DD9D7F8000420F058
:102730000F0040EA0800C7F80004D7F8000400F0D2
:102740000F00404527D12068410705D5B96821F41D
:10275000E051E2681143B960000706D5B86820F47B
:102760006040216940EAC100B86000F03DF8B968F6
:102770004CF2CC62C1F30311C0F60002515CC840B8
:1027800040F21001C2F2010108600F20FFF768FE5D
:102790000020BDE8F0810120BDE8F08140F210008A
:1027A00043F60801C2F20100C4F2020100680968A0
:1027B0004CF2DC62C1F38221C0F60002515CC840D9
:1027C000704740F2100043F60801C2F20100C4F263
:1027D0000201006809684CF2DC62C1F34231C0F6C4
:1027E0000002515CC840704710B543F60404C4F2BF
:1027F0000204606800F00C00082806D0042823D1E9
:1028000047F64000C0F27D1010BD2268002320680A
:1028100002F03F024002216847F64000C1F38811F0
:10282000C0F27D105CBF42F20040C0F2F400A0FB99
:102830000101FDF753FD21680222C1F3014102EBC2
:102840004101B0FBF1F010BD42F20040C0F2F400D3
:1028500010BD00002DE9F04182B0002800F0B980E1
:102860000446007843F60006C007C4F202064CD0C6
:10287000B06800F00C00042817D0B06800F00C001D
:10288000082802D1706840020FD4606898B1B0F592
:10289000803F06D0B0F5A02F306822D140F48020D0
:1028A0003060306840F4803021E0306880032CD5FF
:1028B000606850BB8DE0306820F480303060306854
:1028C00020F480203060FFF7A0FD054630688003CB
:1028D0001BD5FFF79AFD401B64284FF00300F5D984
:1028E00044E120F480303060306820F48020306093
:1028F000FFF78BFD054600BF3068800305D4FFF766
:1029000084FD401B6428F7D9FEE0207880072DD590
:10291000B06810F00C0F07D0B06800F00C00082869
:1029200009D17068400206D43068800717D5E06886
:10293000012814D04DE0E0680028306800F0A38042
:1029400040F001003060FFF760FD05463068800709
:1029500005D4FFF75AFD401B0228F7D9D4E03068B0
:1029600020F0F800216940EAC100306020780007BB
:1029700023D560690028706F0FD040F001007067A8
:10298000FFF743FD054600BF706F800715D4FFF7C2
:102990003CFD401B0228F7D9B6E020F0010070672B
:1029A000FFF733FD054600BF706F800705D5FFF7C1
:1029B0002CFD401B0228F7D9A6E0207840070AD456
:1029C000A569002D00F0D180B06800F00C00082847
:1029D00038D10120CAE0306CC0000BD4306C4FF00D
:1029E000010840F080503064306C00F0805001905D
:1029F000019801E04FF0000847F20007C4F2000719
:102A00003868C0050FD4386840F480703860FFF72C
:102A1000FCFC05463868C00505D4FFF7F6FC401BF2
:102A20006428F7D970E0A06800283FD0012805D0BD
:102A30000528306F53D140F004003067306F40F00C
:102A4000010052E0306820F080703060FFF7DDFC5C
:102A5000022D05460CD100BF306880015FD5FFF71D
:102A6000D4FC401B02284FF00300F5D97EE000BFE4
:102A70003068800179D5FFF7C8FC401B03284FF070
:102A80000300F5D372E020F001003060FFF7BDFCD9
:102A9000054600BF306880077FF568AFFFF7B5FCDB
:102AA000401B02284FF00300F4D95FE0306F20F0A4
:102AB00001003067306F20F004003067FFF7A5FC9D
:102AC000054641F2883700BF306F80071ED5FFF7FB
:102AD0009CFC401BB8424FF00300F5D946E020F0C3
:102AE00001003067306F20F004003067FFF78DFC85
:102AF000054641F2883700BF306F800706D4FFF7E4
:102B000084FC401BB842F7D903202FE0B8F1000F36
:102B10003FF456AF306C20F08050306450E7A06A2C
:102B20004FF6FF71C003E2698843216A636A11436B
:102B3000E26A41EA8311A0F5803041EA026108436C
:102B400040F000507060306840F080703060FFF7F7
:102B50005CFC04463068800107D4FFF756FC001B7C
:102B600002284FF00300F5D900E0002002B0BDE8D4
:102B7000F081411E0020B0EB116F01D001207047A1
:102B80004EF21002CEF2000251604EF62351CEF208
:102B90000001F0230B70072190601160704780B531
:102BA00044F6E432C2F201020220106043F64B20E8
:102BB0000121C0F60000002306F0A4F840F27811CD
:102BC000C2F201010028086006D03F2106F0B2F8E9
:102BD00010B14FF0FF3080BD002080BD2DE9F041E5
:102BE00081B040F2201CC2F2010C9CF8012041F699
:102BF00018414FF600064FF40077C4F20201CFF6F9
:102C0000FF764FF480038F51002A0B604FD0402293
:102C10004FF000770A600B600A608F510B600A600A
:102C20000B604FF480730A608B519CF81B700CEBA7
:102C300047039D8C35B16D424FF4800401350C6023
:102C40000A60FBD10CEB0702127F012A11D0C2F1FE
:102C500001024FF480074025C4074FF4807408BF79
:102C60004FF0807401324FEA50008C510F600D60BC
:102C7000F2D19A8E002A00F0E080C0074FF48070F5
:102C800008BF4FF080704FF4807788514FF4800078
:102C900040230860012A0B608F5105D0C2F1010268
:102CA000013208600B60FBD14FF40070CEE0DCF81D
:102CB00004300093009A013A0092FBD140220A604E
:102CC000009300BF009A013A0092FBD14FF48002BA
:102CD0000A600093009A013A0092FBD140220A60F8
:102CE000009300BF009A013A0092FBD14FF00072AE
:102CF0008A514FF480020A60009300BF009A013AA3
:102D00000092FBD140220A60009300BF009A013A72
:102D10000092FBD14FF480020A600093009A013ABE
:102D20000092FBD140220A60009300BF009A013A52
:102D30000092FBD14FF480728A519CF81B800CEBFF
:102D4000480EBEF824408CB14FF48005402700BFE8
:102D50000D600093009A013A0092FBD10F6000933E
:102D6000009A013A0092FBD1013CF1D10CEB080230
:102D7000127F013A1AD04FF480044025C7074FF460
:102D8000807708BF4FF080778F510C60009300BFB1
:102D9000009F013F0097FBD10D600093009F013F12
:102DA0000097FBD1013A4FEA5000E7D1BEF834203A
:102DB000002A59D0C0074FF4807008BF4FF08070D0
:102DC00088514FF480000860009300BF00980138DC
:102DD0000090FBD140200860009300BF00980138AC
:102DE0000090FBD14FF48077501E8F5110D04FF4DC
:102DF000800240270A600093009D013D0095FBD1B1
:102E00000F600093009D013D0095FBD10138F1D189
:102E10004FF4007088514FF480000860009300BFA9
:102E2000009801380090FBD140200860009300BF5B
:102E3000009801380090FBD130E0C0074FF40072D9
:102E40004FF480708A5108BF4FF0807088514FF462
:102E50008000402208604FF000730A6008600A603A
:102E60008B5108600A603DE0C0074FF400724FF4D8
:102E700080708A5108BF4FF0807088514FF48000F5
:102E800008600093009801380090FBD14020086052
:102E9000009300BF009801380090FBD14FF48000F0
:102EA00008600093009801380090FBD14020086032
:102EB000009300BF009801380090FBD14FF00070E4
:102EC00088514FF480000860009300BF00980138DB
:102ED0000090FBD140200860009300BF00980138AB
:102EE0000090FBD14FF48070885101B0BDE8F081B3
:102EF000F0B581B041F618414FF6000CC4F2020162
:102F0000CFF6FF7C4FF4007041F80C004FF48000C6
:102F1000086040F22010C2F201004268009200BF37
:102F2000009B013B0093FBD140230B60009200BF4C
:102F3000009B013B0093FBD14FF0007341F80C3034
:102F40004FF480030B600092009B013B0093FBD188
:102F500040230B60009200BF009B013B0093FBD11C
:102F60004FF480030B600092009B013B0093FBD168
:102F700040230B60009200BF009B013B0093FBD1FC
:102F8000C07E88B14FF48003402500BF0B600092E3
:102F9000009E013E0096FBD10D600092009E013E16
:102FA0000096FBD10138F1D140F6104E00201F23CE
:102FB0004FF48004C4F2020E402500BF0C60009262
:102FC000009E013E0096FBD1DEF800600D6000928D
:102FD000009F013F0097FBD106F0040640EA4670CF
:102FE000013B4FEA5000E9D14FF4007341F80C3037
:102FF0004FF480030B600092009B013B0093FBD1D8
:10300000DEF8003040270F60009200BF009F013FB4
:103010000097FBD14FF000464FF4800706EA437358
:103020000F600092009F013F0097FBD1402718439B
:103030000F600092009B013B0093FBD14FF00073A7
:1030400041F80C304FF480030B600092009B013B71
:103050000093FBD140230B60009200BF009901391F
:103060000091FBD101B0F0BD2DE9F04F83B010F01D
:103070003F0341F2184B08BF402340F61049470672
:103080004FF4007400F0800058BF4FF00074C4F299
:10309000020B00904FF4800ECBF80040C4F20209FE
:1030A0004FF0400A40F2201011F8015BC2F201001B
:1030B0000027D0F804C00824E8074FF4807008BF48
:1030C0004FF08070CBF80000CBF800E8CDF808C0D6
:1030D000029801380290FBD1D9F80000CBF800A883
:1030E000CDF804C0DDF80480B8F101060196F9D1ED
:1030F00000F00400400140EA5707013BA4F101043D
:1031000003D0002C4FEA5505D6D1009818B127FA04
:1031100004F002F8010B002BC4D103B0BDE8F08F1E
:103120002DE9F04F81B040F2201BC2F2010B9BF859
:10313000017041F618434FF6000940F6104A4FF46B
:103140000076C4F20203CFF6FF794FF4800243F811
:103150000960002F1A60C4F2020A00F09280402633
:103160004FF000771E6043F809701A601E601A6005
:103170001E609BF81BC0BCF1000F07D0CCF1000211
:103180004FF4800701321F601E60FBD14FF480773F
:1031900010F0020808BF4FF080774FF4800B43F81F
:1031A0000970C3F800B047074FF48074DAF8007074
:1031B0001E6058BF4FF0807443F809400507C3F8FC
:1031C00000B04FF48074DAF800204FF00205C2F32B
:1031D00080021E6058BF4FF0807443F8094005EA32
:1031E0005707C3F800B03A44DAF8007007F0040754
:1031F0001E6002EB070EBEF1010F40F05881B8F1DE
:10320000000F40F076816FF01E020F684FF48005CA
:10321000402600BFFC074FF48074394608BF4FF0CA
:103220008074013243F809404FEA57071D601E6061
:10323000F0D140F22015C2F20105AC7E6FEA0C021B
:10324000A61800F0F4814FF48072890758BF4FF040
:1032500080724FF4800143F8092040221960012E4A
:103260001A6007D00CF102073C1B00BF0134196043
:103270001A60FBD14FF4007743F8097019601A60A7
:10328000FDE1DBF804400094009A013A0092FBD182
:1032900040221A60009400BF009A013A0092FBD1CC
:1032A0004FF0007243F809204FF480021A60009436
:1032B000009A013A0092FBD140221A60009400BFAC
:1032C000009A013A0092FBD14FF480021A600094F8
:1032D000009A013A0092FBD140221A60009400BF8C
:1032E000009A013A0092FBD19BF81B80B8F1000FC5
:1032F00012D04FF480024027464600BF1A60009467
:10330000009D013D0095FBD11F600094009D013D93
:103310000095FBD1013EF1D14FF4807210F002070D
:1033200008BF4FF0807243F809204FF480021A6002
:10333000009400BF009A013A0092FBD1DAF8002015
:1033400040261E60009400BF009E013E0096FBD107
:1033500046074FF4807658BF4FF0807643F80960F7
:103360004FF480061E60022606EA5202009400BF57
:10337000009E013E0096FBD1DAF8006040251D60FA
:10338000009400BF009D013D0095FBD10507C6F3E9
:1033900080064FF4807558BF4FF0807543F8095090
:1033A0004FF4800532431D60009400BF009E013E33
:1033B0000096FBD1DAF8006040251D60009400BF44
:1033C000009D013D0095FBD106F0040602EB060EC0
:1033D000BEF1010F78D1002F40F0C0801F250F688B
:1033E0004FF48006402200BF3946FF074FF4807734
:1033F00008BF4FF0807743F809701E60009400BF4B
:10340000009F013F0097FBD11A600094009F013F8D
:103410000097FBD1013D4FEA5107E5D19BF81A20F7
:103420006FEA0807D21900F04E8189074FF48071C6
:1034300058BF4FF0807143F809104FF480011960B4
:10344000009400BF009901390091FBD1402119601F
:10345000009400BF009901390091FBD1511E11D099
:103460004FF48002402500BF1A600094009F013F86
:103470000097FBD11D600094009F013F0097FBD196
:103480000139F1D14FF4007143F809104FF4800174
:1034900019600094009901390091FBD14021196015
:1034A000009400BF009901390091FBD148E14FF42D
:1034B000007143F80910402140F22015C3F800B014
:1034C0001960C2F20105DAE04FF4007143F8091007
:1034D0004FF4800119600094009901390091FBD1EB
:1034E00040211960009400BF009901390091FBD17F
:1034F00026E100266FF01E024FF48005402700BF32
:103500001D600132DAF8004004F004041F6046EA4E
:1035100044744FEA5406F3D140F22012C2F2010281
:10352000927E6FEA0C0412EB040B00F092804FF4D1
:1035300080051D604027DAF80080BBF1010F1F6095
:1035400006D00CF10204A21A01321D601F60FBD1EB
:103550004FF4007243F809201D6083E000271F2606
:103560004FF4800B4FF0400CC3F800B0009400BF44
:10357000009A013A0092FBD1DAF80020C3F800C0AB
:10358000009400BF009D013D0095FBD102F00402B4
:1035900047EA4272013E4FEA5207E5D140F2201B52
:1035A000C2F2010B9BF81A206FEA0806921900F08C
:1035B000A8804FF480061E60009400BF009E013E6C
:1035C0000096FBD1DAF8008040261E60009400BF10
:1035D000009E013E0096FBD1013A13D04FF4800CBF
:1035E000402500BFC3F800C0009400BF009E013E0C
:1035F0000096FBD11D600094009E013E0096FBD119
:10360000013AEFD14FF4007243F809204FF48002E1
:103610001A600094009A013A0092FBD140221A608D
:10362000009400BF009A013A0092FBD180E0890724
:103630004FF400724FF4807143F8092058BF4FF0E7
:10364000807143F809104FF480011960402119601E
:1036500015E04FF4007243F809204FF480021A601D
:10366000DAF8008040F22015C2F20105402200295C
:103670001A6004D008F0040246EA42720A604FF46D
:103680008001402219604FF000771A6043F80970FA
:10369000000619604FF480711A6043F8091005D5CF
:1036A00041F20400CEF200000068A860287B0028E8
:1036B00000F08C8040424FF48001402201301960BC
:1036C0001A60FBD182E089074FF400724FF48071D9
:1036D00043F8092058BF4FF0807143F809104FF4A8
:1036E00080011960009400BF009901390091FBD15D
:1036F00040211960009400BF009901390091FBD16D
:103700001EE04FF4007243F809204FF480021A6063
:10371000009400BF009A013A0092FBD1DAF80080D1
:1037200040221A60009400BF009A013A0092FBD137
:1037300031B108F0040247EA42720A60DBF8044043
:103740004FF4800119600094009901390091FBD178
:1037500040211960009400BF009901390091FBD10C
:103760004FF0007143F809104FF480011960009484
:10377000009901390091FBD140211960009400BFEC
:10378000009901390091FBD14FF48071000643F894
:10379000091006D541F20400CEF200000068CBF813
:1037A00008009BF80C0088B14FF48001402200BF54
:1037B00019600094009F013F0097FBD11A600094AC
:1037C000009F013F0097FBD10138F1D1704601B055
:1037D000BDE8F08FF0B581B041F618414FF6000218
:1037E000C4F20201CFF6FF724FF400738B504FF416
:1037F000800340F2201C0B60C2F2010CDCF80430A4
:10380000009300BF009F013F0097FBD140270F604E
:10381000009300BF009F013F0097FBD14FF000775E
:103820008F504FF480070F60009300BF009F013F4F
:103830000097FBD140270F60009300BF009F013F1E
:103840000097FBD14FF480070F600093009F013F6A
:103850000097FBD140270F60009300BF009F013FFE
:103860000097FBD19CF81BE0BEF1000F12D04FF483
:1038700080044025764600BF0C600093009F013F06
:103880000097FBD10D600093009F013F0097FBD193
:10389000013EF1D14FF080748C504FF480040C60E5
:1038A000009300BF009C013C0094FBD140240C60BD
:1038B000009300BF009C013C0094FBD14FF48004B6
:1038C0000C600093009C013C0094FBD140240C60F0
:1038D000009300BF009C013C0094FBD14FF4800496
:1038E0000C600093009C013C0094FBD140240C60D0
:1038F000009300BF009C013C0094FBD11F254FF4B6
:10390000800640270446C0074FF4807008BF4FF080
:10391000807088500E600093009801380090FBD1B1
:103920000F600093009801380090FBD1013D4FEAF1
:103930005400E7D19CF81A006FEA0E07C01940D076
:10394000A7074FF4807758BF4FF080778F504FF420
:1039500080070F60009300BF009F013F0097FBD1DD
:1039600040270F60009300BF009F013F0097FBD1ED
:10397000013811D04FF48007402600BF0F6000933C
:10398000009D013D0095FBD10E600093009D013D1F
:103990000095FBD10138F1D14FF4007088504FF4FD
:1039A00080000860009300BF009801380090FBD1B0
:1039B00040200860009300BF009801380090FBD1C0
:1039C0001AE04FF40070A70788504FF480774FF447
:1039D000800058BF4FF080778F500860009300BF81
:1039E000009801380090FBD140200860009300BF90
:1039F000009801380090FBD14FF4800008600093DC
:103A0000009801380090FBD140200860009300BF6F
:103A1000009801380090FBD14FF0007088504FF4AF
:103A200080000860009300BF009801380090FBD12F
:103A300040200860009300BF009801380090FBD13F
:103A40004FF48070885001B0F0BD46F6E950C2F2E4
:103A5000010040F2741C0178C2F2010C9CF80030A5
:103A60004A1C02F00F01032B017007D0022B1ED05D
:103A7000012B26D11820C4F202001EE0D00740F22C
:103A800018014FF08060C4F2020108BF4FF480605B
:103A9000086046F6EA51C2F2010108780130C2B26C
:103AA0000870032A38BF70470020087014E09007A0
:103AB00040F21800C4F2020011D44FF4806101609A
:103AC00070474FF08060002908BF4FF480601821D4
:103AD000C4F20201086000208CF8000070474FF02B
:103AE00080610160704710B500F1280151E8002F96
:103AF00012B9BFF32F8F04E0531E41E8003404B124
:103B0000F4E782B12C3001210AE0821CD2E84F3F59
:103B1000C2E8441F04B1F9E71A0608BF10BD083017
:103B200000680028F1D1002010BD10B584465CF873
:103B3000303F8BB1CA784FF0000E05E01C46DB78B1
:103B400093420ED26368A646002BF7D10022C1E94A
:103B5000012E00F12C0208E00022C1E90122C1621D
:103B600009E0C1E9014E04F108021160BEF1000F45
:103B700018BF0EF1040CCCF80010283050E8001FDC
:103B80004A1C40E8002303B1F8E710BDD1E9012346
:103B9000002A0EBFC36293608B68191D002B08BFFB
:103BA00000F130010A6070471A480068704700BF92
:103BB00019480178012905D10021017004484FF00E
:103BC000806101601348016841F0010101607047A4
:103BD00004ED00E04FF0FF307047000040B10B49AA
:103BE0000968B1FBF0F0411E0020B0EB116F02D06C
:103BF0004FF0FF307047064AFF231370054A062333
:103C000013605160044990600870704710000120F3
:103C100023ED00E010E000E07C0101201420C4F25C
:103C2000040001684068084003F0ECB9F0B587B0C3
:103C300043F6300640F2004405468707C4F2020608
:103C4000C4F2020431D0E80716D0306801A940F070
:103C500002003060306800F00200019001984FF4DB
:103C600000400190022002900020CDE903000C20CA
:103C700005902046FEF7F2FA002F16D5306801A90C
:103C800040F002003060306800F0020006900698B4
:103C90004FF480400190022002900020CDE9030003
:103CA0000C2005902046FEF7D9FAE80616D53068B4
:103CB00001A940F002003060306800F00200069078
:103CC00006984FF480500190022002900020CDE928
:103CD00003000C2005902046FEF7C0FA07B0F0BDA7
:103CE00070B540F2004405468607C4F202040DD0C8
:103CF000E80704D04FF400412046FEF72BFA002ECF
:103D000004D54FF480412046FEF724FAE80600D49B
:103D100070BD4FF480512046BDE87040FEF71ABADE
:103D20002DE9F04786B041F2004A41F61847C4F247
:103D3000020A4FF40072C4F20207CAF818204FF4C6
:103D4000800240F220183A60C2F20108D8F804203C
:103D50000D460192019901390191FBD14021396051
:103D6000019200BF019901390191FBD1C1074FF4C4
:103D7000007108BF4FF00071CAF818104FF48001AD
:103D800039600192019901390191FBD140213960DB
:103D9000019200BF019901390191FBD181074FF4D4
:103DA000007158BF4FF00071CAF818104FF480012D
:103DB00039604108019200BF019B013B0193FBD197
:103DC00040233B60019200BF019B013B0193FBD16B
:103DD00043074FF4007358BF4FF00073CAF8183010
:103DE0004FF4800301443B6083080192019E013E31
:103DF0000196FBD140263E60019200BF019E013E2C
:103E00000196FBD106074FF4007658BF4FF00076BD
:103E1000CAF818604FF4800619443E60C008019249
:103E2000019B013B0193FBD140233B60019200BF0A
:103E3000019B013B0193FBD10844C0074FF4007084
:103E400008BF4FF00070CAF818004FF480003860C7
:103E5000019200BF019801380190FBD140203860E9
:103E6000019200BF019801380190FBD14FF0007022
:103E7000CAF818004FF480003860019201980138A8
:103E80000190FBD140203860019200BF01980138B9
:103E90000190FBD14FF40070CAF818004FF4800075
:103EA00038600192019801380190FBD140203860C0
:103EB000019200BF019801380190FBD100204FF41E
:103EC00000710590CDE9011003900320049001A931
:103ED0005046FEF7C3F998F818604FF48002D8F8FE
:103EE00004104023304606E03B600191019C013CF8
:103EF0000194FBD101383A60019100BF019C013C63
:103F00000194FBD10028EFD1DAF810084022C00953
:103F10003A600191019A013A0192FBD14FF480027B
:103F20003A6000F001020191019801380190FBD143
:103F3000DAF8100840233B60019100BF019B013B70
:103F40000193FBD14FF4800302243B6004EA9013F9
:103F5000019100BF019801380190FBD1DAF81008F7
:103F600040241A433C600191019B013B0193FBD12A
:103F7000042303EA5010002E02EB000910D04FF486
:103F80008000402238600191019B013B0193FBD1ED
:103F90003A600191019B013B0193FBD1013EF1D1BC
:103FA00000264FF40070059601900120CDE902062D
:103FB0000320049001A95046FEF750F92021D8F8BB
:103FC00004004FF480024023EC074FF4007408BF54
:103FD0004FF00074CAF818403A600190019C013C0F
:103FE0000194FBD13B600190019C013C0194FBD109
:103FF0002E4401394FEA5505E6D1F1074FF400711F
:1040000008BF4FF00071CAF818104FF480013960F2
:10401000019000BF019901390191FBD14021396024
:10402000019000BF019801380190FBD100204FF4AE
:104030000074059001210194CDE902100320049041
:1040400001A95046FEF70AF9CAF81840484606B0DA
:10405000BDE8F0872DE9F04181B010F03F0308BFC3
:104060004023000641F6104040F2201CC4F202003A
:104070004FF4800EC2F2010C29D44FF60808CFF697
:10408000FF78402411F8015B0827DCF8046000BFCA
:10409000EA074FF4007208BF4FF0007240F80820A2
:1040A000C0F808E0009600BF009A013A0092FBD1E8
:1040B00084600096009A013A0092FBD1013B03D044
:1040C000013F4FEA5505E3D1002BDBD126E04FF04D
:1040D000400800BF0024DCF804500826C0F808E0BF
:1040E000009500BF009F013F0097FBD10768C0F813
:1040F00008800095009901390091FBD107F08001FB
:1041000041EA5404013BA6F1010618BF002EE5D197
:1041100024FA06F1002B02F8011BDBD101B0BDE847
:10412000F08100002DE9F04F87B040F22015C2F277
:1041300001056B7841F6184641F200484FF40072D1
:10414000C4F20206C4F202084FF48004C8F8182032
:10415000002B34608146019100F0C5805FEAC97090
:104160004FF400704FF0400708BF4FF0007019F097
:10417000020A37604FF4007108BF4FF000715FEA28
:104180004973C8F8180009EB59004FF40073346004
:10419000376000EB9900C8F8181058BF4FF0007353
:1041A0005FEA097134604FF40071376000EBD900A9
:1041B000C8F81830346058BF4FF00071C00737603E
:1041C0004FF40070C8F81810346002A9376008BFB7
:1041D0004FF00070C8F818004FF00070346037607E
:1041E000C8F81800002034603760C8F81820346020
:1041F00037600690CDE902200490032005904046E8
:10420000FEF72CF895F818C03460BCF1000F07D009
:10421000CCF100014FF48002013137603260FBD1F4
:10422000D8F810184FF48002C1F3C0113760326023
:104230000225D8F81038376005EA93133260194424
:10424000D8F81028042303EA5212376001EB020B5E
:10425000BBF1040F18BFBBF1020F40F0CC8140F25C
:104260002014BAF1000FC2F201040BD0607E48B1F5
:104270006FF020014FF48002402300BF0131326013
:104280003360FBD1BCF1000F08D0CCF100004FF43B
:1042900080014022013031603260FBD100204FF4B8
:1042A0000071069002910121CDE9031003200590D1
:1042B00002A94046FDF7D2FFBAF1000F40F05C833F
:1042C000607E002800F058834FF000726FF02000ED
:1042D000C8F818204FF48001402200BF013031603F
:1042E0003260FBD148E36868029000BF029901394F
:1042F0000291FBD140213160029000BF0299013947
:104300000291FBD15FEAC9714FF4007108BF4FF011
:104310000071C8F818104FF480013160029000BF9E
:10432000029901390291FBD140213160029000BF16
:10433000029901390291FBD14FF4007119F0020A80
:1043400008BF4FF00071C8F818104FF480013160B9
:104350004FEA5901029000BF029A013A0292FBD142
:1043600040223260029000BF029A013A0292FBD1D1
:104370005FEA49724FF4007258BF4FF00072C8F8FC
:1043800018204FF48002494432604FEA99020290AB
:10439000029B013B0293FBD140233360029000BF9C
:1043A000029B013B0293FBD15FEA09734FF4007358
:1043B00058BF4FF00073C8F818304FF48003114411
:1043C00033604FEAD9020290029B013B0293FBD17A
:1043D00040233360029000BF029B013B0293FBD15C
:1043E0001144C9074FF4007108BF4FF00071C8F8BD
:1043F00018104FF480013160029000BF029901391A
:104400000291FBD140213160029000BF0299013935
:104410000291FBD14FF00071C8F818104FF48001E1
:1044200031600290029901390291FBD14021316043
:10443000029000BF029901390291FBD14FF4007143
:10444000C8F818104FF480013160029002990139C8
:104450000291FBD140213160029000BF02980138E7
:104460000290FBD100204FF400710690CDE90210BC
:1044700004900320059002A94046FDF7EFFE2F7E31
:104480004FF4800269684023384606E033600291A9
:10449000029D013D0295FBD101383260029100BFBF
:1044A000029D013D0295FBD10028EFD1D8F81008FC
:1044B00040223260029100BF029A013A0292FBD17F
:1044C0004FF480023260C209029100BF02980138A5
:1044D0000290FBD1D8F81008402302F001023360AB
:1044E000029100BF029B013B0293FBD14FF480037A
:1044F00033608309029100BF029801380290FBD11A
:10450000D8F81008402503F002033560029100BF7F
:10451000029D013D0295FBD11A43042303EA50108A
:1045200002EB000BBBF1040F18BFBBF1020F40F010
:10453000B080BAF1000F17D040F22010C2F2010093
:10454000407E88B121224FF48000402330600291E8
:10455000029D013D0295FBD133600291029D013D18
:104560000295FBD1013AF1D140F22014002FC2F2A2
:10457000010411D04FF48000402200BF306002914E
:10458000029B013B0293FBD132600291029B013BF3
:104590000293FBD1013FF1D100204FF4007106904E
:1045A00002910121CDE903100320059002A94046A4
:1045B000FDF754FEBAF1000F40F0DE81607E002866
:1045C00000F0DA814FF00071C8F8181021204FF484
:1045D00080016268402300BF31600292029F013F68
:1045E0000297FBD133600292029F013F0297FBD1F9
:1045F0000138F1D1C0E1BBF1010F40F0B880BAF150
:10460000000F40F0E280BCF1000F09D0CCF10000B7
:104610004FF48001402200BF013031603260FBD195
:1046200000244FF40070069402900120CDE90304A9
:104630000320059002A94046FDF710FE019A40F2C2
:1046400020156FF01F0012684FF480014023C2F262
:10465000010500BFD7074FF4007708BF4FF0007780
:1046600014440130C8F818704FEA520231603360C8
:10467000F0D1E0074FF4007008BF4FF00070C8F8A9
:1046800018004FF48000306040204FF0010B306084
:10469000E0E0BBF1010F76D1BAF1000F40F0F580F8
:1046A00040F22015002FC2F2010511D04FF4800214
:1046B000402000BF32600291029B013B0293FBD17C
:1046C00030600291029B013B0293FBD1013FF1D18B
:1046D00000244FF40070069402900120CDE90304F9
:1046E0000320059002A94046FDF7B8FD019820215E
:1046F00002684FF480036868402700BFD5074FF475
:10470000007508BF4FF00075C8F81850336002906C
:10471000029D013D0295FBD137600290029D013D53
:104720000295FBD1144401394FEA5202E6D1E10768
:104730004FF4007108BF4FF00071C8F818104FF423
:1047400080013160029000BF029901390291FBD1D2
:1047500040F220144021C2F201043160029000BFF7
:10476000029801380290FBD14FF0010BE2E06FF0AC
:104770002000A0EB0C004FF480014022013031609A
:104780003260FBD112E007F121004FF48002402398
:1047900032600291029F013F0297FBD13360029188
:1047A000029F013F0297FBD10138F1D100204FF465
:1047B0000071069002910121039102A90490032047
:1047C00005904046FDF74AFDD6E04FF48001316088
:1047D0004023D8F810280027D40933606FF01F0554
:1047E000002200BF04F0010031600744500840EA95
:1047F000C472D8F81008013533604FEAD014F1D1F3
:1048000084EA0700C0074FF0080B08BF4FF0010B08
:10481000019800B1026040F22015BCF1000FC2F215
:10482000010509D0CCF100004FF48001402200BF07
:10483000013031603260FBD100204FF400710690EE
:1048400002910121CDE903100320059002A9404601
:10485000FDF704FD5FEA096005D541F20400CEF2E0
:1048600000000068A860287B002800F085804FF0D9
:1048700000724042C8F818204FF48001402200BF67
:10488000013031603260FBD176E0202300224FF40A
:10489000800C4FF0400E002507E000BF00F001043F
:1048A000C007254440EA5202013BC6F800C002910D
:1048B000029801380290FBD1D8F81008C6F800E041
:1048C000029100BF029C013C0294FBD1002B4FEAF5
:1048D000D010E3D16840C0074FF0080B08BF4FF07D
:1048E000010B019800B1026040F22014002FC2F2C7
:1048F000010411D04FF480006168402230600291C1
:10490000029B013B0293FBD132600291029B013B6F
:104910000293FBD1013FF1D100204FF400710690CA
:1049200002910121CDE903100320059002A9404620
:10493000FDF794FC5FEA096005D541F20400CEF270
:1049400000000068A060207BB0B14FF00071C8F893
:1049500018104FF480016268402300BF316002925A
:10496000029F013F0297FBD133600292029F013FF9
:104970000297FBD10138F1D14FF40070C8F818004C
:10498000584607B0BDE8F08F2DE9F04182B000280D
:1049900037D041F618434FF6000840F220150022A8
:1049A0004FF4800C4FF0400EC4F20203CFF6FF78B4
:1049B000C2F20105002600BF002AA0F1010002D1C9
:1049C00011F8016B0822F7074FF4007708BF4FF08A
:1049D000007743F80870C3F800C06F68019700BF04
:1049E000019C013C0194FBD1C3F800E0009700BF9B
:1049F000009C013C0094FBD176080028A2F1010242
:104A0000DAD102B0BDE8F08110B540F69812C2F2DA
:104A1000010212780C46012A03D1006800F062FA04
:104A200028B940F69911C2F2010100200870010A6C
:104A30006170010C2070020E4FF00410A170E27042
:104A400010BD70B540F699160078C2F201063278B2
:104A500000F001050C4602F00100854227D0D5B1D7
:104A600040F68C10C2F201000021018040F68E1049
:104A7000C2F20100017040F69010C2F20100016024
:104A800040F69410C2F20100016040F69C10C2F2A0
:104A900001000160416040F69810C2F20100007808
:104AA000012806D1284600F085FA10B135700021A2
:104AB00000E0FF214FF00110217070BD2DE9F0439F
:104AC00081B040F68E12C2F20102137840F69918B6
:104AD0000C4640F68C11C2F20108C2F20101814677
:104AE00098F80000CD5C83F001070026177045EAB6
:104AF0000007CE54FDF796FA40F6A411C2F2010168
:104B0000097801290DD199F8002099F8013042EA7D
:104B10000326B6F5FE7F28BF4FF4FE76B04298BF5D
:104B20000646300A277001296670A0703CD140F615
:104B30009410C2F20100002E056810D040F28C13D0
:104B4000E21CC2F201032946374600BF6FF3DF21A2
:104B5000013F5C5C01F1010102F8014BF6D1A9199A
:104B6000016098F8001003291ED140F69011C2F29E
:104B70000101096800220068081AB2EBD02F13D196
:104B800040F69810C2F20100007801280CD16FF3B2
:104B9000DF2140F28C120120C2F2010288F80000ED
:104BA0005018012100F0FBF9F01C40F4003001B076
:104BB000BDE8F083F0B581B007780C460025F80712
:104BC0000E4619D040F68E1CC2F2010C9CF8001063
:104BD00040F6991240F68C13C2F20102C2F20103B0
:104BE0001278585C81F001068CF80060264610436C
:104BF0005D5406F8010B0125B8070BD5FDF712FA35
:104C0000010A6055020C7170000EB270311DF07017
:104C100004350E4678071ED540F6A51240F69C17BF
:104C2000C2F201020023C2F2010700BF137039680B
:104C300078681478002CF9D10A0A317072700A0C65
:104C4000090EB270F170010A307104357171010CF6
:104C5000000EB171F07105F5803001B0F0BD70B596
:104C600040F698150678C2F201052A780C46012A0A
:104C700002D1002000F0E9F95EB1012E06D1012039
:104C8000012600F0E2F908B1002103E0FF2100262F
:104C900000E0314640F699102E70C2F20100002269
:104CA00002704FF00110217070BDB0B540F68E1C3F
:104CB000C2F2010C9CF8002040F6991340F68C1EBD
:104CC000C2F20103C2F2010E0446187882F001011B
:104CD0001EF802308CF80010002143EA00050EF89F
:104CE0000210FDF79FF9010A2570A170010C607098
:104CF000020E0520E1702271B0BD40F69912C2F299
:104D000001021278D20709D10078012806D840F6AE
:104D1000A412C2F201021070002200E0FF224FF044
:104D200001100A70704743F60400C4F202004168A3
:104D300001F00C0242F20041082AC0F2F40106D050
:104D4000042A1DD147F64001C0F27D1118E0026827
:104D50005202036847F6400203F03F03C0F27D129F
:104D600058BF0A46B2FBF3F10268C2F3881202236D
:104D700051430268C2F3014203EB4202B1FBF2F17C
:104D800040F21002C2F2010211604CF2CC634068A2
:104D9000C0F60003C0F30310185C21FA00F01060A5
:104DA00070474EF60850CEF20000D0F880104FF059
:104DB000000C41F47001C0F8801043F60001C4F209
:104DC00002010A6842F001020A604FF6FF72C1F860
:104DD00008C0CFF6F6620B681A400A6043F2100270
:104DE000C2F200424A600A6822F480220A60C1F8D6
:104DF0000CC04FF000610160704710B5930712D4EA
:104E000000F12803D00718D153E8000F084203D15E
:104E1000BFF32F8F002005E020EA010243E80024C1
:104E200004B1F1E710BD806AD20700EA010315D191
:104E3000002B18BF10BD002010BD53E8000F00EA82
:104E400001028A4203D0BFF32F8F002005E020EA41
:104E5000010243E8002404B1EFE710BD8B4218BF04
:104E6000002010BD80B51B4A4FF0000E02F1440C2B
:104E7000624606E01A6991420BD3891A03F10C02CB
:104E80009E461368002BF5D10022C0E902E20161C1
:104E900006E0C0E902E3016198601A69511A1961DC
:104EA000BEF1000F18BF0EF10C0CCCF8000080BD55
:104EB000C16829B102690B691A440A6182688A6073
:104EC0008068044A00F10C03002808BF02F1440383
:104ED00019607047140001204CF29470C0F6000075
:104EE00000F041BD2DE9F04140F6991849F2806487
:104EF000C2F20108C0F2980498F800104CF208764B
:104F0000A04238BF0446C0F60006C807B56A12D0F2
:104F100016200021A847F06A804780070BD5706AE9
:104F2000804740F69011C2F201010A6810440860FF
:104F300019200021A847012021460127A84730B1A8
:104F400040F61820C2F201000024047024E098F812
:104F5000000040F61821C2F20101C2070F701BD0F9
:104F6000800716D440F69010C2F20100006840F2AB
:104F7000881200F03F01B369C1F14001C2F20102A1
:104F80006FF3DF20116040F28C12C2F20102104474
:104F9000984716200121A8472046BDE8F0814CF231
:104FA0000872C0F6000240F288139269C2F201034F
:104FB0001960104770B5F8B140F61820C2F2010030
:104FC0000078012816D140F28810C2F201000121B8
:104FD0004CF208740160C0F6000440F28C10A26923
:104FE000C2F201000121904720B9A26A16200121D6
:104FF0009047C8B1002070BD4CF20875C0F600059E
:10500000D5E90A4616200021A047B04780070BD5F6
:10501000686A804740F69011C2F201010A681044A4
:10502000086019200021A047012070BD10B54CF286
:105030000874C0F60004E06A8047800701D40020AD
:1050400010BD606ABDE81040004770B540F61822F8
:105050000021C2F201020028117012D04CF2087433
:10506000C0F6000445F25510A168C0F6000088475C
:1050700028B921690220884798B1E068804700205C
:1050800070BD4CF20870C0F60000D0E90345866A96
:1050900016200021B04719200021B0470020A84762
:1050A000A047012070BD4CF29472C0F6000200F0DF
:1050B000B9B840F2196070474CF29470C0F6000025
:1050C00000F0F2BB40F6BC10C2F20100006970476C
:1050D0004CF29470C0F6000000F00EBC40F6BC101C
:1050E000C2F201004069704780B54CF29471C0F67D
:1050F000000100F03AFD002080BD4CF29471C0F632
:10510000000100F05FBD4CF29472C0F6000200F0A6
:10511000A7BF4CF29472C0F6000200F0E5BF4CF25B
:105120009471C0F6000101F019B84CF29473C0F606
:10513000000301F045B880B54CF29470C0F6000051
:1051400001F066F8002080BD4CF2CC70C0F6000083
:1051500000F009BCB0B50446800743D541F2040015
:10516000CEF2000040F69C1E0068C2F2010ECEF89E
:10517000040040F6941040F6901340F2881CC2F2EE
:105180000100C2F201030268C2F2010C1868DCF8E7
:105190000010084400F03F011860C1F14001CEF852
:1051A0000000821AC1F50065AA4206D940F699109E
:1051B000C2F20100032101700EE06FF3DF20CCF892
:1051C00000104CF2087240F28C13C0F60002C2F2DA
:1051D000010392691844904740F6A510C2F20100FD
:1051E00001210170A0060CD540F68E10C2F201001C
:1051F000007840F68C11C2F201010A5C42F0800294
:105200000A5414F4607F0CD040F68E10C2F20100F4
:10521000007840F68C11C2F201010A5C42F04002B3
:105220000A54B0BD2DE9F04F89B01446126BD37A01
:105230009F0705D44FF0FF31084609B0BDE8F08F55
:105240000D466FF0140151FA80F1052925D8DFE8E9
:1052500001F0036AA3ADC4D9E0680028EAD0002DAC
:1052600000F00481D16806290FD001898288069157
:105270000221438905910793C1880492089104A9EA
:105280000068FCF7EBFF226BD37A43F00800D07282
:105290006068016841F008017CE05179002940F024
:1052A0008280676B97F82110002940F07C80D4F849
:1052B00004C0DCF80010090704D5DCF81C1049060E
:1052C00040F171804FF0FF3151FA80F6132E00F259
:1052D0000A816FF006014FF000094FF001084FF00E
:1052E000000EDFE816F06F0115001400EC00F3006B
:1052F000FA000001000100010001000100010001AD
:105300000001000103010501230134015B0193E762
:105310002178890740F1E4804FF0000E4FF41069C6
:105320004FF002084EE1206900283FF483AF002DC2
:1053300000F0A580D16841F0020106290FD0018953
:10534000828806910221438905910793C1880492BE
:10535000089104A90068FCF781FF226BD37A43F01F
:105360001000D0726068816841F00101816041687D
:1053700041F040014160016841F080610160517974
:1053800009B1A16A19B9016841F020010160016801
:1053900041F00401016090E0002D606B59D090F85D
:1053A000211000297DD06FF0010145E76068616A36
:1053B0000268002922F0C00202600AD0626B92F8F3
:1053C000212032B1826822F0800282600868FCF7F6
:1053D00065FE606B002101842EE76068A16A0368A6
:1053E000002923F02003036009D053793BB1826880
:1053F00022F0400282600868FCF750FE226B002118
:10540000517119E76068616A0268002922F0E002C0
:1054100002600AD0626B92F8212032B1826822F0D9
:10542000800282600868FCF739FEA06A50B1216BE7
:10543000497939B161688A6822F040028A6000685F
:10544000FCF72CFED4E90C020021417182F82110F6
:10545000F2E690F8201000294FF000013FF4ECAE86
:105460006268136823F080031360B4E761680F6813
:1054700027F008070F6003F0F701D36809E06168BF
:105480000F6827F004070F6003F0EF01D36843F0C3
:105490000203062BD17210D081880068FCF75AFEF7
:1054A0000BE040F2011101846068016841F0800165
:1054B0000160816941F0020181610021BCE64FF089
:1054C000080E4FF000094FF004087BE04FF0020E89
:1054D0004FF000094FF0050874E0217889066BD47D
:1054E0006FF00601A8E66FF00301A5E67D83E4E70F
:1054F000D06805287FF49EAE002DDED0DCF80800D1
:1055000040F00400CCF80800A06880474CF6002169
:10551000C3F69A31B1FBF0F1012000FB01F2AA427F
:1055200035D80130B0F5807FF7D32EE0FF2D4FF056
:10553000FF313FF681AED06806287FF47DAEDCF8FF
:10554000100020F47F402843CCF81000B5E7D06865
:1055500006287FF46FAEA06880474CF60021C3F6A2
:105560009A31B1FBF0F0C8214143662005FB00F2FF
:10557000622005FB00F3012001FB00F7974201D2F6
:105580009F4204D801304028F6D33FF453AE6168FF
:105590000A6922F0FF02104308618EE7D0680628EE
:1055A0007FF448AE002D3FF488AFDCF8080040F0EF
:1055B0001000CCF8080080E74FF0200E4FF00009F3
:1055C0004FF00608C0F302226FF00801072A3FF6E9
:1055D00033AEDFE802F0051104040404191F2BE6C2
:1055E00010F440510A4618BF012200294FEA023246
:1055F00018BF49F0200913E010F4405F1AD149F0B8
:1056000020094FF480521AE010F4405112D04FF0AC
:10561000805205E000F44051B1FA81F252091207BC
:1056200069B1B1F5005F08D0B1F5805F12D142F4E5
:10563000806204E06FF00801FEE542F4C062C0F34E
:105640008131032909D002290AD001290AD109F59B
:10565000005907E06FF00901EEE509F5805901E016
:1056600009F54059C0F3014103290BD0022914D098
:1056700001291CD12178090612D50EF5807E4FF440
:10568000803114E0216801F4C071B1F5C07F07D109
:105690000EF5E06E4FF4403109E06178C90702D1A0
:1056A0006FF00B01C8E50EF5C06E4FF40031B8F194
:1056B000020FCDF80CE0CDE9001209D1010A4FF438
:1056C000007201F4806102EA9020084449EA00096E
:1056D000A068CDF80890804719277843AE00B0FB4A
:1056E000F6F048F21F59C5F2EB19A0FB0901A068BA
:1056F0004FEA510A80477843B0FBF6FBA068804729
:105700007843B0FBF6F06426A0FB0912510901FBB7
:105710001601ABEB00000844322101EB0010A0FBA6
:1057200009014F094FEA1A1060F31F17A06880475C
:10573000B9B20001B0FBF1F0662169430009704382
:1057400088426FF00701BFF477AD62226A43DDE95A
:10575000026590427FF670AD6268E068216B0028B8
:10576000136823F001031360D760009FC1F80C8019
:105770000F6118D0B8F1060F07D0C97A090704D411
:1057800081880068FCF7E6FC0DE0018982880691BB
:105790000221438905910793C1880492089104A9C5
:1057A0000068FCF75BFD206960B1216BCA6842F0BC
:1057B0000202062A02D0C97AC90666D48188006826
:1057C000FCF7C8FC6069C0B1216BC96841F00401F5
:1057D00006290ED10189828806910221438905910B
:1057E0000793C1880492089104A90068FCF736FD6C
:1057F00003E081880068FCF7ADFCA069C0B147F404
:1058000000318288B1F5403F049208D101890691A8
:105810000221428905910792C188089104E0012183
:1058200005910021CDE90611006804A9FCF716FDD9
:10583000E069B8B147F480318288B1F5403F049205
:1058400008D1018906910221428905910792C188F8
:10585000089103E00021CDE905110791006804A932
:10586000FCF7FCFC6068D4E90B12019B036006F5B1
:105870000003436085604161016841F001010160FE
:10588000D07A40F00400D07217E601898288069130
:105890000221438905910793C1880492089104A9C4
:1058A0000068FCF7DBFC8DE780B582B0009921F041
:1058B00001010091016B096941F48031B1F5803F2C
:1058C0000AD1C06940B181880068FCF794FD18B91D
:1058D000009840F001000090009820F00200009035
:1058E000009820F008000090009820F0040000903C
:1058F0000098019002B080BD82B0416B91F82110F8
:1059000019B1009941F0010108E04168C969009AA4
:105910008909520862F35F0181F001010091006B77
:1059200000994279837962F3410190F807C0027AC5
:105930000091009963F38201009100996CF3C30117
:105940000091009962F304110091417A009A61F389
:1059500045120092807A009960F3861100910098B8
:10596000019002B070472DE9F0414168CA690B68A7
:1059700013409B060ED5036B5F79002F42D0DB6886
:10598000022B436B0AD1DF69012F07D1496A4FF01F
:10599000000C05E000214FF0000C3BE0D1F824C0E2
:1059A00099684F1C9F6081F800C0416809684B05E9
:1059B00009D411F0102106D0416B4FEA1C268B68E8
:1059C0005F1C8F601E70436B19691F680131B942FB
:1059D00019614FF000011DD14768066B3D6825F045
:1059E00080653D60F768022F717112D1D969002777
:1059F0000329DF6100F0B780022918BF012909D00F
:105A0000002107E00127496A4FF0000CDF712021D7
:105A100000E002211305436844BF1F685FEA47178F
:105A20001ED41F6817403F0659D5D0F834E09EF8C1
:105A3000204024B19F6947F002079F614FE0DEF8E4
:105A40000440DEF81450AC4225D0076BFF68022FEB
:105A50000CD1DEF81C70022F08D1BEF81AC01AE073
:105A60004FF4006741F040011F62DAE7DEF80C6096
:105A7000771CCEF80C7096F800C0D3F800805FEA6F
:105A8000485708D418F0102705D0B71CCEF80C7072
:105A900076784CEA062C01351FFA8CF7CEF81450B4
:105AA000AC429F621BD11F6827F080071F601F68F0
:105AB00047F040071F60066BF768022F4FF00007A2
:105AC0008EF8217009D1DEF81C70012F07D1F77A0A
:105AD000012626EA1717394301E041F001011F684A
