:020000040800F2
:1000000090950120F5010008FD010008FF0100089E
:1000100001020008030200080502000800000000B9
:1000200000000000000000000000000019020008AD
:100030000902000800000000B1020008C102000827
:100040000F0200080F0200080F0200080F0200084C
:100050000F0200080F0200080F0200080F0200083C
:100060000F0200080F0200080F0200080F0200082C
:100070000F0200080F0200080F0200080F0200081C
:100080000F0200080F0200080F0200080F0200080C
:100090000F0200080F0200080F0200080F020008FC
:1000A0000F0200080F0200080F0200080F020008EC
:1000B0000F0200080F0200080F0200080F020008DC
:1000C0000F0200080F0200080F0200080F020008CC
:1000D0000F0200080F0200080F0200080F020008BC
:1000E0000F0200080F0200080F0200080F020008AC
:1000F0000F0200080F0200080F0200080F0200089C
:100100000F0200080F0200080F0200080F0200088B
:100110000F020008BD7C00080F0200080F02000853
:100120000F0200080F0200080F0200080F0200086B
:100130000F020008000000000000000000000000A6
:100140000000000000000000000000000F02000896
:100150000F0200080F0200080F0200082D7F0008A0
:100160000F0200080F0200080F0200080F0200082B
:100170000F020008155400080000000000000000F5
:100180000F0200080F0200080F0200080F0200080B
:100190000F0200080F020008000000000F02000814
:1001A0000000000000000000000000000F02000836
:1001B0000F0200080F02000800000000000000000D
:1001C000000000000000000000000000000000002F
:1001D0000000000000000000000000000F02000806
:1001E000DFF80CD000F0EEF80048004781AD0008C1
:1001F000909501200648804706480047FEE7FEE745
:10020000FEE7FEE7FEE7FEE7FEE7FEE7FEE7FEE7C6
:10021000677B0008E10100081EF0040F0CBFEFF33C
:100220000880EFF30980816911F8021C91BB01B5C8
:1002300090E80F10E047BDE800508CE80300244B25
:1002400093E80600914208BF704741B91EF0100FB5
:1002500010D12049086820F0010008600AE02CE96C
:10026000F00F1EF0100F08BF2CED108AC1F838C037
:1002700081F822E01A6092F82210906B61F0FF0E74
:100280001EF0100F08BFB0EC108AB0E8F00F80F33A
:1002900009887047104A13689942FAD801B552F894
:1002A00021C00FC8E047BDE80050CCF800007047FF
:1002B00001B50BF071F8BDE80140EFF3098CBEE722
:1002C00001B50BF0A7FABDE80140EFF3098CB6E7E2
:1002D0002800012034EF00E018F700082DE9F05F56
:1002E0000546002092469B468846064681464024A5
:1002F0001BE0284641464746224600F053F8534645
:100300005A46C01A914110D311461846224600F0B1
:100310003AF82D1A67EB01084F46224601200021CA
:1003200000F031F817EB00094E41201EA4F1010442
:10033000DFDC484631462A464346BDE8F09F40EAA6
:1003400001039B0703D009E008C9121F08C0042A53
:10035000FAD203E011F8013B00F8013B521EF9D23A
:100360007047D2B201E000F8012B491EFBD2704762
:100370000022F6E710B513460A4604461946FFF771
:10038000F0FF204610BD202A04DB203A00FA02F1DB
:10039000002070479140C2F1200320FA03F3194373
:1003A00090407047202A04DB203A21FA02F0002115
:1003B000704721FA02F3D040C2F120029140084375
:1003C00019467047064C074D06E0E06840F001030F
:1003D00094E8070098471034AC42F6D3FFF704FFC7
:1003E0008CFB0008ACFB000880B5A2B00020219077
:1003F00020901F901E901D90FFE743F63000C4F23E
:100400000200016841F001010160006800F0010094
:100410001C901C981390FFE7FFE743F63000C4F2EE
:100420000200016841F002010160006800F0020072
:100430001B901B981290FFE7FFE743F63000C4F2D1
:100440000200016841F004010160006800F004004E
:100450001A901A981190FFE7FFE743F63000C4F2B4
:100460000200016841F008010160006800F0080026
:10047000199019981090FFE7FFE743F63000C4F297
:100480000200016841F010010160006800F01000F6
:10049000189018980F90FFE7FFE743F63000C4F27A
:1004A0000200016841F020010160006800F02000B6
:1004B000179017980E90FFE7FFE743F63000C4F25D
:1004C0000200016841F040010160006800F0400056
:1004D000169016980D90FFE7FFE743F63000C4F240
:1004E0000200016841F080010160006800F08000B6
:1004F000159015980C90FFE7FFE743F63000C4F223
:100500000200016841F480710160006800F48070AD
:10051000149014980B90FFE749F6BD301D9003200E
:100520001E9000211F910022C4F202021DAB0A900E
:100530001046099119460892079301F0BFFE43F651
:100540003B701D9040F20040C4F2020006900799F3
:1005500001F0B4FE4EF6FF701D9040F60000C4F2AC
:100560000200079901F0AAFE4FF69B701D9040F61D
:100570000040C4F202000590079901F09FFE4FF67B
:10058000FF701D9041F20000C4F20200079901F0D3
:1005900095FE4FF6FF401D9041F20040C4F202006C
:1005A0000490079901F08AFE4BF63F501D9041F6EA
:1005B0000000C4F20200079901F080FE4FF63C7083
:1005C0001D9041F60040C4F202000390079901F02B
:1005D00075FE40F6FF701D9042F20000C4F202006A
:1005E000079901F06BFE4FF480601D9001201E9072
:1005F00009991F910A9A2092089B02901846079920
:1006000001F05CFE40201D9011211E9102991F9166
:10061000089A01901046079901F050FE4FF40070BF
:100620001D9002981E9009991F910498079901F056
:1006300045FE4FF480701D900498079901F03EFE2E
:1006400001981D900398079901F038FE04201D9031
:1006500009991E91069A00901046079901F02EFE06
:1006600000981D900598079901F028FE80201D90A4
:100670000398079901F022FE02201D90089807991F
:1006800001F01CFE22B080BD02787F2A18D1F0B59F
:1006900081B07F220A704278002A4A7012D08D1CE5
:1006A000861C57424FF002143046294600F010F8DD
:1006B000044406EB1046013715FA80F5F4D103E047
:1006C00000F006B84FF00214204601B0F0BD000063
:1006D0002DE9F04F8BB090F9002007460D46D0B2BF
:1006E000B2F1FF3F08DC9F2806D8384629460BB0F8
:1006F000BDE8F04F01F09BBA2C4604F8010BBA4656
:100700001AF8010B1E2800F21683DFE810F01F0014
:1007100035004200B900C300D000B60214031A032A
:10072000DD053503140314031403140314033C03FD
:10073000F9030D0420042F045E048604A804AE040B
:10074000B404BA04C004C504CB0430059AF80020F0
:10075000A91C0020FC2A00F31385042A01F059800B
:10076000F02A01F05F80F12A41F067804EF20060CC
:10077000C0F6DF4001F05AB89AF80000012800F0F6
:100780009885002840F0A785B87800F0010000F0B7
:1007900096BD9AF800000025022880F0FF8440F200
:1007A00020100594C2F201000A95012707704FF04E
:1007B00040081120CDF8188040F2000ACDE9070763
:1007C0000320C4F2020A099006AE46F68014504691
:1007D0003146CFF6677401F071FD0AF5A059CAF8E9
:1007E00018804FF4007B48463146CDE906B708959E
:1007F00001F064FD4FF6180041F60047CFF6FF7098
:10080000C4F2020747F800B038463146CDF81880E8
:1008100001F054FDC7F818804FF004080AF5806015
:100820003146CDE9068501F049FD0AF54060CDF875
:100830001880314601F042FD80200690384631464E
:1008400001F03CFD022006900320079050463146FF
:1008500001F034FD4FF4807006904846314601F0B7
:100860002DFD4FF48000CAF8180000BF00BF00BF84
:100870000134FBD140200125CAF8180000F000BD6A
:1008800040F22010C2F2010000210170012021700D
:1008900001F042B9787840F22011C2F201010873E8
:1008A00078880882B8884882002000F083BF40F230
:1008B0002012C2F201021078022800F00E850128F1
:1008C00040F0E18640F264100594C2F2010000227B
:1008D0000270EB1C97F80290FE1CB9F1000F00F0BB
:1008E000B087002003930290002400200021B3462B
:1008F00004911BF8017BB9071AD4002C5CD040F29C
:100900002010C2F20100008AA046C4430E2006A9AE
:1009100005F072FB02283ED1013400F0D58740F289
:100920006410C2F2010000780028EFD000F0CCBFC4
:10093000E4B140F22010C2F2010007F01101008A78
:10094000012915D1A046C443384606A905F054FB39
:10095000022857D1013400F0B78740F26410C2F288
:10096000010000780028EFD000F0AEBF00247EE048
:10097000C4430E2006A905F03FFB022844D10134F0
:1009800000F0B38740F26410C2F201000078002842
:10099000EFD000F0AABF012840F097870698039A8D
:1009A0001070111D0698000A03915070BDF81A00CE
:1009B00090709DF81B00D070D6F80100B90606F1C2
:1009C000050B069017D440F22010C2F20100008AF5
:1009D000C443384606A905F00FFB02283BD1013479
:1009E00000F0838740F26410C2F201000078002812
:1009F000EFD000F07ABF40F22011C2F201010024D2
:100A000048619DE0444600E00024012840F06F87E3
:100A10000698002C039A107002F1040106984FEA20
:100A200010205070BDF81A0090709DF81B00D07017
:100A30001AD0380619D540F22010039AC2F20100EC
:100A40008068010A5171010C1071000E917102F160
:100A50000801D07109E0012841F06F80380600F1EB
:100A6000C98000240120D6E0002401200391F9066A
:100A70001AD440F22011C2F20101098AFA0761D1A9
:100A8000CE43384606A905F0B7FA022840F0888020
:100A9000013600F02B8740F26410C2F201000078AA
:100AA0000028EED000F022BF40F22011D6F80180DD
:100AB000C2F20101488A06F1050B0190F80744D102
:100AC00040F22010C2F20100008AC643384606A94F
:100AD00005F092FA022809D1013622D040F26411C1
:100AE000C2F2010109780029F0D01AE0012818D1DA
:100AF00040F220120699C2F20102019B5269002BBA
:100B000001EA020118BF414512D040F26412C2F25C
:100B100001021278002A019AA2F101020192CFD0BB
:100B200006E040F220120699C2F201025269114019
:100B3000414541F07680012840F0D986002002909E
:100B400001206AE0B4B1002166E0088A2646C44369
:100B50000021384605F050FA022846D1013400F051
:100B6000E08740F26410C2F2010000780028EFD064
:100B700000F0D7BFCE430021384605F03DFA0228E9
:100B80005ED1013600F0B18640F26410C2F201007D
:100B90000078002400284FF00200ECD000F0A7BE3F
:100BA000012840F0A48638060ED540F22010039AA2
:100BB000C2F201008068010A5170010C1070000E31
:100BC0009170111DD070039106980023039A107044
:100BD000111D0698000A02935070BDF81A00039187
:100BE00090709DF81B00D070AAE70128344640F0B1
:100BF0007E8665E740F22010039EC2F20100806805
:100C0000371D010A3070020C7170030EB27000249F
:100C1000F370012003970121029140F26411C2F2A6
:100C2000010109780029049901F10101049140F0C2
:100C30005E86B9F101095E467FF45BAE00F06ABEE4
:100C4000012840F07A87380603D400200290012062
:100C500011E040F22010039EC2F201008068371DAF
:100C6000010A3070020C7170030EB2700020F37034
:100C70000290012003970124CFE740F22016C2F230
:100C800001063078022800F01785012840F07C85A5
:100C900040F264180594C2F201084FF0000B88F886
:100CA00000B0B878F97840EA0120002805F1040185
:100CB00000F0CB85CDE903103C79A00700F1C78592
:100CC0004FF0000B0DF11809308A049A5AF8041FEE
:100CD000013AC643049206912046494605F08CF934
:100CE000022808D1013600F0ED8598F800000028B0
:100CF000F2D000F0E7BD012840F0E686049840F20B
:100D0000201600280BF1010BC2F20106DCD1308A5B
:100D1000C4430E20002105F06FF9022840F0D4866C
:100D2000013400F0CF8598F8000000284FF0020051
:100D3000EFD000F0C9BEFF2028704FF0011000F086
:100D4000EDBE40F22010C2F201000178022900F04D
:100D50002185012940F02D85D7F8020006A90690CB
:100D60000020002505F048F901202570C0F202009E
:100D700000F5403000F0D0BE4FF48070A5F80100BF
:100D8000022000F0C9BE97F802807E7818F00105B5
:100D9000D7F803B00AD0F00741F600414FF0400009
:100DA000C4F2020108BF4FF48000886118F0020706
:100DB0000ED0B0074FF6180141F600424FF4007014
:100DC000CFF6FF7158BF4FF00070C4F202025050CE
:100DD00018F0040A05940ED070074FF6180141F67A
:100DE00000424FF48070CFF6FF7158BF4FF0807013
:100DF000C4F20202505018F08000049002D0F009B2
:100E00000BF032FC0020BBF1000FC4F2020051D005
:100E100008F02001B1FA81F14FEA51184CF2C0619B
:100E2000C0F22D018B4538BF5946D822514306F0F8
:100E3000E002B2FA82F2540941F20402CEF2000258
:100E400044EA080BD2F800904FEAD61C73084FEA28
:100E5000960E8BF0010800BF2DB1D0F81044C4F3FA
:100E60008004B44221D147B141F60044C4F20204E7
:100E70002469C4F3C014A34217D1BAF1000F0AD0F9
:100E80000469C4F34004BEEB040418BF012454EA0F
:100E9000080403D009E0BBF1000F06D0049C4CB15C
:100EA0000469C4F38014A44504D01468A4EB0904B5
:100EB0008C42D1D341F60042D0F81014C4F20202A1
:100EC000C1F380011269022303EA921211440269FC
:100ED00002F0020241EA4201D0F8102C02F00402B2
:100EE000006941EA4201059A00F0400041EA4000F1
:100EF00001211070C0F2020101F5802000F00CBE4B
:100F0000D7F80100002800F0C1814FF68011C0F22F
:100F100037318842C0F0558440F22011C2F20101FD
:100F20000120487000F068BC7D78B91C002D08BF16
:100F30004FF48075284606F0DFFB4FF4604000EB6D
:100F400045303FFA80F0002100F5803061E09AF8EA
:100F5000000040F22012C2F2010200F00301013150
:100F60001176C0F380005076002007E10020207049
:100F70009AF80000002800F08B81BC1C0235C0F1FB
:100F8000000A4FF001084FF0010900BF14F8016B8F
:100F900021462A4616F03F0000F107004FEAD0072D
:100FA000304608BF082702F0C7FC09EB070016F01F
:100FB00080011CBF3D44B8443C441AF1010A00F1D1
:100FC0000109E3D14FEA094066E19AF8000040F2D6
:100FD0002011C2F201010028887615D0BB1C002721
:100FE0001C310022DE5D01EB4705CE550137B842CA
:100FF0002A813244F6D10023CF5CD21B01EB430798
:1010000001333A839842F7D14FF48032002102EB4A
:1010100000402170013000F07FBD40F22010C2F28C
:1010200001000178022940F0A8809AF80010827E21
:10103000C176914280F0A1800E2001F031FE02F0D5
:10104000B7FA00216970010AA870E970010C000E5E
:10105000297168710520C0F2010000F05DBD5046A5
:10106000214606F02CFD00F057BD5046214606F003
:10107000D8FC00F051BD5046214606F0A6FB00F01A
:101080004BBD5046214606F0BDFB00F045BD204655
:1010900006F0EDFC00F040BD5046214606F0F0FBA6
:1010A00000F03ABD4FF0000B84F800B09AF8000051
:1010B000002800F0F580BC1C0235C0F101060120BB
:1010C0004FF00109059000BF14F8017B17F03F00B5
:1010D00000F107004FEAD00808BF4FF0080817F0EA
:1010E000800A06D04FF40070CDF828B0CDE9060B89
:1010F00006E04FF40070CDF828B00690012007906C
:101100000320CDF820B009900020C4F2020000F5C1
:10111000A05006A901F0D2F8384621462A4604F02C
:101120006FFE8EB94FF40070CDF828B00690012004
:10113000CDE9070B032009900020C4F2020000F55E
:10114000A05006A901F0BAF8BAF1000F06D0059830
:1011500009F1010940444544059004E009EB080009
:10116000444400F101090136012EADD19CE0504606
:10117000214606F001FC00F0CFBCFF20207081E08A
:10118000FD2A00F05183FE2A00F05483FF2A40F02C
:1011900054834FF40070688002204EE371D140F216
:1011A00020100594C2F201000221017000200A9073
:1011B0004FF0400B1120CDF818B040F20009079015
:1011C000012503200895C4F20209099006AE46F6EF
:1011D0008014484631460027CFF6677401F06EF858
:1011E0004FF4007AC9F818B0CDE906A509F5A05565
:1011F00008972846314601F061F84FF6180841F685
:101200000047CFF6FF78C4F2020747F808A04FF472
:10121000807A2846CDF818A0314601F04FF83846BC
:1012200047F808A03146CDF818B001F047F804257A
:10123000C7F818B000200695079009F58060314680
:1012400001F03CF809F540600695314601F036F8AA
:10125000802006903846314601F030F80220069092
:101260004846314601F02AF84FF48000C9F81800CA
:1012700000BF00BF0134FBD14020C9F8180002258F
:10128000059C25704FF0011000F046BCFF20B9E22C
:101290004FF001084FF4803040EA080000F03CBCF9
:1012A00001204FF001090590059840EA094000F03F
:1012B00033BCB878C0074FF0020008BF012040F2ED
:1012C0007411C2F201010870002101202170C0F2E6
:1012D000020000F021BCFF21F7E740F26410C2F2E7
:1012E00001004FF0000880F8008005F103097878CC
:1012F000917ED076884280F07B8297F8028007F159
:10130000030BB8F1000F00F0E2820027052300264E
:1013100000200021CDE904940391D9463C4619F8F8
:10132000017B3A4663F35F02B90702921ED4002E96
:1013300040D00A2C019602D00A2001F0B1FC40F204
:101340002010C2F20100008AC6430E2006A902F056
:10135000B7FB022835D1013600F0438340F2641018
:10136000C2F2010000780028EFD03AE32EB340F239
:1013700020100196C2F20100068A17F010000090BA
:1013800008BF94425FD00A2C02D00A2001F088FCEA
:10139000F6430E2006A902F093FB022865D1013620
:1013A00000F0378340F26410C2F201000078002898
:1013B000EFD02EE3DDF8109018E007F010010026C2
:1013C0008CE00128019E4FF0050340F0B48306989D
:1013D0000A24049A1070000A5070111DBDF81A00FA
:1013E000894690709DF81B00D070029ADBF80100CE
:1013F000B9060BF1050B06901DD4944202D0029859
:1014000001F04EFC40F22010CDF81090C2F2010025
:10141000008AC643384606A902F052FB022827D1AB
:10142000013600F0818340F26410C2F201000078BE
:101430000028EFD078E340F22011C2F2010100262B
:101440004861012076E0F643384606A902F038FBF1
:10145000022816D1013600F06A8340F26410C2F20D
:10146000010000780028EFD061E30A24002609E09B
:10147000012840F06483380600F1CD800026012069
:10148000C5E0019E01284FF0050340F05283069805
:10149000002E049A10704FEA1020507002F10401DF
:1014A000BDF81A0090709DF81B00D07011D038065E
:1014B00010D540F22010049AC2F201008068010A9F
:1014C0005171010C1071000E917102F10801D0717F
:1014D00000E0002604910120029A009931B340F205
:1014E00020100196C2F20100B0F812909442DBF88D
:1014F00001400BF1050B02D0029801F0D1FB40F244
:101500002010C2F20100008AC6430021384602F0D2
:10151000D7FA022810D1013600F0ED8240F26410B3
:10152000C2F2010000780028EFD0E4E2B6B3CB4667
:10153000DDF81090274693E0012840F0DD8240F26C
:101540002010C2F20100008AC643384606A902F004
:10155000B7FA022809D101363ED040F26411C2F236
:10156000010109780029F0D036E0012834D140F299
:1015700020120699C2F201025269B9F1000F01EA84
:10158000020118BFA1422ED040F26412C2F2010241
:101590001278A9F10109002AD1D024E0944202D0A6
:1015A000029801F07DFB40F22010C2F20100008A97
:1015B000C6430021384602F083FA02281FD10136C3
:1015C00000F0258340F26410C2F201000078002888
:1015D0004FF00200EDD01DE340F220120699C2F256
:1015E000010252691140A14240F01E83012840F0DF
:1015F00083820120DDF81090DDE901672FE00128EA
:1016000040F00D83380617D401200126CB46029FF7
:10161000DDF8109023E040F22010049BC2F201009C
:1016200080680026010A1870020C5970000E9A702A
:10163000191DD870012010E040F22010049FC2F262
:10164000010080680126010A3870020C7970030ECF
:10165000BA70391DFB700120CB468946029F0523D5
:1016600040F26411CDF81090C2F20101097800290E
:10167000039901F10101039140F0CF82B8F1010813
:101680007FF44BAE72E2B978F81C69B14942027836
:10169000930701D4052204E0D2064FF0050258BF9B
:1016A000012201311044F2D1A0EB0A000021000414
:1016B000A5F8011002302FE240F264180594C2F23E
:1016C00001084FF0000B88F800B02A1D9AF80000BE
:1016D000B17EF076884280F00681B878F97840EAE9
:1016E0000129B9F1000F00F0FC803C79049204F06C
:1016F000010002900A3001F0D3FAA00700F128811E
:10170000CDF80C904FF0000B0DF11809308A039AB8
:101710005AF8041F013AC6430392069120464946EF
:1017200002F0CEF9022807D1013600F0BE8198F808
:1017300000000028F2D0B8E1012840F0B7810398FA
:1017400040F2201600280BF1010BC2F20106DDD198
:10175000029810B10A2001F0A3FA40F22010C2F260
:101760000100008AC4430E20002102F0A9F90228DA
:1017700040F09C81013400F0988198F80000002826
:101780004FF00200EFD091E10020A5F80100E870D1
:101790000320A2E19AF80010827EC176914208D21D
:1017A000082001F07DFAD7F8020003F0B5F9FFF741
:1017B0007BB8FF2001212070C0F2020101F540300A
:1017C000AAE14FF2FF21C0F26F610144B1FBF0F0DA
:1017D00040F220120021C2F20102032851700AD304
:1017E0004AF6AB21CAF6AA21A0FB0101480803E092
:1017F00007F1020B6DE0012040F22011C2F201015D
:101800004860002001212070C0F2020101F5003083
:1018100082E13020888042F63260C2F63060086093
:1018200006200AE0372006E04FF40060C5F8020009
:10183000042002E0082008700120207000F102104E
:101840006CE10020DDF814805EE100203DE1E0075E
:1018500040F092804FF0000B0DF118090499E00759
:10186000A1F10101204618BF0E2004910029318A00
:10187000B24608BF0446CE432046494604F0BCFBAE
:10188000022806D101361DD098F800000028F3D0B8
:1018900018E0012840F0188106980BF1010B010AAD
:1018A000039B59705646BDF81A109970191D9DF882
:1018B0001B20187004980028DA704FF00100039183
:1018C000CCD102E10220FFE0022044460FE04FF0BD
:1018D00000080020ABEB0A0185F80180A9EB0402A7
:1018E00017E14FF0000B0020E1E000240220B9F1E5
:1018F000000F0FD000219BF80020930701D4052290
:1019000004E0D2064FF0050258BF0122013189459B
:101910009344F0D10128DDF8148040F0F280002CCF
:1019200040D040F22010C2F20100008A06AFC4434A
:101930000E20394604F060FB022855D101344ED008
:1019400040F26410C2F2010000780028F0D046E0B6
:10195000308A4FF0000BC6430021204602F0B0F859
:1019600002285AD1013603D098F800000028F3D09D
:1019700002204FF0000B99E0308AB1464FF0000B87
:10198000C6430021204604F037FB022840F098802F
:10199000013603D098F800000028F2D002204FF062
:1019A000000B91E00298002800F0AA8040F220107D
:1019B000C2F20100008AC4430E20002104F01CFB87
:1019C000022840F09E80013409D040F26410C2F237
:1019D0000100007800284FF00200EDD091E00220D5
:1019E0008FE00A27022089E0012840F08A800698CB
:1019F0005E46039A1070111D06980B46000A50703F
:101A0000BDF81A0090709DF81B00D0700120049A58
:101A10007AE00A270026022094E0012846D10298A5
:101A2000CA4680F0010304994FF0000B03930DF1B7
:101A3000180950460491BAF1010082460CBF0E24E9
:101A40000120184340F220160028C2F2010603D1FB
:101A50000A2001F025F90E24308AC6432046494663
:101A600002F02EF8022808D101361ED098F80000A6
:101A700000284FF00200F1D018E0012816D1069896
:101A80000BF1010B010A049B59701A1DBDF81A10C5
:101A9000BAF1000F99709DF81B1018704FF00100FB
:101AA000D9701146039BC4D101E00220049A4FEA89
:101AB0001B2185F801B0A970E8700598101A0CE098
:101AC00001284E463FF4C6AE03994FEA1B2285F823
:101AD00001B0AA70E8700598081A3979890707D407
:101AE000B978FA7841EA0221013140EA814013E0F5
:101AF00040F4802010E00220D946029F019E21E0A0
:101B000001205E46DDE90332A6EB0A016A70A3EB11
:101B10000802A87042EA014000F101100BB0BDE8D4
:101B2000F08F02203446E2E60026022008E0022080
:101B3000019E274606E00A2704E00024D7E6002697
:101B4000D946029FB8F1000F0FD0002199F800206C
:101B5000930701D4052204E0D2064FF0050258BFD6
:101B60000122013188459144F0D1CB460128059CE2
:101B70001ED10A2FDDE9038902D00A2001F090F876
:101B800040F22010C2F20100008AA6B1C64306AF9F
:101B90000E20394601F094FF022822D101361ED0D2
:101BA00040F26410C2F2010000780028F0D016E084
:101BB000DDE903898EE6C6430E20002101F080FF97
:101BC00002287FF487AE013609D040F26410C2F2D9
:101BD0000100007800284FF00200EDD07AE60220E4
:101BE00078E601287FF476AE069809F1040189F8B9
:101BF0000000000A89F80100BDF81A0089F8020007
:101C00009DF81B0089F803000120894662E6002642
:101C1000022096E7029F002694E7D94692E7002625
:101C20008FE740F0100062E640F0100064E7FF220A
:101C30004FF001100A70704740F22010C2F201000C
:101C4000002102220180426064220173C0E9042164
:101C5000012202838176704743F6362A43F64027F5
:101C600042F6302543F63C2644F65E2B44F65428D3
:101C7000C2F2010AC2F20107C2F201057F24C2F2D8
:101C80000106C2F2010BC2F2010800BF812000214F
:101C90004FF0FF3209F0F2FE88E000BFB7F8009085
:101CA0004FEA4920285C7E281BD105EB492000BF64
:101CB000047009F101003188B0F1080918BF8146AC
:101CC000894507D1812000214FF0FF3209F0D6FE6F
:101CD000000606D44FEA4920285C7E2805EB4920FF
:101CE000E6D0388843F65222BBF80010C2F2010257
:101CF00005EB402002EB4121FEF7C6FC388801309D
:101D000038803888082804BF00203880BAF80000DE
:101D10000130AAF80000BBF800000130ABF8000069
:101D2000BBF80000082804BF0020ABF80000B8F89A
:101D300000000130A8F8000044F65B20C2F2010068
:101D4000007898B344F65821B8F80000C2F20101B7
:101D5000098888422AD044F66220C2F20100024675
:101D60000088411C11801188082905D144F662229F
:101D70000021C2F20102118044F65821C2F2010191
:101D80000A4609884FF400730131118044F65B2242
:101D90000021C2F20102117043F65221C2F2010188
:101DA00001EB4022002000210CF040FC43F63220E1
:101DB000C2F201000088BAF8001088427FF46EAFCA
:101DC00064E7000043F6342A43F63E2B40F6302504
:101DD00043F63A2644F65C2744F65228C2F2010A3A
:101DE000C2F2010BC2F201057F24C2F20106C2F267
:101DF0000107C2F2010800BF812000214FF0FF322D
:101E000009F03CFEB3E000BFBBF800904FEA492068
:101E1000285C7E281BD105EB492000BF047009F126
:101E200001003188B0F1080918BF8146894507D102
:101E3000812000214FF0FF3209F020FE000606D479
:101E40004FEA4920285C7E2805EB4920E6D0BBF804
:101E5000000041F630223988C2F2010205EB402031
:101E600002EB4121FEF710FC398843F64222C2F210
:101E7000010222F81100BBF800000130ABF80000AD
:101E8000BBF80000082804BF0020ABF80000BAF837
:101E900000000130AAF8000043F63820C2F2010029
:101EA0000078C8B143F63020C2F201000088BAF8C9
:101EB0000010401A80B208280ED043F638210020C6
:101EC000C2F201010870012130884FF4007305EB64
:101ED000402200200CF024F93888013038803888FE
:101EE000082804BF00203880B8F800000130A8F8A6
:101EF000000044F65A20C2F201000078B8B344F65C
:101F00005621B8F80000C2F20101098888422ED09B
:101F100044F66020C2F2010002460088411C118094
:101F20001188082905D144F660220021C2F201027D
:101F3000118044F65621C2F201010A460988013196
:101F4000118044F65A220021C2F20102117043F6B8
:101F50004221C2F2010131F8103041F63021C2F2C3
:101F6000010101EB4022002081210CF0FBF843F637
:101F70003020C2F201000088BAF8001088427FF4D5
:101F800043AF39E781B000F13E4000F1FF704FEA06
:101F9000B020082800F27480DFE800F005111D2948
:101FA00035414D59650043F63000C4F20200016826
:101FB00041F001010160006800F001005EE043F6BD
:101FC0003000C4F20200016841F0020101600068C3
:101FD00000F0020052E043F63000C4F20200016853
:101FE00041F004010160006800F0040046E043F69F
:101FF0003000C4F20200016841F00801016000688D
:1020000000F008003AE043F63000C4F20200016834
:1020100041F010010160006800F010002EE043F66E
:102020003000C4F20200016841F020010160006844
:1020300000F0200022E043F63000C4F20200016804
:1020400041F040010160006800F0400016E043F6F6
:102050003000C4F20200016841F0800101600068B4
:1020600000F080000AE043F63000C4F2020001688C
:1020700041F480710160006800F480700090009865
:1020800001B070472DE9F04381B040F69910C2F2DB
:1020900001000078012821D140F6A51540F69019DD
:1020A00040F6941640F69817C2F201054FF000086A
:1020B000C2F20109C2F20106C2F2010785F80080EE
:1020C000D9F8000031683A78441A012A02D105F0A3
:1020D0009FFE044428780028F0D10AE040F69010D2
:1020E00040F69411C2F20100C2F2010100680968D1
:1020F000441A204601B0BDE8F083000070B50446E4
:10210000866D00F0B3F994F8351002292DD10546FB
:102110002068216C0268002922F0160202604269E0
:1021200022F08002426101D1A16C19B1016821F055
:1021300008010160016821F00101016006E000BFB3
:1021400000F094F9401B052816D820680068C007E5
:10215000F6D1E06D3F2101FA00F0B06000200121CE
:1021600084F8340084F8351070BD8020606500204C
:1021700084F83400012070BD20206065002084F8C0
:102180003400032084F8350070BD0000B0B504466B
:1021900000F06CF940F21811C2F20101054609780D
:1021A000621C18BF0C4400BF00F060F9401BA04245
:1021B000FAD3B0BD2DE9F04F81B000F13E4241F6B7
:1021C000004702F1FF72C4F2020708264FEAB22369
:1021D000B84208BF072643F6004B072B38BF4FEA2B
:1021E000B226C4F2010B009600234FF00109ABF5B3
:1021F0007E7C0026002700BF09FA07F50D4253D068
:102200004FEA970806F00C0A5CF828E00F22009CC1
:1022100002FA0AF90EEA090204FA0AF4A2421FD1EC
:102220005CF828206FEA050E22EA09024CF8282003
:10223000DBF80020AA43CBF80020DBF80420AA43F7
:10224000CBF80420DBF80820AA43CBF8082043F69B
:102250000C42C4F2010214461268AA43226001E053
:102260006FEA050E032204689A4024EA02086FF020
:102270000304C0F8008004EA570406F01C0A044472
:102280000F2505FA0AF8256A25EA080525624FF0A8
:102290000109846894438460446804EA0E0545603B
:1022A000C56825EA0202C26001370436102F03F127
:1022B0000203A1D101B0BDE8F08F00002DE9F04F7D
:1022C00082B000F13E4241F6004702F1FF72C4F2D3
:1022D000020708264FEAB223B84208BF0726072B99
:1022E00038BF4FEAB22643F6440A009643F6004C44
:1022F00000234FF0010B0026C4F2020AC4F2010CC5
:10230000002400BF0BFA04FE0F6817EA0E0F00F05E
:102310009880D1F8048048F01007122F14D16FF084
:10232000030202EA5407074406F01C02D7F8208093
:102330000F25954028EA05080D6905FA02F242EAE0
:1023400008023A62D1F80480032502689D4008F033
:102350000307AA439F403A43B8F1120F02606FEAA5
:10236000050913D80BFA08F212F0061F0ED0826886
:10237000CD6802EA09029D402A4382604268C8F3A0
:10238000001522EA0E02A5402A434260C2688D6809
:1023900002EA09029D402A435FEAC805C26050D59F
:1023A000DAF8002024F0030542F48042CAF8002045
:1023B0004FF60847DAF80020CFF6FF7702F48042A4
:1023C00001920CEB0502019DB94606F00C0552F88E
:1023D00007800F27AF4028EA0708009F07FA05F596
:1023E00045EA080542F80950DCF800804D6848EAE3
:1023F0000E07EA0358BF28EA0E07CCF80070AA03BC
:10240000DCF8048048EA0E0758BF28EA0E07CCF82B
:102410000470DCF80880EA0248EA0E0743F60C4232
:1024200058BF28EA0E07CCF80870C4F201029046A3
:10243000126842EA0E07AD0258BF22EA0E07C8F83A
:10244000007001340436102C03F102037FF45AAFFC
:1024500002B0BDE8F08F0069084018BF0120704746
:10246000002A08BF090481617047000080B508F0A8
:1024700039FD022803D1BDE8804008F049BD40F293
:102480001000C2F2010000680021B1EB903F0FD0B4
:10249000800B404200BF00BF00BF00BF00BF00BFB5
:1024A00000BF00BF00BF00BF00BF00BF0130F1D1BF
:1024B00040F27011C2F2010108680130086080BD6D
:1024C00080B543F60040C4F20200016841F4007197
:1024D0000160016841F480710160032000F0BCF8E4
:1024E0000F2000F004F800F078F8002080BDB0B5AF
:1024F00040F21811C2F2010109784FF47A720446D1
:10250000B2FBF1F140F21002C2F201021268B2FB1A
:10251000F1F1084600F073FB0F2C4FF001050CD8C9
:1025200058B94FF0FF3000222146002500F069F82D
:1025300040F21C10C2F2010004602846B0BD0278CF
:102540004EF6985C4378CEF2000C002ACCF80030AE
:1025500020D080B54368CCF80430037BC17A90F872
:102560000AE042EA0372437B42EA0161827B41EA6C
:10257000CE4190F80FE041EA8341437A41EA42417B
:10258000007A41EA0E4141EA032141EA4000BDE8F8
:10259000804002E00020CCF80400CCF8080070472E
:1025A0004EF62450BFF35F8FCEF20000016821F495
:1025B000803101600021016770474EF6245140F0E0
:1025C0000100CEF200010867086840F4803008601E
:1025D000BFF34F8FBFF36F8F7047704700280FDB3B
:1025E00000F01F01012202FA01F14EF280124009AF
:1025F000CEF2000242F82010BFF34F8FBFF36F8F6F
:10260000704710B54EF60C5CCEF2000CDCF80030D2
:10261000C3F3022E8EF00704042C28BF0424BEF15D
:1026200003034FF0FF3E38BF00230EFA04F4A1432A
:1026300099400EFA03F39A4300F00F03043B114351
:10264000634409010C3300F16042B0F1FF3FC8BFA1
:1026500002F56443197010BD4EF60C51CEF2000124
:102660000A684FF6FF031A4060F30A2242F08060C6
:1026700040F0FD7008607047B0B582B043F640008E
:10268000C4F20200016847F2000541F08051016088
:10269000C4F20005006800F080500190019828689D
:1026A00040F480302860FFF7E1FE04466868C0030C
:1026B00006D4FFF7DBFE001BB0F57A7FF6D910E0F9
:1026C000286840F400302860FFF7D0FE044600BFC1
:1026D0006868800307D4FFF7C9FE001BB0F57A7F56
:1026E000F6D9032000E0002002B0B0BD2DE9F04192
:1026F000002800F0968043F60007C4F20207044663
:10270000D7F8000400F00F00884688420DD2D7F8B1
:10271000000420F00F0040EA0800C7F80004D7F8D2
:10272000000400F00F0040457BD12068810711D5DF
:10273000410703D5B96841F4E051B960010703D5F9
:10274000B96841F46041B960B96821F0F001A2684C
:102750001143B960C00728D06068012803D13968E7
:10276000890308D45DE00228396802D1890102D4C6
:1027700057E0890755D5B96821F003010843B860CF
:10278000FFF774FE064641F2883500BFB86800F0D6
:102790000C006168B0EB810F07D0FFF767FE801B6C
:1027A000A842F3D90320BDE8F081D7F8000400F077
:1027B0000F0040450DD9D7F8000420F00F0040EA83
:1027C0000800C7F80004D7F8000400F00F004045E7
:1027D00027D12068410705D5B96821F4E051E268A6
:1027E0001143B960000706D5B86820F4604021693C
:1027F00040EAC100B86000F03DF8B9684FF22452D9
:10280000C1F30311C0F60002515CC84040F2100150
:10281000C2F2010108600F20FFF769FE0020BDE849
:10282000F0810120BDE8F08140F2100043F608017C
:10283000C2F20100C4F20201006809684FF234528A
:10284000C1F38221C0F60002515CC840704740F2DB
:10285000100043F60801C2F20100C4F20201006850
:1028600009684FF23452C1F34231C0F60002515CA4
:10287000C840704710B543F60404C4F2020460680F
:1028800000F00C00082806D0042823D147F64000A9
:10289000C0F27D1010BD22680023206802F03F02C4
:1028A0004002216847F64000C1F38811C0F27D1054
:1028B0005CBF42F20040C0F2F400A0FB0101FDF752
:1028C0000DFD21680222C1F3014102EB4101B0FB81
:1028D000F1F010BD42F20040C0F2F40010BD000063
:1028E0002DE9F04182B0002800F0B980044600785C
:1028F00043F60006C007C4F202064CD0B06800F0F0
:102900000C00042817D0B06800F00C00082802D191
:10291000706840020FD4606898B1B0F5803F06D06F
:10292000B0F5A02F306822D140F4802030603068AC
:1029300040F4803021E0306880032CD5606850BBC3
:102940008DE0306820F480303060306820F48020E2
:102950003060FFF78BFD0546306880031BD5FFF71D
:1029600085FD401B64284FF00300F5D944E120F4B5
:1029700080303060306820F480203060FFF776FDD2
:10298000054600BF3068800305D4FFF76FFD401B8C
:102990006428F7D9FEE0207880072DD5B06810F0C4
:1029A0000C0F07D0B06800F00C00082809D170683F
:1029B000400206D43068800717D5E068012814D09B
:1029C0004DE0E0680028306800F0A38040F001008E
:1029D0003060FFF74BFD05463068800705D4FFF7F0
:1029E00045FD401B0228F7D9D4E0306820F0F800FC
:1029F000216940EAC10030602078000723D5606972
:102A00000028706F0FD040F001007067FFF72EFDB7
:102A1000054600BF706F800715D4FFF727FD401BE8
:102A20000228F7D9B6E020F001007067FFF71EFD1D
:102A3000054600BF706F800705D5FFF717FD401BE7
:102A40000228F7D9A6E0207840070AD4A569002D0E
:102A500000F0D180B06800F00C00082838D10120C7
:102A6000CAE0306CC0000BD4306C4FF0010840F06D
:102A700080503064306C00F080500190019801E08B
:102A80004FF0000847F20007C4F200073868C0059D
:102A90000FD4386840F480703860FFF7E7FC0546D3
:102AA0003868C00505D4FFF7E1FC401B6428F7D95E
:102AB00070E0A06800283FD0012805D00528306FBD
:102AC00053D140F004003067306F40F0010052E015
:102AD000306820F080703060FFF7C8FC022D05469A
:102AE0000CD100BF306880015FD5FFF7BFFC401BF1
:102AF00002284FF00300F5D97EE000BF3068800166
:102B000079D5FFF7B3FC401B03284FF00300F5D342
:102B100072E020F001003060FFF7A8FC054600BF1E
:102B2000306880077FF568AFFFF7A0FC401B0228E4
:102B30004FF00300F4D95FE0306F20F00100306700
:102B4000306F20F004003067FFF790FC054641F23B
:102B5000883700BF306F80071ED5FFF787FC401B0A
:102B6000B8424FF00300F5D946E020F0010030678D
:102B7000306F20F004003067FFF778FC054641F223
:102B8000883700BF306F800706D4FFF76FFC401B0B
:102B9000B842F7D903202FE0B8F1000F3FF456AF49
:102BA000306C20F08050306450E7A06A4FF6FF711F
:102BB000C003E2698843216A636A1143E26A41EA19
:102BC0008311A0F5803041EA0261084340F00050D3
:102BD0007060306840F080703060FFF747FC04465A
:102BE0003068800107D4FFF741FC001B02284FF03A
:102BF0000300F5D900E0002002B0BDE8F081411EDD
:102C00000020B0EB116F01D0012070474EF210028E
:102C1000CEF2000251604EF62351CEF20001F023B5
:102C20000B700721906011607047000000000000E9
:102C300080B584B044F6E430C2F2010002210160A4
:102C400045F2C111C0F6000101220023019008469F
:102C50001146019A08F048FF40F27811C2F20101D2
:102C600008600868002812D0FFE740F27810C2F22E
:102C7000010000687D2108F04FFF029002980028B3
:102C800004D0FFE74FF0FF30039003E0FFE70020A0
:102C90000390FFE7039804B080BD0000000000002F
:102CA00080B582B00146019040F22010C2F20100CE
:102CB00040780028009104D0FFE7019800F008F860
:102CC00003E0019800F058F9FFE702B080BD000072
:102CD00080B589B00146029041F21840C4F202006A
:102CE0004FF40072026041F61842C4F202024FF43F
:102CF000800313604FF0400CC2F800C01360C2F8AC
:102D000000C04FF0007EC0F800E01360C2F800C0C1
:102D10001360C2F800C0012008909DF82000C00791
:102D20000028009108D0FFE741F21840C4F20200E9
:102D30004FF48071016007E041F21840C4F20200D4
:102D40004FF080710160FFE740F22010C2F20100F5
:102D5000C17E00EB4100808C0190FFE701980028C4
:102D60000ED0FFE741F61840C4F202004FF4800194
:102D7000016040210160FFE7019801380190EDE713
:102D800040F22010C2F20100C17E0844007F0138E9
:102D90000190FFE70198002829D0FFE702980790EB
:102DA0009DF81C00C007002808D0FFE741F218403A
:102DB000C4F202004FF48071016007E041F2184054
:102DC000C4F202004FF080710160FFE741F6184045
:102DD000C4F202004FF480010160402101600298BA
:102DE00040080290FFE7019801380190D2E740F2D5
:102DF0002010C2F20100C17E00EB4100808E0190E4
:102E00000198002860D0FFE7029806909DF818000E
:102E1000C007002808D0FFE741F21840C4F20200C2
:102E20004FF48071016007E041F21840C4F20200E3
:102E30004FF080710160FFE741F61840C4F20200D4
:102E40004FF48001016040210160012005909DF850
:102E50001400C007002808D0FFE741F21840C4F270
:102E600002004FF48071016007E041F21840C4F2A3
:102E700002004FF080710160FFE701980138019076
:102E8000FFE7019800280ED0FFE741F61840C4F292
:102E900002004FF48001016040210160FFE70198CA
:102EA00001380190EDE741F21840C4F202004FF4FE
:102EB0000071016041F61840C4F202004FF4800135
:102EC00001604021016028E041F21840C4F2020094
:102ED0004FF400710160029804909DF81000C00743
:102EE000002808D0FFE741F21840C4F202004FF476
:102EF0008071016007E041F21840C4F202004FF017
:102F000080710160FFE741F61840C4F202004FF4FF
:102F10008001016040210160FFE741F61840C4F2E2
:102F200002004FF4800101604022026041F2184328
:102F3000C4F202034FF0007CC3F800C001600260DD
:102F4000012003909DF80C00C007002808D0FFE77F
:102F500041F21840C4F202004FF48071016007E0B2
:102F600041F21840C4F202004FF080710160FFE7A7
:102F700009B080BD00000000B9B00146029041F2E6
:102F80001840C4F202004FF40072026041F618408B
:102F9000C4F202004FF48002026040F22010C2F23C
:102FA000010040683890389837900091FFE73798D3
:102FB00001383790002801D0FFE7F8E741F61840C4
:102FC000C4F202004021016040F22010C2F2010070
:102FD0004068369036983590FFE73598013835903F
:102FE000002801D0FFE7F8E741F61840C4F20200DC
:102FF0004FF48001016040F22010C2F201004068ED
:10300000349034983390FFE7339801383390002898
:1030100001D0FFE7F8E741F61840C4F20200402172
:10302000016040F22010C2F20100406832903298F4
:103030003190FFE7319801383190002801D0FFE747
:10304000F8E741F21840C4F202004FF0007101604D
:1030500041F61840C4F202004FF48001016040F2D2
:103060002010C2F201004068309030982F90FFE7A6
:103070002F9801382F90002801D0FFE7F8E741F69C
:103080001840C4F202004021016040F22010C2F258
:10309000010040682E902E982D90FFE72D98013862
:1030A0002D90002801D0FFE7F8E741F61840C4F260
:1030B00002004FF48001016040F22010C2F20100D2
:1030C00040682C902C982B90FFE72B9801382B9080
:1030D000002801D0FFE7F8E741F61840C4F20200EB
:1030E0004021016040F22010C2F2010040682A90A5
:1030F0002A982990FFE7299801382990002801D0C3
:10310000FFE7F8E7012028909DF8A000C0070028FD
:1031100008D0FFE741F21840C4F202004FF480717A
:10312000016007E041F21840C4F202004FF08071E4
:103130000160FFE740F22010C2F20100C17E00EB07
:103140004100808C0190FFE70198002832D0FFE712
:1031500041F61840C4F202004FF48001016040F2D1
:103160002010C2F201004068279027982690FFE7C0
:10317000269801382690002801D0FFE7F8E741F6AD
:103180001840C4F202004021016040F22010C2F257
:1031900001004068259025982490FFE72498013885
:1031A0002490002801D0FFE7F8E7FFE701980138F5
:1031B0000190C9E740F22010C2F20100C17E08442C
:1031C000007F01380190FFE7019800284DD0FFE70C
:1031D000029823909DF88C00C007002808D0FFE7D4
:1031E00041F21840C4F202004FF48071016007E020
:1031F00041F21840C4F202004FF080710160FFE715
:1032000041F61840C4F202004FF48001016040F220
:103210002010C2F201004068229022982190FFE71E
:10322000219801382190002801D0FFE7F8E741F606
:103230001840C4F202004021016040F22010C2F2A6
:1032400001004068209020981F90FFE71F980138E8
:103250001F90002801D0FFE7F8E70298400802908D
:10326000FFE7019801380190AEE740F22010C2F26A
:103270000100C17E00EB4100808E01900198002882
:1032800000F0CD80FFE702981E909DF87800C007FF
:10329000002808D0FFE741F21840C4F202004FF4C2
:1032A0008071016007E041F21840C4F202004FF063
:1032B00080710160FFE741F61840C4F202004FF44C
:1032C0008001016040F22010C2F2010040681D90B0
:1032D0001D981C90FFE71C9801381C90002801D015
:1032E000FFE7F8E741F61840C4F202004021016010
:1032F00040F22010C2F2010040681B901B981A9007
:10330000FFE71A9801381A90002801D0FFE7F8E784
:10331000012019909DF86400C007002808D0FFE73D
:1033200041F21840C4F202004FF48071016007E0DE
:1033300041F21840C4F202004FF080710160FFE7D3
:10334000019801380190FFE70198002832D0FFE78B
:1033500041F61840C4F202004FF48001016040F2CF
:103360002010C2F201004068189018981790FFE7EB
:10337000179801381790002801D0FFE7F8E741F6C9
:103380001840C4F202004021016040F22010C2F255
:1033900001004068169016981590FFE715980138BF
:1033A0001590002801D0FFE7F8E7FFE70198013802
:1033B0000190C9E741F21840C4F202004FF40071D5
:1033C000016041F61840C4F202004FF48001016030
:1033D00040F22010C2F2010040681490149813903B
:1033E000FFE7139801381390002801D0FFE7F8E7B2
:1033F00041F61840C4F202004021016040F2201062
:10340000C2F201004068129012981190FFE71198E3
:1034100001381190002801D0FFE7F8E74CE041F2B5
:103420001840C4F202004FF400710160029810903D
:103430009DF84000C007002808D0FFE741F218407F
:10344000C4F202004FF48071016007E041F21840BD
:10345000C4F202004FF080710160FFE741F61840AE
:10346000C4F202004FF48001016040F22010C2F269
:10347000010040680F900F980E90FFE70E980138FA
:103480000E90002801D0FFE7F8E741F61840C4F29B
:1034900002004021016040F22010C2F201004068A9
:1034A0000D900D980C90FFE70C9801380C900028B7
:1034B00001D0FFE7F8E7FFE741F61840C4F2020049
:1034C0004FF48001016040F22010C2F20100406818
:1034D0000B900B980A90FFE70A9801380A90002891
:1034E00001D0FFE7F8E741F61840C4F2020040219E
:1034F000016040F22010C2F2010040680990099872
:103500000890FFE7089801380890002801D0FFE7ED
:10351000F8E741F21840C4F202004FF00071016078
:1035200041F61840C4F202004FF48001016040F2FD
:103530002010C2F201004068079007980690FFE74C
:10354000069801380690002801D0FFE7F8E741F619
:103550001840C4F202004021016040F22010C2F283
:1035600001004068059005980490FFE70498013831
:103570000490002801D0FFE7F8E7012003909DF8B0
:103580000C00C007002808D0FFE741F21840C4F241
:1035900002004FF48071016007E041F21840C4F26C
:1035A00002004FF080710160FFE739B07047000002
:1035B000A3B041F21840C4F202004FF40071016060
:1035C00041F61840C4F202004FF48001016040F25D
:1035D0002010C2F201004068229022982190FFE75B
:1035E000219801382190002801D0FFE7F8E741F643
:1035F0001840C4F202004021016040F22010C2F2E3
:1036000001004068209020981F90FFE71F98013824
:103610001F90002801D0FFE7F8E741F21840C4F2FC
:1036200002004FF00071016041F61840C4F2020040
:103630004FF48001016040F22010C2F201004068A6
:103640001E901E981D90FFE71D9801381D900028C0
:1036500001D0FFE7F8E741F61840C4F2020040212C
:10366000016040F22010C2F2010040681C901C98DA
:103670001B90FFE71B9801381B90002801D0FFE743
:10368000F8E741F61840C4F202004FF480010160EF
:1036900040F22010C2F2010040681A901A98199066
:1036A000FFE7199801381990002801D0FFE7F8E7E3
:1036B00041F61840C4F202004021016040F220109F
:1036C000C2F201004068189018981790FFE7179809
:1036D00001381790002801D0FFE7F8E740F22010EA
:1036E000C2F20100C07E0090FFE70098002832D0AF
:1036F000FFE741F61840C4F202004FF48001016078
:1037000040F22010C2F20100406816901698159001
:10371000FFE7159801381590002801D0FFE7F8E77A
:1037200041F61840C4F202004021016040F220102E
:10373000C2F201004068149014981390FFE71398A8
:1037400001381390002801D0FFE7F8E7FFE7009861
:1037500001380090C9E7002001901F200090FFE78A
:103760000098002842D0FFE741F61840C4F202005A
:103770004FF48001016040F22010C2F20100406865
:10378000129012981190FFE71198013811900028BB
:1037900001D0FFE7F8E740F61040C4F202000068ED
:1037A000C0F38000029041F61840C4F202004021AC
:1037B000016040F22010C2F20100406810901098A1
:1037C0000F90FFE70F9801380F90002801D0FFE716
:1037D000F8E70298019941EAC07001900198400809
:1037E0000190FFE7009801380090B9E741F21840D6
:1037F000C4F202004FF40071016041F61840C4F2B7
:1038000002004FF48001016040F22010C2F201007A
:1038100040680E900E980D90FFE70D9801380D90BE
:10382000002801D0FFE7F8E740F61040C4F202009C
:103830000068C0F38000029041F61840C4F2020014
:103840004021016040F22010C2F2010040680C905B
:103850000C980B90FFE70B9801380B90002801D0D3
:10386000FFE7F8E70298019941EAC070019041F63C
:103870001840C4F202004FF48001016040F22010B1
:10388000C2F2010040680A900A980990FFE709987F
:1038900001380990002801D0FFE7F8E741F6184009
:1038A000C4F202004021016040F22010C2F2010087
:1038B0004068089008980790FFE70798013807903C
:1038C000002801D0FFE7F8E741F21840C4F20200F7
:1038D0004FF00071016041F61840C4F202004FF44D
:1038E0008001016040F22010C2F2010040680690A1
:1038F00006980590FFE7059801380590002801D04B
:10390000FFE7F8E741F61840C4F2020040210160E9
:1039100040F22010C2F20100406804900498039025
:10392000FFE7039801380390002801D0FFE7F8E78C
:10393000019823B07047000080B591B013468C46C3
:1039400086460B900A9109920B9800F03F00059073
:10395000059800280393CDF808C0CDF804E003D102
:10396000FFE740200590FFE79DF82C004006002867
:1039700008D5FFE741F21840C4F202004FF400718D
:10398000016007E041F21840C4F202004FF00071FC
:103990000160FFE7FFE70598002800F08E80FFE751
:1039A0000A98411C0A91007808900020079008208E
:1039B0000490FFE7049800210028009106D0FFE75B
:1039C0000598002818BF01200090FFE70098C00765
:1039D000002860D0FFE7089810909DF84000C007CD
:1039E000002808D0FFE741F21840C4F202004FF46B
:1039F0008071016007E041F21840C4F202004FF00C
:103A000080710160FFE741F61840C4F202004FF4F4
:103A10008001016040F22010C2F2010040680F9066
:103A20000F980E90FFE70E9801380E90002801D0F5
:103A3000FFE7F8E740F61040C4F202000068C0F368
:103A40008000069041F61840C4F202004021016057
:103A500040F22010C2F2010040680D900D980C90C9
:103A6000FFE70C9801380C90002801D0FFE7F8E739
:103A7000089840080890079840080790069807990A
:103A800041EAC0100790FFE70498013804900598B8
:103A9000013805908EE70498079921FA00F0079005
:103AA0009DF82C000006002806D5FFE70798099925
:103AB0004A1C09920870FFE76DE711B080BD000055
:103AC00080B586B00A4603460490039140F2201068
:103AD000C2F20100407800280292019307D0FFE76C
:103AE0000498039900F010F88DF8170006E0049888
:103AF000039900F089FA8DF81700FFE79DF8170089
:103B000006B080BD0000000010B590B00A46034624
:103B10000890079141F21840C4F202004FF400717E
:103B2000016041F61841C4F202014FF4800CC1F863
:103B300000C04FF0400EC1F800E04FF00074046088
:103B4000C1F800C0C1F800E0C1F800C0C1F800E051
:103B500040F22010C2F20100C07E03900292019355
:103B6000FFE7039800280ED0FFE741F61840C4F2A3
:103B700002004FF48001016040210160FFE70398DB
:103B800001380390EDE7089840080F909DF83C003D
:103B9000C007002808D0FFE741F21840C4F2020035
:103BA0004FF48071016007E041F21840C4F2020056
:103BB0004FF080710160FFE741F61840C4F2020047
:103BC0004FF48001016040F61041C4F2020109681F
:103BD000C1F38001059140210160059840000690E5
:103BE000089880080E909DF83800C007002808D07B
:103BF000FFE741F21840C4F202004FF48071016007
:103C000007E041F21840C4F202004FF080710160F9
:103C1000FFE741F61840C4F202004FF48001016052
:103C200040F61041C4F202010968C1F38001059118
:103C30004021016005980699084306900898C0083D
:103C40000D909DF83400C007002808D0FFE741F22E
:103C50001840C4F202004FF48071016007E041F2A5
:103C60001840C4F202004FF080710160FFE741F696
:103C70001840C4F202004FF48001016040F6104188
:103C8000C4F202010968C1F380010591402101607D
:103C90000598069941EA800006900698012811D0FF
:103CA000FFE741F21840C4F202004FF400710160D6
:103CB00041F61840C4F202004FF480010160402137
:103CC00001604CE19DF820008007002840F19480BD
:103CD000FFE7002004901F200390FFE703980028CF
:103CE0001ED0FFE741F61840C4F202004FF48001F5
:103CF000016040F61041C4F202010968C1F380017D
:103D00000591402101600598049941EAC070049032
:103D1000049840080490FFE7039801380390DDE71A
:103D200040F22010C2F20100817EC07E081A0138E4
:103D300003900398002838D0FFE741F61840C4F2FA
:103D400002004FF48001016040F61041C4F202010C
:103D50000968C1F380010591402101600398013891
:103D60000390FFE7039800280ED0FFE741F61840C4
:103D7000C4F202004FF48001016040210160FFE7BE
:103D8000039801380390EDE741F21840C4F20200B5
:103D90004FF40071016041F61840C4F202004FF484
:103DA000800101604021016018E041F21840C4F236
:103DB00002004FF40071016041F61840C4F20200A5
:103DC0004FF48001016040F61041C4F2020109681D
:103DD000C1F38001059140210160FFE70598049936
:103DE00041EAC07004900798002804D0FFE70498C7
:103DF00007990860FFE7B1E00798006804901F206A
:103E00000390FFE70398002829D0FFE704980C905F
:103E10009DF83000C007002808D0FFE741F21840A5
:103E2000C4F202004FF48071016007E041F21840D3
:103E3000C4F202004FF080710160FFE741F61840C4
:103E4000C4F202004FF48001016040210160049837
:103E500040080490FFE7039801380390D2E740F24E
:103E60002010C2F20100817EC07E081A0138039042
:103E70000398002848D0FFE704980B909DF82C0089
:103E8000C007002808D0FFE741F21840C4F2020042
:103E90004FF48071016007E041F21840C4F2020063
:103EA0004FF080710160FFE741F61840C4F2020054
:103EB0004FF48001016040210160039801380390B4
:103EC000FFE7039800280ED0FFE741F61840C4F240
:103ED00002004FF48001016040210160FFE7039878
:103EE00001380390EDE741F21840C4F202004FF4AC
:103EF0000071016041F61840C4F202004FF48001E5
:103F000001604021016028E041F21840C4F2020043
:103F10004FF40071016004980A909DF82800C007D2
:103F2000002808D0FFE741F21840C4F202004FF425
:103F30008071016007E041F21840C4F202004FF0C6
:103F400080710160FFE741F61840C4F202004FF4AF
:103F50008001016040210160FFE7FFE7FFE741F6D4
:103F60001840C4F202004FF4800101604022026058
:103F700041F21843C4F202034FF0007CC3F800C0C2
:103F800001600260012009909DF82400C00700280C
:103F900008D0FFE741F21840C4F202004FF48071EC
:103FA000016007E041F21840C4F202004FF0807156
:103FB0000160FFE79DF820000006002809D5FFE713
:103FC00003F0FEFD40F2201EC2F2010ECEF8080002
:103FD000FFE740F22010C2F20100007B0390FFE7F0
:103FE0000398411E039100280AD0FFE741F61840CC
:103FF000C4F202004FF48001016040210160EFE74C
:104000009DF8180010B010BD80B5E4B00A46034614
:104010000890079141F21840C4F202004FF4007179
:10402000016041F61840C4F202004FF480010160C3
:1040300040F22010C2F201004068639063986290E1
:1040400002920193FFE7629801386290002801D044
:10405000FFE7F8E741F61840C4F202004021016092
:1040600040F22010C2F201004068619061986090B7
:10407000FFE7609801386090002801D0FFE7F8E77B
:1040800041F21840C4F202004FF00071016041F6A5
:104090001840C4F202004FF48001016040F2201089
:1040A000C2F2010040685F905F985E90FFE75E9803
:1040B00001385E90002801D0FFE7F8E741F618408C
:1040C000C4F202004021016040F22010C2F201005F
:1040D00040685D905D985C90FFE75C9801385C906B
:1040E000002801D0FFE7F8E741F61840C4F20200CB
:1040F0004FF48001016040F22010C2F201004068DC
:104100005B905B985A90FFE75A9801385A900028C4
:1041100001D0FFE7F8E741F61840C4F20200402161
:10412000016040F22010C2F2010040685990599895
:104130005890FFE7589801385890002801D0FFE7C1
:10414000F8E740F22010C2F20100C07E0390FFE7C2
:104150000398002832D0FFE741F61840C4F202006D
:104160004FF48001016040F22010C2F2010040686B
:10417000579057985690FFE7569801385690002868
:1041800001D0FFE7F8E741F61840C4F202004021F1
:10419000016040F22010C2F201004068559055982D
:1041A0005490FFE7549801385490002801D0FFE75D
:1041B000F8E7FFE7039801380390C9E7089840083B
:1041C00053909DF84C01C007002808D0FFE741F24A
:1041D0001840C4F202004FF48071016007E041F220
:1041E0001840C4F202004FF080710160FFE741F611
:1041F0001840C4F202004FF48001016040F2201028
:10420000C2F201004068529052985190FFE75198D5
:1042100001385190002801D0FFE7F8E740F6104040
:10422000C4F202000068C0F38000059041F6184017
:10423000C4F202004021016040F22010C2F20100ED
:104240004068509050984F90FFE74F9801384F903A
:10425000002801D0FFE7F8E705984000069008988D
:1042600080084E909DF83801C007002808D0FFE76D
:1042700041F21840C4F202004FF48071016007E07F
:1042800041F21840C4F202004FF080710160FFE774
:1042900041F61840C4F202004FF48001016040F280
:1042A0002010C2F2010040684D904D984C90FFE7FD
:1042B0004C9801384C90002801D0FFE7F8E740F611
:1042C0001040C4F202000068C0F38000059041F67F
:1042D0001840C4F202004021016040F22010C2F2F6
:1042E000010040684B904B984A90FFE74A9801388C
:1042F0004A90002801D0FFE7F8E70598069908439F
:1043000006900898C00849909DF82401C00700282D
:1043100008D0FFE741F21840C4F202004FF4807168
:10432000016007E041F21840C4F202004FF08071D2
:104330000160FFE741F61840C4F202004FF480012B
:10434000016040F22010C2F2010040684890489895
:104350004790FFE7479801384790002801D0FFE7D2
:10436000F8E740F61040C4F202000068C0F3800095
:10437000059041F61840C4F202004021016040F26D
:104380002010C2F201004068469046984590FFE731
:10439000459801384590002801D0FFE7F8E70598D7
:1043A000069941EA800006900698012835D0FFE77B
:1043B00041F21840C4F202004FF40071016041F66E
:1043C0001840C4F202004FF48001016040F2201056
:1043D000C2F201004068449044984390FFE743983C
:1043E00001384390002801D0FFE7F8E741F6184074
:1043F000C4F202004021016040F22010C2F201002C
:104400004068429042984190FFE7419801384190BE
:10441000002801D0FFE7F8E7B6E29DF8200080070A
:10442000002840F14981FFE7002004901F200390FD
:10443000FFE70398002842D0FFE741F61840C4F296
:1044400002004FF48001016040F22010C2F201002E
:104450004068409040983F90FFE73F9801383F9078
:10446000002801D0FFE7F8E740F61040C4F2020050
:104470000068C0F38000059041F61840C4F20200C5
:104480004021016040F22010C2F2010040683E90DD
:104490003E983D90FFE73D9801383D90002801D0BF
:1044A000FFE7F8E70598049941EAC0700490049882
:1044B00040080490FFE7039801380390B9E740F201
:1044C0002010C2F20100817EC07E081A01380390DC
:1044D0000398002800F0A580FFE741F61840C4F2D9
:1044E00002004FF48001016040F22010C2F201008E
:1044F00040683C903C983B90FFE73B9801383B90EC
:10450000002801D0FFE7F8E740F61040C4F20200AF
:104510000068C0F38000059041F61840C4F2020024
:104520004021016040F22010C2F2010040683A9040
:104530003A983990FFE7399801383990002801D02E
:10454000FFE7F8E7039801380390FFE70398002896
:1045500032D0FFE741F61840C4F202004FF4800168
:10456000016040F22010C2F2010040683890389893
:104570003790FFE7379801383790002801D0FFE7E0
:10458000F8E741F61840C4F202004021016040F211
:104590002010C2F201004068369036983590FFE74F
:1045A000359801383590002801D0FFE7F8E7FFE79C
:1045B000039801380390C9E741F21840C4F20200A1
:1045C0004FF40071016041F61840C4F202004FF44C
:1045D0008001016040F22010C2F201004068349076
:1045E00034983390FFE7339801383390002801D096
:1045F000FFE7F8E741F61840C4F2020040210160ED
:1046000040F22010C2F2010040683290329831909E
:10461000FFE7319801383190002801D0FFE7F8E733
:104620003CE041F21840C4F202004FF40071016016
:1046300041F61840C4F202004FF48001016040F2DC
:104640002010C2F201004068309030982F90FFE7B0
:104650002F9801382F90002801D0FFE7F8E740F6A7
:104660001040C4F202000068C0F38000059041F6DB
:104670001840C4F202004021016040F22010C2F252
:10468000010040682E902E982D90FFE72D9801385C
:104690002D90002801D0FFE7F8E7FFE7059804997F
:1046A00041EAC07004900798002804D0FFE70498FE
:1046B00007990860FFE766E10798006804901F20EB
:1046C0000390FFE7039800284DD0FFE704982C9053
:1046D0009DF8B000C007002808D0FFE741F218405D
:1046E000C4F202004FF48071016007E041F218400B
:1046F000C4F202004FF080710160FFE741F61840FC
:10470000C4F202004FF48001016040F22010C2F2B6
:10471000010040682B902B982A90FFE72A980138D7
:104720002A90002801D0FFE7F8E741F61840C4F2CC
:1047300002004021016040F22010C2F201004068F6
:10474000299029982890FFE7289801382890002878
:1047500001D0FFE7F8E7049840080490FFE70398CA
:1047600001380390AEE740F22010C2F20100817ED2
:10477000C07E081A013803900398002800F0B58025
:10478000FFE7049827909DF89C00C007002808D0F8
:10479000FFE741F21840C4F202004FF4807101605B
:1047A00007E041F21840C4F202004FF0807101604E
:1047B000FFE741F61840C4F202004FF480010160A7
:1047C00040F22010C2F20100406826902698259001
:1047D000FFE7259801382590002801D0FFE7F8E78A
:1047E00041F61840C4F202004021016040F220105E
:1047F000C2F201004068249024982390FFE7239898
:1048000001382390002801D0FFE7F8E7039801382A
:104810000390FFE70398002832D0FFE741F61840E5
:10482000C4F202004FF48001016040F22010C2F295
:1048300001004068229022982190FFE721980138DA
:104840002190002801D0FFE7F8E741F61840C4F2B4
:1048500002004021016040F22010C2F201004068D5
:10486000209020981F90FFE71F9801381F90002884
:1048700001D0FFE7F8E7FFE7039801380390C9E7A5
:1048800041F21840C4F202004FF40071016041F699
:104890001840C4F202004FF48001016040F2201081
:1048A000C2F2010040681E901E981D90FFE71D98FF
:1048B00001381D90002801D0FFE7F8E741F61840C5
:1048C000C4F202004021016040F22010C2F2010057
:1048D00040681C901C981B90FFE71B9801381B90A8
:1048E000002801D0FFE7F8E74CE041F21840C4F29D
:1048F00002004FF40071016004981A909DF868005E
:10490000C007002808D0FFE741F21840C4F20200B7
:104910004FF48071016007E041F21840C4F20200D8
:104920004FF080710160FFE741F61840C4F20200C9
:104930004FF48001016040F22010C2F20100406893
:10494000199019981890FFE71898013818900028C6
:1049500001D0FFE7F8E741F61840C4F20200402119
:10496000016040F22010C2F20100406817901798D1
:104970001690FFE7169801381690002801D0FFE73F
:10498000F8E7FFE7FFE7FFE741F61840C4F202004F
:104990004FF48001016040F22010C2F20100406833
:1049A000159015981490FFE714980138149000287A
:1049B00001D0FFE7F8E741F61840C4F202004021B9
:1049C000016040F22010C2F2010040681390139879
:1049D0001290FFE7129801381290002801D0FFE7EB
:1049E000F8E741F21840C4F202004FF00071016094
:1049F00041F61840C4F202004FF48001016040F219
:104A00002010C2F201004068119011981090FFE749
:104A1000109801381090002801D0FFE7F8E741F620
:104A20001840C4F202004021016040F22010C2F29E
:104A3000010040680F900F980E90FFE70E98013824
:104A40000E90002801D0FFE7F8E701200D909DF8B7
:104A50003400C007002808D0FFE741F21840C4F234
:104A600002004FF48071016007E041F21840C4F287
:104A700002004FF080710160FFE79DF82000000602
:104A8000002809D5FFE703F09BF840F2201EC2F290
:104A9000010ECEF80800FFE740F22010C2F201003C
:104AA000007B0390FFE70398411E039100282ED05E
:104AB000FFE741F61840C4F202004FF480010160A4
:104AC00040F22010C2F2010040680C900C980B904C
:104AD000FFE70B9801380B90002801D0FFE7F8E7BB
:104AE00041F61840C4F202004021016040F220105B
:104AF000C2F2010040680A900A980990FFE70998FD
:104B000001380990002801D0FFE7F8E7CBE79DF8CE
:104B1000180064B080BD0000C0B00146029041F2B0
:104B20001840C4F202004FF40072026041F61840CF
:104B3000C4F202004FF48002026040F22010C2F280
:104B4000010040683F903F983E900091FFE73E98FB
:104B500001383E90002801D0FFE7F8E741F6184001
:104B6000C4F202004021016040F22010C2F20100B4
:104B700040683D903D983C90FFE73C9801383C9060
:104B8000002801D0FFE7F8E741F21840C4F2020024
:104B90004FF00071016041F61840C4F202004FF47A
:104BA0008001016040F22010C2F2010040683B9099
:104BB0003B983A90FFE73A9801383A90002801D0A4
:104BC000FFE7F8E741F61840C4F202004021016017
:104BD00040F22010C2F201004068399039983890B4
:104BE000FFE7389801383890002801D0FFE7F8E750
:104BF00041F61840C4F202004FF48001016040F217
:104C00002010C2F201004068379037983690FFE7D5
:104C1000369801383690002801D0FFE7F8E741F6D2
:104C20001840C4F202004021016040F22010C2F29C
:104C300001004068359035983490FFE7349801388A
:104C40003490002801D0FFE7F8E740F22010C2F2CC
:104C50000100C07E0190FFE70198002832D0FFE7F5
:104C600041F61840C4F202004FF48001016040F2A6
:104C70002010C2F201004068339033983290FFE771
:104C8000329801383290002801D0FFE7F8E741F66A
:104C90001840C4F202004021016040F22010C2F22C
:104CA00001004068319031983090FFE7309801382A
:104CB0003090002801D0FFE7F8E7FFE701980138BE
:104CC0000190C9E700202F909DF8BC00C007002884
:104CD00008D0FFE741F21840C4F202004FF480719F
:104CE000016007E041F21840C4F202004FF0807109
:104CF0000160FFE741F61840C4F202004FF4800162
:104D0000016040F22010C2F2010040682E902E98FF
:104D10002D90FFE72D9801382D90002801D0FFE756
:104D2000F8E741F61840C4F202004021016040F269
:104D30002010C2F2010040682C902C982B90FFE7C5
:104D40002B9801382B90002801D0FFE7F8E741F6B7
:104D50001840C4F202004FF48001016040F22010BC
:104D6000C2F2010040682A902A982990FFE729980A
:104D700001382990002801D0FFE7F8E741F61840F4
:104D8000C4F202004021016040F22010C2F2010092
:104D90004068289028982790FFE7279801382790A7
:104DA000002801D0FFE7F8E741F61840C4F20200FE
:104DB0004FF48001016040F22010C2F2010040680F
:104DC000269026982590FFE7259801382590002801
:104DD00001D0FFE7F8E741F61840C4F20200402195
:104DE000016040F22010C2F2010040682490249833
:104DF0002390FFE7239801382390002801D0FFE794
:104E0000F8E71F200190FFE7019800284DD0FFE749
:104E1000029822909DF88800C007002808D0FFE77C
:104E200041F21840C4F202004FF48071016007E0C3
:104E300041F21840C4F202004FF080710160FFE7B8
:104E400041F61840C4F202004FF48001016040F2C4
:104E50002010C2F201004068219021982090FFE7C5
:104E6000209801382090002801D0FFE7F8E741F6AC
:104E70001840C4F202004021016040F22010C2F24A
:104E8000010040681F901F981E90FFE71E98013890
:104E90001E90002801D0FFE7F8E702984008029032
:104EA000FFE7019801380190AEE740F22010C2F20E
:104EB0000100817EC07E081A013801900198002807
:104EC00000F0B580FFE702981D909DF87400C007C0
:104ED000002808D0FFE741F21840C4F202004FF466
:104EE0008071016007E041F21840C4F202004FF007
:104EF00080710160FFE741F61840C4F202004FF4F0
:104F00008001016040F22010C2F2010040681C9054
:104F10001C981B90FFE71B9801381B90002801D0BC
:104F2000FFE7F8E741F61840C4F2020040210160B3
:104F300040F22010C2F2010040681A901A981990AD
:104F4000FFE7199801381990002801D0FFE7F8E72A
:104F5000019801380190FFE70198002832D0FFE75F
:104F600041F61840C4F202004FF48001016040F2A3
:104F70002010C2F201004068189018981790FFE7BF
:104F8000179801381790002801D0FFE7F8E741F69D
:104F90001840C4F202004021016040F22010C2F229
:104FA00001004068169016981590FFE71598013893
:104FB0001590002801D0FFE7F8E7FFE701980138D6
:104FC0000190C9E741F21840C4F202004FF40071A9
:104FD000016041F61840C4F202004FF48001016004
:104FE00040F22010C2F2010040681490149813900F
:104FF000FFE7139801381390002801D0FFE7F8E786
:1050000041F61840C4F202004021016040F2201035
:10501000C2F201004068129012981190FFE71198B7
:1050200001381190002801D0FFE7F8E74CE041F289
:105030001840C4F202004FF4007101600298109011
:105040009DF84000C007002808D0FFE741F2184053
:10505000C4F202004FF48071016007E041F2184091
:10506000C4F202004FF080710160FFE741F6184082
:10507000C4F202004FF48001016040F22010C2F23D
:10508000010040680F900F980E90FFE70E980138CE
:105090000E90002801D0FFE7F8E741F61840C4F26F
:1050A00002004021016040F22010C2F2010040687D
:1050B0000D900D980C90FFE70C9801380C9000288B
:1050C00001D0FFE7F8E7FFE741F61840C4F202001D
:1050D0004FF48001016040F22010C2F201004068EC
:1050E0000B900B980A90FFE70A9801380A90002865
:1050F00001D0FFE7F8E741F61840C4F20200402172
:10510000016040F22010C2F2010040680990099845
:105110000890FFE7089801380890002801D0FFE7C1
:10512000F8E741F21840C4F202004FF0007101604C
:1051300041F61840C4F202004FF48001016040F2D1
:105140002010C2F201004068079007980690FFE720
:10515000069801380690002801D0FFE7F8E741F6ED
:105160001840C4F202004021016040F22010C2F257
:1051700001004068059005980490FFE70498013805
:105180000490002801D0FFE7F8E7012003909DF884
:105190000C00C007002808D0FFE741F21840C4F215
:1051A00002004FF48071016007E041F21840C4F240
:1051B00002004FF080710160FFE740B070470000CF
:1051C00083B00146029046F6E950C2F2010002782F
:1051D00001320270027802F00F02027040F2741085
:1051E000C2F201000078024601280191009208D025
:1051F000FFE7009802280BD0FFE7009803281FD094
:105200004DE01820C4F202004FF48061016063E0B9
:1052100046F6E950C2F2010000788007002807D561
:10522000FFE71820C4F202004FF08061016006E041
:105230001820C4F202004FF480610160FFE74BE0E8
:1052400046F6E950C2F201000078C007002807D0F6
:10525000FFE71820C4F202004FF08061016006E011
:105260001820C4F202004FF480610160FFE746F6A7
:10527000EA50C2F20100017801310170C8B203287E
:105280000CDBFFE746F6EA50C2F201000021017094
:1052900040F27410C2F201000170FFE71CE046F614
:1052A000E950C2F201000078012807DBFFE718206F
:1052B000C4F202004FF08061016006E01820C4F2E1
:1052C00002004FF480610160FFE740F27410C2F207
:1052D000010000210170FFE703B0704710B500F135
:1052E000280151E8002F12B9BFF32F8F04E0531E9D
:1052F00041E8003404B1F4E782B12C3001210AE026
:10530000821CD2E84F3FC2E8441F04B1F9E71A06F5
:1053100008BF10BD083000680028F1D1002010BD82
:1053200010B584465CF8303F8BB1CA784FF0000E60
:1053300005E01C46DB7893420ED26368A646002B3C
:10534000F7D10022C1E9012E00F12C0208E0002271
:10535000C1E90122C16209E0C1E9014E04F108027C
:105360001160BEF1000F18BF0EF1040CCCF8001054
:10537000283050E8001F4A1C40E8002303B1F8E73A
:1053800010BDD1E90123002A0EBFC36293608B6870
:10539000191D002B08BF00F130010A6070470000A2
:1053A0001A480068704700BF19480178012905D1E3
:1053B0000021017004484FF08061016013480168CA
:1053C00041F001010160704704ED00E04FF0FF3053
:1053D0007047000040B10B490968B1FBF0F0411E75
:1053E0000020B0EB116F02D04FF0FF307047064A3B
:1053F000FF231370054A062313605160044990602F
:10540000087070471000012023ED00E010E000E07C
:105410007C0101201420C4F20400016840680840A7
:1054200004F0E2BCF0B587B043F6300640F2004429
:1054300005468707C4F20206C4F2020431D0E80729
:1054400016D0306801A940F002003060306800F0EA
:105450000200019001984FF4004001900220029058
:105460000020CDE903000C2005902046FCF726FF24
:10547000002F16D5306801A940F002003060306876
:1054800000F00200069006984FF480400190022040
:1054900002900020CDE903000C2005902046FCF787
:1054A0000DFFE80616D5306801A940F00200306013
:1054B000306800F00200069006984FF4805001908A
:1054C000022002900020CDE903000C200590204628
:1054D000FCF7F4FE07B0F0BD70B540F2004405469D
:1054E0008607C4F202040DD0E80704D04FF400414F
:1054F0002046FCF75FFE002E04D54FF48041204685
:10550000FCF758FEE80600D470BD4FF480512046E9
:10551000BDE87040FCF74EBE80B5E2B00A460346D7
:105520000B900A910020069001200C909DF830000D
:10553000C00700280492039308D0FFE741F2184007
:10554000C4F202004FF40071016007E041F218401C
:10555000C4F202004FF000710160FFE741F618400D
:10556000C4F202004FF48001016040F22010C2F248
:1055700001004068239023982290FFE72298013889
:105580002290002801D0FFE7F8E741F61840C4F266
:1055900002004021016040F22010C2F20100406888
:1055A000619061986090FFE76098013860900028F2
:1055B00001D0FFE7F8E70B98089008985F909DF8F6
:1055C0007C01C007002808D0FFE741F21840C4F270
:1055D00002004FF40071016007E041F21840C4F28C
:1055E00002004FF000710160FFE741F61840C4F27D
:1055F00002004FF48001016040F22010C2F201006D
:1056000040685E905E985D90FFE75D9801385D9020
:10561000002801D0FFE7F8E741F61840C4F2020085
:105620004021016040F22010C2F2010040685C900D
:105630005C985B90FFE75B9801385B90002801D095
:10564000FFE7F8E708980699084406900B98400889
:10565000089008985A909DF86801C007002808D063
:10566000FFE741F21840C4F202004FF400710160FC
:1056700007E041F21840C4F202004FF000710160EF
:10568000FFE741F61840C4F202004FF480010160C8
:1056900040F22010C2F20100406859905998589089
:1056A000FFE7589801385890002801D0FFE7F8E745
:1056B00041F61840C4F202004021016040F220107F
:1056C000C2F201004068579057985690FFE75698ED
:1056D00001385690002801D0FFE7F8E708980699AE
:1056E000084406900B9880080890089855909DF8FB
:1056F0005401C007002808D0FFE741F21840C4F267
:1057000002004FF40071016007E041F21840C4F25A
:1057100002004FF000710160FFE741F61840C4F24B
:1057200002004FF48001016040F22010C2F201003B
:105730004068549054985390FFE753980138539021
:10574000002801D0FFE7F8E741F61840C4F2020054
:105750004021016040F22010C2F2010040685290E6
:1057600052985190FFE7519801385190002801D08C
:10577000FFE7F8E708980699084406900B98C008D8
:105780000890089850909DF84001C007002808D064
:10579000FFE741F21840C4F202004FF400710160CB
:1057A00007E041F21840C4F202004FF000710160BE
:1057B000FFE741F61840C4F202004FF48001016097
:1057C00040F22010C2F2010040684F904F984E9076
:1057D000FFE74E9801384E90002801D0FFE7F8E728
:1057E00041F61840C4F202004021016040F220104E
:1057F000C2F2010040684D904D984C90FFE74C98E4
:1058000001384C90002801D0FFE7F8E70898069986
:105810000844069006984B909DF82C01C00700287C
:1058200008D0FFE741F21840C4F202004FF40071C3
:10583000016007E041F21840C4F202004FF000712D
:105840000160FFE741F61840C4F202004FF4800106
:10585000016040F22010C2F2010040684A904A986C
:105860004990FFE7499801384990002801D0FFE7A7
:10587000F8E741F61840C4F202004021016040F20E
:105880002010C2F201004068489048984790FFE716
:10589000479801384790002801D0FFE7F8E700203B
:1058A00046909DF81801C007002808D0FFE741F294
:1058B0001840C4F202004FF40071016007E041F2A9
:1058C0001840C4F202004FF000710160FFE741F69A
:1058D0001840C4F202004FF48001016040F2201031
:1058E000C2F201004068459045984490FFE7449813
:1058F00001384490002801D0FFE7F8E741F618404E
:10590000C4F202004021016040F22010C2F2010006
:105910004068439043984290FFE742980138429094
:10592000002801D0FFE7F8E7012041909DF804012D
:10593000C007002808D0FFE741F21840C4F2020077
:105940004FF40071016007E041F21840C4F2020018
:105950004FF000710160FFE741F61840C4F2020009
:105960004FF48001016040F22010C2F20100406853
:10597000409040983F90FFE73F9801383F900028C3
:1059800001D0FFE7F8E741F61840C4F202004021D9
:10599000016040F22010C2F2010040683E903E9843
:1059A0003D90FFE73D9801383D90002801D0FFE78A
:1059B000F8E700203C903B903A90399038904FF4B3
:1059C0000071389139903A9003203B9041F20040A9
:1059D000C4F2020038A9FCF771FC40F22010C2F2B8
:1059E0000100007E0590FFE70598002832D0FFE710
:1059F00041F61840C4F202004FF48001016040F209
:105A00002010C2F201004068379037983690FFE7C7
:105A1000369801383690002801D0FFE7F8E741F6C4
:105A20001840C4F202004021016040F22010C2F28E
:105A300001004068359035983490FFE7349801387C
:105A40003490002801D0FFE7F8E7FFE70598013818
:105A50000590C9E741F61840C4F202004FF48001F6
:105A6000016040F22010C2F2010040683390339888
:105A70003290FFE7329801383290002801D0FFE7DA
:105A8000F8E741F61040C4F202000068C0B2C00955
:105A9000089041F61840C4F202004021016040F233
:105AA0002010C2F201004068319031983090FFE739
:105AB000309801383090002801D0FFE7F8E70898C7
:105AC000099041F61840C4F202004FF480010160D1
:105AD00040F22010C2F2010040682F902F982E90C3
